:100000000C9428160C9473740C949E740C94C974FC
:100010000C94F4740C941F750C944A750C947575BB
:100020000C94A0750C9456710C9456710C945671E6
:100030000C9459160C9459160C9459160C94D473AC
:100040000C9459160C9459160C9459160C94591674
:100050000C94356A0C9459160C9459160C94CB7563
:100060000C9459160C9464790C949A790C94591642
:100070000C9459160C9459160C9459160C94591644
:100080000C9459160C9459160C9459160C94591634
:100090000C940F7A0C94457A0C9459160C94646C59
:1000A0000C9459160C9459160C9459160C94591614
:1000B0000C9459160C9459160C9459160C94591604
:1000C0000C9459160C9459160C9459160C94BA7A2F
:1000D0000C94F07A0C9459160C94657B0C949B7BD1
:1000E0000C9459169F19BB19C319D019ED19041A8C
:1000F000141A4A1A6C1A301A0D1C411D4D1C151C7D
:10010000451D111C1D1C191C3D1C411C211C491D99
:10011000351C291C4D1D251C311C2D1C451C491C42
:10012000391C511C511D551D551C591C5D1C651C4D
:10013000591D5D1D611C791D7D1D191D1D1D211D74
:10014000251D291D2D1D8A1D311D351D391D3D1DE6
:10015000691C751D6D1C711C091C8A1DB11CB51C08
:10016000B91CBD1CC11CC51C611DAD1CCD1CC91C0E
:10017000D51CD91CDD1CE11CE51CE91C651DD11C2E
:10018000F11CED1CF91CFD1C011D051D091D0D1D9B
:10019000691DF51C151D111D751C811D811C851CFB
:1001A0008D1C6D1D791C7D1C891C8A1D911C851D53
:1001B0009D1CA11CA91C711D951C991CA51C4520EA
:1001C00042205120542048204B204E2063206320A1
:1001D0005A2057206320632063206320632063201C
:1001E00063206320632063206320632063205D20FD
:1001F00099259C25A325A625A925AC25AF25B225A3
:10020000B525B8257C29F6297C29CD29F629F6299A
:10021000F629F629F629F629F629F629F629F629E6
:10022000F629F629F629F629F629F629DA280029E9
:10023000F6297C2954292B295429A929272A052B59
:10024000D62BC22CE72C212D212D212D212D212D26
:10025000212D4D2AB02A212D212D212D212D212D79
:10026000212D212D212D852B7C367E36813683361E
:10027000853688368A368C368F36F047E0470E480A
:100280003048FF47F8470A48DC47DE554456D25508
:10029000C455415644564456445644564456445612
:1002A000445644564456445644564456445644567E
:1002B0004456215631564456DE55BC550956A8556C
:1002C0009A55E955EB55ED55EF55F155F155F45566
:1002D000F455845B9A5BA15BB75B925B8C5B6B5B59
:1002E000675B015C015C015C015C015C015C015CC1
:1002F000015C015C015C015C015C015C015C015C16
:10030000015CE65B465D475D4D5D4F5D495D4B5D64
:10031000505D525D545D5463A3637E636B63C16340
:10032000C1634C63C1634C63C1634C634C634C63F6
:10033000C1634C634C634D7417741F742B74387411
:100340005974667427772A7719771D772377617731
:100350002E77327738773C77407746774A774E77F3
:100360006177547758775C775041544348207061E7
:10037000676535005341564500300030006D004739
:10038000455420007542616E6B3A003D3D3E006D64
:1003900042616E6B3A0047455420494E4954204F04
:1003A00052472045445420534156003000440043F6
:1003B00000420041005041544348202000204F4E4D
:1003C000004F4646004C464F204D44452053524373
:1003D00045204C4147205254470053504400414D62
:1003E00050204B424400414D5020505253004C4647
:1003F0004F20524D5032004C464F20524D5031004C
:100400004F4E20004F4E20004F4E20004F4E2000F8
:10041000312020204F4646204F4646204F4646205A
:10042000204F46460044434F20424E442056494206
:1004300020504F5254204B424400545241434B47AA
:10044000454E2D494E5055543A20007C00524D5097
:1004500020535044205452474D4F44457C54474903
:100460004E004253205352432020444553542020F1
:100470002020414D4E54004F4E20004F4646004B29
:100480004559422D4D4F444520554E492E4C454728
:1004900041544F00504F5254414D4F444520205637
:1004A000454C4F2052415445004F4E20004F464688
:1004B0000053454E4420535953455820200053457E
:1004C0004E442043434F4E54524C0046494C5445F1
:1004D00052204652455120205355535441494E0015
:1004E0002020202000736E640056434120414D546B
:1004F0002056454C3020454E5632004F4E20004F7E
:100500004E20004F4E20004F4E20004F4646204FB9
:100510004646204F464620204F46462020202000B9
:10052000424E44205649422050525441204B4244AE
:100530002020202000454E5620545249474745521E
:100540004D4F444520204C464F00454E5620444CCC
:100550005920414D502052454C2D4D4F44450045AA
:1005600056332041544B20444543202053555320BB
:1005700052454C00456469744E616D65003A003027
:10058000002000202020200020444F200030003A8E
:100590000073746F726520696E003000424E4B200C
:1005A0005341564520504154434820004C464F206B
:1005B00056434120454E56205052544120524D50F2
:1005C0000044434F20464C5420454E56204B424455
:1005D000204D545258005379732047626C20416C6F
:1005E0006C0042616E6B0044756D70204374726CD8
:1005F00072204D656D6F203A20202000202D205460
:100600004F20444F202D2000434647203A20475298
:100610006F7550202870616765203429004E6F2067
:1006200000596573004F4E20004F4646004E4F5212
:1006300000494E56002D2D2D00556B6E006D5467F0
:100640000054726700733234004D69640042504DAB
:100650002053524320454E43202053544E205843AC
:100660004300202E2000202A2000506431205064B6
:100670003220204C7631204C763220456E61004D80
:10068000314B004D3620004D314B004D3620004D92
:10069000314B004D3620004D314B004D362000438C
:1006A000482020413A2020423A202020433A20206E
:1006B000443A2000536E6400414D50204D4F442079
:1006C000414D4E5420424E442047424C00476574F1
:1006D00000535044204D4F4420414D4E542057412B
:1006E000562047424C00564942204D4944204D492E
:1006F00053432047525020444D5000434F4E4649EB
:10070000475552453A20202020202020202020003C
:10071000412F5300532F41005345542053504C5404
:1007200020547241205472532053455100202E20F2
:1007300000202A20004E6F200059657300202E20D3
:1007400000202A20002D2D2D006D54670054726763
:1007500000733234004D69640042504D20414354CF
:1007600020544852552047525620484C44002020DF
:1007700020200054696520005265737400456E6442
:10078000002020200020007400202E2000203E2089
:1007900000202E2000206F200031362F3100382F0E
:1007A0003100342F3100322F312000312F31200021
:1007B000332F322000312F322000312F3300312FE0
:1007C0003400312F36007472670053504420524574
:1007D0004320504C415920522F54205374500078DC
:1007E00000324D657300314D657300332F312000A9
:1007F000322F312000332F322000312F31200031B1
:100800002F322000312F332000312F342000312FA0
:10081000362000312F382000312F313200747267BA
:1008200000313C3C3300446E557000426E6344001E
:10083000313E3E330052616E64005570446E00429A
:100840006E636500446F776E0020557020004F7214
:1008500064720054595020444956204D4C54502045
:1008600047415420387661007265626F6F74696E1B
:100870006700737973657820747970652024007738
:10088000726974696E672053797374656D43666726
:100890002C20005D206F6E20696E7465726E616C35
:1008A00020454550524F4D2061646472203A202407
:1008B0000077726974696E6720476C6F62616C5073
:1008C0006172616D657465725B0050415443485FAD
:1008D000496E69742829200020755061746368206E
:1008E0003D2000526563616C6C204C617374207014
:1008F0006174636820696E74454550524F4D2061A4
:100900006464722000207542616E6B203D200052AD
:100910006563616C6C204C6173742062616E6B2046
:10092000696E74454550524F4D20616464722000D9
:10093000207061746368203D200053746F726520DD
:100940004C61737420706174636820696E744545EE
:1009500050524F4D2061646472200053746F726571
:10096000204C6173742062616E6B20696E74454522
:1009700050524F4D20616464722000577269746553
:100980002062616E6B20657874454550524F4D2052
:100990003A200020656E6400200070617463685F17
:1009A000737472756374757265203D206564697433
:1009B0006275666665725B5D203A20002070617426
:1009C0006368203D20002062616E6B203D2000574F
:1009D0007269746520706174636820746F20657833
:1009E00074454550524F4D00656E640020006564AB
:1009F0006974627566666572203D20706174636813
:100A00005F7374727563747572655B5D203A200064
:100A1000207061746368203D20002062616E6B204D
:100A20003D200052656164207061746368206672C5
:100A30006F6D20657874454550524F4D005061747C
:100A40006368204C6F616420657874454550524F4F
:100A50004D206D656D5F0050617463682053746F45
:100A6000726520657874454550524F4D207061671E
:100A7000696E67206F6666736574203D2000506163
:100A8000746368204C6F61642065787445455052EA
:100A90004F4D206D656D5F005061746368204C6F31
:100AA000616420657874454550524F4D20706167F0
:100AB000696E67206F6666736574203D20002000B4
:100AC0004D6174726978204374726C722000414CDD
:100AD000504553204D414348494E45532032303113
:100AE000362000456E64206F6620626F6F742E00A2
:100AF000426F6F74004D6174726978204374726C38
:100B000072207600120B0E0B0A0B506431004C76EB
:100B100032004F464600240B200B1C0B5064310062
:100B20004C7632004F464600480B440B400B3C0BC2
:100B3000380B340B4E4F490052414E005351520076
:100B4000445357005553570054524900530E4E0E0C
:100B5000490E440E3F0E3A0E350E300E2B0E260E69
:100B6000210E1C0E180E140E100E0C0E080E040E84
:100B7000000EFC0DF80DF40DF00DEC0DE80DE40D7C
:100B8000E00DDC0DD80DD40DD00DCC0DC80DC40D6D
:100B9000C00DBC0DB80DB40DB00DAC0DA80DA40D5D
:100BA000A00D9C0D980D940D900D8C0D880D840D4D
:100BB000800D7C0D780D740D700D6C0D680D640D3D
:100BC000600D5C0D580D540D500D4C0D480D440D2D
:100BD000400D3C0D380D340D300D2C0D280D240D1D
:100BE000200D1C0D180D140D100D0C0D080D040D0D
:100BF000000DFC0CF80CF40CF00CEC0CE80CE40C04
:100C0000E00CDC0CD80CD40CD00CCC0CC80CC40CF4
:100C1000C00CBC0CB80CB40CB00CAC0CA80CA40CE4
:100C2000A00C9C0C980C940C900C8C0C880C840CD4
:100C3000800C7C0C780C740C700C6C0C680C640CC4
:100C4000600C5C0C580C540C500C4C0C47392000B8
:100C50004623390046392000453920004423390015
:100C60004439200043233900433920004238200012
:100C700041233800413820004723380047382000FE
:100C800046233800463820004538200044233800E9
:100C900044382000432338004338200042372000E6
:100CA00041233700413720004723370047372000D2
:100CB00046233700463720004537200044233700BD
:100CC00044372000432337004337200042362000BA
:100CD00041233600413620004723360047362000A6
:100CE0004623360046362000453620004423360091
:100CF000443620004323360043362000423520008E
:100D00004123350041352000472335004735200079
:100D10004623350046352000453520004423350064
:100D20004435200043233500433520004234200061
:100D3000412334004134200047233400473420004D
:100D40004623340046342000453420004423340038
:100D50004434200043233400433420004233200035
:100D60004123330041332000472333004733200021
:100D7000462333004633200045332000442333000C
:100D80004433200043233300433320004232200009
:100D900041233200413220004723320047322000F5
:100DA00046233200463220004532200044233200E0
:100DB00044322000432332004332200042312000DD
:100DC00041233100413120004723310047312000C9
:100DD00046233100463120004531200044233100B4
:100DE00044312000432331004331200042302000B1
:100DF000412330004130200047233000473020009D
:100E00004623300046302000453020004423300087
:100E1000443020004323300043302000422D312055
:100E20000041232D3100412D31200047232D310079
:100E3000472D31200046232D3100462D312000451D
:100E40002D31200044232D3100442D312000432337
:100E50002D3100432D312000000000000000000073
:100E60000000000000000000000000000000000082
:100E70000000000000000000000000000000000072
:100E80000000000000000000000000000000000062
:100E900000000000000000003064308032643280C6
:100EA0003464348035643580376437803964398000
:100EB0003B643B803C6400003C643C803B643B8082
:100EC00039643980376437803564358034643480E0
:100ED0003264328030640000305029502950305044
:100EE0002950295031502950305029502950305024
:100EF00029502950315029502E50275027502E501C
:100F0000275027502F5027502E50275027502E5013
:100F1000275027502F50275043353C803E323C808D
:100F200041273C80432D3C8041313C803E333C8016
:100F30003C373C803E323C8043353C803E323C80F6
:100F400041273C80432D3C8041313C803E333C80F6
:100F50003C373C803E323C803C683C803E523E8088
:100F600041564180436843803E6800000000324A99
:100F70000000000000003E4A3C683C803E523E803B
:100F800041564180436843803E6800000000324A79
:100F90000000000000003E4A30393034303630372F
:100FA000373E373E3A363A373039303430363037DC
:100FB000373E373E3A363A373539353435363537B8
:100FC0003C3E3C3E3F363F3737393734373637378C
:100FD0003E3E3E3E413641373741373B3531352A7B
:100FE0003733373235353536373937403543372E95
:100FF00000000000000000003A2E3A29373B373944
:101000003A370000000000003C293C2E3A223A27E3
:101010003C43000000000000000000000000000051
:1010200000000000000000000000000000000000C0
:1010300000000000000000000000000000000000B0
:1010400000000000000000000000000000000000A0
:101050000000000000000000000000000000000090
:101060000000000000000000000000000000000080
:101070000000000000000000000000000000000070
:101080000000000000000000000000000000000060
:101090000000000000000000000000000000000050
:1010A0000000000000000000000000000000000040
:1010B0000000000000000000000000000000000030
:1010C0000000000000000000000000000000000020
:1010D00000000000000000004C464F3220535045F5
:1010E0004544202F4B42442000454E563320524564
:1010F0004C4541534520202020004C464F32204192
:101100004D50202F52414D50322000454E56332035
:101110004445434159202020202020004C464F3197
:1011200020414D50202F52414D50312000454E5608
:10113000332041545441434B2020202020004C4672
:101140004F31205350454544202F505253200045E5
:101150004E5633205355535441494E2020202000F1
:10116000454E563120414D50202F56454C4F2020A2
:1011700000454E563220414D504C4954554445206F
:101180002000454E563320414D504C49545544455E
:1011900020200044434F32205057202F4C464F32DE
:1011A0002020200044434F32205057202020202070
:1011B000202020200044434F3220444554554E45C2
:1011C00020202020200044434F3220574156452004
:1011D00053484150452000454E563120414D504C1A
:1011E000495455444520200044434F3220462F4C5B
:1011F000464F31202020202000554E49534F4E208D
:10120000444554554E452020200044434F3220464B
:10121000524551202020202020200044434F3120DF
:1012200050572020202020202020200044434F2001
:1012300042414C414E434520202020200044434F52
:1012400031205057202F4C464F3220202000504F45
:101250005254412052415445202020202020004457
:10126000434F3120574156452053484150452000B7
:10127000504F525441202F56454C4F2020202020C3
:1012800000564346204652455120435554202020C5
:10129000200056434620464D2F50525320202020F8
:1012A00020200044434F3120465245512020202029
:1012B00020202000564341202F454E56322020202A
:1012C000202020200044434F312046202F4C464F01
:1012D000312020202000564341202F56454C4F20DE
:1012E0002020202020200056434620464D202F4518
:1012F0004E563320202020004C464F32205350457C
:10130000454420202020202000454E5632205245C2
:101310004C4541534520202020004C464F3220416F
:101320004D504C4954554445202000454E563220DE
:101330004445434159202020202020004C464F3175
:1013400020414D504C4954554445202000454E56AF
:10135000322041545441434B2020202020004C4651
:101360004F31205350454544202020202020004567
:101370004E5632205355535441494E2020202000D0
:10138000454E56312052454C4541534520202020A2
:1013900000454E563120444543415920202020200D
:1013A0002000454E5631205355535441494E20207C
:1013B00020200044434F32205057202F4C464F32BC
:1013C0002020200044434F3220505720202020204E
:1013D000202020200044434F3220444554554E45A0
:1013E00020202020200044434F32205741564520E2
:1013F00053484150452000454E56312041545441F8
:10140000434B20202020200044434F322046202FF1
:101410004C464F312020202000554E49534F4E203E
:10142000444554554E452020200044434F32204629
:10143000524551202020202020200044434F3120BD
:1014400050572020202020202020200044434F20DF
:1014500042414C414E434520202020200044434F30
:1014600031205057202F4C464F322020200052412F
:101470004D5020312052415445202020202000444E
:10148000434F312057415645205348415045200095
:1014900052414D50203220524154452020202020DE
:1014A00000564346204652455120435554202020A3
:1014B00020005643462046202F5052532020202003
:1014C00020200044434F3120465245512020202007
:1014D0002020200056434620464D2020202020205A
:1014E000202020200044434F312046202F4C464FDF
:1014F000312020202000564346205245534F2020C3
:10150000202020202020005643462046202F454EF4
:1015100056312020202020001F1F1F1F1F1F1F1FAC
:101520001E1E1E1F1E1E1E1E1C1C1C1F1C1C1C1CE7
:101530001818181F181818181010101F1010101055
:101540000000001F000000002D2D2D2D2D2D2D2D14
:101550002D2D2D2D2D2D2D2DFF2D2D2D2D2D2D2DE9
:101560002D2D2D2D2D2D2D2DFFFF2D2D2D2D2D2D07
:101570002D2D2D2D2D2D2D2DFFFFFF2D2D2D2D2D25
:101580002D2D2D2D2D2D2D2DFFFFFFFF2D2D2D2D43
:101590002D2D2D2D2D2D2D2DFFFFFFFFFF2D2D2D61
:1015A0002D2D2D2D2D2D2D2DFFFFFFFFFFFF2D2D7F
:1015B0002D2D2D2D2D2D2D2DFFFFFFFFFFFFFF2D9D
:1015C0002D2D2D2D2D2D2D2DFFFFFFFFFFFFFFFFBB
:1015D0002D2D2D2D2D2D2D2DFFFFFFFFFFFFFFFFAB
:1015E000FF2D2D2D2D2D2D2DFFFFFFFFFFFFFFFFC9
:1015F000FFFF2D2D2D2D2D2DFFFFFFFFFFFFFFFFE7
:10160000FFFFFF2D2D2D2D2DFFFFFFFFFFFFFFFF04
:10161000FFFFFFFF2D2D2D2DFFFFFFFFFFFFFFFF22
:10162000FFFFFFFFFF2D2D2DFFFFFFFFFFFFFFFF40
:10163000FFFFFFFFFFFF2D2DFFFFFFFFFFFFFFFF5E
:10164000FFFFFFFFFFFFFF2D2D2D2D2D2D2D2D2D0C
:101650002D2D2D2D2D2D2DFF2D2D2D2D2D2D2D2DE8
:101660002D2D2D2D2D2DFF2D2D2D2D2D2D2D2D2DD8
:101670002D2D2D2D2DFF2D2D2D2D2D2D2D2D2D2DC8
:101680002D2D2D2DFF2D2D2D2D2D2D2D2D2D2D2DB8
:101690002D2D2DFF2D2D2D2D2D2D2D2D2D2D2D2DA8
:1016A0002D2DFF2D2D2D2D2D2D2D2D2D2D2D2D2D98
:1016B0002DFF2D2D2D2D2D2D2D2D2D2D2D2D2D2D88
:1016C000FF2D2D2D2D2D2D2D2D2D2D2D2D2D2DFFA6
:1016D0002D2D2D2D2D2D2D2D2D2D2D2D2D2DFF2D68
:1016E0002D2D2D2D2D2D2D2D2D2D2D2D2DFF2D2D58
:1016F0002D2D2D2D2D2D2D2D2D2D2D2DFF2D2D2D48
:101700002D2D2D2D2D2D2D2D2D2D2DFF2D2D2D2D37
:101710002D2D2D2D2D2D2D2D2D2DFF2D2D2D2D2D27
:101720002D2D2D2D2D2D2D2D2DFF2D2D2D2D2D2D17
:101730002D2D2D2D2D2D2D2DFF2D2D2D2D2D2D2D07
:101740002D2D2D2D2D2D2D2D2D2D2D2D2D2D2D2DC9
:10175000FF2D2D2D2D2D2D2D2D2D2D2D2D2D2D2DE7
:10176000FFFF2D2D2D2D2D2D2D2D2D2D2D2D2D2D05
:10177000FFFFFF2D2D2D2D2D2D2D2D2D2D2D2D2D23
:10178000FFFFFFFF2D2D2D2D2D2D2D2D2D2D2D2D41
:10179000FFFFFFFFFF2D2D2D2D2D2D2D2D2D2D2D5F
:1017A000FFFFFFFFFFFF2D2D2D2D2D2D2D2D2D2D7D
:1017B000FFFFFFFFFFFFFF2D2D2D2D2D2D2D2D2D9B
:1017C000FFFFFFFFFFFFFFFFFFFFFFFFFFFFFFFF29
:1017D0002D2D2D2D2D2D2D2D2DFFFFFFFFFFFFFF7B
:1017E0002D2D2D2D2D2D2D2D2D2DFFFFFFFFFFFF3D
:1017F0002D2D2D2D2D2D2D2D2D2D2DFFFFFFFFFFFF
:101800002D2D2D2D2D2D2D2D2D2D2D2DFFFFFFFFC0
:101810002D2D2D2D2D2D2D2D2D2D2D2D2DFFFFFF82
:101820002D2D2D2D2D2D2D2D2D2D2D2D2D2DFFFF44
:101830002D2D2D2D2D2D2D2D2D2D2D2D2D2D2DFF06
:101840002D2D2D2D2D2D2D2D971A861A751A641AD2
:10185000531A421A311A201A0F1AFE19ED19DC19FF
:10186000CB19BA19A9199819871976196519541934
:101870004319321921191019FF18EE18DD18CC1868
:10188000BB18AA1899188818205F4D41545249581E
:101890005F4420202020202000205F4D41545249E9
:1018A000585F4320202020202000205F4D415452CB
:1018B00049585F4220202020202000205F4D4154C5
:1018C0005249585F41202020202020002044434FCF
:1018D0003120434C49432020202020200020444335
:1018E0004F312057415645464F524D20200020444D
:1018F000434F2053594E43204D4F44452020002054
:1019000044434F312057415645464F524D20200009
:101910002044434F322057415645464F524D2020D8
:101920000020554E555345442044494E3232202024
:101930002000204C464F32205741564553484150D5
:10194000452000204C464F312057415645534841D1
:10195000504520002046322020202020202020201A
:101960002020202000204346472020202020202027
:1019700020202020200020414C5420202020202006
:101980002020202020200020554E5553454420443F
:10199000494E31362020200020504147452020204C
:1019A000202020202020202000204D415452495842
:1019B000204D4F44554C41544500204B4559424F12
:1019C000415244202020202020200020454E564512
:1019D0004C4F50455320202020202000205F4445BC
:1019E00043202020202020202020202000205F498C
:1019F0004E43202020202020202020202000204F87
:101A00005343494C4C41544F525320202020002036
:101A100046494C54455220202020202020202000E0
:101A2000205F53484946545F20202020202020205A
:101A30000020415250202020202020202020202043
:101A40002000204544495420202020202020202010
:101A50002020002050415443482053454C454354D6
:101A6000202020002044434F3220434C4943202073
:101A700020202020002044434F3220574156454625
:101A80004F524D20200020463120202020202020B1
:101A9000202020202020002044434F322057415650
:101AA00045464F524D202000080803000309090C49
:101AB000003F0A0A00003F0B0B00003F0C0C030024
:101AC000030D0D0300030E0E0C003F0F0F00003F2F
:101AD000101000003F111103000312120300031342
:101AE0001300003F14141F003F15150100031616C4
:101AF0000000011717010003181800000119190050
:101B000000031A1A7F007F1B1B00003F1C1C0000F3
:101B1000031D1D0000031E1E00003F1F1F3F003F4E
:101B2000202000003F212100000322220000012389
:101B30002300003F24240000032525000001262661
:101B4000000006272700001F282803001429291F4A
:101B5000003F2A2A00003F2B2B0000032C2C000002
:101B6000012D2D0000062E2E0000202F2F03001423
:101B700030301F003F3131000003323200003F336C
:101B80003300003F34343F003F353500003F3636E8
:101B90000A003F37373F003F38380000013939002D
:101BA00000013A3A0000033B3B00003F3C3C000090
:101BB0003F3D3D3F003F3E3E3F003F3F3F0A003F2D
:101BC00040403F003F4141000003424200000343C8
:101BD00043000003444400003F454500003F4646A3
:101BE0003F003F474700003F48480A003F49493F00
:101BF000003F4A4A0000034B4B0000034C4C0400DA
:101C0000144D4D01003F4E4E0F003F4F4F1E003F01
:101C100050502E003F51513F003F52521F003F5342
:101C200053000003545432003F55550000035656EC
:101C300000007F575700007F585800007F59590017
:101C4000007F5A5A01007F5B5B00007F5C5C3F00B5
:101C50007F5D5D3F007F5E5E00007F5F5F00007F15
:101C6000606000007F616100007F626200007F634E
:101C70006300007F646400007F656500007F666626
:101C800000007F676700007F6868000014696900D2
:101C9000007F6A6A0000206B6B0000146C6C00000F
:101CA0007F6D6D0000206E6E0000146F6F00007F6E
:101CB00070700000207171000014727200007F7358
:101CC000730000207474000014757500007F767630
:101CD0000000207777000014787800007F79790081
:101CE00000207A7A0000147B7B00007F7C7C00005F
:101CF000207D7D0000147E7E00007F7F7F0000201D
:101D00008080000014818100007F82820000208397
:101D100083000014848400007F85850000204F42EA
:101D200045524845494D030C000003030C000003D5
:101D300003001F01000100007F000000003F0000C1
:101D4000000000000000031F0000000000031F004F
:101D500000003F000A3F00000000003F3F0A3F0034
:101D6000000000003F000A3F000004010F1E2E3F4C
:101D70001F0032000000000001003F3F0000000093
:101D80000000000000000000000000000000000053
:101D90000000000000000000000000000000000043
:101DA00000000000061FFD1EF41EEB1EE21ED91EE1
:101DB000D01EC71EBE1EB51EAC1EA31E9A1E911EAF
:101DC000881E7F1E761E6D1E641E5B1E521E491EDF
:101DD000401E371E2E1E251E1C1E131E0A1E011E0F
:101DE000F81DEF1DE61D504F5254414D544F004C0D
:101DF000464F322D414D50004C464F322D535044EA
:101E0000004C464F312D414D50004C464F312D5323
:101E1000504400454E56332D414D5000454E5633EB
:101E20002D524C5300454E56332D444B5900454ED0
:101E300056332D41544B00454E56332D444C5900DA
:101E4000454E56322D414D5000454E56322D524C86
:101E50005300454E56322D444B5900454E56322DB7
:101E600041544B00454E56322D444C5900454E5678
:101E7000312D414D5000454E56312D524C530045A9
:101E80004E56312D444B5900454E56312D41544B41
:101E900000454E56312D444C5900564341322D4C8D
:101EA000455600564341312D4C455600464C545240
:101EB0002D52455300464C54522D46525100464D2A
:101EC0002D414D4E5420004F53432D4D4958200075
:101ED0004F53322D57534850004F53322D504C53CF
:101EE00057004F53322D46524551004F53312D5715
:101EF000534850004F53312D504C5357004F5331DE
:101F00002D46524551002D2D2D2D2D2D2D2D002FDF
:101F10001F271F1F1F171F45585447415445004591
:101F2000585445524E20004D554C544920200053E2
:101F3000494E474C4520005A1F511F481F3F1F5212
:101F40004541532F524F4200554E49534F4E20208A
:101F500000524F54415445202000524541535349AB
:101F6000474E00891F7F1F751F6B1F4558504F4EEE
:101F7000454E5432004558504F4E454E5431004363
:101F80004F4E532D54494D4500434F4E532D535002
:101F9000454400AA1FA51FA01F9B1F2D2D2D2D00FE
:101FA0004C464F3100474C464F004E4F524D000CAF
:101FB000200120F61FEB1FE01FD51FCA1FBF1F45C2
:101FC000582B4D4C542B52535400455854524E2BC1
:101FD0004D4C544900455854524E2B5253455400D1
:101FE00045585445524E2020202000524553455418
:101FF0002B4D4C5449004D554C5449202020202055
:102000000052455345542020202020002D2D2D2DF9
:102010002D2D2D2D2D2D003A20312028201F20423E
:102020004F54482020202000465245452D52554E01
:10203000004441445220202020002D2D2D2D2D2DF7
:102040002D2D00D120CC20C720C220BD20B820B328
:1020500020AE20A920A4209F209A20952090208B9C
:1020600020862081207C20772072206D204C4556D0
:1020700033004C455632004C4556310050454432F1
:1020800000504544310050524553005256454C00D3
:1020900056454C4F0047415445005452414B005067
:1020A0004F5254004B45594200524D503200524D50
:1020B00050310056494252004C464F32004C464F78
:1020C0003100454E563300454E563200454E56318E
:1020D000002D2D2D2D00EA20E620E220DE2045589F
:1020E00054004D4C540053474C002D2D2D002921F8
:1020F00018210721F6202048415244455220202033
:102100002020202020200020484152442020202050
:10211000202020202020200020534F465420202023
:10212000202020202020202000204F464620202054
:1021300020202020202020202000AE219D218C2145
:102140007B216A215921482153414D504C4544205F
:102150004D4F44554C415445004E4F495345202066
:102160002020202020202020200052414E444F4D8E
:102170002020202020202020202000535155415293
:10218000452020202020202020202000444F574E92
:10219000205341572020202020202020005550206F
:1021A000534157202020202020202020200054525E
:1021B00049414E474C45202020202020202000D49B
:1021C00021C321204F4E202020202020202020200D
:1021D00020202000204F46462020202020202020A4
:1021E00020202020006C225B224A2239222822173C
:1021F000220622F521204E4F495345202020202041
:10220000202020202000204E4F4953452020202010
:1022100020202020202000204E4F49534520202000
:102220002020202020202000204E4F4953452020F0
:102230002020202020202020002057415645202605
:102240002050554C53452020200020574156452012
:1022500020202020202020202020002050554C53DA
:10226000452020202020202020202000204F4646EE
:1022700020202020202020202020202000010001DC
:102280007614E60000010000010000010100013B9E
:10229000246003000603000600000A000005050193
:1022A00060010104030117000003000000000001A9
:1022B0000000010301300000200715F614E514D4D6
:1022C00014C314B214A11490147F146E145D144C32
:1022D000143B142A1419140814F713E613D513C465
:1022E00013B313A213911380136F135E134D133C9A
:1022F000132B131A130913F812E712D612C512B4CE
:1023000012A3129212811270125F124E123D122C01
:10231000121B120A12F911E811D711C611B511A436
:102320001193118211711160114F113E112D111C69
:10233000110B11FA10E910D810FFFFFFFFFFFFFF8C
:10234000FFFFFFFFFFFFFFFFFFFFFFFFFFFFFFFF9D
:10235000FFFFFFFFFFFFFFFFFFFFFFFFFFFFFFFF8D
:10236000FFFFFFFFFFFF182C2C200506003F00FF9A
:10237000FFFFFFFFFFFFFFFFFFFFFFFFFFFFFFFF6D
:10238000FF0C1414140806003F00010000090906A0
:10239000003F000205050A0A06003F000303030B85
:1023A0000B06003F000407070C0C020003000506A3
:1023B000060D0D02000300060A0A0E0E06003F007D
:1023C000070F0F0F0F06003F00080D0D101006003D
:1023D0003F000911111111020003000A101012121E
:1023E000030003000B0C0C131306003F00293939BE
:1023F0003114030007002A3232321506003F002B49
:102400003333331606003F002C3434341706003FB4
:10241000002D3535351806003F002E3636361906A4
:10242000003F002F3737371A06003F00303B3B385C
:102430001B02000300313A3A391C02000300324308
:10244000433A1D03000700333C3C3B1E06003F009F
:10245000FFFFFFFFFFFFFFFFFFFFFFFFFFFFFFFF8C
:10246000FFFF255C5C2D2103000700265D5D2E2209
:1024700005001F002762622F2305001F00285E5EF3
:10248000302406003F00192E2E2125020003004BA8
:1024900029295326020003004C2A2A542706003F0C
:1024A000004D2B2B552802000300343D3D3C2906EE
:1024B000003F00353E3E3D2A06003F00363F3F3E8E
:1024C0002B06003F003740403F2C06003F003841BC
:1024D00041402D06003F00394545412E02000300D2
:1024E0003A4444422F020003003B4D4D4330030069
:1024F00007003C4646443106003F003D4747453211
:1025000006003F003E4848463306003F003F494929
:10251000473406003F00404A4A483506003F004124
:102520004B4B493606003F00424F4F4A37020003EB
:1025300000434E4E4B38020003004421214C390524
:10254000001F004522224D3A06003F004623234E3D
:102550003B06003F004724244F3C06003F0048252F
:1025600025503D06003F00492626513E06003F000B
:102570004A2828523F06003F00FFFFFFFFFFFFFFF2
:10258000FFFF1A2F2F224101000100FFFFFFFFFF75
:10259000FFFFFFFFFFFFFFFFFFFFFFFFFFFFFFFF4B
:1025A000FFFFFFFFFFFFFFFFFFFFFFFFFFFFFF4EEC
:1025B0000101564603007F404F0404574703007F44
:1025C00040500B0B584803007F40510E0E594903F1
:1025D000007F405216165A4A03007F405317175B7C
:1025E0004B03007F40541C1C5C4C03007F40551D76
:1025F0001D5D4D03007F405638385E4E03007F401E
:102600005742425F4F03007F400E090916500100F8
:1026100001001013131851010001001D57572552D6
:10262000010001002461612C5301000100584C4C51
:10263000605403007F40595555615503007F405A4F
:102640005F5F625603007F405B2D2D635703007F61
:10265000405C1F1F645803007F405D2020655903C4
:10266000007F405E5151665A03007F405F5B5B67AD
:102670005B03007F40FFFFFFFFFFFFFFFFFFFFFF48
:10268000FFFFFFFFFFFFFF606060685E07007F00E5
:10269000003030085F02000300FFFFFFFFFFFFFF75
:1026A000FFFFFFFFFFFFFFFFFFFFFFFFFFFFFFFF3A
:1026B000FFFFFFFFFFFFFFFFFFFFFFFFFFFFFFFF2A
:1026C000FFFFFFFFFFFFFFFFFFFFFFFFFFFFFF0D0C
:1026D00008081566020003000F12121767020003B4
:1026E000001102021968020003001215151A690789
:1026F000007F001318181B6A06003F001419191CEC
:102700006B02000300151A1A1D6C02000300161E4E
:102710001E1E6D06003F00171B1B1F6E06003F00AC
:102720001B5050236F06003F001C565624700200B9
:1027300003001E52522671030007001F53532772D5
:1027400005001F00205858287305001F002154540D
:10275000297406003F00225A5A2A7506003F0023BA
:1027600060602B7602000300FFFFFFFFFFFFFFFF0B
:10277000FFFFFFFFFFFFFFFFFFFFFFFFFFFFFFFF69
:10278000FFFFFFFFFFFFFFFFFFFFFFFFFFFFFFFF59
:10279000FFFFFFFFFFFFFFFFFFFFFFFFFFFFFFFF49
:1027A000FFFFFFFFFFFFFFFFFFFFFFFFFFFFFFFF39
:1027B000FFFFFFFFFFFFFFFFFF0100000909060009
:1027C0003F004E0101564603007F40110202196886
:1027D000020003000303030B0B06003F004F040439
:1027E000574703007F400205050A0A06003F00051F
:1027F00006060D0D020003000407070C0C0200037F
:10280000000D08081566020003000E0909165001A4
:10281000000100060A0A0E0E06003F00500B0B587E
:102820004803007F400B0C0C131306003F00080DFB
:102830000D101006003F00510E0E594903007F4055
:10284000070F0F0F0F06003F000A101012120300AF
:1028500003000911111111020003000F1212176772
:10286000020003001013131851010001000C14148E
:10287000140806003F001215151A6907007F005260
:1028800016165A4A03007F405317175B4B03007F0D
:10289000401318181B6A06003F001419191C6B021C
:1028A000000300151A1A1D6C02000300171B1B1FE2
:1028B0006E06003F00541C1C5C4C03007F40551DFD
:1028C0001D5D4D03007F40161E1E1E6D06003F005D
:1028D0005C1F1F645803007F405D20206559030082
:1028E0007F404421214C3905001F004522224D3AEA
:1028F00006003F004623234E3B06003F00472424AA
:102900004F3C06003F00482525503D06003F00494A
:102910002626513E06003F004A2828523F06003F27
:10292000004B29295326020003004C2A2A5427066B
:10293000003F004D2B2B552802000300182C2C20A3
:102940000506003F005B2D2D635703007F40192EC5
:102950002E2125020003001A2F2F22410100010021
:10296000003030085F020003002A323232150600C0
:102970003F002B3333331606003F002C343434171A
:1029800006003F002D3535351806003F002E36363F
:10299000361906003F002F3737371A06003F00561A
:1029A00038385E4E03007F4029393931140300075F
:1029B00000313A3A391C02000300303B3B381B021D
:1029C000000300333C3C3B1E06003F00343D3D3CD1
:1029D0002906003F00353E3E3D2A06003F00363FB7
:1029E0003F3E2B06003F003740403F2C06003F0093
:1029F000384141402D06003F005742425F4F0300DF
:102A00007F403243433A1D030007003A4444422FBB
:102A100002000300394545412E020003003C4646B2
:102A2000443106003F003D4747453206003F003E27
:102A30004848463306003F003F4949473406003FB7
:102A400000404A4A483506003F00414B4B49360694
:102A5000003F00584C4C605403007F403B4D4D43B9
:102A60003003000700434E4E4B3802000300424F34
:102A70004F4A37020003001B5050236F06003F00EF
:102A80005E5151665A03007F401E52522671030068
:102A900007001F5353277205001F00215454297447
:102AA00006003F00595555615503007F401C56569E
:102AB0002470020003001D57572552010001002019
:102AC0005858287305001F00225A5A2A7506003FDD
:102AD000005F5B5B675B03007F40255C5C2D21032F
:102AE000000700265D5D2E2205001F00285E5E3077
:102AF0002406003F005A5F5F625603007F40236058
:102B0000602B7602000300606060685E07007F0053
:102B10002461612C53010001002762622F2305000C
:102B20001F0000000A0B02090C0D0E080703040128
:102B30000000000000000000000000000000000095
:102B40000000000000000000000000000000121162
:102B50001000000000000000000000000000000065
:102B600000000000000000000102102020080810F2
:102B700020401020408002010201080402010102ED
:102B800004081020408080402010080402018004C6
:102B90000201804020100804020108040201010221
:102BA0000408102040800102040810204080050520
:102BB0000505070508080808020202020A0A0808B3
:102BC00004040404010101010101010103030303E1
:102BD00003030303040707070C0C0C0C0C0C0C0C70
:102BE0000202020206060606060606060B0B0B0B81
:102BF0000B0B0B0B000020002300260029002C00EB
:102C00002F0032000001000003010601090100004D
:102C10002200250028002B002E0031003400020184
:102C20000000050108010B0100002100240027001D
:102C30002A002D00300033000101000004010701CB
:102C40000A0110667B6BCC79777A227BCD7BF866A4
:102C500011241FBECFEFD1E2DEBFCDBF00E00CBF1D
:102C600015E0A0E0B2E0E2EFF6E001E00BBF02C049
:102C700007900D92A030B107D9F727E1A0E0B5E0A9
:102C800001C01D92A53FB207E1F71CE2CEE4DCE2F1
:102C900000E006C022970109FE010BBF0E94AB8035
:102CA000C234D10780E00807A9F70E944E7E0C9439
:102CB00068830C94000081E08093540A80910C1486
:102CC000813019F48FEF8093390A089581E0809361
:102CD000540A08950C944C830C945483DC018D9118
:102CE0009C91DC01ED91FC910190F081E02D199413
:102CF0006D3F71053CF46A3F710554F4683F7105FE
:102D000041F406C09B012E5F31092230310508F4E1
:102D1000E5CF0895DC01ED91FC910190F081E02D6B
:102D20001994DC01ED91FC910190F081E02D199452
:102D30002FE088E190E00FB6F894A89580936000AA
:102D40000FBE20936000FFCFCF93DF93E091140577
:102D5000F0E0EF5CFD4F808182B90000E091140546
:102D6000F0E0EC55FD4FC081D0E0809121140E942D
:102D7000E976FE01EE0FFF1FE75CF44F918380833D
:102D8000E0911405F0E0EC55FD4FC085D0E0809156
:102D900020140E94E976FE01EE0FFF1FE75CF44F5E
:102DA00091838083E0911405F0E0EC55FD4FC089DC
:102DB000D0E080911F140E94E976FE01EE0FFF1F04
:102DC000E75CF44F91838083E0911405F0E0EC55CB
:102DD000FD4FC08DD0E080911E140E94E976FE0167
:102DE000EE0FFF1FE75CF44F91838083000080911A
:102DF00014058F5F883019F08093140502C010927B
:102E00001405DF91CF910895CF93DF93809117142C
:102E10008823B9F0E9EDFAE0C9E3DBE0A9EBBAE019
:102E20008191811108C08881998163E0959587958A
:102E30006A95E1F78C93229611968AE0E93FF807AC
:102E400079F7DF91CF910895CF93C091580A6C2FF5
:102E500082E494E10E94F569EC2FF0E0E758F54F29
:102E600091E0811101C090E090838091580A8F5FBA
:102E7000803219F08093580A02C01092580ACF91FC
:102E8000089540E060E08AE294E10E94276E6EECD3
:102E90007AE08AE294E10E944E7C41E060E08AE2BE
:102EA00094E10E94276E60EC7AE08AE294E10E944D
:102EB0004E7C67E572E08AE294E10E947F7C60EDDF
:102EC00077E080E090E00E9444768AE294E10C94FE
:102ED000216E1092540A80E090E0FCDE9FEF980F84
:102EE000903108F081E08093510A08956093430A7D
:102EF0008093440A1092500A10924F0A81E0809306
:102F0000420A08958093480A6093470A2093460A2C
:102F10004093450A1092500A10924F0A81E0809324
:102F20004E0A089580934A0A10924D0A10924C0A54
:102F300081E080934B0A089580910C148093CE0811
:102F4000809111148093CF0880912A0A8093D00831
:102F50008091300A8093D10880912D0A8093D20805
:102F6000809121058093D30880911F058093D40818
:102F700080911E058093D50880911D058093D60809
:102F8000809147058093D7088091320A8093D808B2
:102F9000809122058093D9088091310A8093DA08C4
:102FA00080912F0A8093DB0880912E0A8093DC08A1
:102FB0001092DD0880912B0A8093DE0880914005F5
:102FC0008093DF0880913D058093E008809146055D
:102FD0008093E1080895EAE1FAE0DF0111971C927D
:102FE000108232968AE0EA32F807B9F70895AEEC1B
:102FF000B8E08DE792E22C91FC013196E4912E1716
:1030000008F46EC0FC013296E491E21708F468C03F
:103010001196039628E0A23EB20769F7DCDF8091A3
:10302000CE0880930C148091CF088093111481E016
:103030009091D008911101C080E080932A0A80917C
:10304000D1088093300A81E09091D208911101C09B
:1030500080E080932D0A81E09091D308911101C006
:1030600080E0809321058091D40880931F05809192
:10307000D50880931E058091D60880931D05809108
:10308000D708809347058091D8088093320A8091B1
:10309000D908809322058091DA088093310A8091C3
:1030A000DB0880932F0A8091DC0880932E0A81E050
:1030B0009091DE08911101C080E080932B0A81E09D
:1030C0009091DF08911101C080E0809340058091CC
:1030D000E00880933D058091E108809346050895BE
:1030E000FC0124912C9394CF90912B0A992311F1F8
:1030F0009091510A49131EC09091290A9730D0F43B
:10310000213039F0911116C010922C0A1092EF085C
:10311000089531E030932C0A913021F41092EF0899
:103120001092E9088093350A6093360A4093370A73
:103130002093380A0895CF93DF935091290AC42F22
:10314000CC0FCC0F440F440F440F811104C080E01A
:1031500090E0D0E050C080E090E0D0E00296D5173B
:10316000B1F0BC01675F754FFB0132979C01275E90
:10317000354FD9011297AC91AC0FA452A40FA08384
:103180003196D90111972C912083DF5FE7CFA0E022
:10319000A51709F449C021E02A0F822FB0E0AA0F39
:1031A000BB1FA75FB54FED012196851711F19C91CB
:1031B000E82FF0E0EE0FFF1FE75FF54F3081391782
:1031C000B0F493279C9391813881932798839C91A5
:1031D00030819327908398813181932791839081C7
:1031E0003C9193279C9391813881932798838F5F9B
:1031F000DCCFA22FCDCF0296D517B1F0BC01675F0F
:10320000754FFB0132979C01275E354FD90112970C
:10321000AC91AC0FA452A40FA0833196D9011197A1
:103220002C912083DF5FE7CFDF91CF9108959091BC
:10323000F008292F30E0F901EE0FFF1FE20FF31F16
:10324000EF50F74F8083618342839F5F9093F00834
:1032500008959091290A973008F05DC0213041F11E
:1032600018F02330B1F1089520912D0A2111DFCFFC
:10327000E9E1FAE020E03081381315C0921708F434
:1032800042C0E22FF0E0DF01AA0FBB1FA55EB54FE1
:103290008C91EE0FFF1FE75EF54F808311968C91A6
:1032A00081832F5FEBCF2F5F3296921720F708951F
:1032B0002091190A821303C060931A0A0895E92F16
:1032C000F0E0EE0FFF1FE75EF54F808361839F5FA5
:1032D0001BC0E9E1FAE020E03081381318C09217F2
:1032E00090F0E22FF0E0DF01AA0FBB1FA55EB54F03
:1032F0008C91EE0FFF1FE75EF54F808311968C9146
:1033000081832F5FECCF91509093290A08952F5F0E
:103310003296921708F708959091290A992309F493
:10332000F8C09130B9F44091EC084F5F262F30E09F
:10333000842F90E0821793070CF4E9C008C08091B5
:10334000EC088F5F8093EC08861708F4E2C01092B7
:10335000EC08089590E08A30910540F08091EC08E7
:103360008F5F8093EC08861790F70895FC01EE5864
:10337000FF4F0C949B808091EC088F5F8093EC084A
:10338000861728F708958091EC08811105C02FEF6A
:10339000260F2093EC08089581508093EC0808953F
:1033A000909111058091EC08992321F08F5F809313
:1033B000EC080DC0811106C081E08093EC08809379
:1033C000110505C081508093EC0810921105809181
:1033D000EC0886139EC02EEF72C0809111054091BB
:1033E000EC08882361F0842F90E0262F30E02150F4
:1033F00031098217930709F481C04F5F88C04423C5
:1034000009F466C0415083C0262F30E021503109B5
:10341000442737FD4095542F60E070E0CB010E94B7
:10342000A47D6093EC080895909111058091EC08BB
:10343000992311F08E5F01C081508093EC0881E0E8
:10344000982790931105E091EC08F0E0EE0FFF1F34
:10345000E75FF64F908191115CC01092EC0839C083
:103460008091EC08E82FF0E0EE0FFF1FE55FF64FCC
:103470009081911103C01092EC082AC0909111051F
:10348000911102C08E5F01C081508093EC0881E0F1
:1034900089271FC0809111054091EC08882361F0B5
:1034A00081E0840F8093EC08262F30E090E08217B3
:1034B00093077CF1415020C0411105C02FEF260F2A
:1034C0002093EC081BC041504093EC08411121C0EF
:1034D00081E0809311050895809111054091EC08D9
:1034E000882379F081E0840F8093EC08262F30E068
:1034F00090E0821793076CF04093EC08109211054E
:10350000089541504093EC08442311F308954093EB
:10351000EC0808950F931F93CF93DF9387E5809373
:10352000480889E4809349088AE580934A08809393
:103530004B0881E480934C0882E580934D0884E435
:1035400080934E0881E280934F0800E518E0C0E0C8
:10355000D0E0FE01E455F54E2491FE01E555F54E0F
:10356000649130E040E050E070E080E090E00E9444
:10357000A47DF80161938F012596C637F2E0DF073D
:1035800041F7DF91CF911F910F910895CF9385E07F
:1035900090E0A0DBC0910E0780FBC0F9C0930E073E
:1035A00086E090E097DB80FBC1F9C0930E0787E0CF
:1035B00090E090DB80FBC2F9C0930E0788E090E0BA
:1035C00089DB80FBC3F9C0930E07CF910895DC011E
:1035D000ED91FD918081ED91FD919081ED91FD91B5
:1035E0006C9163708E2309F064609F2309F068601A
:1035F000E4E0FBE1E60FF11D659565956D936D9136
:103600007D918D919D91099423C01AC012C016C05E
:1036100010C01EC009C014C013C006C019C009C024
:103620000DC007C00DC014C0625070408040904073
:103630000BC0615070408040904006C06E5F01C07A
:103640006F5F7F4F8F4F9F4F9E938E937E936E93AE
:10365000089580916A1590916B15B9CF8091681586
:1036600090916915B4CFCF93DF93CDB7DEB728978C
:103670000FB6F894DEBF0FBECDBFE0E4F5E1DE018A
:10368000119684918D93319685E1E834F807C9F756
:10369000AE014F5F5F4F60E08AE294E10E94EB6E03
:1036A000E8E3F5E1DE01119684918D93319685E191
:1036B000E034F807C9F7AE014F5F5F4F61E08AE27F
:1036C00094E10E94EB6EE0E3F5E1DE011196849156
:1036D0008D93319685E1E833F807C9F7AE014F5F66
:1036E0005F4F62E08AE294E10E94EB6EE8E2F5E16E
:1036F000DE01119684918D93319685E1E033F807D0
:10370000C9F7AE014F5F5F4F63E08AE294E10E9428
:10371000EB6EE0E2F5E1DE01119684918D93319636
:1037200085E1E832F807C9F7AE014F5F5F4F64E00B
:103730008AE294E10E94EB6EE8E1F5E1DE01119688
:1037400084918D93319685E1E032F807C9F7AE0197
:103750004F5F5F4F65E08AE294E10E94EB6E28962E
:103760000FB6F894DEBF0FBECDBFDF91CF910895A5
:103770002091261490E2299F90011124280F311DD9
:1037800085E0829FF001839FF00D1124EA5CFC4FDD
:1037900080810895CF932091261490E2299F900173
:1037A0001124280F311D85E0829FF001839FF00DC9
:1037B0001124EA5CFC4F83818230B9F028F488231D
:1037C00089F0813051F004C0833021F0843051F011
:1037D000C0E00CC0C0E4C60F03C0C62FC695C05AD7
:1037E000CF7704C0C62FC69501C0C62F4AE050E06F
:1037F0008DE795E10E946D7D8C2FCF91089590E02B
:103800008336910508F086C1FC01E458FF4F0C9403
:103810009B806093500888E07BC16093510889E0E9
:1038200077C1609352088AE073C1609353088BE0BC
:103830006FC1609354088CE06BC1609355088DE0B4
:1038400067C1609356088EE063C1609357088FE0AC
:103850005FC16093580880E15BC16093590881E1C2
:1038600057C160935A0882E153C160935B0883E1BA
:103870004FC160935C0884E14BC160935D0885E1B2
:1038800047C160935E0886E143C160935F0887E1AA
:103890003FC16093600888E13BC16093610889E1A2
:1038A00037C1609362088AE133C1609363088BE19A
:1038B0002FC1609364088CE12BC1609365088DE192
:1038C00027C1609366088EE123C1609367088FE18A
:1038D0001FC16093680880E21BC16093690881E2A0
:1038E00017C160936A0882E213C160936B0883E298
:1038F0000FC160936C0884E20BC160936D0885E290
:1039000007C160936E0886E203C160936F0887E287
:10391000FFC06093700888E2FBC06093710889E281
:10392000F7C0609372088AE2F3C0609373088BE279
:10393000EFC0609374088CE2EBC0609375088DE271
:10394000E7C0609376088EE2E3C0609377088FE269
:10395000DFC06093780880E3DBC06093790881E37F
:10396000D7C060937A0882E3D3C060937B0883E377
:10397000CFC060937C0884E3CBC060937D0885E36F
:10398000C7C060937E0886E3C3C060937F0887E367
:10399000BFC06093800888E3BBC06093810889E35F
:1039A000B7C0609382088AE3B3C0609383088BE357
:1039B000AFC0609384088CE3ABC0609385088DE34F
:1039C000A7C0609386088EE3A3C0609387088FE347
:1039D0009FC06093880880E49BC06093890881E45D
:1039E00097C060938A0882E493C060938B0883E455
:1039F0008FC060938C0884E48BC060938D0885E44D
:103A000087C060938E0886E483C060938F0887E444
:103A10007FC06093900888E47BC06093910889E43C
:103A200077C0609392088AE473C0609393088BE434
:103A30006FC0609394088CE46BC0609395088DE42C
:103A400067C0609396088EE463C0609397088FE424
:103A50005FC06093980880E55BC06093990881E53A
:103A600057C060939A0882E553C060939B0883E532
:103A70004FC060939C0884E54BC060939D0885E52A
:103A800047C060939E0886E543C060939F0887E522
:103A90003FC06093A00888E53BC06093A10889E51A
:103AA00037C06093A2088AE533C06093A3088BE512
:103AB0002FC06093A4088CE52BC06093A5088DE50A
:103AC00027C06093A6088EE523C06093A7088FE502
:103AD0001FC06093A80880E61BC06093A90881E618
:103AE00017C06093AA0882E613C06093AB0883E610
:103AF0000FC06093AC0884E60BC06093AD0885E608
:103B000007C06093AE0886E603C06093AF0887E6FF
:103B10008093E6060895FF920F931F93CF93DF9350
:103B2000F82E062F10E084E08F1550F1E80184E6AE
:103B3000F89EC00DD11D11244AE855E0BE0186EB68
:103B40009BE00E94856FAAE0B6E0EAE8F5E086E037
:103B5000EA30F80719F081918D93F9CF4AE855E0E2
:103B6000BE0183EA9BE00E94856FAAE8B6E0EAE81E
:103B7000F5E081918D9385E0E53EF807D1F730C0FF
:103B80002F2D30E02550310984E6829FE001839F8C
:103B9000D00D1124C00FD11F4AE855E0BE0180E9C5
:103BA0009BE00E94856FAAE0B6E0EAE8F5E086E0D7
:103BB000EA30F80719F081918D93F9CF4AE855E082
:103BC000BE018DE79BE00E94856FAAE8B6E0EAE8B7
:103BD000F5E081918D9385E0E53EF807D1F702C0CD
:103BE000CCE001C0C2E268E97AE08DE795E10E948D
:103BF0004E7CB80184E6F89E600D711D11244AE0E8
:103C000050E08DE795E10E94457D6EE77AE08DE713
:103C100095E10E944E7C4AE050E06C2F8DE795E1E3
:103C20000E946D7D8DE795E10E94877C80E0DF91A9
:103C3000CF911F910F91FF9008950F931F93CF93F2
:103C4000DF93082F162FEAE0F6E0AAE8B5E085300A
:103C500038F586E0EA38F80719F081918D93F9CFAD
:103C600084E6089FE0011124C10FD11D4AE855E008
:103C7000BE0186EB9BE00E941370EAE8F6E0AAE83A
:103C8000B5E081918D9386E0E53EF807D1F74AE8EB
:103C900055E0BE0183EA9BE00E941370CCE02CC08B
:103CA00086E0EA38F80719F081918D93F9CF202F3B
:103CB00030E02550310984E6829FE001839FD00DDA
:103CC0001124C10FD11D4AE855E0BE0180E99BE0F7
:103CD0000E941370EAE8F6E0AAE8B5E081918D93BE
:103CE00086E0E53EF807D1F74AE855E0BE018DE7EA
:103CF0009BE00E941370C2E267E57AE08DE795E1F0
:103D00000E944E7C84E6089FB0011124610F711D52
:103D10004AE050E08DE795E10E94457D6DE37AE051
:103D20008DE795E10E944E7C4AE050E06C2F8DE7D4
:103D300095E10E946D7D8DE795E10E94877C80E092
:103D4000DF91CF911F910F910895CF93C82FE8E491
:103D5000F8E0AAE0B6E081918D9388E0EE3CF807A8
:103D6000D1F78C2F6ADF6BE779E08DE795E10E9450
:103D70004E7C4AE050E06C2F8DE795E10E946D7D0E
:103D80008DE795E1CF910C94877CCF93DF93D82F6B
:103D9000C62F682F82E090E00E946C166C2F83E0A3
:103DA00090E00E946C166BE579E08DE795E10E944A
:103DB0004E7C4AE050E062E070E08DE795E10E94C1
:103DC0003E7D6DE572E08DE795E10E947F7C4AE0E3
:103DD00050E06D2F8DE795E10E946D7D6AE379E0FB
:103DE0008DE795E10E944E7C4AE050E063E070E090
:103DF0008DE795E10E943E7D60E379E08DE795E1F6
:103E00000E944E7C4AE050E06C2F8DE795E10E94C5
:103E10006D7D8DE795E1DF91CF910C94877CCF93F9
:103E2000DF93D82FC62FE8E4F8E0AAE0B6E081914E
:103E30008D9388E0EE3CF807D1F780912214882317
:103E400029F0809123148093900602C0109290066E
:103E500073D8EEECF8E0A1E9B6E081918D9388E0AB
:103E6000E23EF807D1F720E030E0F901E85BFA4FD5
:103E7000A901465F594FDA01A556BF4F80818C9347
:103E8000119681818C932E5F3F4F2034310569F765
:103E90006C2F8D2FD2DE6C2F8D2F77DF6FEC79E0BA
:103EA0008DE795E10E944E7C66EC79E08DE795E127
:103EB0000E944E7C4AE050E06D2F8DE795E10E9414
:103EC000677D6CEB79E08DE795E10E944E7C4AE0DE
:103ED00050E06C2F8DE795E10E946D7D6AE979E0F5
:103EE0008DE795E10E944E7CCAE0D6E0699140E101
:103EF00050E08DE795E10E94677D68E979E08DE704
:103F000095E10E944E7C86E0C039D80779F763E9D5
:103F100079E08DE795E10E948A7C8DE795E1DF915C
:103F2000CF910C94877C82E090E00E946A16809387
:103F3000170583E090E00E946A16809316056FE0F3
:103F400079E08DE795E10E944E7C4AE050E062E026
:103F500070E08DE795E10E943E7D65E079E08DE7B8
:103F600095E10E944E7C4AE050E0609117058DE794
:103F700095E10E946D7D63EE78E08DE795E10E940A
:103F80004E7C4AE050E063E070E08DE795E10E94EE
:103F90003E7D68ED78E08DE795E10E944E7C4AE039
:103FA00050E0609116058DE795E10E946D7D8DE7EB
:103FB00095E10C94877CEF92FF920F931F93CF9320
:103FC000DF93EEEFFEE00CE610E611830083CCE415
:103FD000D1E6D383C283A9EFB2E5B783A68364E1B8
:103FE00077E5718760874AE150E65387428722ED83
:103FF0003FE53587248788E699E5978786870F2EE2
:10400000F4EEEF2EFAE4FF2EF02DF18EE08E0F2E5F
:10401000FBE5EF2EF6E1FF2EF02DF38EE28E0F2E54
:10402000F6E6EF2EF6E1FF2EF02DF58EE48E0F2E44
:10403000FEECEF2EF2E2FF2EF02DF78EE68EE2E39D
:10404000F2E111830083D383C283B783A683718790
:104050006087538742873587248797878687DF91D4
:10406000CF911F910F91FF90EF90089580912E05B1
:1040700090E0FC013897E931F10528F5E152FF4F56
:104080000C949B8081E090E01AC082E090E017C021
:1040900083E090E014C084E090E011C085E090E0FF
:1040A0000EC08AE090E00BC08BE090E008C086E094
:1040B00090E005C087E090E002C08CE090E0909333
:1040C000310580933005089520912705309128050A
:1040D00040912E05453069F028F4443081F480E0A9
:1040E00090E00EC0463041F0473049F488E090E05F
:1040F00007C081E090E004C087E090E001C0C90102
:1041000081309105E9F450912B05511119C04C30C3
:1041100091F038F4483061F0493091F482E090E059
:104120000FC04D3059F04E3059F486E090E008C091
:1041300083E090E005C084E090E002C085E090E07C
:104140002817390711F010922B050895FC012081E2
:10415000222319F0261758F004C030912F05313072
:1041600031F026130BC030912F0537FF07C0309177
:104170002F05320FFC01308381E0089580E008951F
:10418000FC0180819FEF980F9E3358F1811108C088
:1041900090912F05913041F19F3F51F48FE71DC061
:1041A0008F3331F490912F059F3F11F48EE315C0AA
:1041B0009EEB980F9D33A8F08F3741F480912F0527
:1041C000813011F410820895815807C0813439F488
:1041D00080912F05813059F482E4808306C087FFE7
:1041E00006C090912F05980F908381E0089580E09C
:1041F000089520912205E22FF0E0EE0FFF1FE65E0A
:10420000FC4F808191819093340A8093330A2F3F31
:1042100019F48EEF80932205809122058F3F11F4CF
:10422000109222050895FC012081222319F02617FF
:1042300058F004C030912F05313031F0261324C0DE
:1042400030912F0537FF20C030912F05320FFC0130
:10425000308320912205E22FF0E0EE0FFF1FE65E93
:10426000FC4F808191819093340A8093330A21110D
:1042700003C081E080932205809122058F3F31F4B5
:104280008EEF8093220502C080E0089581E00895BA
:10429000EDEFF2E080E0A081B0E0A85BB74F9C9129
:1042A000992321F08F5F33968A30A9F70895CF9331
:1042B000DF9380912E058F3021F481E080932B05D0
:1042C00029C0893049F4809136058F5F8A3008F41F
:1042D00086C0109236051EC08E30E1F480913605FE
:1042E000282F30E0F901EE0FFF1FE20FF31FE4501B
:1042F000FD4FC281D0E0C85BD74FA181B0E0A85B81
:10430000B74FE081F0E0E85BF74F28814C91608186
:104310000E94821780912F05882309F463C0809141
:1043200030059091310582309105E9F034F4019720
:10433000C1F569E086E395E025C02091360583301C
:10434000910511F1059769F5822F90E0FC01EE0FC0
:10435000FF1FE80FF91FE450FD4F828190E0885B5A
:10436000974F0EDF1EC08091360590E0FC01EE0FE6
:10437000FF1FE80FF91FE450FD4F808190E064E1DA
:10438000885B974FE3DE0DC0822F90E0FC01EE0FBB
:10439000FF1FE80FF91FE450FD4F818190E060E2BC
:1043A000EFCF80913605282F30E0F901EE0FFF1F87
:1043B000E20FF31FE450FD4FC281D0E0C85BD74F3E
:1043C000A181B0E0A85BB74FE081F0E0E85BF74F78
:1043D00028814C916081DF91CF910C94821780935A
:1043E000360598CFDF91CF910895462F682F82E44C
:1043F00094E10C94A26960915508617082E0F5DF48
:1044000060915A08617087E0F0DF60915508669509
:10441000617081E0EADF60915A086695617086E01C
:10442000E4DF60915E08617080E0DFDF609160082A
:10443000617085E0DADF80915A0882FF04C082E073
:1044400080930F0702C010920F07809161088823A4
:1044500011F061E001C060E084E0C7CFCF93DF934B
:10446000EEE1FDE1C8E4D8E0A2ECB7E084918993E5
:1044700084918D9331968DE1E43AF807B9F7DF9195
:10448000CF91B9CF0F931F93CF93DF93082F162FA0
:1044900042DBC8E4D8E0A2ECB7E0EAE0F6E08191C4
:1044A00089938D9386E0E039F807C9F7809122144B
:1044B000882361F080919006803408F08FE3809328
:1044C0002314E1E9F6E0AEECB8E003C01092231447
:1044D000F8CF81918D9386E0E53AF807D1F70E94F5
:1044E000F71720E030E0A901465F594FF901E85B7A
:1044F000FA4FDA01A556BF4F8C91808311968C91AB
:1045000081832E5F3F4F2034310569F774DF63E20A
:104510007AE08DE795E10E944E7C6AE17AE08DE7D2
:1045200095E10E944E7C4AE050E0602F8DE795E1D6
:104530000E94677D60E17AE08DE795E10E944E7C04
:104540004AE050E0612F8DE795E10E946D7D6EEEAF
:1045500079E08DE795E10E944E7CCAE0D6E0699152
:1045600040E150E08DE795E10E94677D6CEE79E0D7
:104570008DE795E10E944E7C86E0C039D80779F737
:1045800068EE79E08DE795E10E948A7C8DE795E100
:10459000DF91CF911F910F910C94877C81E08093E4
:1045A000540A80910C14813031F488E18093390AE7
:1045B00060E086E11ACF089540E0682F82E494E13C
:1045C0000C94A26941E0682F82E494E10C94A26902
:1045D0008B30A9F018F48A3031F008958C30E1F076
:1045E0008D3041F1089588E0EDDF8BE0E5DF89E073
:1045F000E3DF8AE0E1DF80910E07817028C08BE065
:10460000E1DF88E0D9DF89E0D7DF8AE0D5DF80917C
:104610000E07869581701BC089E0D4DF88E0CCDF6F
:104620008BE0CADF8AE0C8DF80910E0782FB882713
:1046300080F90DC08AE0C6DF88E0BEDF8BE0BCDF1A
:1046400089E0BADF80910E0783FB882780F9809389
:104650000D070895EF92FF920F931F93CF93DF936F
:104660001F92CDB7DEB7F62E142F482F6EE082E4EE
:1046700094E129830E94A2694F2D6FE082E494E1C6
:104680000E94A269412F60E182E494E10E94A26944
:104690002981422F61E182E494E10E94A269402FC6
:1046A00062E182E494E10E94A2694E2D63E182E41A
:1046B00094E10F90DF91CF911F910F91FF90EF90B8
:1046C0000C94A269EF920F9384E176DF85E17ADFA3
:1046D00086E172DFE12C00E020E040E060E080E075
:1046E000B9DF87E169DF80912B05882311F083E131
:1046F00069DF80912705909128058430910591F01C
:104700003CF48230910561F00397A1F48FE00FC073
:104710008630910559F044F0089761F487E107C0AD
:104720008EE005C080E103C081E101C082E10F910C
:10473000EF9048CF0F91EF900895682F82E494E1B5
:104740000C948D6940910F05242F30E050916B0837
:104750008EE390E0851B91092817390724F44F5FF9
:1047600040930F050AC08AE1E8DF61E0813009F477
:1047700060E08AE13ADE10920F0540910E05242F89
:1047800030E0509172088EE390E0851B9109281764
:10479000390724F44F5F40930E0508958BE1CDDF78
:1047A00061E0813009F460E08BE11FDE10920E05BC
:1047B00008958091540A882331F061E08DE015DE80
:1047C0001092540A07C08DE0B8DF813019F460E020
:1047D0008DE00BDE80910B14882351F080910C1436
:1047E000833031F461E08CE000DE10920B1409C0DC
:1047F0008CE0A3DF813029F480910C14833009F41C
:104800009CC080912714882311F061E005C08EE1DF
:1048100094DF813019F460E08EE1E7DD80912614A9
:10482000882311F061E005C08FE187DF813019F442
:1048300060E08FE1DADD80910D05813130F180910A
:104840005A08843080F087E078DF61E0813009F435
:1048500060E087E0CADD86E070DF61E0813009F466
:1048600060E086E0C2DD80914005811104C0809146
:104870002B0A882341F086E160DF61E0813009F492
:1048800060E086E1B2DD10920D0580910D058F5F2D
:1048900080930D054091610820910C0530E05EEF9A
:1048A000540F80E190E002C0959587955A95E2F704
:1048B0008217930764F4423040F084E03EDF61E009
:1048C000813009F460E084E090DD10920C05809165
:1048D0000C058F5F80930C0590910B05809122054C
:1048E000891728F560910A0581E0682760930A0519
:1048F00080912B0A882331F080912D0A811103C009
:1049000061E001C060E083E070DD809140058823B4
:1049100049F080912005811102C061E004C06091DE
:104920000A0501C060E08DE160DD10920B05809109
:104930000B058F5F80930B05089560E08CE055DDDB
:1049400060CF37DFFFCE682F70E0803410F440E096
:1049500003C06054710941E08AE294E10C94276E2F
:104960008AE294E10C94216ECF93DF93EC018436BC
:1049700091057CF464E672E08AE294E10E947F7C17
:10498000CA30D10534F464E672E08AE294E10E9410
:104990007F7C4AE050E0BE018AE294E1DF91CF9152
:1049A0000C943E7DCF93DF93EC018A30910534F473
:1049B00064E672E08AE294E10E947F7C4AE050E083
:1049C000BE018AE294E1DF91CF910C943E7DCF93BA
:1049D000C82F811107C066E672E08AE294E1CF91A8
:1049E0000C947F7C803440F46BE28AE294E10E9474
:1049F000807C8C2F90E00AC06DE28AE294E10E94F4
:104A0000807CCF7380E490E08C1B9109CF91CACF5A
:104A1000CF93C82F811107C066E672E08AE294E165
:104A2000CF910C947F7C803240F46BE28AE294E177
:104A30000E94807C8C2F90E00AC06DE28AE294E1B3
:104A40000E94807CCF7180E290E08C1B9109CF9115
:104A5000A9CFCF93DF93D82FC62F41E060E08AE241
:104A600094E10E94276EC23061F038F4CC2349F003
:104A7000C13069F48D2FCCDF0AC0C33031F0C430AF
:104A800031F48D2F90E070DF02C08D2FA0DF41E068
:104A900063E08AE294E10E94276E6EEB7AE08AE29C
:104AA00094E1DF91CF910C944E7C4AE050E0BC0140
:104AB0008AE294E10C943E7DEF920F93809127055A
:104AC00090912805079709F012C380912B0581303A
:104AD00009F4D4C038F0823009F4F3C1833009F40A
:104AE00096C205C384E168DD85E166DD86E16ADDA5
:104AF00083E168DD35DF40E060E08AE294E10E9416
:104B0000276E63E578E08AE294E10E944E7C41E002
:104B100060E08AE294E10E94276E8091320A482F79
:104B200050E04A30510538F5FA01E850FF4F0C9437
:104B30009B806EE478E002C069E478E08AE294E168
:104B40000E944E7C1AC064E478E0F8CF6FE378E00E
:104B5000F5CF6AE378E0F2CF65E378E0EFCF60E38A
:104B600078E0ECCF6BE278E0E9CF66E278E0E6CF80
:104B700061E278E0E3CF90E015DF41E064E08AE2B3
:104B800094E10E94276E809122058B30B9F198F450
:104B9000823039F138F4882309F18130F1F568E188
:104BA00078E021C0853021F1873029F18330A9F5E3
:104BB0006EE078E018C08F3239F138F4873109F1AE
:104BC000833259F565EF77E00EC08F3501F18F3BE9
:104BD00009F1873411F56BEE77E005C06DE178E0FF
:104BE00002C063E178E08AE294E10E944E7C17C043
:104BF00069E078E0F8CF64E078E0F5CF6FEF77E038
:104C0000F2CF6AEF77E0EFCF60EF77E0ECCF66EEC0
:104C100077E0E9CF61EE77E0E6CF90E0A5DE41E016
:104C200069E08AE294E10E94276E6FED77E08AE204
:104C300094E10E944E7C8091310A90E036DF8091B1
:104C4000310A882319F080E1BDDC02C080E1B4DCC8
:104C500041E06DE08AE294E10E94276E80912F0A84
:104C600090E0A0DE41E062E18AE294E10E94276EDA
:104C700080912E0A90E00F91EF9017CF84E19CDC99
:104C800085E19ADC86E19EDCE12C00E020E040E05A
:104C900060E080E0DFDC8AE294E10E94216E6AEC51
:104CA00077E08AE294E10E944E7C41E060E08AE293
:104CB00094E10E94276E80913D05883081F188F44F
:104CC000833019F138F48823E9F08130A1F562ECE2
:104CD00077E01DC0843001F1863069F565EB77E03F
:104CE00016C0803311F138F48C30E1F0883119F5B9
:104CF00066EA77E00CC08036D9F0803CE1F469E9DF
:104D000077E005C066EC77E002C06EEB77E08AE200
:104D100094E10E944E7C11C06AEB77E0F8CF60EB23
:104D200077E0F5CF6BEA77E0F2CF62EA77E0EFCF9A
:104D30006EE977E0ECCF90E017DE8EE03DDC41E0FD
:104D400064E08AE294E10E94276E80914105882305
:104D500019F065E977E002C061E977E08AE294E161
:104D60000E944E7C41E068E08AE294E10E94276E56
:104D700080914005882319F06DE877E002C069E86A
:104D800077E08AE294E10E944E7C8091200588239E
:104D900019F067E877E002C065E877E08AE294E11D
:104DA0000E944E7C80914105882309F452C0809175
:104DB000450541E06DE08032B8F08AE294E10E945E
:104DC000276E61E877E08AE294E10E944E7C41E040
:104DD00061E18AE294E10E94276E6DE777E08AE262
:104DE00094E10E944E7C35C08AE294E10E94276ED5
:104DF000E0914505F0E0EE0FFF1FEA5BFA4F81817D
:104E0000811103C068E777E004C0803839F463E7B4
:104E100077E08AE294E10E944E7C11C0E081F0E0EC
:104E2000EE0FFF1FE45BF44F659174918CEE96E0FA
:104E30000E943383BC018AE294E10E947F7C41E0BE
:104E400062E18AE294E10E94276E8091450590E03C
:104E5000A9DD80914005882309F449C141E06DE056
:104E60008AE294E10E94276EE0914405F0E0EE0FA3
:104E7000FF1FE85BFA4F8181811107C06EE677E082
:104E80008AE294E10E944E7C13C0803889F0E08170
:104E9000F0E0EE0FFF1FE45BF44F659174918CEE30
:104EA00096E00E943383BC018AE294E10E947F7CF9
:104EB00041E062E18AE294E10E94276E809144051C
:104EC00012C184E179DB85E177DB86E17BDB48DDBC
:104ED00080E039DD69E577E08AE294E10E944E7C6A
:104EE00041E060E08AE294E10E94276E80910C1418
:104EF0008230B1F038F4882361F08130B9F465E58F
:104F000077E016C0833079F0843081F469E477E08B
:104F10000FC08091111490E027DD8EE04DDB0CC0B6
:104F200061E577E005C06DE477E002C065E477E015
:104F30008AE294E10E944E7C41E064E08AE294E1DE
:104F40000E94276E80912B0A882349F061E477E064
:104F50008AE294E10E944E7C8FE034DB08C06DE36E
:104F600077E08AE294E10E944E7C8FE025DB41E00D
:104F700069E08AE294E10E94276E80912A0A8823E0
:104F800049F069E377E08AE294E10E944E7C80E197
:104F900019DB08C065E377E08AE294E10E944E7C69
:104FA00080E10ADB41E06EE08AE294E10E94276E34
:104FB0004AE050E06091300A8AE294E10E94677D05
:104FC0008091300A882319F081E1FCDA02C081E186
:104FD000F3DA41E061E18AE294E10E94276E809178
:104FE0002D0A882351F061E377E08AE294E10E9480
:104FF0004E7C82E10F91EF90E5CA6DE277E08AE2A4
:1050000094E10E944E7C82E10F91EF90D5CA84E139
:10501000D3DA85E1D1DA86E1D5DAE12C00E020E0CF
:1050200040E060E080E016DB8AE294E10E94216EBD
:1050300040E060E08AE294E10E94276E68E177E058
:105040008AE294E10E944E7C41E060E08AE294E1D1
:105050000E94276E80912105882349F064E177E062
:105060008AE294E10E944E7C8EE0ACDA08C08EE0C9
:10507000A3DA60E177E08AE294E10E944E7C41E0AD
:1050800065E08AE294E10E94276EE0911F05F0E05E
:10509000EE0FFF1FE45BF44F659174918CEE96E088
:1050A0000E943383BC018AE294E10E947F7C41E04C
:1050B00069E08AE294E10E94276E80911E05835088
:1050C00086DC41E06DE08AE294E10E94276E8091E7
:1050D0001D0583507CDC41E061E18AE294E10E949D
:1050E000276E8091470590E00F91EF905BCC0F9178
:1050F000EF900895909140059923E9F09091510A1D
:10510000491319C01092410590913E0531E0932753
:1051100090933E05109243058093380560933905BE
:1051200040933A0520933B058091270590912805EF
:10513000079709F4C1CC0895682F8AE294E10C9492
:10514000807C1F93CF93DF931F92CDB7DEB7182FCC
:1051500080E06983F8DB6981623061F038F46623AE
:1051600049F0613069F4812F53DC0AC0633031F0BB
:10517000643031F4812F90E0F7DB02C0812F27DC0F
:1051800085EA0F90DF91CF911F91D6CFCF93C82F93
:105190008AE294E10E94216E81E0809325144C2FD5
:1051A00050E04C31510508F021C1FA01EE5FFE4F8D
:1051B0000C949B8040E064E08AE294E10E94276EB8
:1051C000E0E7F8E1659174918CEE96E00E943383FC
:1051D000BC018AE294E10E947F7C8091E80762E052
:1051E0008F5FAFDF80916E0862E08F5F32DC41E05D
:1051F00064E08AE294E10E94276EE0916E0825C087
:1052000040E064E08AE294E10E94276EE2E7F8E180
:10521000659174918CEE96E00E943383BC018AE222
:1052200094E10E947F7C8091EF0762E08F5F89DFCD
:105230008091750862E08F5F0CDC41E064E08AE2F7
:1052400094E10E94276EE0917508F0E0EE0FFF1FD9
:10525000E65CFE4DD7C040E064E08AE294E10E9443
:10526000276EEAE7F8E1659174918CEE96E00E9472
:105270003383BC018AE294E10E947F7C62E08091EA
:10528000DB075FDF62E080916108E3DB41E064E01F
:105290008AE294E10E94276EE0916108F0E0EE0F4F
:1052A000FF1FE251FF4DAEC040E064E08AE294E1AE
:1052B0000E94276EEC2FF0E0EE0FFF1FE85BF74E29
:1052C000659174918CEE96E00E943383BC018AE272
:1052D00094E10E947F7C62E08091CF0732DF62E040
:1052E00080915508B6DB41E064E08AE294E10E94D7
:1052F000276EE091550827C040E064E08AE294E11F
:105300000E94276EEC2FF0E0EE0FFF1FE85BF74ED8
:10531000659174918CEE96E00E943383BC018AE221
:1053200094E10E947F7C62E08091D4070ADF62E012
:1053300080915A088EDB41E064E08AE294E10E94A9
:10534000276EE0915A08F0E0EE0FFF1FEB51FE4D83
:1053500059C040E064E08AE294E10E94276EEEE7E3
:10536000F8E1659174918CEE96E00E943383BC0164
:105370008AE294E10E947F7C62E08091D807E1DEBE
:1053800062E080915E0865DB41E064E08AE294E1DE
:105390000E94276EE0915E0823C040E064E08AE24C
:1053A00094E10E94276EEEE4F8E1659174918CEE31
:1053B00096E00E943383BC018AE294E10E947F7CE4
:1053C00062E08091DA07BDDE62E08091600841DB37
:1053D00041E064E08AE294E10E94276EE091600877
:1053E000F0E0EE0FFF1FE154FE4D0CC040E064E022
:1053F0008AE294E10E94276EEC2FF0E0EE0FFF1F8F
:10540000E85BF74E659174918CEE96E00E943383D1
:10541000BC018AE294E1CF910C947F7CBC018AE2CA
:1054200094E10C94717CEF920F93CF93DF9300D0B3
:1054300000D0CDB7DEB780912B0590E08631910585
:1054400008F0FFC2FC01E25EFE4F0C949B8084E1F9
:10545000B3D885E1B1D8E12C01E021E041E061E081
:1054600081E0F8D887E1AED88AE294E10E94216E0B
:1054700040E060E08AE294E10E94276E6BEF76E004
:105480008AE294E10E944E7C41E060E08AE294E18D
:105490000E94276E66EE76E0D0C284E18DD885E169
:1054A0008BD887E18FD88AE294E10E94216E40E098
:1054B00060E08AE294E10E94276E61ED76E08AE284
:1054C00094E10E944E7C41E061E08AE294E10E9416
:1054D000276E8091170790E065DA41E064E08AE288
:1054E00094E10E94276EE0911807F0E0EE0FFF1F95
:1054F000EA5EF44F659174918CEE96E00E943383DE
:10550000BC018AE294E10E947F7C41E069E08AE28A
:1055100094E10E94276E8091190790E043DA41E000
:105520006DE08AE294E10E94276EE0911A07F0E0B4
:10553000EE0FFF1FE85DF44F659174918CEE96E0DD
:105540000E943383BC018AE294E10E947F7C41E0A7
:1055500061E18AE294E10E94276E6DEC76E06DC213
:1055600084E12AD885E128D887E12CD88AE294E121
:105570000E94216E40E060E08AE294E10E94276E82
:1055800068EB76E08AE294E10E944E7C41E061E0C3
:105590008AE294E10E94276E80911B0790E002DA74
:1055A00041E064E08AE294E10E94276EE0911C07EA
:1055B000F0E0EE0FFF1FEC5FF44F659174918CEEFD
:1055C00096E00E943383BC018AE294E10E947F7CD2
:1055D00041E069E08AE294E10E94276E80911D0714
:1055E00090E0E0D941E06EE08AE294E10E94276E0B
:1055F0008091BA0790E0D6D941E061E18AE294E176
:105600000E94276E64EB76E018C284E10E94DC22DF
:1056100085E10E94DC22EE24E39400E020E040E0FB
:1056200060E080E017D887E10E94E22299D980E00B
:105630008AD96FE976E0CE0101960E94457ECE01BF
:105640000196ECDECE0101960E94BF7D80E47BD9FD
:105650008091510A90E0A6D984E475D980910E0713
:1056600080FF03C06BE976E002C067E976E0CE0117
:1056700001960E94457ECE010196D0DECE010196B4
:105680000E94BF7D88E45FD980910E0781FF03C02F
:1056900063E976E002C06FE876E0CE0101960E94F1
:1056A000457ECE010196BADECE0101960E94BF7DF5
:1056B0008DE449D980910E0782FF03C06BE876E044
:1056C00002C067E876E0CE0101960E94457ECE01D9
:1056D0000196A4DECE0101960E94BF7D81E533D9FB
:1056E00080910E0783FF03C063E876E002C06FE796
:1056F00076E0CE0101960E94457ECE0101968EDEB7
:10570000CE0101960E94BF7D9CC184E10E94DC22F3
:1057100085E10E94DC2287E10E94E2228AE294E194
:105720000E94216E40E060E08AE294E10E94276ED0
:105730006AE676E08AE294E10E944E7C41E061E014
:105740008AE294E10E94276E8091270790E02AD98F
:1057500041E065E08AE294E10E94276E809128078B
:1057600090E020D941E06AE08AE294E10E94276E4D
:105770008091290790E016D941E06EE08AE294E139
:105780000E94276E80912A0790E00CD941E061E1E8
:105790008AE294E10E94276E80912307882319F002
:1057A00066E676E04AC162E676E047C184E10E949F
:1057B000DC2285E10E94DC2287E10E94E2228AE26B
:1057C00094E10E94216E40E060E08AE294E10E9450
:1057D000276E6DE476E0CE0101960E94457ECE01F3
:1057E00001961CDECE0101960E94BF7D41E060E083
:1057F0008AE294E10E94276E80910C148230B9F005
:1058000038F4882361F08130C1F469E476E017C090
:10581000833081F0843089F46DE376E010C08091AC
:10582000111490E0A1D88FE00E94DC2216C065E43C
:1058300076E005C061E476E002C069E376E0CE017F
:1058400001960E94457ECE010196E8DDCE010196CB
:105850000E94BF7D8FE00E94E22241E064E08AE284
:1058600094E10E94276E65E376E0CE0101960E94E6
:10587000457ECE010196D2DDCE0101960E94BF7D0C
:1058800041E068E08AE294E10E94276E80913E0246
:10589000882389F061E376E0CE0101960E94457E7F
:1058A000CE010196BBDDCE0101960E94BF7D80E155
:1058B0000E94DC2210C06DE276E0CE0101960E94CB
:1058C000457ECE010196AADDCE0101960E94BF7DE4
:1058D00080E10E94E22241E06DE08AE294E10E94D0
:1058E000276E80911007811111C069E276E0CE0128
:1058F00001960E94457ECE01019690DDCE01019673
:105900000E94BF7D81E10E94DC2210C065E276E04A
:10591000CE0101960E94457ECE0101967FDDCE012B
:1059200001960E94BF7D81E10E94E22241E061E197
:105930008AE294E10E94276E80912414882389F0E2
:1059400061E276E0CE0101960E94457ECE0101968D
:1059500065DDCE0101960E94BF7D82E10E94E222B8
:1059600070C06DE176E0CE0101960E94457ECE01C9
:10597000019654DDCE0101960E94BF7D82E10E9416
:10598000DC225FC084E10E94DC2285E10E94DC22EF
:1059900086E10E94DC22E12C00E020E040E060E0B3
:1059A00080E00E942A2387E10E94E2220E94B02424
:1059B00068E076E08AE294E10E944E7C41E060E09B
:1059C0008AE294E10E94276E6CEF75E036C084E1B4
:1059D0000E94DC2285E10E94DC2286E10E94DC221A
:1059E000EE24E39401E021E041E060E081E00E94E8
:1059F0002A2387E10E94E2220E94B02467EE75E02C
:105A00008AE294E10E944E7C41E060E08AE294E107
:105A10000E94276E62EE75E08AE294E10E944E7C5D
:105A20008091170590E00E94D22441E069E08AE26B
:105A300094E10E94276E66ED75E08AE294E10E948F
:105A40004E7C26960FB6F894DEBF0FBECDBFDF9119
:105A5000CF910F91EF900895EF920F931F93CF93F3
:105A6000DF9300D000D0CDB7DEB780912B05813019
:105A700009F4C2C018F0823059F137C184E10E94A4
:105A8000DC2285E10E94E222EE24E39401E021E0A1
:105A900041E061E081E00E942A2387E10E94DC224C
:105AA0000E94B02480E00E94A32461EC75E0CE0146
:105AB00001960E94457ECE010196B0DCCE01019692
:105AC0000E94BF7D80E40E94A3246CEA75E002C1BD
:105AD00080912D05882309F444C084E10E94DC22D2
