:100000000C9435190C94AC930C94D7930C940294E3
:100010000C942D940C9458940C9483940C94AE945A
:100020000C94D9940C94A08F0C94A08F0C94A08F56
:100030000C9466190C9466190C9466190C941E9213
:100040000C9466190C9466190C9466190C94661934
:100050000C94C1870C9466190C9466190C94049541
:100060000C9466190C949C980C94D2980C94661974
:100070000C9466190C9466190C9466190C94661904
:100080000C9466190C9466190C9466190C946619F4
:100090000C9447990C947D990C9466190C94F089F2
:1000A0000C9466190C9466190C9466190C946619D4
:1000B0000C9466190C9466190C9466190C946619C4
:1000C0000C9466190C9466190C9466190C94F299A8
:1000D0000C94289A0C9466190C949D9A0C94D39ABB
:1000E0000C946619FF1D1B1E231E301E4D1E641E20
:1000F000741EAA1ECC1E901E842039231421962023
:1001000042238D20A8209F20F020F920B1204B23EE
:10011000DE20C3205423BA20D520CC2002210B217D
:10012000E7201D215D23662326212F2138214A2126
:100130006F2378234121B723C023DF22E822F12255
:10014000FA2203230C23E32315231E232723302322
:100150005321AE235C2165217B20E323F521FE2181
:1001600007221022192222228123EC2134222B2261
:1001700046224F22582261226A2273228A233D227C
:1001800085227C229722A022A922B222BB22C4224D
:1001900093238E22D622CD226E21C923892192213A
:1001A000A4219C23772180219B21E323AD21D2230D
:1001B000C821D121E321A523B621BF21DA21DB23E8
:1001C000F828F52804290729FB28FE2801291629E3
:1001D00016290D290A29162916291629162916293C
:1001E0001629162916291629162916291629162917
:1001F00010290331A43103316E31A431A431A4316B
:10020000A431A431A431A431A431A431A431A43146
:10021000A431A431A431A431A4312B305F30A431F6
:100220000331CE309830CE303D315C445444784474
:10023000834466446C44734451445E557F55C155B4
:10024000EE550F56A0556A568D564756895869592E
:1002500077585D5864596959695969596959695993
:10026000695969596959695969596959695969597E
:100270006959695928594659695989584F58FB583D
:100280002F5815589E58A758B058B958C258C25838
:10029000CB58CB58D76026610161EE604461446160
:1002A000CF604461CF604461CF60CF60CF60446174
:1002B000CF60CF60616764676B676E6771677467F3
:1002C00077677A677D6780670D72FD714572677227
:1002D0001E7229723872F971C97BCB7BCE7BD17BC0
:1002E000D47BD77BDA7BDD7BE07BA57FC17FCD7FB5
:1002F000E67F917F657F167F127F8780878087806A
:1003000087808780878087808780878087808780B5
:10031000878087808780878087803C80F582F6820F
:10032000FC82FE82F882FA82008302830483978330
:10033000D78393838F83BF83C383C783CB83AB83ED
:10034000A783EF83F383AF83B383B783BB833A84FD
:10035000CF83D383DB839F83A3833A843A848B83C5
:100360009B8386838283DF83E383E783EB838693A8
:10037000509358936493719392939F935F96629670
:10038000519655965B96999666966A96709674966F
:1003900078967E968296869699968C969096949666
:1003A0004172702026205365712073617665642048
:1003B0002120202000456469744275666665722CB0
:1003C00020556E69736F6E2C2000504154434820B5
:1003D0007061676535004370792050617374204502
:1003E00064742F4172702F53657100434F50592030
:1003F00026205041535445203A2020202020200020
:100400005341564500300030006D002000476574B0
:1004100074696E67204D5452582042616E6B200003
:1004200047455420006342616E6B006D42616E6B04
:100430003A0047455420494E4954204F52472045E1
:1004400044542053415600300044004300420041D0
:10045000005041544348202000204F4E004F464654
:10046000004C464F204D44452053524345204C41BB
:1004700047205254470053504400414D50204B42B6
:100480004400414D5020505253004C464F20524D95
:100490005032004C464F20524D5031004F4E2000FC
:1004A0004F4E20004F4E20004F4E20003120202084
:1004B0004F4646204F4646204F46462020202020CB
:1004C00000312020204F4646204F4646204F4646CA
:1004D00020204F46460044434F20424E4420564978
:1004E0004220504F5254202020200044434F2042AD
:1004F0004E442056494220504F5254204B42440013
:10050000545241434B47454E2D494E5055543A2085
:10051000007C00524D5020535044205452474D4FC0
:1005200044457C5447494E004253205352432020B7
:100530004445535420202020414D4E54004F4E201E
:10054000004F4646004B4559422D4D4F44452055DE
:100550004E492E4C454741544F00504F5254414D47
:100560004F4445202056454C4F2052415445004FA2
:100570004E20004F46460053454E442053595345A4
:100580005820200053454E442043434F4E54524C74
:100590000046494C5445522046524551202053555F
:1005A000535441494E002020202000736E640056B1
:1005B000434120414D542056454C3020454E563243
:1005C000004F4E20004F4E20004F4E20004F4E2037
:1005D000004F4646204F4646204F464620204F4675
:1005E000462020202000424E4420564942205052AE
:1005F0005441204B42442020202000454E56205498
:100600005249474745524D4F444520204C464F00E4
:10061000454E5620444C5920414D502052454C2DBA
:100620004D4F4445004556332041544B20444543EB
:1006300020205355532052454C00347832344C43DB
:1006400035313220696E6974696C69617365640063
:10065000696E7465726E20454550524F4D20636C33
:10066000656172656400616C6C2032344C433531D5
:100670003220636C6561726564202000524D502009
:100680004D4F44204D545258202D2D2D202D2D2DD1
:100690000052414E444F4D495A453A2020202020D7
:1006A00020202020200044434F20464C5420454E1B
:1006B0005620204B4244204C464F0052414E444F5E
:1006C0004D495A453A20202020202020202020007B
:1006D000202020200020444F200030003A00737476
:1006E0006F726520696E003000424E4B20534156B8
:1006F000452050415443482000456469744E616D63
:1007000065003A00300020004C464F2056434120FF
:10071000454E56205052544120524D500044434FB4
:1007200020464C5420454E56204B4244204D5452B6
:100730005800205379732026204D617374657273BD
:1007400020726561647920002050617463682030F4
:1007500030302D3939392072656164792000496E55
:10076000742E454550524F4D20666F726D61747402
:10077000656420004578742E454550524F4D2066E3
:100780006F726D617474656420004E4F5200494E63
:10079000560045787420496E7420496E6974205360
:1007A00079732000464F524D415420454550524FD9
:1007B0004D203A2020454E4300537973204D7374E9
:1007C00020416C6C0042616E6B0044554D502043DB
:1007D00054524C52204D454D4F5259203A20002042
:1007E0002D20544F20444F202D2000434647203ACF
:1007F0002047526F755020287061676520342900AA
:10080000202E2000202A200020242000202E20003E
:100810006F66660020002000202E2000202A200085
:10082000554B4E006D5467005472670073323400AC
:100830004D69640042504D205A4F4E204C4F43208A
:100840002053544E2058434300443A52616E67652A
:100850002020724348207443482054727000433A69
:1008600052616E67652020724348207443482054CB
:10087000727000423A52616E6765202072434820D0
:100880007443482054727000413A52616E6765208B
:1008900020724348207443482054727000202E2058
:1008A00000202A20005064312050643220204C76F1
:1008B00031204C763220456E61004D314B004D3673
:1008C00020004D314B004D3620004D314B004D3650
:1008D00020004D314B004D36200043482020413A46
:1008E0002020423A202020433A2020443A2000533E
:1008F0006E6400414D50204D4F4420414D4E5420D8
:10090000424E442047424C004765740053504420F7
:100910004D4F4420414D4E54205741562047424CA4
:1009200000564942204D4944204D495343204752E7
:100930005020444D5000434F4E4649475552453A8A
:100940002020202020202020202000200020002007
:10095000002000412F532000532F412000534554C5
:100960002053504C5420547241205472532053450C
:100970005100202E202000202A20200020004E6F31
:100980002020005965732000202E202000202A20DE
:1009900020002D2D2D20006D5467200054726720FB
:1009A0000073323420004D6964200042504D2041D4
:1009B000435420544852552047525620484C440036
:1009C00020202020002000546965202000526573FB
:1009D000742000456E640020202000202E2020007E
:1009E000746F676C00202E202000206F20200020D4
:1009F0000031362F3100382F312000342F312000C4
:100A0000322F312000312F312000332F322000319E
:100A10002F322000312F332000312F342000312F8E
:100A20003620007472672000535044205245432002
:100A3000504C415920522F542053745000780032AA
:100A40004D657300314D657300332F312000322F17
:100A5000312000332F322000312F312000312F324E
:100A60002000312F332000312F342000312F362049
:100A700000312F382000312F31320074726720008E
:100A8000313C3C3300446E557000426E634400318B
:100A90003E3E330052616E64005570446E00426EFB
:100AA000636500446F776E0020557020004F7264BC
:100AB000720054595020444956204D4C5450204700
:100AC0004154203876610053797374656D207265E6
:100AD00063656976656420202020004D617374652C
:100AE000722072656365697665642020202020008D
:100AF00045646974427566666572207265636569EE
:100B0000766564200050617463682072656365696E
:100B1000766564203A200042616E6B2072656365E1
:100B200069766564202120202020004E6F746520A6
:100B30004F6E004E6F7465204F66660043686563B4
:100B40006B5F457874454550524F4D5F466F726DEF
:100B500061742829202F206D61746368202100436F
:100B60006865636B5F457874454550524F4D5F46ED
:100B70006F726D61742829202F206D6973736D6108
:100B80007463682021006D656D5F33202F20006D38
:100B9000656D5F31202F2000436865636B5F496E90
:100BA00074454550524F4D5F466F726D61742829F0
:100BB0002F206D61746368202100436865636B5F5B
:100BC000496E74454550524F4D5F466F726D61746A
:100BD00028292F206D6973736D617463682021006B
:100BE000696E742E454550524F4D206164647220E9
:100BF00000434C454152494E472057495448204EE6
:100C0000554C4C20202000696E742E454550524FA3
:100C10004D2061646472200044656661756C7420C7
:100C20004D4153544552535B5D20202000696E7442
:100C30002E454550524F4D20616464722000434C54
:100C4000454152494E472057495448204E554C4C37
:100C500020202000696E742E454550524F4D206172
:100C6000646472200044656661756C742053595346
:100C7000434F4E4649475B5D20006578742E4545DD
:100C800050524F4D20706167652000494E495449CC
:100C9000414C495345205526415250265345510059
:100CA0006578742E454550524F4D20706167652020
:100CB00000494E495449414C495345205041544301
:100CC00048202020202000696E742E454550524F48
:100CD0004D20616464722000434C454152494E47A7
:100CE00020574954482030786666202020006578D7
:100CF000742E454550524F4D20706167652000436A
:100D00004C454152494E4720574954482030786657
:100D100066202020002000464F524D415420657827
:100D2000742E454550524F4D20772F300020506192
:100D3000746368203030302D393939207265616430
:100D4000792000434F52452020412020204220207E
:100D50002043202020442020004563686F206D73CD
:100D600067206F6E204D696469204F75743A0045A5
:100D700063686F206D7367206F6E20434F5245206C
:100D80004F7574200048656C6C6F204275646479FF
:100D90002021203A2920202020200044756D7069F0
:100DA0006E672053797374656D436F6E6669670073
:100DB00050617463682073746F72656420696E207B
:100DC0004D617472780044756D702042616E6B20C5
:100DD00066696E69736865642020002044202020C5
:100DE0000020432020200020434F52450020204275
:100DF00020200020412020200020746F0044756DC9
:100E000070696E67203A0044756D70696E67204D99
:100E10006173746572202020202020004D6174725F
:100E20006978204374726C722000414C5045532005
:100E30004D414348494E4553203230313720002040
:100E40002D2D2D2054455354204D4F4445202D2DFC
:100E50002D202000546573744D6F6465282900208F
:100E60002020002E002A0020002E002A00200064EE
:100E7000696E203A2000456E64206F6620426F6FD5
:100E8000742E002D2D20616C6C206E6F74657320A4
:100E90006F6666202D2D00726563616C6C2073692E
:100EA0006C656E74206E6F74657300726563616C3F
:100EB0006C20706174636820636F6E6669672000E0
:100EC000726563616C6C20706174636820636F6E1F
:100ED00066696700726563616C6C20737973746511
:100EE0006D20636F6E66696700726563616C6C206C
:100EF00073797374656D20636F6E666967002D2D5D
:100F00002D20426F6F74202053797374656D202DEE
:100F10002D2D00426F6F74282920004D6174726975
:100F200078204374726C722076002000202F20619C
:100F3000696E5F70696E5F76616C7565203A20003E
:100F400061696E5F70696E203A2000202D2D535923
:100F50005354454D205245424F4F542D2D20007281
:100F600065626F6F74696E672073797374656D2045
:100F70002F20736F6674776172655F5265626F6F61
:100F80007428292000930F8F0F8B0F506431004C71
:100F90007632004F464600A50FA10F9D0F506431D9
:100FA000004C7632004F464600C90FC50FC10FBD39
:100FB0000FB90FB50F4E4F490052414E00535152D9
:100FC00000445357005553570054524900481343A7
:100FD000133E13391334132F132A13251320131B15
:100FE00013161311130C1307130213FD12F812F347
:100FF00012EE12E912E412DF12DA12D512D012CB7D
:1010000012C612C112BC12B712B212AD12A812A3AC
:10101000129E12991294128F128A12851280127BDC
:1010200012761271126C12671262125D125812530C
:10103000124E12491244123F123A12351230122B3C
:1010400012261221121C12171212120D120812036C
:1010500012FE11F911F411EF11EA11E511E011DBA3
:1010600011D611D111CC11C711C211BD11B811B3D4
:1010700011AE11A911A4119F119A11951190118B04
:1010800011861181117C11771172116D1168116334
:10109000115E11591154114F114A11451140113B64
:1010A00011361131112C11271122111D1118111394
:1010B000110E1109110411FF10FA10F510F010EBC8
:1010C00010E610E110DC10D710D210CD10204739F7
:1010D00020002046233900204639200020453920B1
:1010E00000204423390020443920002043233900C4
:1010F000204339200020423820002041233800209E
:10110000413820002047233800204738200020465F
:101110002338002046382000204538200020442372
:101120003800204438200020432338002043382052
:101130000020423720002041233700204137200083
:101140002047233700204737200020462337002040
:101150004637200020453720002044233700204414
:101160003720002043233700204337200020423619
:10117000200020412336002041362000204723361E
:101180000020473620002046233600204636200027
:1011900020453620002044233600204436200020FD
:1011A00043233600204336200020423520002041D2
:1011B00023350020413520002047233500204735C6
:1011C00020002046233500204635200020453520CC
:1011D00000204423350020443520002043233500DF
:1011E00020433520002042342000204123340020B9
:1011F000413420002047233400204734200020467B
:10120000233400204634200020453420002044238D
:101210003400204434200020432334002043342071
:10122000002042332000204123330020413320009E
:10123000204723330020473320002046233300205B
:10124000463320002045332000204423330020442F
:101250003320002043233300204333200020423238
:101260002000204123320020413220002047233239
:101270000020473220002046233200204632200042
:101280002045322000204423320020443220002018
:1012900043233200204332200020423120002041ED
:1012A00023310020413120002047233100204731E5
:1012B00020002046233100204631200020453120E7
:1012C00000204423310020443120002043233100FA
:1012D00020433120002042302000204123300020D4
:1012E0004130200020472330002047302000204696
:1012F00023300020463020002045302000204423A9
:101300003000204430200020432330002043302090
:1013100000422D31200041232D3100412D3120008C
:1013200047232D3100472D31200046232D31004623
:101330002D312000452D31200044232D3100442D36
:1013400031200043232D3100432D3120004C464FE6
:1013500032205350454544202F4B42442000454EF7
:1013600056332052454C4541534520202020004C07
:10137000464F3220414D50202F52414D50322000D7
:10138000454E5633204445434159202020202020FB
:10139000004C464F3120414D50202F52414D50318D
:1013A0002000454E56332041545441434B202020C9
:1013B0002020004C464F31205350454544202F50AB
:1013C00052532000454E5633205355535441494EF5
:1013D0002020202000454E563120414D50202F56D0
:1013E000454C4F202000454E563220414D504C492F
:1013F00054554445202000454E563320414D504C15
:10140000495455444520200044434F322050572032
:101410002F4C464F322020200044434F322050575B
:101420002020202020202020200044434F32204430
:101430004554554E4520202020200044434F322063
:10144000574156452053484150452000454E56319E
:1014500020414D504C495455444520200044434FB1
:101460003220462F4C464F31202020202000554E60
:1014700049534F4E20444554554E452020200044AA
:10148000434F32204652455120202020202020006A
:1014900044434F312050572020202020202020205E
:1014A0000044434F2042414C414E434520202020E0
:1014B000200044434F31205057202F4C464F3220BC
:1014C000202000504F5254412052415445202020AA
:1014D0002020200044434F31205741564520534897
:1014E0004150452000504F525441202F56454C4FFB
:1014F00020202020200056434620465245512043BC
:101500005554202020200056434620464D2F50524F
:10151000532020202020200044434F3120465245B4
:10152000512020202020202000564341202F454ECE
:101530005632202020202020200044434F312046D6
:10154000202F4C464F312020202000564341202F91
:1015500056454C4F20202020202020005643462076
:10156000464D202F454E563320202020004C464F1C
:101570003220535045454420202020202000454E55
:1015800056322052454C4541534520202020004CE6
:10159000464F3220414D504C49545544452020007F
:1015A000454E5632204445434159202020202020DA
:1015B000004C464F3120414D504C49545544452034
:1015C0002000454E56322041545441434B202020A8
:1015D0002020004C464F31205350454544202020C8
:1015E00020202000454E5632205355535441494E39
:1015F0002020202000454E56312052454C45415375
:10160000452020202000454E563120444543415975
:1016100020202020202000454E5631205355535481
:1016200041494E202020200044434F322050572073
:101630002F4C464F322020200044434F3220505739
:101640002020202020202020200044434F3220440E
:101650004554554E4520202020200044434F322041
:10166000574156452053484150452000454E56317C
:101670002041545441434B20202020200044434F1C
:10168000322046202F4C464F312020202000554E3E
:1016900049534F4E20444554554E45202020004488
:1016A000434F322046524551202020202020200048
:1016B00044434F312050572020202020202020203C
:1016C0000044434F2042414C414E434520202020BE
:1016D000200044434F31205057202F4C464F32209A
:1016E00020200052414D50203120524154452020AD
:1016F0002020200044434F31205741564520534875
:10170000415045200052414D502032205241544515
:101710002020202020005643462046524551204399
:10172000555420202020005643462046202F50525A
:10173000532020202020200044434F312046524592
:1017400051202020202020200056434620464D20B6
:101750002020202020202020200044434F312046FC
:10176000202F4C464F312020202000564346205247
:1017700045534F2020202020202020005643462083
:1017800046202F454E56312020202020000000000A
:10179000040E1F00000000001F0E040000020302E0
:1017A000020E1E1E0C1E1E1E1F1E1E1E1E1C1C1C9C
:1017B0001F1C1C1C1C1818181F18181818101010A3
:1017C0001F1010101010181C1E1E1C18102D2D2D6F
:1017D0002D2D2D2D2D2D2D2D2D2D2D2D2DFF2D2D67
:1017E0002D2D2D2D2D2D2D2D2D2D2D2D2DFFFF2D85
:1017F0002D2D2D2D2D2D2D2D2D2D2D2D2DFFFFFFA3
:101800002D2D2D2D2D2D2D2D2D2D2D2D2DFFFFFF92
:10181000FF2D2D2D2D2D2D2D2D2D2D2D2DFFFFFFB0
:10182000FFFF2D2D2D2D2D2D2D2D2D2D2DFFFFFFCE
:10183000FFFFFF2D2D2D2D2D2D2D2D2D2DFFFFFFEC
:10184000FFFFFFFF2D2D2D2D2D2D2D2D2DFFFFFF0A
:10185000FFFFFFFFFF2D2D2D2D2D2D2D2DFFFFFF28
:10186000FFFFFFFFFFFF2D2D2D2D2D2D2DFFFFFF46
:10187000FFFFFFFFFFFFFF2D2D2D2D2D2DFFFFFF64
:10188000FFFFFFFFFFFFFFFF2D2D2D2D2DFFFFFF82
:10189000FFFFFFFFFFFFFFFFFF2D2D2D2DFFFFFFA0
:1018A000FFFFFFFFFFFFFFFFFFFF2D2D2DFFFFFFBE
:1018B000FFFFFFFFFFFFFFFFFFFFFF2D2DFFFFFFDC
:1018C000FFFFFFFFFFFFFFFFFFFFFFFF2D2D2D2D70
:1018D0002D2D2D2D2D2D2D2D2D2D2D2DFF2D2D2D66
:1018E0002D2D2D2D2D2D2D2D2D2D2DFF2D2D2D2D56
:1018F0002D2D2D2D2D2D2D2D2D2DFF2D2D2D2D2D46
:101900002D2D2D2D2D2D2D2D2DFF2D2D2D2D2D2D35
:101910002D2D2D2D2D2D2D2DFF2D2D2D2D2D2D2D25
:101920002D2D2D2D2D2D2DFF2D2D2D2D2D2D2D2D15
:101930002D2D2D2D2D2DFF2D2D2D2D2D2D2D2D2D05
:101940002D2D2D2D2DFF2D2D2D2D2D2D2D2D2D2DF5
:101950002D2D2D2DFF2D2D2D2D2D2D2D2D2D2D2DE5
:101960002D2D2DFF2D2D2D2D2D2D2D2D2D2D2D2DD5
:101970002D2DFF2D2D2D2D2D2D2D2D2D2D2D2D2DC5
:101980002DFF2D2D2D2D2D2D2D2D2D2D2D2D2D2DB5
:10199000FF2D2D2D2D2D2D2D2D2D2D2D2D2D2DFFD3
:1019A0002D2D2D2D2D2D2D2D2D2D2D2D2D2DFF2D95
:1019B0002D2D2D2D2D2D2D2D2D2D2D2D2DFF2D2D85
:1019C0002D2D2D2D2D2D2D2D2D2D2D2D2D2D2D2D47
:1019D0002D2D2D2D2DFF2D2D2D2D2D2D2D2D2D2D65
:1019E0002D2D2D2D2DFFFF2D2D2D2D2D2D2D2D2D83
:1019F0002D2D2D2D2DFFFFFF2D2D2D2D2D2D2D2DA1
:101A00002D2D2D2D2DFFFFFFFF2D2D2D2D2D2D2DBE
:101A10002D2D2D2D2DFFFFFFFFFF2D2D2D2D2D2DDC
:101A20002D2D2D2D2DFFFFFFFFFFFF2D2D2D2D2DFA
:101A30002D2D2D2D2DFFFFFFFFFFFFFF2D2D2D2D18
:101A40002D2D2D2D2DFFFFFFFFFFFFFFFFFFFFFFC0
:101A5000FFFFFFFFFF2D2D2D2D2D2D2D2D2DFFFFF8
:101A6000FFFFFFFFFF2D2D2D2D2D2D2D2D2D2DFFBA
:101A7000FFFFFFFFFF2D2D2D2D2D2D2D2D2D2D2D7C
:101A8000FFFFFFFFFF2D2D2D2D2D2D2D2D2D2D2D6C
:101A90002DFFFFFFFF2D2D2D2D2D2D2D2D2D2D2D2E
:101AA0002D2DFFFFFF2D2D2D2D2D2D2D2D2D2D2DF0
:101AB0002D2D2DFFFF2D2D2D2D2D2D2D2D2D2D2DB2
:101AC0002D2D2D2DFF2D2D2D2D2D2D2D2D205F4438
:101AD00045564943455F445F2020202000205F4455
:101AE00045564943455F435F2020202000205F4446
:101AF00045564943455F425F2020202000205F4437
:101B000045564943455F415F202020200020444343
:101B10004F3120434C4943202020202000204443C3
:101B20004F312057415645464F524D2000204443E7
:101B30004F2053594E43204D4F44452000204443ED
:101B40004F312057415645464F524D2000204443C7
:101B50004F322057415645464F524D200020554E9A
:101B6000555345442044494E3232202000204C46F3
:101B70004F32205741564553484150452000204C94
:101B8000464F31205741564553484150452000208B
:101B90005F46325F202020202020202020200020AF
:101BA0005F53484946545F202020202020200020F9
:101BB0005F414C545F202020202020202020002046
:101BC000554E555345442044494E3136202000207F
:101BD0005F504147455F202020202020202000200A
:101BE0005F4B4559355F20202020202020200020F9
:101BF0005F4B4559345F20202020202020200020EA
:101C00005F4B4559335F20202020202020200020DA
:101C10005F4445435F2020202020202020200020FA
:101C20005F494E435F2020202020202020200020DC
:101C30005F4B4559315F20202020202020200020AC
:101C40005F4B4559325F202020202020202000209B
:101C50005F4346475F2020202020202020200020B6
:101C60005F4152505F202020202020202020002093
:101C70005F454449545F2020202020202020002060
:101C80005F50415443485F20202020202020002026
:101C900044434F3220434C49432020202020002041
:101CA00044434F322057415645464F524D20002065
:101CB0005F46315F2020202020202020202000208F
:101CC00044434F322057415645464F524D20000065
:101CD0003000000000013F00000000010100000092
:101CE00004400102000000000000000000000000AD
:101CF000000000FFFFFFFFFFFFFFFFFFFFFFFFFFF1
:101D0000FFFFFFFFFFFFFFFFFFFFFFFFFFFFFFFFE3
:101D1000FFFFFFFFFFFFFFFFFFFFFFFFFFFFFFFFD3
:101D2000FFFFFFFFFFFFFFFFFFFFFFFFFFFFFFFFC3
:101D3000FFFFFFFFFFFFFFFFFFFFFFFFFFFFFFFFB3
:101D4000FFFFFFFFFFFFFFFFFFFFFFFFFFFFFFFFA3
:101D5000FFFFFFFFFFFFFFFFFFFFFFFFFFFFFFFF93
:101D6000FFFFFFFFFFFFFFFFFFFFFFFFFFFFFFFF83
:101D7000FF00000C00010000000000000010002027
:101D800001011100200202120020030313002004AD
:101D9000041400200505150020060616002007077C
:101DA000170020080803000309090C003F0A0A0075
:101DB000003F0B0B00003F0C0C0300030D0D030054
:101DC000030E0E0C003F0F0F00003F101000003FED
:101DD00011110300031212030003131300003F1438
:101DE000141F003F151501000316160000011717F8
:101DF000010003181800000119190000031A1A7FC6
:101E0000007F1B1B00003F1C1C0000031D1D000069
:101E1000031E1E00003F1F1F3F003F202000003F09
:101E200021210000032222000001232300003F247F
:101E30002400000325250000012626000006272790
:101E400000001F282803001429291F003F2A2A0008
:101E5000003F2B2B0000032C2C0000012D2D000037
:101E6000062E2E0000202F2F03001430301F003FBD
:101E70003131000003323200003F333300003F3481
:101E8000343F003F353500003F36360A003F3737D4
:101E90003F003F383800000139390000013A3A006C
:101EA00000033B3B00003F3C3C00003F3D3D3F000A
:101EB0003F3E3E3F003F3F3F0A003F40403F003F24
:101EC0004141000003424200000343430000034439
:101ED0004400003F454500003F46463F003F47471E
:101EE00000003F48480A003F49493F003F4A4A0036
:101EF00000034B4B0000034C4C0400144D4D0100FB
:101F00003F4E4E0F003F4F4F1E003F50502E003FA0
:101F100051513F003F52521F003F535300000354A2
:101F20005432003F5555000003565600007F575766
:101F300000007F585800007F595900007F5A5A010D
:101F4000007F5B5B00007F5C5C3F007F5D5D3F006E
:101F50007F5E5E00007F5F5F00007F606000007F4B
:101F6000616100007F626200007F636300007F6444
:101F70006400007F656500007F666600007F67671C
:101F800000007F6868000014696900007F6A6A00C9
:101F900000206B6B0000146C6C00007F6D6D000006
:101FA000206E6E0000146F6F00007F7070000020C4
:101FB0007171000014727200007F7373000020744E
:101FC00074000014757500007F7676000020777726
:101FD000000014787800007F79790000207A7A0078
:101FE00000147B7B00007F7C7C0000207D7D000056
:101FF000147E7E00007F7F7F000020808000001420
:10200000818100007F82820000208383000014848D
:102010008400007F85850000204F42455248454995
:102020004D030C000003030C00000303001F01001C
:102030000100007F000000003F00000000000000E1
:1020400000031F0000000000031F0000003F000A03
:102050003F00000000003F3F0A3F00000000003F3B
:10206000000A3F000004010F1E2E3F1F0032000037
:1020700000000001003F3F000000000000000000E1
:102080000000000000000000000000000000000050
:10209000000000000000000000000000000000013F
:1020A00022F821EF21E621DD21D421CB21C221B963
:1020B00021B021A7219E2195218C2183217A217194
:1020C0002168215F2156214D2144213B21322129C4
:1020D00021202117210E210521FC20F320EA20E1F7
:1020E00020504F5254414D544F004C464F322D41D9
:1020F0004D50004C464F322D535044004C464F310A
:102100002D414D50004C464F312D53504400454E0B
:1021100056332D414D5000454E56332D524C5300F1
:10212000454E56332D444B5900454E56332D4154A0
:102130004B00454E56332D444C5900454E56322DDA
:10214000414D5000454E56322D524C5300454E568F
:10215000322D444B5900454E56322D41544B0045CB
:102160004E56322D444C5900454E56312D414D505E
:1021700000454E56312D524C5300454E56312D449C
:102180004B5900454E56312D41544B00454E56316A
:102190002D444C5900564341322D4C455600564370
:1021A00041312D4C455600464C54522D524553005A
:1021B000464C54522D46525100464D2D414D4E54E1
:1021C00020004F53432D4D495820004F53322D5777
:1021D000534850004F53322D504C5357004F5332F9
:1021E0002D46524551004F53312D57534850004F03
:1021F00053312D504C5357004F53312D46524551BA
:10220000002D2D2D2D2D2D2D2D002A2222221A229A
:102210001222455854474154450045585445524EA2
:1022200020004D554C544920200053494E474C4501
:10223000200055224C2243223A22524541532F522C
:102240004F4200554E49534F4E202000524F5441AB
:102250005445202000524541535349474E008422A3
:102260007A22702266224558504F4E454E54320015
:102270004558504F4E454E543100434F4E532D5408
:10228000494D4500434F4E532D5350454400A52220
:10229000A0229B2296222D2D2D2D004C464F310041
:1022A000474C464F004E4F524D000723FC22F1226F
:1022B000E622DB22D022C522BA2245582B4D4C54AF
:1022C0002B52535400455854524E2B4D4C544900F8
:1022D000455854524E2B525345540045585445527C
:1022E0004E202020200052455345542B4D4C54493C
:1022F000004D554C54492020202020005245534584
:10230000542020202020002D2D2D2D2D2D2D2D2D44
:102310002D0035232C2323231A23424F54482020F9
:10232000202000465245452D52554E00444144520E
:1023300020202020002D2D2D2D2D2D2D2D00CC23C6
:10234000C723C223BD23B823B323AE23A923A423C9
:102350009F239A23952390238B23862381237C23F9
:10236000772372236D2368234C455633004C455622
:1023700032004C45563100504544320050454431FE
:102380000050524553005256454C0056454C4F00A4
:1023900047415445005452414B00504F5254004B5A
:1023A00045594200524D503200524D50310056496D
:1023B0004252004C464F32004C464F3100454E567B
:1023C0003300454E563200454E5631002D2D2D2DF1
:1023D00000E523E123DD23D923455854004D4C5417
:1023E0000053474C002D2D2D00242413240224F1EA
:1023F00023204841524445522020202020202020E4
:10240000200020484152442020202020202020204D
:1024100020200020534F4654202020202020202020
:1024200020202000204F4646202020202020202051
:102430002020202000A92498248724762465245471
:1024400024432453414D504C4544204D4F44554C5A
:10245000415445004E4F4953452020202020202044
:10246000202020200052414E444F4D20202020208B
:10247000202020202000535155415245202020206B
:1024800020202020202000444F574E205341572029
:10249000202020202020200055502053415720206C
:1024A000202020202020202000545249414E474C1B
:1024B00045202020202020202000CF24BE24204F93
:1024C0004E202020202020202020202020200020FE
:1024D0004F464620202020202020202020202000A1
:1024E0006725562545253425232512250125F02469
:1024F000204E4F49534520202020202020202020FE
:1025000000204E4F4953452020202020202020200D
:102510002000204E4F4953452020202020202020FD
:10252000202000204E4F49534520202020202020ED
:1025300020202000205741564520262050554C533E
:1025400045202020002057415645202020202020D3
:102550002020202020002050554C534520202020B2
:1025600020202020202000204F4646202020202010
:102570002020202020202000010000000001000178
:10258000010000000001000200030100057F0102BC
:1025900000057F020300057F030400057F0400019E
:1025A000000000000000000000057814E6000001B3
:1025B0000000010000010100013B017E0300060351
:1025C000000602000A000005050160010104030184
:1025D0005F00000300000100000100000103012F63
:1025E0000000203C643C803B643B80396439803788
:1025F00064378035643580346434803264328030AE
:102600006400003064308032643280346434803559
:1026100064358037643780396439803B643B803C63
:102620006400003064308032643280346434803539
:1026300064358037643780396439803B643B803C43
:102640006400003C643C803B643B803964398037E3
:10265000643780356435803464348032643280304D
:1026600064000030502950295030502950295031F1
:10267000502950305029502950305029502950317C
:102680005029502E50275027502E50275027502F7A
:102690005027502E50275027502E50275027502F6C
:1026A00050275043353C803E323C8041273C80439C
:1026B0002D3C8041313C803E333C803C373C803E69
:1026C000323C8043353C803E323C8041273C804355
:1026D0002D3C8041313C803E333C803C373C803E49
:1026E000323C803C683C803E523E804156418043B3
:1026F0006843803E6800000000324A00000000008D
:10270000003E4A3C683C803E523E804156418043F8
:102710006843803E6800000000324A00000000006C
:10272000003E4A3039303430363037373E373E3A63
:10273000363A373039303430363037373E373E3A34
:10274000363A3735393534353635373C3E3C3E3F01
:10275000363F3737393734373637373E3E3E3E41DE
:102760003641373741373B3531352A373337323504
:10277000353536373937403543372E0000000000F5
:102780000000003A2E3A29373B37393A370000002B
:102790000000003C293C2E3A223A273C430000002E
:1027A0000000002450245024612450245024503030
:1027B0006130502450245024502450305030613027
:1027C0005030502450245024612450245024503040
:1027D0006130502450245024502450305030613007
:1027E0005030500000000000000000000000000019
:1027F00000000000000000000000000000000000D9
:1028000000000000000000000000000000000000C8
:1028100000000000000000000000000000000000B8
:1028200000000000000000000000000000000000A8
:102830000000000000000000000000000000000098
:102840000000000000000000000000000000000088
:102850000000000000000000000000000000000078
:102860000000007C176B175A1749173817271716DF
:10287000170517F416E316D216C116B0169F168E5A
:10288000167D166C165B164A16391628161716068C
:1028900016F515E415D315C215B115A0158F157EC3
:1028A000156D155C154B153A15291518150715F6F4
:1028B00014E514D414C314B214A11490147F146E2C
:1028C000145D144C143B142A1419140814F713E65D
:1028D00013D513C413B313A213911380136F135E94
:1028E000134D130100057F010200057F020300055F
:1028F0007F030400057F04BF1CAF1C9F1C8F1C7F3F
:102900001C6F1C5F1C4F1C3F1C2F1C1F1C0F1CFF2F
:102910001BEF1BDF1BCF1BBF1BAF1B9F1B8F1B7E28
:102920001B6D1B5D1B4D1B3D1B2D1B1D1B0D1BFD27
:102930001AED1ADD1ACD1AFFFFFFFFFFFFFFFFFFA1
:10294000FFFFFFFFFFFFFFFFFFFFFFFFFFFFFFFF97
:10295000FFFFFFFFFFFFFFFFFFFFFFFFFFFFFFFF87
:10296000FFFFFFFF182C2C200506003F00FFFFFF94
:10297000FFFFFFFFFFFFFFFFFFFFFFFFFFFFFF0C5A
:102980001414140806003F00010000090906003F66
:10299000000205050A0A06003F000303030B0B06AD
:1029A000003F000407070C0C020003000506060D9B
:1029B0000D02000300060A0A0E0E06003F00070F74
:1029C0000F0F0F06003F00080D0D101006003F000E
:1029D0000911111111020003000A10101212030054
:1029E00003000B0C0C131306003F00293939311476
:1029F000030007002A3232321506003F002B333322
:102A0000331606003F002C3434341706003F002DE7
:102A10003535351806003F002E3636361906003F8C
:102A2000002F3737371A06003F00303B3B381B0278
:102A3000000300313A3A391C020003003243433AA2
:102A40001D03000700333C3C3B1E06003F00FFFF18
:102A5000FFFFFFFFFFFFFFFFFFFFFFFFFFFFFFFF86
:102A6000255C5C2D2103000700265D5D2E220500FC
:102A70001F002762622F2305001F00285E5E30249E
:102A800006003F00192E2E2125020003004B2929A4
:102A90005326020003004C2A2A542706003F004D0B
:102AA0002B2B552802000300343D3D3C2906003FF6
:102AB00000353E3E3D2A06003F00363F3F3E2B0696
:102AC000003F003740403F2C06003F003841414066
:102AD0002D06003F00394545412E020003003A44CF
:102AE00044422F020003003B4D4D433003000700DA
:102AF0003C4646443106003F003D4747453206000C
:102B00003F003E4848463306003F003F49494734AE
:102B100006003F00404A4A483506003F00414B4B03
:102B2000493606003F00424F4F4A37020003004338
:102B30004E4E4B38020003004421214C3905001F42
:102B4000004522224D3A06003F004623234E3B0615
:102B5000003F004724244F3C06003F0048252550F5
:102B60003D06003F00492626513E06003F004A2808
:102B700028523F06003F00FFFFFFFFFFFFFFFFFF60
:102B80001A2F2F224101000100FFFFFFFFFFFFFF6F
:102B9000FFFFFFFFFFFFFFFFFFFFFFFFFFFFFFFF45
:102BA000FFFFFFFFFFFFFFFFFFFFFFFFFF4E0101E2
:102BB000564603007F404F0404574703007F4050B0
:102BC0000B0B584803007F40510E0E594903007FFC
:102BD000405216165A4A03007F405317175B4B03A7
:102BE000007F40541C1C5C4C03007F40551D1D5D44
:102BF0004D03007F405638385E4E03007F405742F9
:102C0000425F4F03007F400E09091650010001008A
:102C10001013131851010001001D575725520100D0
:102C200001002461612C5301000100584C4C605498
:102C300003007F40595555615503007F405A5F5F3F
:102C4000625603007F405B2D2D635703007F405C7D
:102C50001F1F645803007F405D2020655903007FDB
:102C6000405E5151665A03007F405F5B5B675B03C8
:102C7000007F40FFFFFFFFFFFFFFFFFFFFFFFFFFA2
:102C8000FFFFFFFFFF606360685E07007F000030AA
:102C900030085F02000300FFFFFFFFFFFFFFFFFFA1
:102CA000FFFFFFFFFFFFFFFFFFFFFFFFFFFFFFFF34
:102CB000FFFFFFFFFFFFFFFFFFFFFFFFFFFFFFFF24
:102CC000FFFFFFFFFFFFFFFFFFFFFFFFFF0D0808F4
:102CD0001566020003000F121217670200030011AD
:102CE00002021968020003001215151A6907007F15
:102CF000001318181B6A06003F001419191C6B02F8
:102D0000000300151A1A1D6C02000300161E1E1E79
:102D10006D06003F00171B1B1F6E06003F001B5077
:102D200050236F06003F001C56562470020003001B
:102D30001E52522671030007001F535327720500CD
:102D40001F00205858287305001F0021545429746F
:102D500006003F00225A5A2A7506003F0023606091
:102D60002B7602000300FFFFFFFFFFFFFFFFFFFFC7
:102D7000FFFFFFFFFFFFFFFFFFFFFFFFFFFFFFFF63
:102D8000FFFFFFFFFFFFFFFFFFFFFFFFFFFFFFFF53
:102D9000FFFFFFFFFFFFFFFFFFFFFFFFFFFFFFFF43
:102DA000FFFFFFFFFFFFFFFFFFFFFFFFFFFFFFFF33
:102DB000FFFFFFFFFFFFFF010000090906003F00C2
:102DC0004E0101564603007F4011020219680200BD
:102DD00003000303030B0B06003F004F0404574797
:102DE00003007F400205050A0A06003F00050606AB
:102DF0000D0D020003000407070C0C020003000D78
:102E000008081566020003000E09091650010001AA
:102E100000060A0A0E0E06003F00500B0B5848032E
:102E2000007F400B0C0C131306003F00080D0D1023
:102E30001006003F00510E0E594903007F40070F56
:102E40000F0F0F06003F000A1010121203000300BC
:102E50000911111111020003000F1212176702006D
:102E600003001013131851010001000C141414086E
:102E700006003F001215151A6907007F005216164A
:102E80005A4A03007F405317175B4B03007F4013E0
:102E900018181B6A06003F001419191C6B02000366
:102EA00000151A1A1D6C02000300171B1B1F6E066B
:102EB000003F00541C1C5C4C03007F40551D1D5DF1
:102EC0004D03007F40161E1E1E6D06003F005C1F56
:102ED0001F645803007F405D2020655903007F4038
:102EE0004421214C3905001F004522224D3A06009D
:102EF0003F004623234E3B06003F004724244F3C1F
:102F000006003F00482525503D06003F0049262683
:102F1000513E06003F007FFF27000000003F004AAF
:102F20002828523F06003F004B2929532602000360
:102F3000004C2A2A542706003F004D2B2B5528020F
:102F4000000300182C2C200506003F005B2D2D638C
:102F50005703007F40192E2E2125020003001A2F4F
:102F60002F224101000100003030085F0200030001
:102F70007FFF31000000003F002A32323215060088
:102F80003F002B3333331606003F002C3434341704
:102F900006003F002D3535351806003F002E363629
:102FA000361906003F002F3737371A06003F005604
:102FB00038385E4E03007F40293939311403000749
:102FC00000313A3A391C02000300303B3B381B0207
:102FD000000300333C3C3B1E06003F00343D3D3CBB
:102FE0002906003F00353E3E3D2A06003F00363FA1
:102FF0003F3E2B06003F003740403F2C06003F007D
:10300000384141402D06003F005742425F4F0300C8
:103010007F403243433A1D030007003A4444422FA5
:1030200002000300394545412E020003003C46469C
:10303000443106003F003D4747453206003F003E11
:103040004848463306003F003F4949473406003FA1
:1030500000404A4A483506003F00414B4B4936067E
:10306000003F00584C4C605403007F403B4D4D43A3
:103070003003000700434E4E4B3802000300424F1E
:103080004F4A37020003001B5050236F06003F00D9
:103090005E5151665A03007F401E52522671030052
:1030A00007001F5353277205001F00215454297431
:1030B00006003F00595555615503007F401C565688
:1030C0002470020003001D57572552010001002003
:1030D0005858287305001F007FFF59000000003F6B
:1030E00000225A5A2A7506003F005F5B5B675B034C
:1030F000007F40255C5C2D2103000700265D5D2ECE
:103100002205001F00285E5E302406003F005A5F43
:103110005F625603007F402360602B76020003004D
:103120002461612C53010001002762622F230500F6
:103130001F00606363865E07007F0000000A0B02C9
:10314000090C0D0E08070304010000000000000038
:10315000000000000000000000000000000000006F
:10316000000000000000001211100000000000002C
:10317000000000000000000000000000000000004F
:10318000000102102020080810204010204080027A
:10319000010201080402010102040810204080809D
:1031A0004020100804020180040201804020100821
:1031B00004020108040201010204081020408001F9
:1031C00002040810204080050505050705080808C9
:1031D00008020202020A0A080804040404010101A8
:1031E00001010101010303030303030303040707B0
:1031F000070C0C0C0C0C0C0C0C020202020606064E
:1032000006060606060B0B0B0B0B0B0B0B00002028
:10321000002300260029002C002F003200000100AE
:103220000003010601090100002200250028002BEF
:10323000002E003100340002010000050108010BDE
:103240000100002100240027002A002D0030003357
:103250000001010000040107010A010093630789CE
:103260000499AF995A9A059B7B6411241FBECFEF36
:10327000D1E2DEBFCDBF00E00CBF14E0A0E0B2E0C1
:10328000E0E4F5E401E00BBF02C007900D92A03E20
:10329000B107D9F729E1A0EEB4E001C01D92A83C26
:1032A000B207E1F712E3C8E6D2E300E006C02297D6
:1032B0000109FE010BBF0E94D29FCC35D10780E0EF
:1032C0000807A9F70E94759D0C948FA20C9400002A
:1032D00081E08093290C8091E215813019F48FEF01
:1032E00080930E0C089581E08093290C08950C942E
:1032F0007BA20F931F93CF93DF931F92CDB7DEB7BF
:103300008C0169830E9473A26981681741F0C8012A
:103310000F90DF91CF911F910F910C947BA20F9092
:10332000DF91CF911F910F910895DC018D919C91B8
:10333000DC01ED91FC910190F081E02D19946D3F3D
:1033400071053CF46A3F710554F4683F710541F41E
:1033500006C09B012E5F31092230310508F4E5CF0C
:1033600008950C9473A2CF93DF93C82FD0E082E02E
:1033700090E0F7DFFE01EC57FA4F808383E090E0A6
:10338000F0DFC058DA4F8883DF91CF910895DC01D8
:10339000ED91FC910190F081E02D1994DC01ED910B
:1033A000FC910190F081E02D1994CF92DF92EF9281
:1033B000FF92CF93DF93EC016A017B010E944E954F
:1033C0006C197D098E099F09688379838A839B83A1
:1033D000CE01DF91CF91FF90EF90DF90CF900895D5
:1033E0006FE57FE080E597E10E94C29B80E597E171
:1033F0000E94BF9B68EC70E080E090E00E947D95A9
:103400008DEF95E10E94AD8B40E060E08DEF95E19E
:103410000E94B38B6BE47FE08DEF95E10E94869B69
:103420002EE088E190E00FB6F894A89580936000B4
:103430000FBE20936000FFCFCF93DF93E091F404A1
:10344000F0E0EF5CFD4F808182B90000E091F40470
:10345000F0E0EC57FD4FC081D0E08091F5150E945F
:103460002196FE01EE0FFF1FE25FF24F91838083F2
:10347000E091F404F0E0EC57FD4FC085D0E080917E
:10348000F4150E942196FE01EE0FFF1FE25FF24F3E
:1034900091838083E091F404F0E0EC57FD4FC08904
:1034A000D0E08091F3150E942196FE01EE0FFF1FE0
:1034B000E25FF24F91838083E091F404F0E0EC57F7
:1034C000FD4FC08DD0E08091F2150E942196FE0143
:1034D000EE0FFF1FE25FF24F918380830000809127
:1034E000F4048F5F883019F08093F40402C01092C6
:1034F000F404DF91CF910895CF93DF938091ED1580
:103500008823B9F0EEEAFCE0CEE0DDE0AEE8BCE016
:103510008191811108C08881998163E09595879593
:103520006A95E1F78C93229611968CE0EE3CF807B1
:1035300079F7DF91CF91089540E060E08DEF95E15C
:103540000E94B38B6AE27EE08DEF95E10E94869B3C
:1035500041E060E08DEF95E10E94B38B6CE17EE08D
:103560008DEF95E10E94869B67E572E08DEF95E116
:103570000E94B79B6FEF70E080E090E00C947D9527
:103580001092290C80E090E0ECDE9FEF980F9031D4
:1035900008F081E08093260C08956093180C8093C6
:1035A000190C1092250C1092240C81E08093170CBA
:1035B00008958091170C8823B1F08091240C90918C
:1035C000250C8D32914030F01092250C1092240C75
:1035D0001092170C8091240C9091250C01969093D9
:1035E000250C8093240C089580931D0C60931C0C73
:1035F00020931B0C40931A0C1092250C1092240C53
:1036000081E08093230C089580931F0C1092220C6C
:103610001092210C81E08093200C0895811176C0D6
:103620008091E2158093670A8093530A8091E71591
:103630008093680A8093540A8091FF0B8093690AF3
:103640008093550A8091050C80936A0A8093560AEC
:103650008091020C80936B0A8093570A80919105A8
:1036600080936C0A8093580A80918F0580936D0A2D
:103670008093590A80918E0580936E0A80935A0A2E
:1036800080918D0580936F0A80935B0A8091B705C6
:103690008093700A80935C0A8091070C8093710A72
:1036A00080935D0A809192058093720A80935E0AEE
:1036B0008091060C8093730A80935F0A8091040CBA
:1036C0008093740A8093600A8091030C8093750A3A
:1036D0008093610A1092760A1092620A8091000C1F
:1036E0008093770A8093630A8091B0058093780A6B
:1036F0008093640A8091AD058093790A8093650A6E
:103700008091B60580937A0A8093660A0895CF93D4
:10371000DF9381116EC0E7EAF5E2C3E5DAE0A7E6E0
:10372000BAE0849189938D93339685E2E33EF8075E
:10373000C1F78091670A8093E2158091680A8093AF
:10374000E71581E09091690A911101C080E08093B2
:10375000FF0B80916A0A8093050C81E090916B0ABF
:10376000911101C080E08093020C81E090916C0A7D
:10377000911101C080E08093910580916D0A809342
:103780008F0580916E0A80938E0580916F0A8093D9
:103790008D058091700A8093B7058091710A80939E
:1037A000070C8091720A809392058091730A80932E
:1037B000060C8091740A8093040C8091750A8093A2
:1037C000030C81E09091770A911101C080E0809311
:1037D000000C81E09091780A911101C080E0809303
:1037E000B0058091790A8093AD0580917A0A809323
:1037F000B605DF91CF9108958091F70681110BC036
:10380000EFEEFBE0DF0111971C92108232968BE005
:10381000EF3FF807B9F70895CF93DF931F92CDB725
:10382000DEB7A3E5BAE027EA35E29C91F9013196CB
:10383000E4919E1708F491C0F9013296E491E917DA
:1038400008F48BC011962D5F3F4F9AE0A736B90759
:1038500061F78983D1DF8981282F30E094E1899F46
:10386000F0011124E959F54F80818093E21581819F
:103870008093E71581E09281911101C080E08093EF
:10388000FF0B84E1829FF001839FF00D1124E95921
:10389000F54F83818093050C81E09481911101C0E3
:1038A00080E08093020C84E1829FF001839FF00D01
:1038B0001124E959F54F81E09581911101C080E013
:1038C0008093910584E1829FF001839FF00D112484
:1038D000E959F54F868180938F05878180938E0506
:1038E000808580938D0581858093B705828580933F
:1038F000070C83858093920584858093060C8585CB
:103900008093040C86858093030C81E0908991114B
:1039100001C080E08093000C84E1829FF001839FCE
:10392000F00D1124E959F54F81E09189911101C001
:1039300080E08093B00584E1829FF001839FF00DC9
:103940001124E959F54F82898093AD0583898093CD
:10395000B6050F90DF91CF910895F90194919C9352
:1039600071CF811101C058CF0895882359F081305B
:1039700091F41092EA158093EB158093000C8093DC
:10398000010C08951092EB1581E08093EA151092D6
:10399000000C1092010C08959091000C992311F1E4
:1039A0009091260C49131EC09091FE0B9730D0F4D5
:1039B000213039F0911116C01092010C1092C40AF6
:1039C000089531E03093010C913021F41092C40A33
:1039D0001092BE0A80930A0C60930B0C40930C0C5F
:1039E00020930D0C0895CF93DF935091FE0BC42FBD
:1039F000CC0FCC0F440F440F440F811104C080E062
:103A000090E0D0E050C080E090E0D0E00296D51782
:103A1000B1F0BC016252744FFB0132979C012251FC
:103A2000344FD9011297AC91AC0FA452A40FA083CC
:103A30003196D90111972C912083DF5FE7CFA0E069
:103A4000A51709F449C021E02A0F822FB0E0AA0F80
:103A5000BB1FA252B44FED012196851711F19C9125
:103A6000E82FF0E0EE0FFF1FE252F44F30813917DC
:103A7000B0F493279C9391813881932798839C91EC
:103A8000308193279083988131819327918390810E
:103A90003C9193279C9391813881932798838F5FE2
:103AA000DCCFA22FCDCF0296D517B1F0BC01625268
:103AB000744FFB0132979C012251344FD901129768
:103AC000AC91AC0FA452A40FA0833196D9011197E9
:103AD0002C912083DF5FE7CFDF91CF910895909104
:103AE000C50A292F30E0F901EE0FFF1FE20FF31F87
:103AF000EA53F54F8083618342839F5F9093C50AA9
:103B000008959091FE0B973008F065C0213081F147
:103B100020F0233009F43DC008952091020C2111BA
:103B2000DECFEEEEFBE020E0308138131CC09217B0
:103B300090F0E22FF0E0DF01AA0FBB1FA051B44FBD
:103B40008C91EE0FFF1FE251F44F808311968C9100
:103B500081832F5FECCF91509093FE0B9F3FD9F55F
:103B60001092FE0B08952F5F32969217E8F6089593
:103B70002091EE0B821303C06093EF0B0895E92FA1
:103B8000F0E0EE0FFF1FE251F44F808361839F5FEF
:103B90001BC0EEEEFBE020E03081381318C0921716
:103BA00090F0E22FF0E0DF01AA0FBB1FA051B44F4D
:103BB0008C91EE0FFF1FE251F44F808311968C9190
:103BC00081832F5FECCF91509093FE0B08952F5F70
:103BD0003296921708F708959091FE0B992309F4F5
:103BE000F8C09130B9F44091C10A4F5F262F30E000
:103BF000842F90E0821793070CF4E9C008C08091ED
:103C0000C10A8F5F8093C10A861708F4E2C0109240
:103C1000C10A089590E08A30910540F08091C10A70
:103C20008F5F8093C10A861790F70895FC01EE58C4
:103C3000FF4F0C94C29F8091C10A8F5F8093C10A8D
:103C4000861728F708958091C10A811105C02FEFCA
:103C5000260F2093C10A089581508093C10A0895C8
:103C60009091F1048091C10A992321F08F5F809394
:103C7000C10A0DC0811106C081E08093C10A809302
:103C8000F10405C081508093C10A1092F104809123
:103C9000C10A86139EC02EEF72C08091F10440913C
:103CA000C10A882361F0842F90E0262F30E0215054
:103CB00031098217930709F481C04F5F88C04423FC
:103CC00009F466C0415083C0262F30E021503109ED
:103CD000442737FD4095542F60E070E0CB010E94EF
:103CE000CB9C6093C10A08959091F1048091C10A20
:103CF000992311F08E5F01C081508093C10A81E049
:103D000098279093F104E091C10AF0E0EE0FFF1FB5
:103D1000E252F54F908191115CC01092C10A39C0F6
:103D20008091C10AE82FF0E0EE0FFF1FE052F54F3F
:103D30009081911103C01092C10A2AC09091F104A0
:103D4000911102C08E5F01C081508093C10A81E051
:103D500089271FC08091F1044091C10A882361F036
:103D600081E0840F8093C10A262F30E090E0821713
:103D700093077CF1415020C0411105C02FEF260F61
:103D80002093C10A1BC041504093C10A411121C078
:103D900081E08093F10408958091F1044091C10A7B
:103DA000882379F081E0840F8093C10A262F30E0C8
:103DB00090E0821793076CF04093C10A1092F104CF
:103DC000089541504093C10A442311F3089540934C
:103DD000C10A08951092B007E7EAF5E2A3E5BAE058
:103DE00084918D93339645E2E33EF407C9F7A9EB3E
:103DF000B5E023EE36E284EE96E2F9014491FD014E
:103E000031974083FC0144914C931296F5E0A93F11
:103E1000BF0799F7089585E090E0A3DA91E081115A
:103E200001C090E09093FC0686E090E09ADA91E081
:103E3000811101C090E09093FB0687E090E091DA59
:103E400091E0811101C090E09093FA0688E090E043
:103E500088DA91E0811101C090E09093F90608950D
:103E6000DC01ED91FD918081ED91FD919081ED91CD
:103E7000FD916C9163708E2309F064609F2309F0BB
:103E80006860EDE4FFE1E60FF11D659565956D93C2
:103E90006D917D918D919D91099423C01AC012C09E
:103EA00016C010C01EC009C014C013C006C019C07F
:103EB00009C00DC007C00DC014C0625070408040E2
:103EC00090400BC0615070408040904006C06E5FD3
:103ED00001C06F5F7F4F8F4F9F4F9E938E937E9356
:103EE0006E93089580913D1790913E17B9CF8091C0
:103EF0003B1790913C17B4CFCF93DF93CDB7DEB78C
:103F000028970FB6F894DEBF0FBECDBFE5ECF7E102
:103F1000DE01119684918D93319687E1ED3CF8078F
:103F2000C9F7AE014F5F5F4F60E08DEF95E10E94F2
:103F30007D8CEDEBF7E1DE01119684918D93319646
:103F400087E1E53CF807C9F7AE014F5F5F4F61E0DD
:103F50008DEF95E10E947D8CE5EBF7E1DE01119696
:103F600084918D93319687E1ED3BF807C9F7AE0157
:103F70004F5F5F4F62E08DEF95E10E947D8CEDEA2F
:103F8000F7E1DE01119684918D93319687E1E53B4F
:103F9000F807C9F7AE014F5F5F4F63E08DEF95E122
:103FA0000E947D8CE5EAF7E1DE01119684918D9304
:103FB000319687E1ED3AF807C9F7AE014F5F5F4FE1
:103FC00064E08DEF95E10E947D8CEDE9F7E1DE0183
:103FD000119684918D93319687E1E53AF807C9F7F8
:103FE000AE014F5F5F4F65E08DEF95E10E947D8CE4
:103FF000E5E9F7E1DE01119684918D93319687E131
:10400000ED39F807C9F7AE014F5F5F4F66E08DEFFE
:1040100095E10E947D8CEDE8F7E1DE011196849137
:104020008D93319687E1E539F807C9F7AE014F5F07
:104030005F4F67E08DEF95E10E947D8C28960FB66B
:10404000F894DEBF0FBECDBFDF91CF9108952091D0
:10405000F91590E2299F90011124280F311D85E068
:10406000829FF001839FF00D1124EA5EFC4F808156
:104070000895CF932091F91590E2299F9001112482
:10408000280F311D85E0829FF001839FF00D1124E0
:10409000EA5EFC4F83818230B9F028F4882389F0EE
:1040A000813051F004C0833021F0843051F0C0E001
:1040B0000CC0C0E4C60F03C0C62FC695C05ACF7748
:1040C00004C0C62FC69501C0C62F4AE050E080E567
:1040D00097E10E948F9C8C2FCF9108950F931F938F
:1040E000062F10E00436110508F06DC3F801E458FE
:1040F000FF4F0C94C29F96E8899FF0011124E55C64
:10410000F74F408788E05DC396E8899FF00111244E
:10411000E55CF74F418789E054C396E8899FF00139
:104120001124E55CF74F42878AE04BC396E8899FEC
:10413000F0011124E55CF74F43878BE042C396E81A
:10414000899FF0011124E55CF74F44878CE039C367
:1041500096E8899FF0011124E55CF74F45878DE0D3
:1041600030C396E8899FF0011124E55CF74F46873C
:104170008EE027C396E8899FF0011124E55CF74F94
:1041800047878FE01EC396E8899FF0011124E55C04
:10419000F74F408B80E115C396E8899FF001112409
:1041A000E55CF74F418B81E10CC396E8899FF001F4
:1041B0001124E55CF74F428B82E103C396E8899FA7
:1041C000F0011124E55CF74F438B83E1FAC296E8D6
:1041D000899FF0011124E55CF74F448B84E1F1C223
:1041E00096E8899FF0011124E55CF74F458B85E146
:1041F000E8C296E8899FF0011124E55CF74F468BF1
:1042000086E1DFC296E8899FF0011124E55CF74F53
:10421000478B87E1D6C296E8899FF0011124E55CBF
:10422000F74F408F88E1CDC296E8899FF0011124B5
:10423000E55CF74F418F89E1C4C296E8899FF001A0
:104240001124E55CF74F428F8AE1BBC296E8899F53
:10425000F0011124E55CF74F438F8BE1B2C296E881
:10426000899FF0011124E55CF74F448F8CE1A9C2CE
:1042700096E8899FF0011124E55CF74F458F8DE1A9
:10428000A0C296E8899FF0011124E55CF74F468FA4
:104290008EE197C296E8899FF0011124E55CF74F03
:1042A000478F8FE18EC296E8899FF0011124E55C6B
:1042B000F74F40A380E285C296E8899FF001112460
:1042C000E55CF74F41A381E27CC296E8899FF0014B
:1042D0001124E55CF74F42A382E273C296E8899FFE
:1042E000F0011124E55CF74F43A383E26AC296E82C
:1042F000899FF0011124E55CF74F44A384E261C279
:1043000096E8899FF0011124E55CF74F45A385E20B
:1043100058C296E8899FF0011124E55CF74F46A347
:1043200086E24FC296E8899FF0011124E55CF74FC1
:1043300047A387E246C296E8899FF0011124E55C15
:10434000F74F40A788E23DC296E8899FF00111240B
:10435000E55CF74F41A789E234C296E8899FF001F6
:104360001124E55CF74F42A78AE22BC296E8899FA9
:10437000F0011124E55CF74F43A78BE222C296E8D7
:10438000899FF0011124E55CF74F44A78CE219C224
:1043900096E8899FF0011124E55CF74F45A78DE26F
:1043A00010C296E8899FF0011124E55CF74F46A7FB
:1043B0008EE207C296E8899FF0011124E55CF74F71
:1043C00047A78FE2FEC196E8899FF0011124E55CC2
:1043D000F74F40AB80E3F5C196E8899FF0011124C7
:1043E000E55CF74F41AB81E3ECC196E8899FF001B2
:1043F0001124E55CF74F42AB82E3E3C196E8899F65
:10440000F0011124E55CF74F43AB83E3DAC196E892
:10441000899FF0011124E55CF74F44AB84E3D1C1DF
:1044200096E8899FF0011124E55CF74F45AB85E3E1
:10443000C8C196E8899FF0011124E55CF74F46ABAF
:1044400086E3BFC196E8899FF0011124E55CF74F30
:1044500047AB87E3B6C196E8899FF0011124E55C7C
:10446000F74F40AF88E3ADC196E8899FF001112472
:10447000E55CF74F41AF89E3A4C196E8899FF0015D
:104480001124E55CF74F42AF8AE39BC196E8899F10
:10449000F0011124E55CF74F43AF8BE392C196E83E
:1044A000899FF0011124E55CF74F44AF8CE389C18B
:1044B00096E8899FF0011124E858F74F40838DE377
:1044C00080C196E8899FF0011124E758F74F408397
:1044D0008EE377C196E8899FF0011124E658F74FE3
:1044E00040838FE36EC196E8899FF0011124E5585F
:1044F000F74F408380E465C196E8899FF00111245D
:10450000E458F74F408381E45CC196E8899FF0014D
:104510001124E358F74F408382E453C196E8899F02
:10452000F0011124E258F74F408383E44AC196E832
:10453000899FF0011124E158F74F408384E441C181
:1045400096E8899FF0011124E058F74F408385E4F5
:1045500038C196E8899FF0011124EF57F74F408347
:1045600086E42FC196E8899FF0011124EE57F74F9A
:10457000408387E426C196E8899FF0011124ED5716
:10458000F74F408388E41DC196E8899FF00111240C
:10459000EC57F74F408389E414C196E8899FF001F6
:1045A0001124EB57F74F40838AE40BC196E8899FAB
:1045B000F0011124EA57F74F40838BE402C196E8DB
:1045C000899FF0011124E957F74F40838CE4F9C02B
:1045D00096E8899FF0011124E857F74F40838DE456
:1045E000F0C096E8899FF0011124E757F74F408308
:1045F0008EE4E7C096E8899FF0011124E657F74F53
:1046000040838FE4DEC096E8899FF0011124E557CE
:10461000F74F408380E5D5C096E8899FF0011124CB
:10462000E457F74F408381E5CCC096E8899FF001BD
:104630001124E357F74F408382E5C3C096E8899F72
:10464000F0011124E257F74F408383E5BAC096E8A2
:10465000899FF0011124E157F74F408384E5B1C0F1
:1046600096E8899FF0011124E057F74F408385E5D4
:10467000A8C096E8899FF0011124EF56F74F4083B8
:1046800086E59FC096E8899FF0011124EE56F74F0A
:10469000408387E596C096E8899FF0011124ED5686
:1046A000F74F408388E58DC096E8899FF00111247B
:1046B000EC56F74F408389E584C096E8899FF00166
:1046C0001124EB56F74F40838AE57BC096E8899F1B
:1046D000F0011124EA56F74F40838BE572C096E84B
:1046E000899FF0011124E956F74F40838CE569C09A
:1046F00096E8899FF0011124E856F74F40838DE535
:1047000060C096E8899FF0011124E756F74F408377
:104710008EE557C096E8899FF0011124E656F74FC1
:1047200040838FE54EC096E8899FF0011124E5563D
:10473000F74F408380E645C096E8899FF001112439
:10474000E456F74F408381E63CC096E8899FF0012C
:104750001124E356F74F408382E633C096E8899FE1
:10476000F0011124E256F74F408383E62AC096E811
:10477000899FF0011124E156F74F408384E621C060
:1047800096E8899FF0011124E056F74F408385E6B3
:1047900018C096E8899FF0011124EF55F74F408328
:1047A00086E60FC096E8899FF0011124EE55F74F79
:1047B000408387E606C0E82FF0E0EF54F84F4083CF
:1047C00086E88093D1061F910F910895CF93DF93D0
:1047D00070E0853008F04BC0EB0194E6899FC00D76
:1047E000D11D112440E556E0BE018BE89DE00E94FA
:1047F000178DADEBB7E0E0E5F6E081918D9386E0B3
:10480000EE3CF807D1F740E556E0BE0188E79DE0B1
:104810000E94178DA5EBB7E0E0E5F6E081918D935E
:1048200096E0E835F907D1F7809158068093B007F4
:10483000E9E5F6E0A3E5BAE081918D93C6E0ED36B7
:10484000FC07D1F74DE656E0ADE8B6E0E9EBF5E060
:10485000EA012991AE01CF010197EC0128838D91E6
:1048600080833296D6E0AD3ABD0791F74EC090E016
:10487000059724E6289FE001299FD00D1124C60F3B
:10488000D71F40E556E0BE0185E69DE00E94178DEA
:10489000ADEBB7E0E0E5F6E081918D9386E0EE3C8C
:1048A000F807D1F740E556E0BE0182E59DE00E94A1
:1048B000178DA5EBB7E0E0E5F6E081918D9396E0EA
:1048C000E835F907D1F7809158068093B007E9E5FC
:1048D000F6E0A3E5BAE081918D93C6E0ED36FC07E2
:1048E000D1F74DE656E0ADE8B6E0E9EBF5E0EA01D8
:1048F0002991AE01CF010197EC0128838D9180832E
:104900003296D6E0AD3ABD0791F781E0DF91CF91C5
:104910000895EF92FF920F931F93CF93DF93EDEBE8
:10492000F7E0A0E5B6E0442309F494C0853008F030
:1049300045C091919D9328E0EB33F207D1F794E6BF
:10494000899F80011124060F111D40E556E0B80132
:104950008BE89DE00E94CF8DE5EBF7E0A0E5B6E0A7
:1049600081918D93C7E0ED3BFC07D1F78091B007B3
:1049700080935806E3E5FAE0A9E5B6E081918D93CE
:10498000DAE0E736FD07D1F7ADE6B6E0E9EBF5E0B2
:104990002DE836E0CF010197EC0188818D9380816D
:1049A000E90189939E013296D6E0AD38BD0791F7B3
:1049B00040E556E0B80188E79DE048C091919D939D
:1049C00028E0EB33F207D1F790E0059724E6289F23
:1049D0008001299F100D1124060F111D40E556E09E
:1049E000B80185E69DE00E94CF8DE5EBF7E0A0E5FC
:1049F000B6E081918D9387E0ED3BF807D1F7809188
:104A0000B00780935806E3E5FAE0A9E5B6E08191A6
:104A10008D939AE0E736F907D1F7ADE6B6E0E9EB1A
:104A2000F5E02DE836E0CF010197EC0188818D9308
:104A30008081E90189939E013296D6E0AD38BD07A9
:104A400091F740E556E0B80182E59DE00E94CF8DE8
:104A500081E0CEC0853008F066C091919D9328E03A
:104A6000EB33F207D1F7C62FD0E094E6899FC00D53
:104A7000D11D1124D695DC2FCC27D795C7957E0163
:104A800000E516E0E6E0003D1E0761F0D8014D911B
:104A90008D01B7018BE89DE00E94778DBFEFEB1A87
:104AA000FB0AF0CFE5EBF7E0A0E5B6E081918D934E
:104AB00027E0ED3BF207D1F78091B00780935806CD
:104AC000E3E5FAE0A9E5B6E081918D938AE0E73667
:104AD000F807D1F74DE656E0E9EBF5E08DE896E012
:104AE0009F0121503109D9012C91DA012D93AD019B
:104AF0002081DC012D93CD013296B6E04D385B0765
:104B000079F78E01C0E5D6E0E6E0C03DDE0749F06A
:104B10004991B80188E79DE00E94778D0F5F1F4F94
:104B2000F3CF82E065C091919D9328E0EB33F207CB
:104B3000D1F7C62FD0E094E6899FC00DD11D112476
:104B4000D695DC2FCC27D795C7957E0100E516E0DA
:104B5000E6E0003D1E0761F0D8014D918D01B701DF
:104B600085E69DE00E94778DBFEFEB1AFB0AF0CF40
:104B7000E5EBF7E0A0E5B6E081918D9327E0ED3B12
:104B8000F207D1F78091B00780935806E3E5FAE089
:104B9000A9E5B6E081918D938AE0E736F807D1F771
:104BA0004DE656E0E9EBF5E08DE896E09F012150F7
:104BB0003109D9012C91DA012D93AD012081DC015D
:104BC0002D93CD013296B6E04D385B0779F78E0113
:104BD000C0E5D6E0E6E0C03DDE0709F4A2CF49918A
:104BE000B80182E59DE00E94778D0F5F1F4FF2CFE5
:104BF000DF91CF911F910F91FF90EF900895CF9388
:104C0000C82F862F642FE2DDE5EBF7E086E8C89F2A
:104C1000A0011124455C574F20E030E06C2F70E07C
:104C20008191DA01A20FB31F8C932F5F3F4F26387B
:104C30003105B1F78091B007803418F08FE380938D
:104C4000B007FB01EF54F84F8091B0078083E3E594
:104C5000FAE084E1869FA001879F500D11244959F5
:104C6000554F20E030E08191DA01A20FB31F8C9301
:104C70002F5F3F4F24313105B1F7C11111C080E0E2
:104C800090E0DC01A854BA4FFC01E850FA4F2C9197
:104C9000208311962C91218302968034910589F707
:104CA000CF910895EF92FF920F931F93CF93DF93CD
:104CB000962F642F05EBE02E07E0F02E26E8829F6A
:104CC000F0011124E55CF74F20E030E0C82FD0E080
:104CD0008F01020F131FD8014C91D7014D937D0115
:104CE0002F5F3F4F2638310599F7FE01EF54F84FFB
:104CF00020812093B007A3E5BAE024E12C9FF001C6
:104D00002D9FF00D1124E959F54F20E030E0EF011F
:104D1000C20FD31F48814D932F5F3F4F2431310580
:104D2000B1F7882349F041E0892FDF91CF911F919E
:104D30000F91FF90EF90EDCD20E030E0D901A85029
:104D4000BA4FF901E854FA4F8C91808311968C91F7
:104D500081832E5F3F4F2034310581F7E4CFCF931D
:104D6000DF93962F642FA5EBB7E026E8829FF00132
:104D70001124E55CF74F20E030E0EF01C20FD31FB4
:104D800088818D932F5F3F4F26383105B1F741E081
:104D9000892FDF91CF91BDCDE0E5F6E026E8829F37
:104DA000C0011124855C974F20E030E0DC01A20FA8
:104DB000B31F18965C9151932F5F3F4F2E373105EB
:104DC000A9F750E0653060F4CA0124E6629F800DC7
:104DD000911D1124BC0140E556E08BE89DE00FC019
:104DE000862F90E0059724E6289FB001299F700D3B
:104DF0001124640F751F40E556E085E69DE00C9494
:104E0000CF8D5F926F927F928F929F92AF92BF925F
:104E1000CF92DF92EF92FF920F931F93CF93DF9386
:104E2000862E542E862F90E0059724E6289F800139
:104E3000299F100D112484E6689FE001112484E667
:104E4000982EA12CB12C9DE4792E24E5622EE0E36E
:104E50005E0E33EEE32E36E2F32E44EEC42E46E22F
:104E6000D42E0C1B1D0B709250066092510682E5E9
:104E70008093520688E5809353068DE28093540612
:104E80005092550680E38B0D8093560680E38A0D81
:104E90008093570610925806E7EAF5E2A9E5B6E0D6
:104EA00024912D93339685E2E33EF807C9F7ADE6EA
:104EB000B6E0F70184918D93F6E0AD38BF07C9F7EE
:104EC000ADE8B6E0F60184918D93F6E0AD3ABF0708
:104ED000C9F7EDEAF6E0119286E0EF3CF807D9F762
:104EE000E4E040E556E0E81520F0BE0188E79DE0EB
:104EF00005C0B8016C0F7D1F82E59DE00E94CF8D3B
:104F0000A394FAE0AF1202C0B394A12C8AE0B812C5
:104F100001C0B12C9A9421969110A5CFDF91CF9129
:104F20001F910F91FF90EF90DF90CF90BF90AF90C7
:104F30009F908F907F906F905F900895CF93DF93B5
:104F4000C82FD42F8130A9F060F08230D1F08330A7
:104F500009F580E190E00E9479196D2F81E190E0E0
:104F600017C082E090E00E9479196D2F83E090E0F5
:104F70000FC08CE090E00E9479196D2F8DE090E0D9
:104F800007C08EE090E00E9479196D2F8FE090E0CD
:104F90000E9479196C2F84E090E0DF91CF910C94FE
:104FA0007919813049F028F0823099F08330F1F09E
:104FB000089580E00C94B3198CE090E00E94B11940
:104FC000809385058DE090E00E94B1198093810562
:104FD00008958EE090E00E94B119809386058FE0DD
:104FE00090E00E94B11980938205089580E190E0DD
:104FF0000E94B1198093870581E190E00E94B11968
:1050000080938305089583EF91E00E94B11988236E
:10501000A1F082EF91E00E94B119882371F081EF35
:1050200091E00E94B119882341F06AEB7BE080E5B2
:1050300097E10E94C29B81E0089568E97BE080E5EA
:1050400097E10E94C29B80E00895CF93882379F076
:105050008230D9F466E87BE080E597E10E94869B88
:1050600040E556E06FEF71E085E69DE00CC06FE82B
:105070007BE080E597E10E94869B40E556E06FEF7C
:1050800071E08BE89DE00E94178DA0E5B6E020E07E
:1050900030E0C0E08D91F901EF5DFF4DE4918E139A
:1050A000CF5F2F5F3F4F2E373105A1F7CC2319F08B
:1050B0006FE57BE002C06CE37BE080E597E10E9456
:1050C000C29B8C2FCF9108950F931F93CF93DF93A3
:1050D000C0E0D0E08E010B5F1F4FFE01E45CF94F92
:1050E0006081CE0142960E9479192196C017D1079E
:1050F000A1F7C431D10571F760913B0686E290E0DB
:10510000DF91CF911F910F910C94791980E090E07D
:1051100020E030E0BC016D51774DAC01445C594F4B
:10512000FB01E20FF31FE491DA01A20FB31FEC932E
:105130002F5F3F4F2530310599F705968431910552
:1051400039F710923B06C0CF0F931F93CF93DF9395
:10515000E3EDF0E1CDE8D3E7D183C083ABEBB4E777
:10516000B383A28364E97CE77783668342E05EE7EA
:10517000518740872BE43FE53387228783E09FE513
:10518000958784870CED1CE5178706870AED1DE6D9
:10519000118F008F08E619E1138F028F03E719E1E1
:1051A000158F048F05E71BE2178F068FE7E0F4E108
:1051B000D183C083B383A28377836683518740877B
:1051C0003387228795878487DF91CF911F910F9135
:1051D000089580919E0590E0FC013897E931F10532
:1051E00028F5E052FF4F0C94C29F81E090E01AC076
:1051F00082E090E017C083E090E014C084E090E08B
:1052000011C085E090E00EC08AE090E00BC08BE01A
:1052100090E008C086E090E005C087E090E002C022
:105220008CE090E09093A1058093A00508952091D3
:1052300097053091980540919E05453069F028F416
:10524000443081F480E090E00EC0463041F04730B9
:1052500049F488E090E007C081E090E004C087E076
:1052600090E001C0C90181309105E9F450919B059E
:10527000511119C04C3091F038F4483061F0493088
:1052800091F482E090E00FC04D3059F04E3059F467
:1052900086E090E008C083E090E005C084E090E004
:1052A00002C085E090E02817390711F010929B05A5
:1052B0000895FC012081222319F0261758F004C01C
:1052C00030919F05313031F026130BC030919F058E
:1052D00037FF07C030919F05320FFC01308381E01A
:1052E000089580E00895FC0180819FEF980F9E3320
:1052F00058F1811108C090919F05913041F19F3F75
:1053000051F48FE71DC08F3331F490919F059F3F7B
:1053100011F48EE315C09EEB980F9D33A8F08F37E4
:1053200041F480919F05813011F4108208958158D5
:1053300007C0813439F480919F05813059F482E4AB
:10534000808306C087FF06C090919F05980F9083C9
:1053500081E0089580E0089520919205E22FF0E029
:10536000EE0FFF1FE650FD4F808191819093090C55
:105370008093080C2F3F19F48EEF80939205809153
:1053800092058F3F11F4109292050895FC0120813F
:10539000222319F0261758F004C030919F053130B0
:1053A00031F0261324C030919F0537FF20C0309183
:1053B0009F05320FFC01308320919205E22FF0E02F
:1053C000EE0FFF1FE650FD4F808191819093090CF5
:1053D0008093080C211103C081E080939205809195
:1053E00092058F3F31F48EEF8093920502C080E0EA
:1053F000089581E008952091F706EDEDF2E080E058
:1054000096E8299F900111249081D901A90FB11D1F
:10541000A55CB74F9C91992321F08F5F33968A301A
:1054200099F70895CF93DF9380919E058F3021F4F3
:1054300081E080939B0535C0893049F48091A605B1
:105440008F5F8A3008F4B5C01092A6052AC08E304E
:1054500041F58091A6052091F706482F50E0FA010A
:10546000EE0FFF1FE40FF51FE452FD4F928146E857
:10547000249F90011124E901C90FD11DC55CD74FAC
:105480009181D901A90FB11DA55CB74F9081F90198
:10549000E90FF11DE55CF74F28814C9160810E9476
:1054A000F41A80919F05882309F486C02091A005F5
:1054B0003091A1052230310541F144F4213031050C
:1054C00009F04DC069E086EA95E035C09091A605E7
:1054D0008091F7062330310581F12530310509F03F
:1054E0003EC0292F30E0F901EE0FFF1FE20FF31F3E
:1054F000E452FD4F228136E8839FC0011124820FC0
:10550000911D855C974FEFDE2AC08091A60590E043
:10551000FC01EE0FFF1FE80FF91FE452FD4F208141
:105520008091F70636E8839FC0011124820F911DF8
:1055300064E1855C974FBDDE12C0292F30E0F90190
:10554000EE0FFF1FE20FF31FE452FD4F218146E8EB
:10555000849FC0011124820F911D60E2EACF8091E7
:10556000A6052091F706482F50E0FA01EE0FFF1F25
:10557000E40FF51FE452FD4F928146E8249F90010D
:105580001124E901C90FD11DC55CD74F9181D90103
:10559000A90FB11DA55CB74F9081F901E90FF11D6D
:1055A000E55CF74F28814C916081DF91CF910C949D
:1055B000F41A8093A60575CFDF91CF910895462FF9
:1055C000682F8BE297E10C94A992CF93E091F706B4
:1055D000C6E8CE9FF0011124E55CF74F6585617048
:1055E00082E0EDDFE091F706CE9FF0011124E55C4B
:1055F000F74F6289617087E0E2DFE091F706CE9FA6
:10560000F0011124E55CF74F65856695617081E0D6
:10561000D6DFE091F706CE9FF0011124E55CF74F4D
:1056200062896695617086E0CADFE091F706CE9FD9
:10563000F0011124E55CF74F6689617080E0BFDFFF
:10564000E091F706CE9FF0011124E55CF74F608DE5
:10565000617085E0B4DF8091F70690E0C89FF001AB
:10566000C99FF00D1124E55CF74F228922FF04C089
:1056700022E02093FD0602C01092FD0626E8289F36
:10568000F001299FF00D1124E55CF74F818D8823EF
:1056900011F061E001C060E084E0CF9190CFCF9342
:1056A000DF932091F706422F50E0A5EBB7E086E8A4
:1056B000289F90011124255C374F80E090E0FC0189
:1056C000E75EFF4DE491ED93E901C80FD91FE88330
:1056D00001968638910599F71092B007FA01EF54B8
:1056E000F84F1082DF91CF9170CF81E08093290C29
:1056F0008091E215813031F488E180930E0C60E0F6
:1057000086E15DCF089540E0682F8BE297E10C942D
:10571000A99241E0682F8BE297E10C94A992813025
:1057200051F028F0823079F0833099F0089588E0C4
:10573000F0DF8BE003C08BE0ECDF88E0E4DF89E0A2
:10574000E2DF8AE00DC089E0E4DF88E0DCDF8BE0A7
:10575000F7CF8AE0DEDF88E0D6DF8BE0D4DF89E0B8
:10576000D2CFEF92FF920F931F93CF93DF931F92AD
:10577000CDB7DEB7F62E142F482F6EE08BE297E1FF
:1057800029830E94A9924F2D6FE08BE297E10E943E
:10579000A992412F60E18BE297E10E94A9922981B1
:1057A000422F61E18BE297E10E94A992402F62E1D2
:1057B0008BE297E10E94A9924E2D63E18BE297E183
:1057C0000F90DF91CF911F910F91FF90EF900C946C
:1057D000A992EF920F9384E196DF85E19ADF86E14B
:1057E00092DFE12C00E020E040E060E080E0B9DF03
:1057F00087E189DF80919B05882311F083E189DFB0
:1058000080919705909198058430910591F03CF432
:105810008230910561F00397A1F48FE00FC08630CC
:10582000910559F044F0089761F487E107C08EE0D4
:1058300005C080E103C081E101C082E10F91EF90DA
:1058400068CF0F91EF900895682F8BE297E10C9449
:1058500094928091F815882321F080913002811173
:1058600044C04091EF04242F30E0E091F70686E831
:10587000E89FF0011124E55CF74F53A18EE390E01F
:10588000851B91092817390724F44F5F4093EF04D3
:105890000AC08AE1D9DF61E0813009F460E08AE181
:1058A0008EDE1092EF044091EE04242F30E0E09160
:1058B000F70686E8E89FF0011124E55CF74F52A552
:1058C0008EE390E0851B91092817390724F44F5F78
:1058D0004093EE0408958BE1B7DF61E0813009F475
:1058E00060E08BE16CDE1092EE0408958091F81573
:1058F000882321F0809130028111D6C08091290C3B
:10590000882331F061E08DE05ADE1092290C07C047
:105910008DE09ADF813019F460E08DE050DE8091F7
:10592000E115882351F08091E215833031F461E074
:105930008CE045DE1092E11509C08CE085DF8130F6
:1059400029F48091E215833009F4AAC08091FA15F8
:10595000882311F061E005C08EE176DF813019F413
:1059600060E08EE12CDE8091F915882311F061E072
:1059700005C08FE169DF813019F460E08FE11FDE3F
:105980008091ED04813168F1E091F70686E8E89FA7
:10599000F0011124E55CF74F8289843080F087E0C4
:1059A00053DF61E0813009F460E087E008DE86E0E3
:1059B0004BDF61E0813009F460E086E000DE809139
:1059C000B005811104C08091000C882341F086E16C
:1059D0003BDF61E0813009F460E086E1F0DD1092A8
:1059E000ED048091ED048F5F8093ED04E091F70664
:1059F00086E8E89FF0011124E55CF74F418D209186
:105A0000EC0430E05EEF540F80E190E002C0959529
:105A100087955A95E2F78217930764F4423040F075
:105A200084E012DF61E0813009F460E084E0C7DDEA
:105A30001092EC048091EC048F5F8093EC049091C1
:105A4000EB0480919205891728F56091EA0481E0C2
:105A500068276093EA048091000C882331F08091DC
:105A6000020C811103C061E001C060E083E0A7DDAA
:105A70008091B005882349F080919005811102C082
:105A800061E004C06091EA0401C060E08DE197DD4F
:105A90001092EB048091EB048F5F8093EB040895E8
:105AA00060E08CE08CDD52CF089520DFD2CE682FED
:105AB00070E0803410F440E003C06054710941E0AC
:105AC0008DEF95E10C94B38B8DEF95E10C94AD8B3C
:105AD000CF93DF93EC01843691057CF46BE572E0A3
