:100000000C94C5130C943D850C9412850C94E784D4
:100010000C94BC840C9491840C9466840C943B8462
:100020000C9410840C94BD860C94BD860C94BD86F3
:100030000C94F6130C94F6130C94F6130C94F6131C
:100040000C94F6130C94F6130C94F6130C94F6130C
:100050000C9468850C94F6130C94F6130C94C683D8
:100060000C94F6130C94787D0C944E7D0C94F6133E
:100070000C94F6130C94F6130C94F6130C94F613DC
:100080000C94F6130C94F6130C94F6130C945389F9
:100090000C94247D0C94FA7C0C94F6130C942F8809
:1000A0000C94F6130C94F6130C94F6130C94F613AC
:1000B0000C94F6130C94F6130C94F6130C94F6139C
:1000C0000C94F6130C94F6130C94F6130C94D07C49
:1000D0000C94A67C0C94F6130C947C7C0C94527CAF
:1000E0000C94F613204F4E2020202020202020208A
:1000F0002020202000204F464620202020202020A5
:10010000202020202000204E4F4953452020202031
:1001100020202020202000204E4F49534520202021
:100120002020202020202000204E4F495345202011
:10013000202020202020202000204E4F4953452001
:10014000202020202020202020002057415645201C
:10015000262050554C53452020200020574156451D
:100160002020202020202020202020002050554C1E
:1001700053452020202020202020202000204F46F2
:100180004620202020202020202020202000204841
:1001900041524445522020202020202020200020B1
:1001A00048415244202020202020202020202000D0
:1001B00020534F4654202020202020202020202083
:1001C00000204F46462020202020202020202020D4
:1001D000200053414D504C4544204D4F44554C4117
:1001E0005445004E4F4953452020202020202020F8
:1001F0002020200052414E444F4D2020202020201E
:1002000020202020005351554152452020202020FD
:10021000202020202000444F574E205341572020BB
:1002200020202020202000555020534157202020FE
:100230002020202020202000545249414E474C4588
:10024000202020202020202000205F4445564943C4
:10025000455F445F2020202000205F4445564943ED
:10026000455F435F2020202000205F4445564943DE
:10027000455F425F2020202000205F4445564943CF
:10028000455F415F20202020002044434F31204320
:100290004C49432020202020002044434F31205748
:1002A000415645464F524D20002044434F2053595C
:1002B0004E43204D4F444520002044434F312057AA
:1002C000415645464F524D20002044434F3220575F
:1002D000415645464F524D200020554E55534544FA
:1002E0002044494E3232202000204C464F322057C5
:1002F00041564553484150452000204C464F31203F
:100300005741564553484150452000205F46325FD3
:100310002020202020202020202000205F5348493A
:1003200046545F2020202020202000205F414C5494
:100330005F2020202020202020200020554E5553D3
:1003400045442044494E3136202000205F5041472B
:10035000455F202020202020202000205F4B455991
:10036000355F202020202020202000205F4B455991
:10037000345F202020202020202000205F4B455982
:10038000335F202020202020202000205F44454390
:100390005F20202020202020202000205F494E4385
:1003A0005F20202020202020202000205F4B455966
:1003B000315F202020202020202000205F4B455945
:1003C000325F202020202020202000205F4346474D
:1003D0005F20202020202020202000205F4152503C
:1003E0005F20202020202020202000205F4544493D
:1003F000545F202020202020202000205F504154E6
:1004000043485F20202020202020002044434F32FA
:1004100020434C49432020202020002044434F32D9
:100420002057415645464F524D2000205F46315FD0
:1004300020202020202020202020002044434F3254
:100440002057415645464F524D20004C464F3220D2
:100450005350454544202F4B42442000454E5633CF
:100460002052454C4541534520202020004C464F0A
:100470003220414D50202F52414D50322000454EE8
:100480005633204445434159202020202020004C51
:10049000464F3120414D50202F52414D50312000C8
:1004A000454E56332041545441434B2020202020B8
:1004B000004C464F31205350454544202F50525355
:1004C0002000454E5633205355535441494E202069
:1004D000202000454E563120414D50202F56454C8E
:1004E0004F202000454E563220414D504C49545526
:1004F0004445202000454E563320414D504C495430
:1005000055444520200044434F32205057202F4C63
:10051000464F322020200044434F322050572020A5
:10052000202020202020200044434F3220444554E6
:10053000554E4520202020200044434F3220574173
:1005400056452053484150452000454E56312041E4
:100550004D504C495455444520200044434F3220CF
:10056000462F4C464F31202020202000554E495325
:100570004F4E20444554554E452020200044434FC3
:100580003220465245512020202020202000444384
:100590004F312050572020202020202020200044B0
:1005A000434F2042414C414E434520202020200013
:1005B00044434F31205057202F4C464F32202020AB
:1005C00000504F52544120524154452020202020B9
:1005D000200044434F312057415645205348415055
:1005E000452000504F525441202F56454C4F20205B
:1005F0002020200056434620465245512043555462
:10060000202020200056434620464D2F5052532094
:1006100020202020200044434F31204652455120C5
:1006200020202020202000564341202F454E5632C6
:10063000202020202020200044434F312046202F1E
:100640004C464F312020202000564341202F564554
:100650004C4F202020202020200056434620464D8D
:10066000202F454E563320202020004C464F32206C
:10067000535045454420202020202000454E56322E
:100680002052454C4541534520202020004C464FE8
:100690003220414D504C4954554445202000454E90
:1006A0005632204445434159202020202020004C30
:1006B000464F3120414D504C49545544452020006F
:1006C000454E56322041545441434B202020202097
:1006D000004C464F312053504545442020202020D7
:1006E0002000454E5632205355535441494E202048
:1006F000202000454E56312052454C45415345205F
:1007000020202000454E56312044454341592020A9
:100710002020202000454E56312053555354414946
:100720004E202020200044434F32205057202F4C91
:10073000464F322020200044434F32205057202083
:10074000202020202020200044434F3220444554C4
:10075000554E4520202020200044434F3220574151
:1007600056452053484150452000454E56312041C2
:10077000545441434B20202020200044434F32203A
:1007800046202F4C464F312020202000554E495303
:100790004F4E20444554554E452020200044434FA1
:1007A0003220465245512020202020202000444362
:1007B0004F3120505720202020202020202000448E
:1007C000434F2042414C414E4345202020202000F1
:1007D00044434F31205057202F4C464F3220202089
:1007E0000052414D502031205241544520202020BC
:1007F000200044434F312057415645205348415033
:1008000045200052414D5020322052415445202075
:10081000202020005643462046524551204355543F
:1008200020202020005643462046202F505253209F
:1008300020202020200044434F31204652455120A3
:100840002020202020200056434620464D202020F6
:10085000202020202020200044434F312046202FFC
:100860004C464F312020202000564346205245530D
:100870004F202020202020202000564346204620C4
:100880002F454E5631202020202000455854004D41
:100890004C540053474C002D2D2D002D2D2D2D0097
:1008A0004C464F3100474C464F004E4F524D00458D
:1008B000582B4D4C542B52535400455854524E2BE8
:1008C0004D4C544900455854524E2B5253455400F8
:1008D00045585445524E202020200052455345543F
:1008E0002B4D4C5449004D554C544920202020207C
:1008F0000052455345542020202020002D2D2D2D21
:100900002D2D2D2D2D2D00424F544820202020002C
:10091000465245452D52554E004441445220202018
:1009200020002D2D2D2D2D2D2D2D00524541532FE5
:10093000524F4200554E49534F4E202000524F54C3
:10094000415445202000524541535349474E0045EC
:1009500058504F4E454E5432004558504F4E454E1C
:10096000543100434F4E532D54494D4500434F4E93
:10097000532D535045440045585447415445004574
:10098000585445524E20004D554C54492020005398
:10099000494E474C452000504F5254414D544F0052
:1009A0004C464F322D414D50004C464F322D535046
:1009B00044004C464F312D414D50004C464F312D97
:1009C00053504400454E56332D414D5000454E5630
:1009D000332D524C5300454E56332D444B59004550
:1009E0004E56332D41544B00454E56332D444C59F1
:1009F00000454E56322D414D5000454E56322D5237
:100A00004C5300454E56322D444B5900454E5632FC
:100A10002D41544B00454E56322D444C5900454E05
:100A200056312D414D5000454E56312D524C5300FC
:100A3000454E56312D444B5900454E56312D4154AB
:100A40004B00454E56312D444C5900564341322DF2
:100A50004C455600564341312D4C455600464C54AA
:100A6000522D52455300464C54522D465251004689
:100A70004D2D414D4E5420004F53432D4D4958208C
:100A8000004F53322D57534850004F53322D504C86
:100A90005357004F53322D46524551004F53312D7D
:100AA00057534850004F53312D504C5357004F531C
:100AB000312D46524551002D2D2D2D2D2D2D2D0042
:100AC0004C455633004C455632004C45563100508B
:100AD000454432005045443100505245530052566F
:100AE000454C0056454C4F00474154450054524137
:100AF0004B00504F5254004B45594200524D50321A
:100B000000524D50310056494252004C464F32007F
:100B10004C464F3100454E563300454E5632004547
:100B20004E5631002D2D2D2D00506431004C763263
:100B3000004F4646004E4F490052414E005351521D
:100B400000445357005553570054524900506431E4
:100B5000004C7632004F464600473920200046239D
:100B6000392000463920200045392020004423390F
:100B7000200044392020004323392000433920201D
:100B80000042382020004123382000413820200036
:100B900047233820004738202000462338200046CD
:100BA00038202000453820200044233820004438D5
:100BB00020200043233820004338202000423720E3
:100BC00020004123372000413720200047233720D1
:100BD00000473720200046233720004637202000DA
:100BE000453720200044233720004437202000438D
:100BF00023372000433720200042362020004123A5
:100C0000362000413620200047233620004736207A
:100C1000200046233620004636202000453620207E
:100C20000044233620004436202000432336200091
:100C3000433620200042352020004123352000414A
:100C4000352020004723352000473520200046234B
:100C5000352000463520200045352020004423352E
:100C60002000443520200043233520004335202038
:100C70000042342020004123342000413420200051
:100C800047233420004734202000462334200046E8
:100C900034202000453420200044233420004434F4
:100CA00020200043233420004334202000423320FE
:100CB00020004123332000413320200047233320EC
:100CC00000473320200046233320004633202000F5
:100CD00045332020004423332000443320200043A8
:100CE00023332000433320200042322020004123C0
:100CF000322000413220200047233220004732209A
:100D00002000462332200046322020004532202099
:100D100000442332200044322020004323322000AC
:100D20004332202000423120200041233120004165
:100D30003120200047233120004731202000462366
:100D4000312000463120200045312020004423314D
:100D50002000443120200043233120004331202053
:100D6000004230202000412330200041302020006C
:100D70004723302000473020200046233020004603
:100D80003020200045302020004423302000443013
:100D900020200043233020004330202000422D310A
:100DA000200041232D3100412D31200047232D31DA
:100DB00000472D31200046232D3100462D312000E3
:100DC000452D31200044232D3100442D3120004396
:100DD000232D3100432D312000202D2D5359535404
:100DE000454D205245424F4F542D2D2000726562D3
:100DF0006F6F74696E672073797374656D202F202F
:100E0000736F6674776172655F5265626F6F742885
:100E10002920002000202D2D2D2054455354204DF5
:100E20004F4445202D2D2D202000546573744D6FA7
:100E30006465282900F500E4007D016C015B014A2E
:100E4000013901280117010601C101B0019F018E7E
:100E5000013802270216020502F401E301D2012043
:100E60002020002E002A0020003B042B041B040B32
:100E700004FB03EB03DB03CB03BB03AB039B038B41
:100E8000037B036B035B034B033B032B031B030B32
:100E900003FA02E902D902C902B902A90299028938
:100EA00002790269025902490244756D70696E67E0
:100EB000204D6173746572202E2E2E202000447503
:100EC0006D702042616E6B2066696E69736865643F
:100ED000202000204420202000204320202000202B
:100EE000434F524500202042202000204120202056
:100EF0000020746F0044756D70696E67203A00467B
:100F00004F524D4154206578742E454550524F4DF7
:100F100020772F3000205061746368203030302DEE
:100F20003939392072656164792000434F52452078
:100F30002041202020422020204320202044202027
:100F4000004563686F206D7367206F6E204D696484
:100F500069204F75743A004563686F206D73672090
:100F60006F6E20434F5245204F7574200048656CCA
:100F70006C6F2042756464792021203A292020205A
:100F800020200000001000200101110020020212A8
:100F9000002003031300200404140020050515009D
:100FA0002006061600200707170020080803000384
:100FB00009090C003F0A0A00003F0B0B00003F0C20
:100FC0000C0300030D0D0300030E0E0C003F0F0F6A
:100FD00000003F101000003F111103000312120324
:100FE0000003131300003F14141F003F15150100E8
:100FF000031616000001171701000318180000015E
:1010000019190000031A1A7F007F1B1B00003F1CE8
:101010001C0000031D1D0000031E1E00003F1F1FBB
:101020003F003F202000003F21210000032222003A
:101030000001232300003F24240000032525000095
:10104000012626000006272700001F282803001479
:1010500029291F003F2A2A00003F2B2B0000032CC8
:101060002C0000012D2D0000062E2E0000202F2F19
:1010700003001430301F003F3131000003323200D2
:10108000003F333300003F34343F003F353500002C
:101090003F36360A003F37373F003F3838000001FF
:1010A00039390000013A3A0000033B3B00003F3C65
:1010B0003C00003F3D3D3F003F3E3E3F003F3F3F45
:1010C0000A003F40403F003F4141000003424200D0
:1010D00000034343000003444400003F4545000033
:1010E0003F46463F003F474700003F48480A003F11
:1010F00049493F003F4A4A0000034B4B0000034C64
:101100004C0400144D4D01003F4E4E0F003F4F4F19
:101110001E003F50502E003F51513F003F52521F82
:10112000003F5353000003545432003F5555000014
:1011300003565600007F575700007F585800007F25
:10114000595900007F5A5A01007F5B5B00007F5CA9
:101150005C3F007F5D5D3F007F5E5E00007F5F5F04
:1011600000007F606000007F616100007F626200BC
:10117000007F636300007F646400007F656500009A
:101180007F666600007F676700007F686800001464
:10119000696900007F6A6A0000206B6B0000146CB4
:1011A0006C00007F6D6D0000206E6E0000146F6F8C
:1011B00000007F70700000207171000014727200D6
:1011C000007F7373000020747400001475750000B4
:1011D0007F76760000207777000014787800007F13
:1011E00079790000207A7A0000147B7B00007F7CF4
:1011F0007C0000207D7D0000147E7E00007F7F7FCC
:101200000000208080000014818100007F82820025
:1012100000208383000014848400007F8585000003
:101220002020002D2D2D2D2D2D2D2D2D2D2D2D2D35
:101230002D2DFF2D2D2D2D2D2D2D2D2D2D2D2D2D0C
:101240002DFF2D2D2D2D2D2D2D2D2D2D2D2D2D2DFC
:10125000FF2D2D2D2D2D2D2D2D2D2D2D2D2D2DFF1A
:101260002D2D2D2D2D2D2D2D2D2D2D2D2D2DFF2DDC
:101270002D2D2D2D2D2D2D2D2D2D2D2D2DFF2D2DCC
:101280002D2D2D2D2D2D2D2D2D2D2D2DFF2D2D2DBC
:101290002D2D2D2D2D2D2D2D2D2D2DFF2D2D2D2DAC
:1012A0002D2D2D2D2D2D2D2D2D2DFF2D2D2D2D2D9C
:1012B0002D2D2D2D2D2D2D2D2DFF2D2D2D2D2D2D8C
:1012C0002D2D2D2D2D2D2D2DFF2D2D2D2D2D2D2D7C
:1012D0002D2D2D2D2D2D2DFF2D2D2D2D2D2D2D2D6C
:1012E0002D2D2D2D2D2DFF2D2D2D2D2D2D2D2D2D5C
:1012F0002D2D2D2D2DFF2D2D2D2D2D2D2D2D2D2D4C
:101300002D2D2D2DFF2D2D2D2D2D2D2D2D2D2D2D3B
:101310002D2D2DFF2D2D2D2D2D2D2D2D2D2D2D2D2B
:101320002D2D2D2D2D2D2D2D2D2D2DFF2D2D2D2D1B
:101330002D2D2D2D2D2D2D2D2D2D2DFFFF2D2D2D39
:101340002D2D2D2D2D2D2D2D2D2D2DFFFFFF2D2D57
:101350002D2D2D2D2D2D2D2D2D2D2DFFFFFFFF2D75
:101360002D2D2D2D2D2D2D2D2D2D2DFFFFFFFFFF93
:101370002D2D2D2D2D2D2D2D2D2D2DFFFFFFFFFF83
:10138000FF2D2D2D2D2D2D2D2D2D2DFFFFFFFFFFA1
:10139000FFFF2D2D2D2D2D2D2D2D2DFFFFFFFFFFBF
:1013A000FFFFFFFFFFFFFFFFFFFFFF2D2D2D2D2D67
:1013B0002D2D2D2DFFFFFFFFFFFFFF2D2D2D2D2D9F
:1013C0002D2D2D2D2DFFFFFFFFFFFF2D2D2D2D2D61
:1013D0002D2D2D2D2D2DFFFFFFFFFF2D2D2D2D2D23
:1013E0002D2D2D2D2D2D2DFFFFFFFF2D2D2D2D2DE5
:1013F0002D2D2D2D2D2D2D2DFFFFFF2D2D2D2D2DA7
:101400002D2D2D2D2D2D2D2D2DFFFF2D2D2D2D2D68
:101410002D2D2D2D2D2D2D2D2D2DFF2D2D2D2D2D2A
:101420002D2D2D2D2D2D2D2D2D2D2D2D2D2D2D2DEC
:101430002D2D2DFF2D2D2D2D2D2D2D2D2D2D2D2D0A
:101440002D2D2DFFFF2D2D2D2D2D2D2D2D2D2D2D28
:101450002D2D2DFFFFFF2D2D2D2D2D2D2D2D2D2D46
:101460002D2D2DFFFFFFFF2D2D2D2D2D2D2D2D2D64
:101470002D2D2DFFFFFFFFFF2D2D2D2D2D2D2D2D82
:101480002D2D2DFFFFFFFFFFFF2D2D2D2D2D2D2DA0
:101490002D2D2DFFFFFFFFFFFFFF2D2D2D2D2D2DBE
:1014A0002D2D2DFFFFFFFFFFFFFFFF2D2D2D2D2DDC
:1014B0002D2D2DFFFFFFFFFFFFFFFFFF2D2D2D2DFA
:1014C0002D2D2DFFFFFFFFFFFFFFFFFFFF2D2D2D18
:1014D0002D2D2DFFFFFFFFFFFFFFFFFFFFFF2D2D36
:1014E0002D2D2DFFFFFFFFFFFFFFFFFFFFFFFF2D54
:1014F0002D2D2DFFFFFFFFFFFFFFFFFFFFFFFFFF72
:101500002D2D2DFFFFFFFFFFFFFFFFFFFFFFFFFF61
:10151000FF2D2DFFFFFFFFFFFFFFFFFFFFFFFFFF7F
:10152000FFFF2D7A0869085808470836082508146F
:10153000080308F207E107D007BF07AE079D078C35
:10154000077B076A07590748073707260715070467
:1015500007F306E206D106C006AF069E068D067C9E
:10156000066B065A0649063806270616060506F4CF
:1015700005E305D205C105B0059F058E057D056C07
:10158000055B054A053905280517050605F504E438
:1015900004D304C204B104A0048F047E046D045C6F
:1015A000044B04696E742E454550524F4D206164C2
:1015B00064722000434C454152494E4720574954DC
:1015C00048204E554C4C20202000696E742E454515
:1015D00050524F4D206164647220000030000000C2
:1015E00000013F0000000001010000000440010272
:1015F000000000000000000000000000000000FFEC
:10160000FFFFFFFFFFFFFFFFFFFFFFFFFFFFFFFFEA
:10161000FFFFFFFFFFFFFFFFFFFFFFFFFFFFFFFFDA
:10162000FFFFFFFFFFFFFFFFFFFFFFFFFFFFFFFFCA
:10163000FFFFFFFFFFFFFFFFFFFFFFFFFFFFFFFFBA
:10164000FFFFFFFFFFFFFFFFFFFFFFFFFFFFFFFFAA
:10165000FFFFFFFFFFFFFFFFFFFFFFFFFFFFFFFF9A
:10166000FFFFFFFFFFFFFFFFFFFFFFFFFFFFFFFF8A
:10167000FFFFFFFFFFFFFFFFFFFFFFFFFF00000C6B
:101680000001000000000044656661756C74204D27
:101690004153544552535B5D20202000696E742EE7
:1016A000454550524F4D20616464722000434C45C3
:1016B0004152494E472057495448204E554C4C20E2
:1016C000202000696E742E454550524F4D206164B4
:1016D0006472200001000000000100010100000010
:1016E0000001000200030100057F010200057F02E6
:1016F0000300057F030400057F04000101000000D2
:1017000000000044656661756C7420535953434F63
:101710004E4649475B5D20006578742E4545505222
:101720004F4D20706167652000494E495449414C36
:10173000495345205526415250265345510065785E
:10174000742E454550524F4D207061676520004909
:101750004E495449414C49534520544F4E45202051
:101760002020202000696E742E454550524F4D2098
:10177000616464722000434C454152494E472057F2
:101780004954482030786666202020006578742E01
:10179000454550524F4D20706167652000434C45D0
:1017A0004152494E472057495448203078666620B8
:1017B000202000436865636B5F457874454550524F
:1017C0004F4D5F466F726D61742829202F206D691F
:1017D00073736D61746368202100436865636B5F98
:1017E000457874454550524F4D5F466F726D617438
:1017F0002829202F206D617463682021006D656D9C
:101800005F32202F20006D656D5F30202F20004E4D
:101810006F7465204F6666004E6F7465204F6E00D2
:1018200053797374656D20726563656976656420AC
:10183000202020004D6173746572207265636569B4
:101840007665642020202020004564697442756616
:101850006665722072656365697665642000506113
:10186000746368207265636569766564203A200058
:1018700042616E6B20726563656976656420212024
:1018800020202000524D50204D4F44204D5452589E
:10189000202D2D2D202D2D2D0052414E444F4D49F0
:1018A0005A453A2020202020202020202000444398
:1018B0004F20464C5420454E5620204B4244204C4D
:1018C000464F0052414E444F4D495A453A20202040
:1018D0002020202020202000202000444F00300025
:1018E0004D61747269785F736C6F74200045787015
:1018F0006F72742063757272656E74706174636860
:101900003A0020003000536574206E616D652077C9
:101910002F20656E636F6465723A004C464F205607
:10192000434120454E56205052544120524D5000C4
:1019300044434F20464C5420454E56204B424420B1
:101940004D54525800204F4E004F46460097089382
:10195000088F088B084C464F204D44452053524376
:1019600045204C4147205254470053504400414DBC
:1019700050204B424400414D5020505253004C46A1
:101980004F20524D5032004C464F20524D503100A6
:101990004F4E20004F4E20004F4E20004F4E200053
:1019A000312020204F4646204F4646204F464620B5
:1019B0002020202000312020204F4646204F464640
:1019C000204F464620204F46460044434F20424E7B
:1019D000442056494220504F525420202020004499
:1019E000434F20424E442056494220504F525420EB
:1019F0004B4244004F4E20004F46460053454E4454
:101A000020535953455820200053454E442043430A
:101A10004F4E54524C0046494C5445522046524574
:101A20005120205355535441494E0020202020007E
:101A3000736E640056434120414D542056454C304E
:101A400020454E5632004F4E20004F4E20004F4E44
:101A500020004F4E20004F4646204F4646204F461E
:101A60004620204F46462020202000424E4420564B
:101A700049422050525441204B4244202020200013
:101A8000AA08A508A0089B08FC08F108E608DB08DE
:101A9000D008C508BA08AF08454E562054524947E9
:101AA0004745524D4F444520204C464F00220919CE
:101AB0000910090709454E5620444C5920414D5004
:101AC0002052454C2D4D4F4445004556332041543E
:101AD0004B2044454320205355532052454C004F42
:101AE0004E20004F46460046093D0934092B094B5C
:101AF0004559422D4D4F444520554E492E4C4547A2
:101B000041544F006D09630959094F09504F525410
:101B1000414D4F4445202056454C4F20524154459D
:101B200000545241434B47454E2D494E5055543A6F
:101B300020007C008F0987097F097709524D5020CA
:101B4000535044205452474D4F44457C5447494ECE
:101B500000B70AAE0AA50A9C0A930A8A0A810A7883
:101B60000A6F0A660A5D0A540A4B0A420A390A30A9
:101B70000A270A1E0A150A0C0A030AFA09F109E8DB
:101B800009DF09D609CD09C409BB09B209A909A011
:101B9000099709240B1F0B1A0B150B100B0B0B06C7
:101BA0000B010BFC0AF70AF20AED0AE80AE30ADE67
:101BB0000AD90AD40ACF0ACA0AC50AC00A4253205F
:101BC00053524320204445535420202020414D4E61
:101BD00054004E4F5200494E560045787420496ECD
:101BE0007420496E6974205379732000464F524D1A
:101BF000415420454550524F4D203A2020454E43F8
:101C000000537973204D737420416C6C0042616EF7
:101C10006B0044554D50204354524C52204D454D7D
:101C20004F5259203A20006E6F6E65003244756F36
:101C30000051756172005472696F0044756F200025
:101C4000536F6C6F00434647203A2047526F7550E0
:101C500020287061676520342900202E2000202A6A
:101C600020006F6666006F6E2000202E2000202A64
:101C70002000554B4E006D5467005472670073325C
:101C800034004D696400494E5400434C4B205A4F78
:101C90004E204C4F4320204A545220584343004486
:101CA0003A52616E67652020724348207443482091
:101CB00054727000433A52616E6765202072434847
:101CC000207443482054727000423A52616E676536
:101CD0002020724348207443482054727000413AD7
:101CE00052616E6765202072434820744348205437
:101CF000727000202E2000202A20005064312050D5
:101D0000643220204C7631204C763220456E6100C2
:101D10004D314B004D3620004D314B004D362000EB
:101D20004D314B004D3620004D314B004D362000DB
:101D300043482020413A2020423A202020433A20A4
:101D400020443A2000536E6400310B2D0B290B41C7
:101D50004D50204D4F4420414D4E5420424E442082
:101D600047424C0047657400490B450B410B3D0B46
:101D7000390B350B550B510B4D0B535044204D4F28
:101D80004420414D4E54205741562047424C005666
:101D90004942204D4944204D495343204752502049
:101DA000444D5000434F4E4649475552453A202036
:101DB0002020202020202020004F42455248454925
:101DC0004D030C000003030C00000303001F01007F
:101DD0000100007F000000003F0000000000000044
:101DE00000031F0000000000031F0000003F000A66
:101DF0003F00000000003F3F0A3F00000000003F9E
:101E0000000A3F000004010F1E2E3F1F0032000099
:101E100000000001003F3F00000000000000000043
:101E200000000000000000000000000000000000B2
:101E30000000000000000000000000000000003C66
:101E4000643C803B643B803964398037643780353B
:101E50006435803464348032643280306400003011
:101E60006430803264328034643480356435803745
:101E7000643780396439803B643B803C64000030C7
:101E80006430803264328034643480356435803725
:101E9000643780396439803B643B803C6400003C9B
:101EA000643C803B643B80396439803764378035DB
:101EB00064358034643480326432803064000030B1
:101EC0005029502950305029502950315029503034
:101ED0005029502950305029502950315029502E26
:101EE00050275027502E50275027502F5027502E24
:101EF00050275027502E50275027502F50275043FF
:101F0000353C803E323C8041273C80432D3C804123
:101F1000313C803E333C803C373C803E323C804309
:101F2000353C803E323C8041273C80432D3C804103
:101F3000313C803E333C803C373C803E323C803CF0
:101F4000683C803E523E8041564180436843803E1B
:101F50006800000000324A0000000000003E4A3CD9
:101F6000683C803E523E8041564180436843803EFB
:101F70006800000000324A0000000000003E4A30C5
:101F800039303430363037373E373E3A363A3730EC
:101F900039303430363037373E373E3A363A3735D7
:101FA000393534353635373C3E3C3E3F363F3737A2
:101FB000393734373637373E3E3E3E413641373784
:101FC00041373B3531352A373337323535353637BA
:101FD0003937403543372E00000000000000003A3A
:101FE0002E3A29373B37393A370000000000003CD1
:101FF000293C2E3A223A273C4300000000000024EE
:1020000050245024612450245024503061305024F6
:1020100050245024502450305030613050305024DF
:1020200050245024612450245024503061305024D6
:1020300050245024502450305030613050305000E3
:102040000000000000000000000000000000000090
:102050000000000000000000000000000000000080
:102060000000000000000000000000000000000070
:102070000000000000000000000000000000000060
:102080000000000000000000000000000000000050
:102090000000000000000000000000000000000040
:1020A0000000000000000000000000000000000030
:1020B00000000000000000000000000000000041DF
:1020C000727020262053657120736176656420212B
:1020D00020202000456469744275666665722C2074
:1020E000556E69736F6E2C200050617463682073A5
:1020F000746F72656420696E204D6174727800346B
:102100007832344C4335313220696E6974696C69B8
:102110006173656400696E7465726E204545505246
:102120004F4D20636C656172656400616C6C203298
:10213000344C4335313220636C6561726564202014
:10214000002000200020002000412F532000532FAA
:102150004120005345542053504C54205472412088
:102160005472532053455100202E2000202A200075
:1021700020004E6F2020005965732000202E202063
:1021800000202A2020002D2D2D20006D54672000D6
:10219000547267200073323420004D69642000427D
:1021A000504D204143542054485255204752562008
:1021B000484C440020202020002000D40DCF0DCA20
:1021C0000DC50DC00DBB0DB60DB10DAC0DA70DA20B
:1021D0000D9D0D980D930D8E0D890D840D7F0D7A3B
:1021E0000D750D700D6B0D660D610D5C0D570D526B
:1021F0000D4D0D480D430D3E0D390D340D2F0D2A9B
:102200000D250D200D1B0D160D110D0C0D070D02CA
:102210000DFD0CF80CF30CEE0CE90CE40CDF0CDA01
:102220000CD50CD00CCB0CC60CC10CBC0CB70CB232
:102230000CAD0CA80CA30C9E0C990C940C8F0C8A62
:102240000C850C800C7B0C760C710C6C0C670C6292
:102250000C5D0C580C530C4E0C490C440C3F0C3AC2
:102260000C350C300C2B0C260C210C1C0C170C12F2
:102270000C0D0C080C030CFE0BF90BF40BEF0BEA26
:102280000BE50BE00BDB0BD60BD10BCC0BC70BC25A
:102290000BBD0BB80BB30BAE0BA90BA40B9F0B9A8A
:1022A0000B950B900B8B0B860B810B7C0B770B72BA
:1022B0000B6D0B680B630B5E0B590B54696520208B
:1022C00000526573742000456E64002020200020B9
:1022D0002E202000746F676C00202E202000206FBD
:1022E000202000200031362F3100382F31200034DB
:1022F0002F312000322F312000312F312000332F99
:10230000322000312F322000312F332000312F3482
:102310002000312F36200074726720005350442073
:1023200052454320504C415920522F542053745051
:10233000007800324D657300314D657300332F31E5
:102340002000322F312000332F322000312F312056
:1023500000312F322000312F332000312F34200064
:10236000312F362000312F382000312F31320074C8
:1023700072672000313C3C3300446E557000426E61
:10238000634400313E3E330052616E640055704438
:102390006E00426E636500446F776E0020557020BA
:1023A000004F7264720054595020444956204D4CDD
:1023B00054502047415420387661002053797320CF
:1023C00026204D6173746572732072656164792093
:1023D00000205061746368203030302D3939392045
:1023E00072656164792000496E742E454550524FE4
:1023F0004D20666F726D6174746564200045787459
:102400002E454550524F4D20666F726D6174746554
:102410006420005041544348207061676535004393
:1024200070797C5073743E20456474204172702032
:1024300053657100434F5059202620504153544555
:10244000203A202020202020005341564500300013
:1024500030006D00200047657474696E67204D542C
:1024600052582042616E6B200047455420002042A4
:10247000616E6B006D42616E6B3A004745542049B6
:102480004E4954204F524720454454205341560052
:102490003000440043004200410050415443482072
:1024A00020000000067814E6000001000001000092
:1024B000010100013B017E03000603000602000A41
:1024C00000000505016001010403015F0000030035
:1024D000000100000100000103012F0000200000A6
:1024E0002100240027002A002D00300033000101C4
:1024F0000000040107010A0100000A0B02090C0D8B
:102500000E080703040100000000000000000000A6
:1025100000000000000000000000000000000000BB
:102520000000000012111000000000000000000078
:10253000000000000000000000000000000000009B
:1025400000040E1F00000000001F0E040000020324
:102550000302020E1E0C1E1E1E1F1E1E1E1E1C1C13
:102560001C1F1C1C1C1C1818181F181818181010D9
:10257000101F1010101010181C1E1E1C18104D617A
:1025800074726978204374726C722000414C50451B
:1025900053204D414348494E455320323031372076
:1025A00000436865636B5F496E74454550524F4DFB
:1025B0005F466F726D617428292F206D6973736D8A
:1025C00061746368202100436865636B5F496E74C2
:1025D000454550524F4D5F466F726D617428292FEB
:1025E000206D617463682021000100057F010200F5
:1025F000057F020300057F030400057F04456E6428
:10260000206F6620426F6F742E002D2D20616C6C40
:10261000206E6F746573206F6666202D2D007265C5
:1026200063616C6C2073696C656E74206E6F746589
:102630007300726563616C6C207061746368206301
:102640006F6E6669672000726563616C6C207061F3
:1026500074636820636F6E66696700726563616C9E
:102660006C2073797374656D20636F6E66696700A3
:10267000726563616C6C2073797374656D20636F30
:102680006E666967002D2D2D20426F6F74202053D8
:10269000797374656D202D2D2D00426F6F7428297C
:1026A00020004D6174726978204374726C722076D8
:1026B0000044756D70696E672053797374656D435E
:1026C0006F6E6669670000002200250028002B005D
:1026D0002E003100340002010000050108010B0149
:1026E0000102102020080810204010204080020124
:1026F0000201080402010102040810204080804009
:102700002010080402018004020180402010080407
:1027100002010804020101020408102040800102A5
:10272000040810204080000020002300260029001B
:102730002C002F00320000010000030106010901F6
:1027400005050505070508080808020202020A0A2D
:10275000080804040404010101010101010103034B
:10276000030303030303040707070C0C0C0C0C0CF6
:102770000C0C0202020206060606060606060B0BF3
:102780000B0B0B0B0B0B8E8B778B11241FBECFEF1C
:10279000D1E2DEBFCDBF00E00CBF14E0A0E0B2E0AC
:1027A000E0E3FFE301E00BBF02C007900D92AC3CF9
:1027B000B107D9F727E1ACECB4E001C01D92A53E0A
:1027C000B207E1F713E1C4ECD3E100E006C02197C2
:1027D0000109802FFE010E94719DC33CD10780E05A
:1027E0000807A9F70E945F910C94879F0C94000042
:1027F000FC0190819923E1F0961730F096131CC0EC
:1028000080917B0B87FF18C020917B0B920F9083E8
:102810008091430A811103C081E08093430A809133
:10282000430A8F3F19F48EEF8093430A81E00895A5
:1028300080917B0B813041F380E00895FC01808121
:102840009FEF980F9E3320F490917B0B890F0CC063
:1028500081110CC090917B0B913019F4908381E031
:1028600008959F3F59F48FE78083F9CF8F3331F478
:1028700090917B0B9F3F11F48EE3F6CF9EEB980F68
:102880009D3310F38F3741F480917B0B813011F42D
:10289000108208958158E8CF813431F480917B0B08
:1028A000813021F482E4E0CF87FDCECF80E008952F
:1028B000FC019081992371F0961730F096130EC0A9
:1028C00080917B0B87FF0AC020917B0B920F908336
:1028D00081E0089580917B0B8130B1F380E0089511
:1028E0009091C40B9923B1F03091C60B341312C0F0
:1028F0001092C70B9091AB0641E094279093AB06E2
:10290000109265078093AD066093AE063093AF06D4
:102910002093B006089581E080939F0A089581E096
:1029200080939F0A8091580B813019F48FEF809328
:10293000BF0A0895982FEBEFE80FE23708F07AC04E
:10294000F0E08827E955FB4E8F4F0C94719D481598
:102950001A151A15301519151C151E1520152215D6
:102960002415261528152A152C152E156A156C15F3
:102970006E15701572157415761578157A157C1507
:102980007E151A151A1562156415661568154A150F
:10299000AE15B015B21580158215841586158815EB
:1029A0008A158C158E1590159215941596159815F7
:1029B0009A159C159E15A015A215A415A615A81567
:1029C000AA15AC151A154C151A151A151A151A153B
:1029D000B415B615B815BA15BC15BE15C015C21577
:1029E000C415C6153415381552156015C815CA1505
:1029F000CC15CE15D015D215D415D6151A151A1515
:102A0000D815DA151A151A151A151A151A151A15D0
:102A1000321536153A153C153E154015421544152C
:102A200046154E1550155415561558155A155C1562
:102A30005E1590E0892F089595E0FCCF93E0FACFE2
:102A400097E0F8CF96E0F6CF9AE0F4CF9FE0F2CF90
:102A50009DE0F0CF91E1EECF90E1ECCF9CE0EACFAA
:102A600094E1E8CF98E0E6CF99E0E4CF92E1E2CFBD
:102A700093E1E0CF92E0DECF95E1DCCF98E1DACFD1
:102A800099E1D8CF9AE1D6CF9EE1D4CF9BE1D2CFC6
:102A90009CE2D0CF9EE2CECF9FE2CCCF90E5CACFD2
:102AA00096E5C8CF97E5C6CF92E5C4CF93E5C2CFF0
:102AB00098E5C0CF94E5BECF9AE5BCCF90E6BACFFB
:102AC00091E6B8CF9CE5B6CF9DE5B4CF92E6B2CF04
:102AD0009EE5B0CF99E3AECF92E3ACCF93E3AACF1C
:102AE00094E3A8CF95E3A6CF96E3A4CF97E3A2CF34
:102AF0009BE3A0CF9AE39ECF93E49CCF9CE39ACF35
:102B00009DE398CF9EE396CF9FE394CF90E492CF3E
:102B100091E490CF95E48ECF94E48CCF9DE48ACF5E
:102B200096E488CF97E486CF98E484CF99E482CF67
:102B30009AE480CF9BE47ECF9FE47CCF9EE47ACF63
:102B400091E278CF92E276CF93E274CF94E272CFA3
:102B500095E270CF96E26ECF98E26CCF99E26ACFA1
:102B60009AE268CF9BE266CF91E064CF94E062CFB7
:102B70009BE060CF9EE05ECF96E15CCF97E15ACFBD
:102B80009CE158CF9DE156CF98E354CF92E452CFC9
:102B90009CE450CF95E54ECF9FE54CCF9DE24ACFC8
:102BA0009FE148CF90E246CF91E544CF9BE542CFED
:102BB00093E640CF90E33ECF0895813091F028F026
:102BC0008230A1F08330D1F0089588E00E94578BC5
:102BD0008BE00E945A8B89E00E945A8B8AE00C9409
:102BE0005A8B8BE00E94578B88E0F3CF89E00E94DC
:102BF000578B88E00E945A8B8BE0EECF8AE00E94D0
:102C0000578B88E00E945A8B8BE00E945A8B89E098
:102C1000E6CF81E080939F0A8091580B813039F490
:102C200088E18093BF0A60E086E10C945D8B089593
:102C30008091AA06882321F0809127028111C2C0C9
:102C400080919F0A882309F4F0C061E08DE00E9422
:102C50005D8B10929F0A8091680761E0811105C029
:102C60008091A60C86FF04C060E08EE10E945D8B1F
:102C70008091440B61E081110AC08091A60C90E024
:102C8000880F892F881F990B813021F460E08FE134
:102C90000E945D8B8091CF048131A8F1E091570BA8
:102CA00086E8E89FF0011124E25EF74F82898430C4
:102CB000A8F06091A30C661F6627661F81E0682755
:102CC00087E00E945D8B6091A30C62956695669586
:102CD00063706095617086E00E945D8B8091C40B8B
:102CE000811104C08091720B882359F06091A50C6A
:102CF00062956695669563706095617086E10E9445
:102D00005D8B1092CF048091CF048F5F8093CF04AE
:102D1000E091570B96E8E99FF0011124E25EF74F2E
:102D2000218D3091CE04822F8250990BAC0180E12D
:102D300090E002C0959587954A95E2F738171906F5
:102D400071F06CF0223048F06091A30C62956F70C6
:102D50006095617084E00E945D8B1092CE0480913A
:102D6000CE048F5F8093CE049091CD048091430A6E
:102D7000891718F56091CC0481E068276093CC0432
:102D80008091720B882309F459C080914A0A8111FD
:102D900001C061E083E00E945D8B8091C40B60E024
:102DA000882331F080913F0A61E081116091CC0469
:102DB0008DE10E945D8B1092CD048091CD048F5FD8
:102DC0008093CD048091AA06882321F08091270268
:102DD00081114EC08091D104E091570B96E8E99F94
:102DE000F0011124E25EF74F93A12EE330E0291B9E
:102DF00031098217130624F58F5F8093D1048091E7
:102E0000D004E091570B96E8E99FF0011124E25EAF
:102E1000F74F92A52EE330E0291B310982171306E4
:102E2000DCF48F5F8093D00408958091A40C85FF1B
:102E300012CF60E08DE00E945D8B0DCF60E0AACFE5
:102E40006091A60C66956695609561708AE10E9416
:102E50005D8B1092D104D3CF6091A60C66956695D8
:102E60006695609561708BE10E945D8B1092D00435
:102E700008950F931F93CF93DF930EE617E0C4EFEF
:102E8000D1E0F80161918F01CE010E94018A219663
:102E9000C03AF2E0DF07A9F7DF91CF911F910F91C0
:102EA0000895823089F018F4813031F0089584302B
:102EB00091F08530C1F0089540E052E065E070E0A7
:102EC00084E391E10C94A07A40E052E065E070E088
:102ED00084EC90E1F7CF40E052E065E070E084E5FB
:102EE00090E10C94867A40E052E065E070E085EA7B
:102EF0009EE0F7CF8091570B811113C080914A0A51
:102F000081110E94D27A10924A0A1092720B10928A
:102F1000660710923F0A109265071092C70B109235
:102F2000C40B0895CF93C82F2091C60B40E06BE7E8
:102F300080EB0E949F79A3E8BBE020E4C29FC00120
:102F4000112430E020E0AC01415C514E805C914E98
:102F5000FA01E20FF31FE491EC93FC01E20FF31F7F
:102F6000E4911196EC93119712962E5F3F4F203407
:102F7000310571F780911A0C80933E0A80E28093AC
:102F8000C50B1092C30BCF910895CF93DF93962F6B
:102F9000CDE1DCE026E8829FB001112430E020E0A2
:102FA000E82FF0E0D901A60FB71FA25EB74F5C91E2
:102FB00059932F5F3F4F26383105A1F7EB5BF84F50
:102FC000208120931C0CA8E0BCE024E1829FB0018A
:102FD000112430E020E0F901E60FF71FE35BF54F25
:102FE00050815D932F5F3F4F24313105A1F781114F
:102FF00010C0E3E8FBE0A8ECBBE080818C9381810A
:1030000011968C931197329612968BE0E33CF80759
:10301000A1F7642F892FDF91CF910C94FE82EF925C
:10302000FF921F93CF93DF93182FEB0181E08093E2
:103030009F0A8091C60B81130DC0705EAB01440FD7
:10304000452F441F550B51954F776F77212F80EEF9
:103050000E949F79E12EF12C8091C60B90E00196A1
:10306000E816F90671F4BE01705EAB01440F452FFE
:10307000441F550B51954F776F77212F80EE0E949B
:103080002D7A8091C60B90E00296E816F90671F44D
:10309000BE01705EAB01440F452F441F550B519587
:1030A0004F776F77212F80EE0E94057A8091C60BB3
:1030B00090E00396E816F90699F4D05EAE01440F4D
:1030C000452F441F550B51954F776C2F6F77212F4C
:1030D00080EEDF91CF911F91FF90EF900C94DD79FE
:1030E000DF91CF911F91FF90EF9008950F931F9361
:1030F000CF93DF93C82FD62F81E080939F0A8091D2
:10310000C60B8C1305C02C2F40E080ED0E949F79E8
:103110000C2F10E08091C60B90E00196081719075C
:1031200031F42C2F40E06D2F80ED0E942D7A80919C
:10313000C60B90E002960817190731F42C2F40E0D7
:103140006D2F80ED0E94057A8091C60B90E003966A
:103150000817190751F42C2F40E06D2F80EDDF91F7
:10316000CF911F910F910C94DD79DF91CF911F9139
:103170000F9108958330C1F028F4813041F08230FE
:1031800061F008958430C9F08530F1F00895209100
:10319000C60B40E080EC0C949F792091C60B2F5F0A
:1031A00040E080EC0C942D7A2091C60B8091570B57
:1031B000280F40E080EC0C9468792091C60B2E5FBC
:1031C00040E080EC0C94057A2091C60B2D5F40E026
:1031D00080EC0C94DD798330D1F028F4813041F01B
:1031E000823069F008958430C1F08530F1F008959F
:1031F0002091C60B462F6EE580EB0C949F792091B1
:10320000C60B2F5F462F6EE580EB0C942D7A409114
:10321000C60B485F8EE50C94817A2091C60B2E5F19
:10322000462F6EE580EB0C94057A2091C60B2D5F3E
:10323000462F6EE580EB0C94DD79CF93DF93CEE6DD
:10324000D7E084EF91E00E94178A899388E0CA3121
:10325000D807B9F7DF91CF910895CF93DF93C62FA9
:10326000D0E0282F30E0853008F045C094E6899FF3
:10327000C00DD11D1124BE0188E69EE00E94E080B1
:10328000A5E2BCE0E4EDFCE081918D938DE0E235B8
:10329000F807D1F7BE0185E59EE00E94E080ADE130
:1032A000BCE0E4EDFCE081918D939CE0EC3DF907FE
:1032B000D1F78091DC0C80931C0CADEDBCE0E8E014
:1032C000FCE08CE19CE02D9121938E179F07D9F7AC
:1032D000E1EFFCE0A8ECBBE081918C93878D119627
:1032E0008C93119712968DE0E131F807A9F781E0F0
:1032F000DF91CF910895C901059724E6289FB00179
:10330000299F700D1124C60FD71FBE0182E49EE0D5
:103310000E94E080A5E2BCE0E4EDFCE081918D93A9
:103320009DE0E235F907D1F7BE018FE29EE00E94F1
:10333000E080ADE1BCE0E4EDFCE081918D938CE0B8
:10334000EC3DF807D1F78091DC0C80931C0CADEDBF
:10335000BCE0E8E0FCE08D9181939CE0EC31F90762
:10336000D1F7E1EFFCE0A8ECBBE081918C93878D75
:1033700011968C93119712968DE0E131F807A9F719
:10338000B6CFCF93C82F862F642F67DF2DE13CE0A7
:1033900086E8C89FB001112490E080E0EC2FF0E0B7
:1033A000D9014D919D01DC01A60FB71FA25EB74F59
:1033B0004C9301968638910599F780911C0C8034C6
:1033C00018F08FE380931C0CEB5BF84F80911C0C82
:1033D0008083A8E0BCE084E1C89FA001112490E0B4
:1033E00080E02D91FC01E40FF51FE35BF54F208396
:1033F000019684319105A9F7C11110C0E8ECFBE0FA
:10340000A3E8BBE080818C93818111968C93119706
:10341000329612968CE0E830F807A1F7CF91089524
:1034200089EA94E00C94B17B8AEF0E941A7983EBCD
:1034300094E00E94B17B1092A70681E08093BA0AC3
:103440000895CF93811105C08EEB94E0CF910C9439
:10345000C27BC82F803240F48BE20E94F6878C2F0B
:1034600090E0CF910C94008B8DE20E94F687CF7193
:1034700080E290E08C1B9109F4CFCF93811105C0BD
:103480008EEB94E0CF910C94C27BC82F803440F433
:103490008BE20E94F6878C2F90E0CF910C94008BEA
:1034A0008DE20E94F687CF7380E490E08C1B910937
:1034B000F4CFCF93DF93D82FC62F41E060E088E6AA
:1034C00094E10E947087C230B9F090F4CC23A1F04F
:1034D000C130B9F041E063E088E694E10E94708772
:1034E00061E272E188E694E1DF91CF910C941D7C5A
:1034F000C33051F0C43071F78D2F90E00E940E8BD5
:10350000E9CF8D2F9EDFE6CF8D2FB7DFE3CFCF93AF
:10351000DF93D82FC62F80E00E94278BC23071F036
:1035200048F4CC2359F0C13071F085EADF91CF9196
:103530000C94FE8AC33051F0C430B9F78D2F90E05F
:103540000E940E8BF2CF8D2F7CDFEFCF8D2F95DF7A
:10355000ECCF9091D30C992309F4D2C0913059F457
:103560008091A5068F5F8093A506861708F4C8C0D2
:103570001092A50608958250883080F4E82FF0E07C
:103580008827EA53F54E8F4F0C94719DD61ADC1A9A
:10359000F91A101B1F1B541B6F1B3B1B8091A506A8
:1035A0008F5F8093A506861718F708958091A5066A
:1035B000811134C0615040C08091A5069091A4064D
:1035C000992321F08F5F8093A50607C081110FC05A
:1035D00081E08093A5068093A4068091A5066813D8
:1035E0008FC062506093A5061092A4060895815082
:1035F000EACF8091A5069091A406992349F06150E5
:10360000770B8617170681F38F5F8093A5060895C1
:10361000811104C081E08093A40608958150F5CF04
:10362000262F2150330B032E000C440B550B60E06A
:1036300070E0CB010E94787B6093A506089590917D
:10364000A4068091A5069923A1F08E5F8093A5061C
:1036500081E098279093A406E091A506F0E0EE0F94
:10366000FF1FEC55FA4F808181114AC01092A506C8
:10367000D1CF8150EBCF8091A506E82FF0E0EE0F7F
:10368000FF1FEA55FA4F9081992381F32091A406F8
:1036900091E09227211106C08E5F8093A50690933A
:1036A000A40608958150F9CF8091A5069091A406B3
:1036B000992359F091E0980F961718F49093A50666
:1036C000089581508093A5068FCF882309F472CF87
:1036D00081508093A506882309F49CCF089580919A
:1036E000A5069091A406992329F08F5F861708F00C
:1036F0007BCF8BCF81508093A506882309F48ACF96
:1037000008950F931F93CF93DF93CDB7DEB7CF58B4
:10371000D1090FB6F894DEBF0FBECDBF90EF9983ED
:1037200090E19A8396E09B8399E09C836D83A8E067
:10373000BCE0FE01319690E02D91322F3F70358331
:10374000322F32953F703683920F32962CE0AC3197
:10375000B20791F708EC1BE061E070E06C0F7D1F91
:10376000605C7F4FFE0131969801D9014C91542F36
:103770005F7055A7542F52955F7056A7940F2E5F18
:103780003F4F3296E617F70781F7FE01E25BFF4FE6
:1037900041E050E04C0F5D1F43575F4FD801119639
:1037A0002C91322F3F703083322F32953F7031830E
:1037B000920F0E5F1F4F32964E175F0779F79F7774
:1037C000C257DF4F9883CE58D04097EFC157DF4F95
:1037D0009883CF58D040833079F180F48130D1F094
:1037E000823011F1C157DF4F0FB6F894DEBF0FBE24
:1037F000CDBFDF91CF911F910F910895843059F182
:10380000853081F7AE014F5F5F4F6FE870E085EA6A
:103810009EE028C0AE014F5F5F4F6FE870E084E329
:1038200091E10E94A07ADECFAE014F5F5F4F6FE85B
:1038300070E084EC90E1F5CF1091580B81E080931B
:10384000580BBE016F5F7F4F8FE890E00E94BB7AFC
:103850001093580BC7CFAE014F5F5F4F6FE870E01A
:1038600084E590E10E94867ABDCF1F93CF93DF93CA
:10387000CDB7DEB7C351D1400FB6F894DEBF0FBE4F
:10388000CDBF90EF998390E19A8396E09B8391E07E
:103890009C836D83ADE1BCE0FE01319690E0AF0109
:1038A0002D91322F3F703583322F32953F70368302
:1038B000920F32962CE0A33AB20791F79F77CE5E33
:1038C000DE4F9883C251D14097EFCD5EDE4F988393
:1038D000C351D140833029F178F48130B1F0823086
:1038E000D9F0CD5EDE4F0FB6F894DEBF0FBECDBF70
:1038F000DF91CF911F910895843001F1853089F7D0
:1039000063E171E085EA9EE01DC063E171E084E35C
:1039100091E10E94A07AE5CF63E171E084EC90E14F
:10392000F8CF1091580B81E08093580BBA0183E1D6
:1039300091E00E94BB7A1093580BD3CF63E171E002
:1039400084E590E10E94867ACCCF6F927F928F922D
:103950009F92AF92BF92CF92DF92EF92FF920F931E
:103960001F93CF93DF9300D000D000D0CDB7DEB748
:10397000182FD62EC090580B81E08093580B84E608
:10398000689F7001112400E080EFB82E90E1A92E0D
:1039900026E0922E38E0832E47EF742E61E08FE010
:1039A0000E945D8B402F6D2D80E0EBDC60E08FE0AE
:1039B0000E945D8B41E060E088E694E10E947087A0
:1039C00065EF7EE088E694E10E941D7CC7010E94BD
:1039D0000E8B61EF7EE088E694E10E941D7C13303F
:1039E00009F46AC008F059C0113009F462C065EEEC
:1039F0007EE0123009F458C0602F812F82DEB98238
:103A0000AA829B828C820D8380911C0C982F9F70C0
:103A10009E83982F92959F709F838F778887798652
:103A2000133009F46EC008F04DC0113009F457C0CE
:103A3000123009F45EC0602F812F17DF0F5F8FEF08
:103A4000E81AF80A043609F0A9CF41E060E088E6F8
:103A500094E10E9470876EEB7EE088E694E10E941C
:103A60001D7C60E070E0CB010E949878C092580BFA
:103A700029960FB6F894DEBF0FBECDBFDF91CF9170
:103A80001F910F91FF90EF90DF90CF90BF90AF907C
:103A90009F908F907F906F900895143081F063ED28
:103AA0007EE0153009F0A8CF88E694E10E941D7CE5
:103AB000A3CF6BEE7EE0F8CF6FED7EE0F5CF69ED42
:103AC0007EE0F2CF143061F1153009F0B4CFAE01D1
:103AD0004F5F5F4F69E070E085EA9EE028C0AE016D
:103AE0004F5F5F4F69E070E084E391E10E94A07A4C
:103AF000A2CFAE014F5F5F4F69E070E084EC90E1D0
:103B0000F5CF6090580B81E08093580BBE016F5F3A
:103B10007F4F89E090E00E94BB7A6092580B8BCF78
:103B2000AE014F5F5F4F69E070E084E590E10E9475
:103B3000867A81CF1F93CF93DF93CDB7DEB7C35182
:103B4000D1400FB6F894DEBF0FBECDBF9091470BAA
:103B50009923D9F190EF998390E19A8396E09B8322
:103B600091E09C831D82ADE1BCE0FE01319690E0C6
:103B7000AF012D91322F3F703583322F32953F7038
:103B80003683920F32962CE0A33AB20791F79F77D3
:103B9000CE5EDE4F9883C251D14097EFCD5EDE4FAF
:103BA0009883C351D140833069F1B8F48130F1F08A
:103BB000823019F1CD5EDE4F0FB6F894DEBF0FBE36
:103BC000CDBFDF91CF911F91089590EF998390E140
:103BD0009A8396E09B839DE0C4CF843001F18530C9
:103BE00049F763E171E085EA9EE01DC063E171E0A1
:103BF00084E391E10E94A07ADDCF63E171E084EC7F
:103C000090E1F8CF1091580B81E08093580BBA01E6
:103C100083E191E00E94BB7A1093580BCBCF63E114
:103C200071E084E590E10E94867AC4CF1F93CF9320
:103C3000DF9300D000D0CDB7DEB790EF998390E14D
:103C40009A8396E09B839AE09C8397EF9E836D8393
:103C5000833069F170F48130C1F0823001F1269631
:103C60000FB6F894DEBF0FBECDBFDF91CF911F918D
:103C70000895843059F1853091F7AE014F5F5F4F61
:103C800066E070E085EA9EE028C0AE014F5F5F4FBE
:103C900066E070E084E391E10E94A07AE0CFAE019B
:103CA0004F5F5F4F66E070E084EC90E1F5CF1091DC
:103CB000580B81E08093580BBE016F5F7F4F86E009
:103CC00090E00E94BB7A1093580BC9CFAE014F5FB2
:103CD0005F4F66E070E084E590E10E94867ABFCF96
:103CE0001F93CF93DF9300D000D01F92CDB7DEB7E4
:103CF00090EF998390E19A8396E09B8394E09C8374
:103D000091E09D8327EF2F836E83833069F170F4F8
:103D10008130C1F0823001F127960FB6F894DEBFF2
:103D20000FBECDBFDF91CF911F910895843051F127
:103D3000853091F7AE014F5F5F4F67E070E085EA35
:103D40009EE027C0AE014F5F5F4F67E070E084E305
:103D500091E10E94A07AE0CFAE014F5F5F4F67E034
:103D600070E084EC90E1F5CF1091580B9093580BD4
:103D7000BE016F5F7F4F87E090E00E94BB7A109397
:103D8000580BCACFAE014F5F5F4F67E070E084E52C
:103D900090E10E94867AC0CF8DEE9DE00E94417C2A
:103DA00062EC74E084E59DE00E94A27B68EC70E028
:103DB00080E090E00E944D820E94238B40E060E012
:103DC00088E694E10E94708769ED7DE088E694E1E1
:103DD0000E941D7C88E19EE00FB6F894A895809320
:103DE00060000FBE90936000FFCF0F931F93CF939F
:103DF0008C01C62FFC0183A161E0C0FF60E00E943E
:103E0000CB7DF80184A161E0C1FF60E00E94CB7D21
:103E1000F80185A161E0C2FF60E00E94CB7DF8015E
:103E200086A161E0C3FF60E0CF911F910F910C94D8
:103E3000CB7DFC0187A18F3F71F190A59E3F51F48E
:103E4000662331F060E00E94AA7E90E080E0089551
:103E500061E0F9CF2EEF280F2C3020F024ED280F51
:103E6000233068F470E0913019F40E94E67EEDCFC3
:103E70002FEF30E0A901461B570BBA01F6CF66239E
:103E800031F0913031F461E00E94CB7DDECF992397
:103E9000D1F360E0F9CF8DEF9FEF08954F925F92DD
:103EA0006F927F928F929F92AF92BF92EF92FF920A
:103EB0001F93CF93DF93EC017B01142F88A161E066
:103EC00091E0E916F10409F060E00E94CB7D612FDA
:103ED00070E084E0759567958A95E1F7CE0185DFFE
:103EE0008C8C9D8CAE8CBF8C488C598C6A8C7B8C56
:103EF0000E94D27F641975098609970968157905AA
:103F00008A059B05A8F361E08AA10E94CB7D60E051
:103F10008AA10E94CB7D82E0E816F10461F0612F56
:103F20006F70CE0162DF61E08AA10E94CB7D60E00C
:103F30008AA10E94CB7D90E080E0DF91CF911F911C
:103F4000FF90EF90BF90AF909F908F907F906F9079
:103F50005F904F9008958F929F92AF92BF92CF92B1
:103F6000DF92EF92FF920F931F93CF93DF93FC01A9
:103F700021A12F3F09F495C08B01EC01C48CD58C95
:103F8000E68CF78C808C918CA28CB38C0E94D27FB3
:103F9000681979098A099B096C157D058E059F05AD
:103FA000A8F360E08BA10E94AA7E60E08CA10E9431
:103FB000AA7E60E08DA10E94AA7E60E08EA10E9490
:103FC000AA7E61E00130110509F060E088A10E943D
:103FD000CB7D61E089A10E94CB7D61E08AA10E9436
:103FE000CB7D8BA10E94A27D10E1019709F010E02A
:103FF0008CA10E94A27D019709F410628DA10E94FC
:10400000A27D019709F410648EA10E94A27D019700
:1040100009F4106860E08AA10E94CB7D61E08AA16A
:104020000E94CB7D8BA10E94A27D019709F41160B3
:104030008CA10E94A27D019709F412608DA10E94BB
:10404000A27D019709F414608EA10E94A27D0197C0
:1040500009F4186060E08AA10E94CB7D61E08BA129
:104060000E94AA7E61E08CA10E94AA7E61E08DA1DF
:104070000E94AA7E61E08EA10E94AA7E60E089A1D2
:104080000E94CB7D812F90E0DF91CF911F910F9106
:10409000FF90EF90DF90CF90BF90AF909F908F9068
:1040A00008958DEF9FEFF0CFEF92FF921F93CF9384
:1040B000DF93EC0161E088A10E94AA7E89A18F3F75
:1040C00039F061E00E94AA7E60E089A10E94CB7D68
:1040D00061E08AA10E94AA7E60E08AA10E94CB7D55
:1040E00061E08BA10E94AA7E61E08CA10E94AA7E61
:1040F00061E08DA10E94AA7E61E08EA10E94AA7E4D
:104100001FA11F3F61F188A5813029F560E0812F53
:104110000E94CB7D60E0812F0E94AA7E61E0812F0A
:104120000E94AA7E61E0812F0E94CB7D8FE090E00B
:104130000197F1F7812F0E94A27D7C0160E0812F21
:104140000E94CB7D60E0812F0E94AA7EEA94EF2836
:1041500011F08EEF88A761E08FA10E94AA7E90E007
:1041600080E0DF91CF911F91FF90EF900895EF9243
:10417000FF920F931F93CF93DF9300D000D0CDB762
:10418000DEB78091770B823009F4A1C190F48823C7
:1041900091F1813009F4DCC026960FB6F894DEBFA9
:1041A0000FBECDBFDF91CF911F910F91FF90EF9088
:1041B0000895833009F46DC2843071F784E10E9460
:1041C000578B85E10E945A8B87E10E945A8BEE241F
:1041D000E39400E020E040E060E080E00E94328B69
:1041E0000E94238B40E060E088E694E10E947087A3
:1041F00063E174E298C084E10E94578B85E10E94DC
:104200005A8B8EE00E945A8B8FE00E945A8B80E17D
:104210000E945A8B81E10E945A8B82E10E945A8B44
:1042200083E10E94578B87E10E945A8B0E94238B67
:1042300040E060E088E694E10E9470876AE974E2F9
:1042400088E694E10E941D7C8091570B813009F42F
:1042500076C008F46DC0823009F474C0833009F46C
:1042600074C0E091570BF0E0E65CF54F808190E080
:104270000E94FF8AE091570BF0E0EA5CF54F8081E5
:1042800090E00E94008BE091570BF0E0EA5CF54F64
:1042900080818A30A0F440E069E088E694E10E94E1
:1042A000708760E974E2CE0101960E94337BCE01F3
:1042B00001960E94F58ACE0101960E942B7B40E078
:1042C0006CE088E694E10E94708710E000E096E8D8
:1042D000F92E8091570B90E0F89EF001F99EF00DB9
:1042E0001124E25EF74FE00FF11F2081203210F41D
:1042F000205C2083F89EF001F99EF00D1124E25E0F
:10430000F74FE00FF11F80810E94FE8A0F5F1F4F61
:1043100008301105F1F641E060E088E694E10E9482
:1043200070876BE774E288E694E10E941D7C34CFCD
:1043300068E974E288E694E10E941D7C92CF66E908
:1043400074E2F8CF64E974E2F5CF62E974E2F2CF87
:1043500084E10E94578B85E10E945A8B8EE00E9477
:104360005A8B8FE00E945A8B80E10E94578B81E12B
:104370000E945A8B82E10E945A8B83E10E94578BE4
:1043800087E10E945A8B0E94238B40E060E088E620
:1043900094E10E94708764E774E2CE0101960E9466
:1043A000337BCE0101960E94F58ACE0101960E94D0
:1043B0002B7B80911D0890E00E94FF8A40E068E01E
:1043C00088E694E10E9470878FEF90E00E942B882E
:1043D0008FEF90E00E942B8860E088E694E10E94D5
:1043E000D48740E06CE088E694E10E9470876EE636
:1043F00074E2CE0101960E94337BCE0101960E94A9
:10440000F58ACE0101960E942B7BE091570BF0E0DC
:10441000E65CF54F808190E00E94008B41E060E017
:1044200088E694E10E94708766E088E694E10E9445
:10443000D48741E064E088E694E10E94708767E0F9
:1044400088E694E10E94D48741E06AE088E694E13E
:104450000E94708769E674E2CE0101960E94337B68
:10446000CE0101960E94F58ACE0101960E942B7B17
:1044700041E060E188E694E10E94708766E088E6AA
:1044800094E10E94D48741E063E188E694E10E94D0
:10449000708767E088E694E10E94D48780911C08C9
:1044A000882309F479CE41E060E088E694E10E9437
:1044B000708766E574E288E694E10E941D7C809135
:1044C0001D0890E00E94FF8A64E574E22CCF84E12D
:1044D0000E94578B85E10E945A8B8EE00E945A8B76
:1044E0008FE00E945A8B80E10E94578B81E10E94ED
:1044F0005A8B82E10E945A8B83E10E94578B87E19D
:104500000E945A8B0E94238B40E061E088E694E190
:104510000E94708762E574E2CE0101960E94337BAF
:10452000CE0101960E94F58ACE0101960E942B7B56
:104530008091B70A90E00E94FF8A8091B80A90E0CB
:104540000E94008B8091B80A8A30A0F440E063E0BA
:1045500088E694E10E94708760E574E2CE010196DE
:104560000E94337BCE0101960E94F58ACE0101960E
:104570000E942B7B40E066E088E694E10E94708711
:104580000DE11CE085E2E82E8CE0F82EF801808138
:10459000803210F4805C8083F80181918F010E9449
:1045A000FE8AE016F10691F740E06FE088E694E1BC
:1045B0000E947087E091570BF0E0E65CF54F808138
:1045C00090E00E94FF8AE091570BF0E0EA5CF54F23
:1045D000808190E00E94008BE091570BF0E0EA5C54
:1045E000F54F80818A30A0F440E060E188E694E1F4
:1045F0000E9470876EE474E2CE0101960E94337BC4
:10460000CE0101960E94F58ACE0101960E942B7B75
:1046100041E061E088E694E10E94708766E088E608
:1046200094E10E94D48741E065E088E694E10E942D
:10463000708767E088E694E10E94D48741E068E0F3
:1046400088E694E10E94708769E474E2CE010196E5
:104650000E94337BCE0101960E94F58ACE0101961D
:104660000E942B7B41E06EE088E694E10E94708717
:1046700066E088E694E10E94D48741E062E188E642
:1046800094E10E94708767E088E694E10E94D487F5
:1046900083CD84E10E94578B83E10E94578B85E193
:1046A0000E945A8B0E94238B40E060E088E694E1F0
:1046B0000E94708764E374E288E694E10E941D7CA6
:1046C00041E060E088E694E10E9470876FE174E267
:1046D00088E694E10E941D7C60911B088EE00E9498
:1046E0005D8B60911A088FE00E945D8B55CDEF9233
:1046F0000F938091730B9091740B079761F48091E5
:10470000770B813009F402C148F0823009F455C2B8
:10471000833009F40DC30F91EF90089584E10E9456
:104720005A8B85E10E945A8B86E10E94578B83E168
:104730000E94578B8091790B882371F00E94238B04
:1047400040E060E088E694E10E94708766EA73E2E8
:1047500088E694E10E941D7C41E060E088E694E1F7
:104760000E9470872091440A822F90E02A3008F03E
:104770004DC0FC018827E054FC4D8F4F0C94719D77
:10478000CA23EB23EE23F123F423F723FA23FD239B
:104790000024032461EA73E288E694E10E941D7C10
:1047A00041E064E088E694E10E9470878091430ACA
:1047B0008B3009F498C0C0F5823009F48BC048F5FD
:1047C000882309F484C06AE673E28130C9F190E07D
:1047D0000E940E8B39C06CE973E2DECF67E973E2A9
:1047E000DBCF62E973E2D8CF6DE873E2D5CF68E83A
:1047F00073E2D2CF63E873E2CFCF6EE773E2CCCF40
:1048000069E773E2C9CF64E773E2C6CF0E94008B09
:10481000C7CF853009F461C0873009F461C08330A7
:10482000B1F660E673E20CC08F3209F462C008F0A2
:1048300044C0873109F45AC067E473E2833239F621
:1048400088E694E10E941D7C41E069E088E694E1FD
:104850000E94708761E373E288E694E10E941D7C08
:104860008091420A90E00E94FF8A8091420A823041
:1048700008F448C080E10E94578B41E06DE088E673
:1048800094E10E9470878091410A90E00E94008B21
:1048900041E062E188E694E10E9470878091400ADD
:1048A00090E00E94FF8A8091400A882309F43BC26D
:1048B00082E10F91EF900C94578B8F35E9F08F3B8D
:1048C000F1F0873409F083CF6DE373E2B9CF6FE67F
:1048D00073E2B6CF65E673E2B3CF6BE573E2B0CFB8
:1048E00066E573E2ADCF61E573E2AACF6CE473E2F3
:1048F000A7CF62E473E2A4CF68E373E2A1CF63E3DE
:1049000073E29ECF80E10E945A8BB7CF84E10E9470
:104910005A8B85E10E945A8B86E10E94578BE12CCD
:1049200000E020E040E060E080E00E94328B809177
:10493000790B882371F00E94238B40E060E088E6C9
:1049400094E10E9470876CE173E288E694E10E9432
:104950001D7C41E060E088E694E10E9470878091D0
:104960003E0A6EEF72E28830E9F008F098C06DE020
:1049700073E28330B9F070F467E173E2882391F059
:1049800062E173E2813071F090E00E940E8B63EE81
:1049900072E208C068E073E2843021F063E073E201
:1049A000863091F788E694E10E941D7C8EE00E949B
:1049B0005A8B41E064E088E694E10E947087809120
:1049C000C70B882309F487C06EED72E288E694E194
:1049D0000E941D7C8FE00E94578B41E068E088E6D2
:1049E00094E10E9470878091C40B882309F48FC0E2
:1049F00080913F0A882309F478C064ED72E288E66A
:104A000094E10E941D7C80E10E94578B8091C70B2E
:104A10008823E9F08091C30B41E06DE0803208F417
:104A200080C088E694E10E9470876BEC72E288E6B1
:104A300094E10E941D7C41E061E188E694E10E94DE
:104A4000708767EC72E288E694E10E941D7C809199
:104A5000C40B882309F45FCE41E06DE088E694E161
:104A60000E947087E0916207F0E0EE0FFF1FED57A4
:104A7000F44F818181118FC064EB71E288E694E18B
:104A80000E941D7C41E062E188E694E10E9470870B
:104A90008091620790E00F91EF900C94008B6FEE85
:104AA00072E2803309F47ECF58F469EF72E28C3001
:104AB00009F478CF64EF72E2883109F473CF64CFE0
:104AC0006AEE72E2803609F46DCF65EE72E2803CE8
:104AD00009F468CF59CF69ED72E288E694E10E944B
:104AE0001D7C8FE00E945A8B78CF8EEF90E00E9461
:104AF0002B8860E088E694E10E94D4878EEF90E0F6
:104B00000E942B888EEF90E00E942B887CCF6FEC68
:104B100072E288E694E10E941D7C80E10E945A8B3B
:104B200075CF88E694E10E947087E091C30BE15055
:104B3000FF0BEE0FFF1FED57F44F818161EC72E226
:104B4000882321F08038C1F46BEB72E288E694E1AF
:104B50000E941D7C69EB71E288E694E10E941D7C55
:104B600041E062E188E694E10E9470878091C30B86
:104B700090E00E94008B6BCFE081F0E0EE0FFF1F12
:104B8000E554FE4D6591749181E597E00E94C79CC4
:104B90000E94C27BDFCF803809F474CFE081F0E05F
:104BA000EE0FFF1FE554FE4D6591749181E597E08E
:104BB0000E94C79C0E94C27B65CF84E10E945A8BF1
:104BC00085E10E945A8B86E10E94578B8091790B78
:104BD000882359F00E94238B80E00E94278B6FE985
:104BE00071E288E694E10E941D7C41E060E088E685
:104BF00094E10E9470878091580B823009F472C052
:104C000048F48823A1F06AE971E2813059F066E83E
:104C100071E208C060E971E2833021F06BE871E273
:104C20008430A9F788E694E10E941D7C05C080913C
:104C30009D0A90E00E940E8B41E064E088E694E1DA
:104C40000E9470878091720B882309F44EC061E83E
:104C500071E288E694E10E941D7C8FE00E94578BF0
:104C600041E069E088E694E10E94708780914C0AF7
:104C7000882309F444C067E771E288E694E10E9462
:104C80001D7C80E10E94578B41E06EE088E694E154
:104C90000E94708740914B0A50E070E060E02AE08B
:104CA00088E694E10E94CB7B60E771E288E694E1BC
:104CB0000E941D7C80914B0A882359F181E10E945A
:104CC000578B41E061E188E694E10E947087809112
:104CD0004A0A882311F16CE671E288E694E10E94A9
:104CE0001D7CE6CD65E971E29DCF6CE771E288E657
:104CF00094E10E941D7C8FE00E945A8BB1CF62E745
:104D000071E288E694E10E941D7C80E10E945A8B4A
:104D1000BBCF81E10E945A8BD4CF68E671E288E66E
:104D200094E10E941D7C82E10F91EF900C945A8BCC
:104D300084E10E945A8B85E10E945A8B86E10E9491
:104D4000578BE12C00E020E040E060E080E00E9432
:104D5000328B8091790B882371F00E94238B40E085
:104D600060E088E694E10E94708763E571E288E67E
:104D700094E10E941D7C41E060E088E694E10E949D
:104D800070878091490A882309F459C06EE471E262
:104D900088E694E10E941D7C8EE00E94578B41E0E2
:104DA00064E088E694E10E947087E091480AF0E0B0
:104DB000EE0FFF1FE554FE4D6591749181E597E07C
:104DC0000E94C79C0E94C27B67E471E288E694E17E
:104DD0000E941D7C41E069E088E694E10E947087B2
:104DE0008091470A83500E943D1A65E471E288E68B
:104DF00094E10E941D7C41E06DE088E694E10E9410
:104E000070878091460A83500E943D1A63E471E2E4
:104E100088E694E10E941D7C41E061E188E694E12E
:104E20000E9470878091450A90E00E94008B61E4A7
:104E300071E288E694E10F91EF900C941D7C8EE076
:104E40000E945A8B69E471E288E694E10E941D7C1D
:104E5000A6CFEF92FF920F931F93CF93DF9300D0D3
:104E600000D0CDB7DEB72091730B3091740B8091D9
:104E7000750B9091760B2817390751F49091780BA8
:104E80008091770B981304C080914E07882329F0F6
:104E900081E08093790B10924E0784E10E945A8B37
:104EA00085E10E94578B86E10E945A8BE12C00E03D
:104EB00020E040E060E080E00E94328B87E10E94C9
:104EC0005A8B8091770B882319F083E10E94578BCE
:104ED0008091730B9091740B8430910551F1D8F44B
:104EE0008230910511F1039711F1E091730BF0916C
:104EF000740BE930F10520F58827EE57F84D8F4FF8
:104F00000C94719D9F27BB271429172B362C662DD7
:104F1000FD2D6E2F712F8630910579F060F0089786
:104F200021F787E10E94578BE0CF8EE0FBCF8FE027
:104F3000F9CF80E1F7CF81E1F5CF82E1F3CF17D947
:104F40008091730B9091740B9093760B8093750BFB
:104F50008091770B8093780B1092790B26960FB681
:104F6000F894DEBF0FBECDBFDF91CF911F910F919F
:104F7000FF90EF9008958091770B823009F4E5C09F
:104F800008F08FC0882309F4A9C08130C9F684E1F4
:104F90000E945A8B85E10E94578BEE24E39401E036
:104FA00020E040E060E081E00E94328B87E10E94D7
:104FB0005A8B0E94238B40E060E088E694E10E94D7
:104FC000708766E079E188E694E10E941D7C41E00B
:104FD00061E088E694E10E9470878FE70E94FE8A74
:104FE00041E064E088E694E10E947087E091570B0D
:104FF000F0E0E65CF54F408150E070E060E02AE0D0
:1050000088E694E10E94CB7BE091570BF0E0EA5CEC
:10501000F54F408150E070E060E02AE088E694E1DE
:105020000E94CB7BE091570BF0E0EA5CF54F80816A
:105030008A3060F441E065E088E694E10E94708780
:1050400064E079E188E694E10E941D7C41E068E03B
:1050500088E694E10E94708710E000E0B6E8FB2E3D
:105060008091570BF801F89EE00DF11D1124E25ECE
:10507000F74F80810E94FE8A0F5F1F4F0830110595
:1050800079F741E062E188E694E10E9470878EE75B
:105090000E94FE8A62E079E188E694E10E941D7C2C
:1050A0004FCF833009F4A9C0843009F049CF0E9462
:1050B000238B40E060E088E694E10E94708769E914
:1050C00078E188E694E10E941D7C41E060E088E69A
:1050D00094E10E94708764E878E1DECF84E10E9469
:1050E0005A8B85E10E94578BEE24E39401E021E086
:1050F00041E061E081E00E94328B87E10E945A8B9F
:105100000E94238B80E00E94278B60E379E1CE012F
:1051100001960E94337BCE0101960E94F58ACE0152
:1051200001960E942B7B80E40E94278B6BE179E142
:10513000CE0101960E94337BCE0101960E94F58A32
:10514000CE0101960E942B7BFBCE84E10E945A8BFC
:1051500085E10E94578BEE24E39401E021E040E0DA
:1051600060E080E00E94328B87E10E945A8B0E94AF
:10517000238B40E060E088E694E10E9470876DEE4A
:1051800078E188E694E10E941D7C41E060E088E6D9
:1051900094E10E94708760EE78E188E694E10E94D5
:1051A0001D7C80914B0790E00E94FF8A8091490707
:1051B00090E00E94008B809149078A3060F441E0C2
:1051C0006DE088E694E10E9470876EED78E188E6F4
:1051D00094E10E941D7C10924A0741E062E188E65A
:1051E00094E10E94708780914A076BED78E18823F3
:1051F00009F49ECF68ED78E19BCF0E94238B40E0BD
:1052000060E088E694E10E94708763EC78E188E6CC
:1052100094E10E941D7C41E060E088E694E10E94F8
:1052200070876EEA78E138CF8091770B813009F48E
:105230007CC108F4ACC0823009F082CE8091790B39
:10524000882399F00E94238B80E00E94278B65E5DC
:1052500079E1CE0101960E94337BCE0101960E9436
:10526000F58ACE0101960E942B7B80E40E94278B59
:105270008091800B90E001960E94FF8A84E40E9456
:10528000278B8091570BE091800B06E00E9FF00179
:105290001124E955FD4F208116E8189FC001112403
:1052A000825E974F820F911DDC01EC91F0E0EE0FD2
:1052B000FF1FE35BF64E6591749181E597E00E94D4
:1052C000C79C0E94C27B88E40E94278B8091570B69
:1052D000E091800B0E9FF0011124E955FD4F2381D1
:1052E000189FC0011124825E974F820F911DDC012F
:1052F000EC91F0E0EE0FFF1FED56F44E65917491C6
:1053000081E597E00E94C79C0E94C27B8DE40E94C9
:10531000278B8091570BE091800B0E9FF001112499
:10532000E955FD4F2181189FC0011124825E974FDE
:10533000820F911DFC01808169E479E1882311F0DD
:1053400065E479E1CE0101960E94337BCE0101969E
:105350000E94F58ACE0101960E942B7B82E50E9475
:10536000278B8091570BE091800B36E0E39FF00193
:105370001124E955FD4F2281A6E88A9FC00111241E
:10538000825E974F820F911DFC01808132C40E9482
:10539000238B80E00E94278B80917E0B6FED79E15B
:1053A000811102C06AEC79E1CE0101960E94337B43
:1053B000CE0101960E94F58ACE0101960E942B7BB8
:1053C00080E40E94278B80917E0B65EB79E181114F
:1053D00002C060EA79E1CE0101960E94337BCE01E2
:1053E00001960E94F58ACE0101960E942B7B80E4F3
:1053F0000E94278B80917E0B90E001960E94008B8B
:105400008091570BE0917E0B37E0E39FF001112470
:10541000ED54FD4F2381A6E88A9FC0011124825ECE
:10542000974F820F911DFC01808180FF11C084E4A1
:105430000E94278B6CE979E1CE0101960E94337BB3
:10544000CE0101960E94F58ACE0101960E942B7B27
:105450008091570BE0917E0B37E0E39FF001112420
:10546000ED54FD4F2381A6E88A9FC0011124825E7E
:10547000974F820F911DFC01808181FF11C088E44C
:105480000E94278B68E979E1CE0101960E94337B67
:10549000CE0101960E94F58ACE0101960E942B7BD7
:1054A0008091570BE0917E0B37E0E39FF0011124D0
:1054B000ED54FD4F2581A6E88A9FC0011124825E2C
:1054C000974F820F911DFC01808180FF11C08CE4F9
:1054D0000E94278B64E979E1CE0101960E94337B1B
:1054E000CE0101960E94F58ACE0101960E942B7B87
:1054F0008091570BE0917E0B37E0E39FF001112480
:10550000ED54FD4F2581A6E88A9FC0011124825EDB
:10551000974F820F911DFC01808181FF11CD81E5A4
:105520000E94278B60E979E103CE8091790B882373
:1055300009F441C00E94238B80E00E94278B809158
:10554000800B67E879E1882311F06EE779E1CE01FD
:1055500001960E94337BCE0101960E94F58ACE010E
:1055600001960E942B7B8EE70E94FE8A8091800B21
:1055700066E779E1882311F06EE679E1CE010196C4
:105580000E94337BCE0101960E94F58ACE010196DE
:105590000E942B7B8EE70E94FE8A6AE679E1CE01AB
:1055A00001960E94337BCE0101960E94F58ACE01BE
:1055B00001960E942B7B80E40E94278B8091800BB8
:1055C00090E001960E94FF8A84E40E94278B8091DC
:1055D000570BE091800B06E00E9FF0011124E95576
:1055E000FD4F248116E8189FC0011124825E974F59
:1055F000820F911DDC018C910E943D1A8DE40E9466
:10560000278B8091570BE091800B0E9FF0011124A6
:10561000E955FD4F2581189FC0011124825E974FE7
:10562000820F911DFC0180810E943D1A89CC9091CE
:10563000770B8091790B91118BC0882399F00E9490
:10564000238B80E00E94278B6BE67AE1CE010196E6
:105650000E94337BCE0101960E94F58ACE0101960D
:105660000E942B7B80E40E94278B66E57AE1CE01C5
:1056700001960E94337BCE0101960E94F58ACE01ED
:1056800001960E942B7BE091570B36E8E39FF001D7
:105690001124E25EF74F848D80FF11C080E40E94E8
:1056A000278B62E57AE1CE0101960E94337BCE0121
:1056B00001960E94F58ACE0101960E942B7BE09113
:1056C000570B86E8E89FF0011124E25EF74F848DC6
:1056D00081FF11C084E40E94278B6EE47AE1CE0141
:1056E00001960E94337BCE0101960E94F58ACE017D
:1056F00001960E942B7BE091570B96E8E99FF00101
:105700001124E25EF74F858D80FF11C088E40E946E
:10571000278B6AE47AE1CE0101960E94337BCE01A9
:1057200001960E94F58ACE0101960E942B7BE091A2
:10573000570BA6E8EA9FF0011124E25EF74F858D32
:1057400081FFFECB8DE40E94278B66E47AE1F0CCEA
:10575000913009F04BC0882399F00E94238B80E0A0
:105760000E94278B64E37AE1CE0101960E94337B8D
:10577000CE0101960E94F58ACE0101960E942B7BF4
:1057800084E40E94278BE091570B16E81E9FF001DE
:105790001124E25EF74F878D90E00E94008B88E431
:1057A0000E94278BE091570B1E9FF0011124E658B1
:1057B000F74F80810E943D1A8DE40E94278BE09173
:1057C000570B1E9FF0011124E558F74F80810E946E
:1057D0003D1A809150076BE27AE1813009F0A8CC44
:1057E0008EE70E94FE8A60E37AE1A2CC882399F0DA
:1057F0000E94238B80E00E94278B66E17AE1CE0134
:1058000001960E94337BCE0101960E94F58ACE015B
:1058100001960E942B7B8091B50A8130D9F480E4F7
:105820000E94278B69E07AE1CE0101960E94337BCA
:10583000CE0101960E94F58ACE0101960E942B7B33
:105840008091B60A81110CC08EE40E94278B68EF0C
:1058500079E16ECC80E40E94278B6CEF79E1E4CF94
:105860008EE40E94278B64EF79E162CC8091770B04
:10587000813009F4B3C008F464C0823009F060CB11
:105880008091790B882399F00E94238B80E00E94FD
:10589000278B68E97AE1CE0101960E94337BCE0125
:1058A00001960E94F58ACE0101960E942B7B81E42D
:1058B0000E94278B80917F0B90E001960E94FF8AC7
:1058C00084E40E94278B8091570BE0917F0B0AE0C4
:1058D0000E9FF0011124E757FD4F208116E8189F15
:1058E000C0011124825E974F820F911DDC01EC9163
:1058F000F0E0EE0FFF1FE857F54E6591749181E5DA
:1059000097E00E94C79C0E94C27B80E50E94278B83
:105910008091570BE0917F0B0E9FF0011124E75708
:10592000FD4F2781189FC0011124825E974F820F7F
:10593000911DDC01EC91F0E0EE0FFF1FE058F54EF9
:10594000BCC08091790B882399F00E94238B80E062
:105950000E94278B6AEC7AE1CE0101960E94337B8C
:10596000CE0101960E94F58ACE0101960E942B7B02
:1059700084E40E94278BE091570B16E81E9FF001EC
:105980001124ED59F74F808190E00E94008B88E44C
:105990000E94278BE091570B1E9FF0011124EC59B8
:1059A000F74F808190E00E94008B8DE40E94278B4E
:1059B000E091570B1E9FF0011124EB59F74F8081A6
:1059C00090E00E94008B82E50E94278BE091570BAC
:1059D0001E9FF0011124EA59F74FD7CC8091790B23
:1059E000882399F00E94238B80E00E94278B65EB2F
:1059F0007AE1CE0101960E94337BCE0101960E948E
:105A0000F58ACE0101960E942B7B81E40E94278BB0
:105A100080917F0B90E001960E94FF8A84E40E94AF
:105A2000278B8091570BE0917F0B0AE00E9FF001CE
:105A30001124E757FD4F218116E8189FC00111245A
:105A4000825E974F820F911DFC01808190E00E9441
:105A5000008B88E40E94278B8091570BE0917F0B8D
:105A60000E9FF0011124E757FD4F2681189FC001BA
:105A70001124825E974F820F911DDC018C9190E082
:105A80000E94008B8CE40E94278B8091570BE09141
:105A90007F0B0E9FF0011124E757FD4F2085189FC3
:105AA000C0011124825E974F820F911DDC01EC91A1
:105AB000F0E0EE0FFF1FE355F54E6591749181E51F
:105AC00097E00E94C79C0E94C27B3ACA8091770BE4
:105AD000882309F446C0813009F032CA8091790BDD
