:100000000C940E160C94F4920C941F930C944A9337
:100010000C9475930C94A0930C94CB930C94F6933E
:100020000C9421940C94E88E0C94E88E0C94E88E39
:100030000C943F160C943F160C943F160C9466914A
:100040000C943F160C943F160C943F160C943F16DC
:100050000C94FC860C943F160C943F160C944C9414
:100060000C943F160C94E4970C941A980C943F1639
:100070000C943F160C943F160C943F160C943F16AC
:100080000C943F160C943F160C943F160C943F169C
:100090000C948F980C94C5980C943F160C942B8953
:1000A0000C943F160C943F160C943F160C943F167C
:1000B0000C943F160C943F160C943F160C943F166C
:1000C0000C943F160C943F160C943F160C943A99DE
:1000D0000C9470990C943F160C94E5990C941B9A0F
:1000E0000C943F1683185D18F117DB175F18D917AA
:1000F000DF17DD17E917EB17E1176118E717E317AB
:1001000063188418E5178418ED17EF178418F31790
:1001100065186718F517F717F917FB1769186B18A3
:10012000841879187B1849184B184D184F18511816
:10013000531884185518571859185B18FD17771855
:10014000FF170118D7178418841884188418841886
:10015000841884186D181F182318211827182918B7
:100160002B182D182F1831186F182518351833181B
:1001700039183B183D183F184118431871183718A3
:100180004718451803187D1809180B180F1873180D
:10019000051807180D18841811187F181718191842
:1001A0001D187518131815181B18811891183D196A
:1001B00093189518971899189B183E199D183E1971
:1001C0009F18A1183E19A318A518A718A918AB18AD
:1001D000AD18AF18B118B3183E193E193E19B91829
:1001E000BB18BD18BF18C118C318C518C718C9183F
:1001F000CB18CD18CF18D118D318D518D718D918AF
:100200003E193E193E193E193E193E19DB18DD18FC
:10021000DF18E118E318E518E718E9183E19ED189A
:10022000EF18F118F318F518F718F918FB18FD185E
:10023000FF18011903190519071909190B190D19C7
:100240000F19111913191519171919191B191D1936
:100250001F192119231925193B1929193E193E196E
:100260003E193E193E193E193719391935193319F6
:1002700031192F192D192B19EB18B518B718271983
:10028000301C4C1C541C611C7E1C951CA51CDB1CCA
:10029000FD1CC11CCA1E7F215A1FDC1E8821D31ED3
:1002A000EE1EE51E361F3F1FF71E9121241F091F5A
:1002B0009A21001F1B1F121F481F511F2D1F631F54
:1002C000A321AC216C1F751F7E1F901FB521BE217D
:1002D000871FFD21062225212E213721402149217A
:1002E000522129225B2164216D217621991FF4215D
:1002F000A21FAB1FC11E29223B2044204D205620A7
:100300005F206820C72132207A2071208C20952020
:100310009E20A720B020B920D0218320CB20C2204E
:10032000DD20E620EF20F82001210A21D921D42068
:100330001C211321B41F0F22CF1FD81FEA1FE22157
:10034000BD1FC61FE11F2922F31F18220E201720F0
:100350002920EB21FC1F0520202021226E276B275E
:100360007A277D277127742777278C278C27832767
:1003700080278C278C278C278C278C278C278C27F1
:100380008C278C278C278C278C278C278627792FE6
:100390001A30792FE42F1A301A301A301A301A30E6
:1003A0001A301A301A301A301A301A301A301A30FD
:1003B0001A301A301A30A12ED52E1A30792F442F28
:1003C0000E2F442FB32FFA46F24616472147044713
:1003D0000A471147EF4670589158D3580059215990
:1003E000B2587C599F595959B45B945CA25B885BA5
:1003F0008F5C945C945C945C945C945C945C945C82
:10040000945C945C945C945C945C945C945C945C6C
:10041000535C715C945CB45B7A5B265C5A5B405BBA
:10042000C95BD25BDB5BE45BED5BED5BF65BF65BD4
:10043000116460643B6428647E647E6409647E6445
:1004400009647E640964096409647E64096409645A
:10045000A26AA56AAC6AAF6AB26AB56AB86ABB6AD0
:10046000BE6AC16A4E753E758675A8755F756A75F8
:1004700079753A75277B297B2C7B2F7B327B357BEB
:10048000387B3B7B3E7BE57E017F0D7F267FD17EE7
:10049000A57E557E517EC77FC77FC77FC77FC77F39
:1004A000C77FC77FC77FC77FC77FC77FC77FC77F1C
:1004B000C77FC77FC77F7C7F358236823C823E8282
:1004C00038823A82408242824482D7821783D38222
:1004D000CF82FF82038307830B83EB82E7822F8324
:1004E0003383EF82F382F782FB827A830F83138355
:1004F0001B83DF82E3827A83D782CB82DB82C68250
:10050000C2821F83238327832B83CE929892A0924B
:10051000AC92B992DA92E792A795AA9599959D9592
:10052000A395E195AE95B295B895BC95C095C69545
:10053000CA95CE95E195D495D895DC9541727020F9
:100540002620536571207361766564202120202068
:1005500000456469744275666665722C20556E6943
:10056000736F6E2C200050415443482070616765C2
:1005700035004370792050617374204564742F41B5
:1005800072702F53657100434F50592026205041FF
:10059000535445203A202020202020005341564526
:1005A00000300030006D00200047657474696E678C
:1005B000204D5452582042616E6B20004745542014
:1005C000006342616E6B006D42616E6B3A0047459D
:1005D0005420494E4954204F5247204544542053FB
:1005E0004156003000440043004200410050415455
:1005F0004348202000204F4E004F4646004C464FB7
:10060000204D44452053524345204C4147205254ED
:10061000470053504400414D50204B424400414D4F
:100620005020505253004C464F20524D5032004CF7
:10063000464F20524D5031004F4E20004F4E20006B
:100640004F4E20004F4E2000312020204F464620A4
:100650004F4646204F4646202020202000312020B3
:10066000204F4646204F4646204F464620204F46C4
:10067000460044434F20424E442056494220504FAA
:100680005254202020200044434F20424E44205604
:10069000494220504F5254204B424400545241434F
:1006A0004B47454E2D494E5055543A20007C005240
:1006B0004D5020535044205452474D4F44457C5494
:1006C00047494E004253205352432020444553543F
:1006D00020202020414D4E54004F4E20004F4646D2
:1006E000004B4559422D4D4F444520554E492E4C07
:1006F000454741544F00504F5254414D4F444520BF
:100700002056454C4F2052415445004F4E20004F3B
:1007100046460053454E4420535953455820200027
:1007200053454E442043434F4E54524C0046494C8F
:100730005445522046524551202053555354414967
:100740004E002020202000736E640056434120415B
:100750004D542056454C3020454E5632004F4E20C9
:10076000004F4E20004F4E20004F4E20004F464677
:10077000204F4646204F464620204F464620202008
:100780002000424E44205649422050525441204BB2
:1007900042442020202000454E56205452494747CD
:1007A00045524D4F444520204C464F00454E562063
:1007B000444C5920414D502052454C2D4D4F4445FD
:1007C000004556332041544B204445432020535587
:1007D000532052454C00347832344C43353132206A
:1007E000696E6974696C696173656400696E7465CA
:1007F000726E20454550524F4D20636C65617265A5
:100800006400616C6C2032344C4335313220636CAF
:100810006561726564202000524D50204D4F442088
:100820004D545258202D2D2D202D2D2D0052414E4E
:10083000444F4D495A453A20202020202020202096
:10084000200044434F20464C5420454E5620204B18
:100850004244204C464F0052414E444F4D495A4568
:100860003A2020202020202020202000202000448A
:100870004F0030004D61747269785F736C6F742043
:10088000004578706F72742063757272656E747053
:10089000617463683A003000536574206E616D6561
:1008A00020772F20656E636F6465723A004C464F67
:1008B0002056434120454E56205052544120524D1F
:1008C000500044434F20464C5420454E56204B4246
:1008D00044204D54525800205379732026204D61F6
:1008E00073746572732072656164792000205061B1
:1008F000746368203030302D393939207265616475
:10090000792000496E742E454550524F4D20666F38
:10091000726D617474656420004578742E4545508D
:10092000524F4D20666F726D617474656420004E85
:100930004F5200494E560045787420496E74204944
:100940006E6974205379732000464F524D415420F4
:10095000454550524F4D203A2020454E4300537993
:1009600073204D737420416C6C0042616E6B0044C7
:10097000554D50204354524C52204D454D4F5259E5
:10098000203A20006E6F6E65003244756F0051751D
:100990006172005472696F0044756F2000536F6C70
:1009A0006F00434647203A2047526F755020287009
:1009B00061676520342900202E2000202A20002095
:1009C000242000202E20006F6666006F6E2000201D
:1009D0002E2000202A2000554B4E006D54670054F5
:1009E000726700733234004D69640042504D205AE2
:1009F0004F4E204C4F43202053544E205843430029
:100A0000443A52616E67652020724348207443481F
:100A10002054727000433A52616E67652020724321
:100A200048207443482054727000423A52616E6705
:100A3000652020724348207443482054727000415E
:100A40003A52616E67652020724348207443482003
:100A500054727000202E2000202A20005064312083
:100A600050643220204C7631204C763220456E6125
:100A7000004D314B004D3620004D314B004D36209E
:100A8000004D314B004D3620004D314B004D36208E
:100A90000043482020413A2020423A202020433A77
:100AA0002020443A2000536E6400414D50204D4FA9
:100AB0004420414D4E5420424E442047424C004772
:100AC000657400535044204D4F4420414D4E5420F6
:100AD0005741562047424C00564942204D49442038
:100AE0004D4953432047525020444D5000434F4EF0
:100AF0004649475552453A202020202020202020DA
:100B000020002000200020002000412F532000530F
:100B10002F4120005345542053504C5420547241CF
:100B2000205472532053455100202E202000202AAB
:100B300020200020004E6F202000596573200020E7
:100B40002E202000202A2020002D2D2D20006D5445
:100B5000672000547267200073323420004D6964AE
:100B6000200042504D2041435420544852552047C4
:100B7000525620484C440020202020002000546978
:100B800065202000526573742000456E64002020AB
:100B90002000202E202000746F676C00202E202063
:100BA00000206F202000200031362F3100382F31F7
:100BB0002000342F312000322F312000312F3120FE
:100BC00000332F322000312F322000312F3320000C
:100BD000312F342000312F362000747267200053EB
:100BE00050442052454320504C415920522F54200C
:100BF000537450007800324D657300314D657300B9
:100C0000332F312000322F312000332F322000319A
:100C10002F312000312F322000312F332000312F8F
:100C2000342000312F362000312F382000312F3171
:100C300032007472672000313C3C3300446E5570C2
:100C400000426E634400313E3E330052616E6400E8
:100C50005570446E00426E636500446F776E0020ED
:100C6000557020004F726472005459502044495608
:100C7000204D4C5450204741542038766100537920
:100C80007374656D207265636569766564202020E4
:100C900020004D61737465722072656365697665C5
:100CA00064202020202000456469744275666665D2
:100CB00072207265636569766564200050617463B3
:100CC00068207265636569766564203A2000426138
:100CD0006E6B207265636569766564202120202033
:100CE00020004E6F7465204F6E004E6F7465204F6C
:100CF000666600436865636B5F457874454550528E
:100D00004F4D5F466F726D61742829202F206D61F1
:100D1000746368202100436865636B5F45787445A0
:100D20004550524F4D5F466F726D61742829202FD8
:100D3000206D6973736D617463682021006D656D4A
:100D40005F32202F20006D656D5F30202F20004323
:100D50006865636B5F496E74454550524F4D5F4601
:100D60006F726D617428292F206D61746368202172
:100D700000436865636B5F496E74454550524F4D43
:100D80005F466F726D617428292F206D6973736DD2
:100D900061746368202100696E742E454550524F7E
:100DA0004D20616464722000434C454152494E47D6
:100DB0002057495448204E554C4C20202000696E45
:100DC000742E454550524F4D20616464722000449A
:100DD000656661756C74204D4153544552535B5D9B
:100DE00020202000696E742E454550524F4D2061E1
:100DF0006464722000434C454152494E4720574994
:100E00005448204E554C4C20202000696E742E45CD
:100E10004550524F4D206164647220004465666104
:100E2000756C7420535953434F4E4649475B5D20C0
:100E3000006578742E454550524F4D2070616765AE
:100E40002000494E495449414C49534520552641BB
:100E5000525026534551006578742E454550524FE7
:100E60004D20706167652000494E495449414C4905
:100E70005345205041544348202020202000696ED3
:100E8000742E454550524F4D2061646472200043DA
:100E90004C454152494E47205749544820307866C6
:100EA00066202020006578742E454550524F4D2015
:100EB000706167652000434C454152494E472057B9
:100EC0004954482030786666202020002000464F94
:100ED000524D4154206578742E454550524F4D2057
:100EE000772F3000205061746368203030302D3906
:100EF00039392072656164792000434F52452020C2
:100F00004120202042202020432020204420200077
:100F10004563686F206D7367206F6E204D6964694B
:100F2000204F75743A004563686F206D7367206FBA
:100F30006E20434F5245204F7574200048656C6CFD
:100F40006F2042756464792021203A2920202020D6
:100F5000200044756D70696E672053797374656DF8
:100F6000436F6E6669670050617463682073746FC5
:100F700072656420696E204D617472780044756DED
:100F8000702042616E6B2066696E697368656420CB
:100F90002000204420202000204320202000204347
:100FA0004F524500202042202000204120202000D8
:100FB00020746F0044756D70696E67203A00447547
:100FC0006D70696E67204D6173746572202E2E2ED0
:100FD0002020004D6174726978204374726C722015
:100FE00000414C504553204D414348494E45532004
:100FF000323031372000202D2D2D205445535420E0
:101000004D4F4445202D2D2D202000546573744DE7
:101010006F6465282900202020002E002A0020006F
:101020002E002A00200064696E203A2000456E647C
:10103000206F6620426F6F742E002D2D20616C6C26
:10104000206E6F746573206F6666202D2D007265AB
:1010500063616C6C2073696C656E74206E6F74656F
:101060007300726563616C6C2070617463682063E7
:101070006F6E6669672000726563616C6C207061D9
:1010800074636820636F6E66696700726563616C84
:101090006C2073797374656D20636F6E6669670089
:1010A000726563616C6C2073797374656D20636F16
:1010B0006E666967002D2D2D20426F6F74202053BE
:1010C000797374656D202D2D2D00426F6F74282962
:1010D00020004D6174726978204374726C722076BE
:1010E000002000202F2061696E5F70696E5F76615D
:1010F0006C7565203A200061696E5F70696E203AF8
:101100002000202D2D53595354454D205245424F18
:101110004F542D2D20007265626F6F74696E6720C9
:1011200073797374656D202F20736F6674776172A5
:10113000655F5265626F6F74282920004A1146115D
:101140004211506431004C7632004F4646005C112B
:1011500058115411506431004C7632004F4646000D
:1011600080117C117811741170116C114E4F49006F
:1011700052414E00535152004453570055535700AB
:1011800054524900FF14FA14F514F014EB14E61449
:10119000E114DC14D714D214CD14C814C314BE1433
:1011A000B914B414AF14AA14A514A0149B14961463
:1011B00091148C14871482147D14781473146E1493
:1011C000691464145F145A14551450144B144614C3
:1011D00041143C14371432142D14281423141E14F3
:1011E000191414140F140A1405140014FB13F61325
:1011F000F113EC13E713E213DD13D813D313CE135B
:10120000C913C413BF13BA13B513B013AB13A6138A
:10121000A1139C13971392138D13881383137E13BA
:10122000791374136F136A13651360135B135613EA
:1012300051134C13471342133D13381333132E131A
:10124000291324131F131A13151310130B1306134A
:101250000113FC12F712F212ED12E812E312DE1281
:10126000D912D412CF12CA12C512C012BB12B612B2
:10127000B112AC12A712A2129D12981293128E12E2
:101280008912841220473920002046233900204645
:1012900039200020453920002044233900204439DA
:1012A00020002043233900204339200020423820E9
:1012B00000204123380020413820002047233800F7
:1012C00020473820002046233800204638200020C0
:1012D0004538200020442338002044382000204393
:1012E00023380020433820002042372000204123AB
:1012F0003700204137200020472337002047372080
:1013000000204623370020463720002045372000A4
:101310002044233700204437200020432337002077
:101320004337200020423620002041233600204150
:101330003620002047233600204736200020462351
:101340003600204636200020453620002044233633
:10135000002044362000204323360020433620005E
:101360002042352000204123350020413520002037
:1013700047233500204735200020462335002046EE
:1013800035200020453520002044233500204435F9
:101390002000204323350020433520002042342004
:1013A0000020412334002041342000204723340012
:1013B00020473420002046233400204634200020DB
:1013C00045342000204423340020443420002043AE
:1013D00023340020433420002042332000204123C6
:1013E000330020413320002047233300204733209F
:1013F00000204623330020463320002045332000C0
:101400002044233300204433200020432333002092
:10141000433320002042322000204123320020416B
:10142000322000204723320020473220002046236C
:101430003200204632200020453220002044233252
:101440000020443220002043233200204332200079
:101450002042312000204123310020413120002052
:101460004723310020473120002046233100204609
:101470003120002045312000204423310020443118
:10148000200020432331002043312000204230201F
:10149000002041233000204130200020472330002D
:1014A00020473020002046233000204630200020F6
:1014B00045302000204423300020443020002043C9
:1014C0002330002043302000422D31200041232DC5
:1014D0003100412D31200047232D3100472D31208F
:1014E0000046232D3100462D312000452D312000AE
:1014F00044232D3100442D31200043232D3100435E
:101500002D3120004C464F32205350454544202F6A
:101510004B42442000454E56332052454C454153E2
:101520004520202020004C464F3220414D50202F96
:1015300052414D50322000454E56332044454341E0
:1015400059202020202020004C464F3120414D5072
:10155000202F52414D50312000454E5633204154EA
:101560005441434B2020202020004C464F31205333
:1015700050454544202F5052532000454E563320AD
:101580005355535441494E2020202000454E56319A
:1015900020414D50202F56454C4F202000454E569F
:1015A0003220414D504C4954554445202000454E71
:1015B000563320414D504C49545544452020004459
:1015C000434F32205057202F4C464F3220202000CE
:1015D00044434F322050572020202020202020201C
:1015E0000044434F3220444554554E45202020208E
:1015F000200044434F322057415645205348415024
:10160000452000454E563120414D504C49545544DB
:101610004520200044434F3220462F4C464F312076
:101620002020202000554E49534F4E20444554550C
:101630004E452020200044434F3220465245512041
:101640002020202020200044434F312050572020CC
:10165000202020202020200044434F2042414C41A4
:101660004E434520202020200044434F3120505736
:10167000202F4C464F3220202000504F5254412002
:10168000524154452020202020200044434F312047
:10169000574156452053484150452000504F525421
:1016A00041202F56454C4F202020202000564346F5
:1016B00020465245512043555420202020005643B7
:1016C0004620464D2F5052532020202020200044F9
:1016D000434F312046524551202020202020200019
:1016E000564341202F454E563220202020202020D6
:1016F0000044434F312046202F4C464F31202020BC
:101700002000564341202F56454C4F2020202020BA
:1017100020200056434620464D202F454E5633206C
:10172000202020004C464F32205350454544202075
:101730002020202000454E56322052454C45415332
:101740004520202020004C464F3220414D504C492E
:1017500054554445202000454E56322044454341CF
:1017600059202020202020004C464F3120414D5050
:101770004C4954554445202000454E563220415492
:101780005441434B2020202020004C464F31205311
:101790005045454420202020202000454E56322030
:1017A0005355535441494E2020202000454E563178
:1017B0002052454C454153452020202000454E569F
:1017C0003120444543415920202020202000454E0F
:1017D0005631205355535441494E20202020004477
:1017E000434F32205057202F4C464F3220202000AC
:1017F00044434F32205057202020202020202020FA
:101800000044434F3220444554554E45202020206B
:10181000200044434F322057415645205348415001
:10182000452000454E56312041545441434B202021
:101830002020200044434F322046202F4C464F3179
:101840002020202000554E49534F4E2044455455EA
:101850004E452020200044434F322046524551201F
:101860002020202020200044434F312050572020AA
:10187000202020202020200044434F2042414C4182
:101880004E434520202020200044434F3120505714
:10189000202F4C464F322020200052414D50203105
:1018A000205241544520202020200044434F312025
:1018B00057415645205348415045200052414D5014
:1018C00020322052415445202020202000564346FB
:1018D0002046524551204355542020202000564395
:1018E000462046202F505253202020202020004404
:1018F000434F3120465245512020202020202000F7
:1019000056434620464D2020202020202020202005
:101910000044434F312046202F4C464F3120202099
:101920002000564346205245534F2020202020209F
:101930002020005643462046202F454E5631202079
:1019400020202000000000040E1F00000000001FE7
:101950000E04000002030302020E1E0C1E1E1E1FB8
:101960001E1E1E1E1C1C1C1F1C1C1C1C1818181FB5
:10197000181818181010101F1010101010181C1E16
:101980001E1C18102D2D2D2D2D2D2D2D2D2D2D2DD9
:101990002D2D2D2DFF2D2D2D2D2D2D2D2D2D2D2DA5
:1019A0002D2D2D2DFFFF2D2D2D2D2D2D2D2D2D2DC3
:1019B0002D2D2D2DFFFFFF2D2D2D2D2D2D2D2D2DE1
:1019C0002D2D2D2DFFFFFFFF2D2D2D2D2D2D2D2DFF
:1019D0002D2D2D2DFFFFFFFFFF2D2D2D2D2D2D2D1D
:1019E0002D2D2D2DFFFFFFFFFFFF2D2D2D2D2D2D3B
:1019F0002D2D2D2DFFFFFFFFFFFFFF2D2D2D2D2D59
:101A00002D2D2D2DFFFFFFFFFFFFFFFF2D2D2D2D76
:101A10002D2D2D2DFFFFFFFFFFFFFFFFFF2D2D2D94
:101A20002D2D2D2DFFFFFFFFFFFFFFFFFFFF2D2DB2
:101A30002D2D2D2DFFFFFFFFFFFFFFFFFFFFFF2DD0
:101A40002D2D2D2DFFFFFFFFFFFFFFFFFFFFFFFFEE
:101A50002D2D2D2DFFFFFFFFFFFFFFFFFFFFFFFFDE
:101A6000FF2D2D2DFFFFFFFFFFFFFFFFFFFFFFFFFC
:101A7000FFFF2D2DFFFFFFFFFFFFFFFFFFFFFFFF1A
:101A8000FFFFFF2D2D2D2D2D2D2D2D2D2D2D2D2D10
:101A90002D2D2DFF2D2D2D2D2D2D2D2D2D2D2D2DA4
:101AA0002D2DFF2D2D2D2D2D2D2D2D2D2D2D2D2D94
:101AB0002DFF2D2D2D2D2D2D2D2D2D2D2D2D2D2D84
:101AC000FF2D2D2D2D2D2D2D2D2D2D2D2D2D2DFFA2
:101AD0002D2D2D2D2D2D2D2D2D2D2D2D2D2DFF2D64
:101AE0002D2D2D2D2D2D2D2D2D2D2D2D2DFF2D2D54
:101AF0002D2D2D2D2D2D2D2D2D2D2D2DFF2D2D2D44
:101B00002D2D2D2D2D2D2D2D2D2D2DFF2D2D2D2D33
:101B10002D2D2D2D2D2D2D2D2D2DFF2D2D2D2D2D23
:101B20002D2D2D2D2D2D2D2D2DFF2D2D2D2D2D2D13
:101B30002D2D2D2D2D2D2D2DFF2D2D2D2D2D2D2D03
:101B40002D2D2D2D2D2D2DFF2D2D2D2D2D2D2D2DF3
:101B50002D2D2D2D2D2DFF2D2D2D2D2D2D2D2D2DE3
:101B60002D2D2D2D2DFF2D2D2D2D2D2D2D2D2D2DD3
:101B70002D2D2D2DFF2D2D2D2D2D2D2D2D2D2D2DC3
:101B80002D2D2D2D2D2D2D2D2D2D2D2DFF2D2D2DB3
:101B90002D2D2D2D2D2D2D2D2D2D2D2DFFFF2D2DD1
:101BA0002D2D2D2D2D2D2D2D2D2D2D2DFFFFFF2DEF
:101BB0002D2D2D2D2D2D2D2D2D2D2D2DFFFFFFFF0D
:101BC0002D2D2D2D2D2D2D2D2D2D2D2DFFFFFFFFFD
:101BD000FF2D2D2D2D2D2D2D2D2D2D2DFFFFFFFF1B
:101BE000FFFF2D2D2D2D2D2D2D2D2D2DFFFFFFFF39
:101BF000FFFFFF2D2D2D2D2D2D2D2D2DFFFFFFFF57
:101C0000FFFFFFFFFFFFFFFFFFFFFFFF2D2D2D2D2C
:101C10002D2D2D2D2DFFFFFFFFFFFFFF2D2D2D2D36
:101C20002D2D2D2D2D2DFFFFFFFFFFFF2D2D2D2DF8
:101C30002D2D2D2D2D2D2DFFFFFFFFFF2D2D2D2DBA
:101C40002D2D2D2D2D2D2D2DFFFFFFFF2D2D2D2D7C
:101C50002D2D2D2D2D2D2D2D2DFFFFFF2D2D2D2D3E
:101C60002D2D2D2D2D2D2D2D2D2DFFFF2D2D2D2D00
:101C70002D2D2D2D2D2D2D2D2D2D2DFF2D2D2D2DC2
:101C80002D2D2D2D205F4445564943455F445F204F
:101C900020202000205F4445564943455F435F2094
:101CA00020202000205F4445564943455F425F2085
:101CB00020202000205F4445564943455F415F2076
:101CC000202020002044434F3120434C4943202012
:101CD000202020002044434F312057415645464F95
:101CE000524D20002044434F2053594E43204D4F26
:101CF000444520002044434F312057415645464F2C
:101D0000524D20002044434F322057415645464F04
:101D1000524D200020554E555345442044494E32E3
:101D200032202000204C464F322057415645534820
:101D30004150452000204C464F31205741564553D5
:101D4000484150452000205F46325F20202020205F
:101D5000202020202000205F53484946545F202047
:101D6000202020202000205F414C545F2020202094
:101D700020202020200020554E5553454420444922
:101D80004E3136202000205F504147455F20202003
:101D9000202020202000205F4B4559355F20202047
:101DA000202020202000205F4B4559345F20202038
:101DB000202020202000205F4B4559335F20202029
:101DC000202020202000205F4445435F2020202049
:101DD000202020202000205F494E435F202020202B
:101DE000202020202000205F4B4559315F202020FB
:101DF000202020202000205F4B4559325F202020EA
:101E0000202020202000205F4346475F2020202004
:101E1000202020202000205F4152505F20202020E1
:101E2000202020202000205F454449545F202020AE
:101E3000202020202000205F50415443485F202074
:101E40002020202020002044434F3220434C49438F
:101E50002020202020002044434F32205741564567
:101E6000464F524D2000205F46315F202020202029
:101E70002020202020002044434F32205741564547
:101E8000464F524D2000003000000000013F00008E
:101E900000000101000000044001020000000000F9
:101EA00000000000000000000000FFFFFFFFFFFF38
:101EB000FFFFFFFFFFFFFFFFFFFFFFFFFFFFFFFF32
:101EC000FFFFFFFFFFFFFFFFFFFFFFFFFFFFFFFF22
:101ED000FFFFFFFFFFFFFFFFFFFFFFFFFFFFFFFF12
:101EE000FFFFFFFFFFFFFFFFFFFFFFFFFFFFFFFF02
:101EF000FFFFFFFFFFFFFFFFFFFFFFFFFFFFFFFFF2
:101F0000FFFFFFFFFFFFFFFFFFFFFFFFFFFFFFFFE1
:101F1000FFFFFFFFFFFFFFFFFFFFFFFFFFFFFFFFD1
:101F2000FFFFFFFFFFFFFFFF00000C0001000000AC
:101F30000000000010002001011100200202120028
:101F400020030313002004041400200505150020BD
:101F500006061600200707170020080803000309DB
:101F6000090C003F0A0A00003F0B0B00003F0C0C5D
:101F70000300030D0D0300030E0E0C003F0F0F00B6
:101F8000003F101000003F11110300031212030064
:101F900003131300003F14141F003F151501000325
:101FA0001616000001171701000318180000011988
:101FB000190000031A1A7F007F1B1B00003F1C1C26
:101FC0000000031D1D0000031E1E00003F1F1F3FD9
:101FD000003F202000003F212100000322220000BA
:101FE00001232300003F24240000032525000001D5
:101FF0002626000006272700001F28280300142992
:10200000291F003F2A2A00003F2B2B0000032C2C05
:102010000000012D2D0000062E2E0000202F2F0382
:10202000001430301F003F31310000033232000015
:102030003F333300003F34343F003F353500003F2D
:1020400036360A003F37373F003F38380000013945
:10205000390000013A3A0000033B3B00003F3C3CA2
:1020600000003F3D3D3F003F3E3E3F003F3F3F0AB7
:10207000003F40403F003F4141000003424200001A
:10208000034343000003444400003F454500003F34
:1020900046463F003F474700003F48480A003F4947
:1020A000493F003F4A4A0000034B4B0000034C4CA1
:1020B0000400144D4D01003F4E4E0F003F4F4F1E88
:1020C000003F50502E003F51513F003F52521F00E1
:1020D0003F5353000003545432003F555500000352
:1020E000565600007F575700007F585800007F5910
:1020F0005900007F5A5A01007F5B5B00007F5C5CE7
:102100003F007F5D5D3F007F5E5E00007F5F5F00A0
:10211000007F606000007F616100007F62620000FC
:102120007F636300007F646400007F656500007F5B
:10213000666600007F676700007F686800001469BA
:102140006900007F6A6A0000206B6B0000146C6CF1
:1021500000007F6D6D0000206E6E0000146F6F0038
:10216000007F707000002071710000147272000016
:102170007F73730000207474000014757500007F75
:1021800076760000207777000014787800007F7959
:10219000790000207A7A0000147B7B00007F7C7C31
:1021A0000000207D7D0000147E7E00007F7F7F0088
:1021B00000208080000014818100007F8282000066
:1021C000208383000014848400007F858500002024
:1021D0004F4245524845494D030C000003030C0093
:1021E000000303001F01000100007F000000003F0A
:1021F0000000000000000000031F000000000003BA
:102200001F0000003F000A3F00000000003F3F0A9F
:102210003F00000000003F000A3F000004010F1EC5
:102220002E3F1F0032000000000001003F3F000071
:10223000000000000000000000000000000000009E
:10224000000000000000000000000000000000008E
:10225000000000000000B823AF23A6239D23942391
:102260008B2382237923702367235E2355234C23FA
:1022700043233A23312328231F2316230D2304232A
:10228000FB22F222E922E022D722CE22C522BC2262
:10229000B322AA22A1229822504F5254414D544FAA
:1022A000004C464F322D414D50004C464F322D537D
:1022B0005044004C464F312D414D50004C464F315B
:1022C0002D53504400454E56332D414D5000454E40
:1022D00056332D524C5300454E56332D444B590026
:1022E000454E56332D41544B00454E56332D444CEC
:1022F0005900454E56322D414D5000454E56322D17
:10230000524C5300454E56322D444B5900454E56C3
:10231000322D41544B00454E56322D444C59004508
:102320004E56312D414D5000454E56312D524C5395
:1023300000454E56312D444B5900454E56312D41E6
:10234000544B00454E56312D444C590056434132B2
:102350002D4C455600564341312D4C455600464CB8
:1023600054522D52455300464C54522D4652510062
:10237000464D2D414D4E5420004F53432D4D49584D
:1023800020004F53322D57534850004F53322D5099
:102390004C5357004F53322D46524551004F533145
:1023A0002D57534850004F53312D504C5357004F29
:1023B00053312D46524551002D2D2D2D2D2D2D2DD6
:1023C00000E123D923D123C923455854474154451B
:1023D0000045585445524E20004D554C544920203C
:1023E0000053494E474C4520000C240324FA23F1A6
:1023F00023524541532F524F4200554E49534F4EA1
:10240000202000524F544154452020005245415352
:102410005349474E003B24312427241D244558505E
:102420004F4E454E5432004558504F4E454E543154
:1024300000434F4E532D54494D4500434F4E532DAD
:1024400053504544005C24572452244D242D2D2DF7
:102450002D004C464F3100474C464F004E4F524DD9
:1024600000BE24B324A8249D24922487247C2471B4
:102470002445582B4D4C542B52535400455854521C
:102480004E2B4D4C544900455854524E2B525345F7
:10249000540045585445524E2020202000524553A8
:1024A00045542B4D4C5449004D554C544920202047
:1024B00020200052455345542020202020002D2D5F
:1024C0002D2D2D2D2D2D2D2D00EC24E324DA24D1BE
:1024D00024424F54482020202000465245452D528A
:1024E000554E004441445220202020002D2D2D2DFA
:1024F0002D2D2D2D0083257E25792574256F256AA8
:1025000025652560255B25562551254C2547254207
:10251000253D25382533252E25292524251F254C05
:10252000455633004C455632004C45563100504517
:1025300044320050454431005052455300525645F4
:102540004C0056454C4F0047415445005452414BB6
:1025500000504F5254004B45594200524D503200EA
:10256000524D50310056494252004C464F32004CB9
:10257000464F3100454E563300454E563200454ECB
:102580005631002D2D2D2D009C2598259425902524
:10259000455854004D4C540053474C002D2D2D00F0
:1025A000DB25CA25B925A82520484152444552209B
:1025B000202020202020202000204841524420209C
:1025C0002020202020202020200020534F4654206F
:1025D0002020202020202020202000204F464620A0
:1025E00020202020202020202020200060264F2690
:1025F0003E262D261C260B26FA2553414D504C45D0
:1026000044204D4F44554C415445004E4F4953458D
:1026100020202020202020202020200052414E4435
:102620004F4D2020202020202020202000535155D5
:102630004152452020202020202020202000444FEF
:10264000574E205341572020202020202020005585
:1026500050205341572020202020202020202000DF
:10266000545249414E474C45202020202020202014
:102670000086267526204F4E202020202020202056
:10268000202020202000204F4646202020202020EF
:10269000202020202020001E270D27FC26EB26DAF4
:1026A00026C926B826A726204E4F4953452020206C
:1026B0002020202020202000204E4F49534520205C
:1026C000202020202020202000204E4F495345204C
:1026D00020202020202020202000204E4F4953453C
:1026E0002020202020202020202000205741564557
:1026F00020262050554C534520202000205741567D
:10270000452020202020202020202020002050555F
:102710004C53452020202020202020202000204F26
:10272000464620202020202020202020202000019C
:102730000000000001000101000000000100020093
:10274000030100057F010200057F020300057F03EE
:102750000400057F040001000000000000000000EC
:10276000057814E6000001000001000001010001ED
:102770003B017E03000603000602000A0000050577
:10278000016001010403015F00000300000100007B
:102790000100000103012F0000203C643C803B64E9
:1027A0003B803964398037643780356435803464E0
:1027B00034803264328030640000306430803264AF
:1027C00032803464348035643580376437803964CE
:1027D00039803B643B803C6400003064308032646C
:1027E00032803464348035643580376437803964AE
:1027F00039803B643B803C6400003C643C803B642B
:102800003B8039643980376437803564358034647F
:1028100034803264328030640000305029502950B6
:1028200030502950295031502950305029502950CA
:10283000305029502950315029502E5027502750C0
:102840002E50275027502F5027502E5027502750BA
:102850002E50275027502F50275043353C803E3272
:102860003C8041273C80432D3C8041313C803E33BD
:102870003C803C373C803E323C8043353C803E329D
:102880003C8041273C80432D3C8041313C803E339D
:102890003C803C373C803E323C803C683C803E5231
:1028A0003E8041564180436843803E6800000000FE
:1028B000324A0000000000003E4A3C683C803E5224
:1028C0003E8041564180436843803E6800000000DE
:1028D000324A0000000000003E4A303930343036C1
:1028E0003037373E373E3A363A3730393034303683
:1028F0003037373E373E3A363A3735393534353664
:1029000035373C3E3C3E3F363F3737393734373634
:1029100037373E3E3E3E413641373741373B353112
:10292000352A373337323535353637393740354341
:10293000372E00000000000000003A2E3A29373BF5
:1029400037393A370000000000003C293C2E3A227B
:102950003A273C430000000000002450245024612A
:10296000245024502450306130502450245024509E
:102970002450305030613050305024502450246165
:10298000245024502450306130502450245024507E
:1029900024503050306130503050000000000000B2
:1029A0000000000000000000000000000000000027
:1029B0000000000000000000000000000000000017
:1029C0000000000000000000000000000000000007
:1029D00000000000000000000000000000000000F7
:1029E00000000000000000000000000000000000E7
:1029F00000000000000000000000000000000000D7
:102A000000000000000000000000000000000000C6
:102A10000000000000000000000033192219111905
:102A20000019EF18DE18CD18BC18AB189A188918C1
:102A300078186718561845183418231812180118F2
:102A4000F017DF17CE17BD17AC179B178A1779172A
:102A50006817571746173517241713170217F1165B
:102A6000E016CF16BE16AD169C168B167A16691692
:102A7000581647163616251614160316F215E115C4
:102A8000D015BF15AE159D158C157B156A155915FA
:102A9000481537152615151504150100057F010287
:102AA00000057F020300057F030400057F04761EF6
:102AB000661E561E461E361E261E161E061EF61DB7
:102AC000E61DD61DC61DB61DA61D961D861D761DAE
:102AD000661D561D461D351D241D141D041DF41CA8
:102AE000E41CD41CC41CB41CA41C941C841C000036
:102AF0000A0B02090C0D0E08070304010000000078
:102B000000000000000000000000000000000000C5
:102B10000000000000000000000012111000000082
:102B200000000000000000000000000000000000A5
:102B30000000000001021020200808102040102092
:102B40004080020102010804020101020408102071
:102B5000408080402010080402018004020180406F
:102B600020100804020108040201010204081020D8
:102B70004080010204081020408005050505070576
:102B800008080808020202020A0A080804040404E9
:102B90000101010101010101030303030303030315
:102BA000040707070C0C0C0C0C0C0C0C02020202A4
:102BB00006060606060606060B0B0B0B0B0B0B0B8D
:102BC000000020002300260029002C002F003200E6
:102BD0000001000003010601090100002200250098
:102BE00028002B002E0031003400020100000501F6
:102BF00008010B0100002100240027002A002D00FD
:102C00003000330001010000040107010A01CD6614
:102C100042884C98F798A2994D9AB56711241FBE27
:102C2000CFEFD1E2DEBFCDBF00E00CBF14E0A0E0EB
:102C3000B2E0E0EDF3E401E00BBF02C007900D92BB
:102C4000A23EB107D9F729E1A2EEB4E001C01D927E
:102C5000AC3FB207E1F71CE2CAE1DCE200E006C0EB
:102C600022970109FE010BBF0E941A9FCE30D107A7
:102C700080E00807A9F70E94BD9C0C94D7A10C9492
:102C8000000081E080935D0C80911616813019F46C
:102C90008FEF8093420C089581E080935D0C08953E
:102CA0000C94C3A10F931F93CF93DF931F92CDB7C3
:102CB000DEB78C0169830E94BBA16981681741F06E
:102CC000C8010F90DF91CF911F910F910C94C3A178
:102CD0000F90DF91CF911F910F910895DC018D919D
:102CE0009C91DC01ED91FC910190F081E02D199413
:102CF0006D3F71053CF46A3F710554F4683F7105FE
:102D000041F406C09B012E5F31092230310508F4E1
:102D1000E5CF08950C94BBA1CF93DF93C82FD0E0EB
:102D200082E090E0F7DFFE01EB57FA4F808383E00B
:102D300090E0F0DFCF57DA4F8883DF91CF9108958D
:102D4000DC01ED91FC910190F081E02D1994DC0102
:102D5000ED91FC910190F081E02D1994CF92DF92DA
:102D6000EF92FF92CF93DF93EC016A017B010E9407
:102D700096946C197D098E099F09688379838A83EB
:102D80009B83CE01DF91CF91FF90EF90DF90CF90AA
:102D9000089566E171E184E897E10E940A9B84E866
:102DA00097E10E94079B68EC70E080E090E00E9451
:102DB000C59481E396E10E94E88A40E060E081E307
:102DC00096E10E94EE8A62E071E181E396E10E9461
:102DD000CE9A2EE088E190E00FB6F894A895809303
:102DE00060000FBE20936000FFCFCF93DF93E09190
:102DF000F504F0E0E05DFD4F808182B90000E091D4
:102E0000F504F0E0EA57FD4FC081D0E0809129162B
:102E10000E946995FE01EE0FFF1FEE5BF24F91835A
:102E20008083E091F504F0E0EA57FD4FC085D0E0E3
:102E3000809128160E946995FE01EE0FFF1FEE5B40
:102E4000F24F91838083E091F504F0E0EA57FD4F63
:102E5000C089D0E0809127160E946995FE01EE0F8F
:102E6000FF1FEE5BF24F91838083E091F504F0E069
:102E7000EA57FD4FC08DD0E0809126160E946995DB
:102E8000FE01EE0FFF1FEE5BF24F91838083000087
:102E90008091F5048F5F883019F08093F50402C0AB
:102EA0001092F504DF91CF910895CF93DF93809135
:102EB00021168823B9F0E2EEFCE0C2E4DDE0A2ECEA
:102EC000BCE08191811108C08881998163E095956A
:102ED00087956A95E1F78C93229611968DE0E23002
:102EE000F80779F7DF91CF91089540E060E081E342
:102EF00096E10E94EE8A61EE7FE081E396E10E9416
:102F0000CE9A41E060E081E396E10E94EE8A63EDB3
:102F10007FE081E396E10E94CE9A67E572E081E36B
:102F200096E10E94FF9A6FEF70E080E090E00C94D1
:102F3000C59410925D0C80E090E0ECDE9FEF980F5E
:102F4000903108F081E080935A0C089560934C0C06
:102F500080934D0C1092590C1092580C81E0809384
:102F60004B0C08958093510C6093500C20934F0CA0
:102F700040934E0C1092590C1092580C81E08093A3
:102F8000570C08958093530C1092560C1092550CC8
:102F900081E08093540C0895482F50E04436510549
:102FA00008F0B2C0FA01EE58FF4F0C940A9F88E077
:102FB00008958AE008958BE008958CE008958DE0EF
:102FC00008958EE0089580E1089582E1089583E1F7
:102FD000089585E1089586E1089587E1089588E1DF
:102FE000089589E108958AE108958BE108958CE1BF
:102FF00008958DE108958FE6089580E7089581E2B0
:10300000089582E2089583E2089584E2089585E2B6
:10301000089586E2089587E2089588E2089589E296
:1030200008958AE208958BE208958CE208958DE276
:1030300008958EE208958FE2089580E3089581E374
:10304000089588E3089589E308958AE308958BE35A
:1030500008958CE308958DE308958EE308958FE33A
:1030600008958EE6089581E4089582E4089583E446
:10307000089584E4089585E4089586E4089587E436
:10308000089588E4089589E408958AE408958BE416
:1030900008958CE408958DE408958EE408958FE4F6
:1030A000089580E5089581E5089582E5089583E512
:1030B000089584E5089585E5089586E5089587E5F2
:1030C000089588E5089589E508958AE508958BE5D2
:1030D00008958CE508958DE5089581E708958FE5BD
:1030E00008958DE608958CE608958BE608958AE6A6
:1030F000089589E6089588E6089586E6089587E6A6
:1031000008958EE5089589E00895482F50E0FA016A
:103110003897EA36F10508F0B1C0EA52FF4F0C9437
:103120000A9F80E3089585E0089583E0089587E08D
:10313000089586E008958AE008958DE0089580E17D
:1031400008958CE0089588E0089589E0089582E16B
:10315000089583E1089582E0089585E1089588E166
:10316000089589E108958AE108958BE108958CE23C
:1031700008958EE208958FE2089580E5089586E52A
:10318000089587E5089582E5089583E5089588E523
:10319000089584E508958AE5089580E6089581E616
:1031A00008958CE508958DE5089582E608958EE5ED
:1031B000089589E308958BE308958AE3089583E4ED
:1031C00008958CE308958DE308958EE308958FE3C9
:1031D000089580E4089581E4089585E4089584E4E1
:1031E00008958DE4089586E4089587E4089588E4B9
:1031F000089589E408958AE408958BE408958FE49E
:1032000008958EE4089581E2089582E2089583E2AC
:10321000089584E2089585E2089586E2089588E29B
:10322000089589E208958AE208958BE2089581E085
:10323000089584E008958BE008958EE0089586E176
:10324000089587E108958CE108958DE1089588E35C
:10325000089582E408958CE4089585E508958FE546
:1032600008958DE208958FE1089580E2089581E543
:1032700008958BE5089583E6089580E0089581110F
:1032800076C08091161680939B0A8093870A80915E
:103290001B1680939C0A8093880A8091330C80933C
:1032A0009D0A8093890A8091390C80939E0A8093AD
:1032B0008A0A8091360C80939F0A80938B0A8091B2
:1032C00093058093A00A80938C0A80919105809346
:1032D000A10A80938D0A809190058093A20A809321
:1032E0008E0A80918F058093A30A80938F0A809124
:1032F000B9058093A40A8093900A80913B0C809337
:10330000A50A8093910A809194058093A60A8093E0
:10331000920A80913A0C8093A70A8093930A809135
:10332000380C8093A80A8093940A8091370C80937C
:10333000A90A8093950A1092AA0A1092960A80917F
:10334000340C8093AB0A8093970A8091B2058093E6
:10335000AC0A8093980A8091AF058093AD0A809360
:10336000990A8091B8058093AE0A80939A0A0895CD
:10337000CF93DF9381116EC0EEE5F7E2C7E8DAE0A4
:10338000ABE9BAE0849189938D93339687E2EA3969
:10339000F807C1F780919B0A8093161680919C0ACA
:1033A00080931B1681E090919D0A911101C080E0ED
:1033B0008093330C80919E0A8093390C81E0909128
:1033C0009F0A911101C080E08093360C81E09091BA
:1033D000A00A911101C080E0809393058091A10A19
:1033E000809391058091A20A809390058091A30A11
:1033F00080938F058091A40A8093B9058091A50AD6
:1034000080933B0C8091A60A809394058091A70A33
:1034100080933A0C8091A80A8093380C8091A90A75
:103420008093370C81E09091AB0A911101C080E04C
:103430008093340C81E09091AC0A911101C080E03E
:103440008093B2058091AD0A8093AF058091AE0A5A
:103450008093B805DF91CF91089580912B0781115A
:103460000BC0E3E2FCE0DF0111971C921082329660
:103470008CE0E333F807B9F70895CF93DF931F92F9
:10348000CDB7DEB7A7E8BAE02EE537E29C91F901A7
:103490003196E4919E1708F491C0F9013296E491B7
:1034A000E91708F48BC011962D5F3F4F9AE0AB39B6
:1034B000B90761F78983D1DF8981282F30E094E152
:1034C000899FF0011124E556F54F808180931616EF
:1034D000818180931B1681E09281911101C080E06F
:1034E0008093330C84E1829FF001839FF00D1124BF
:1034F000E556F54F83818093390C81E094819111D9
:1035000001C080E08093360C84E1829FF001839FAC
:10351000F00D1124E556F54F81E09581911101C020
:1035200080E08093930584E1829FF001839FF00DFA
:103530001124E556F54F868180939105878180930C
:103540009005808580938F0581858093B90582855C
:1035500080933B0C838580939405848580933A0CFB
:1035600085858093380C86858093370C81E090891F
:10357000911101C080E08093340C84E1829FF001BE
:10358000839FF00D1124E556F54F81E0918991114B
:1035900001C080E08093B20584E1829FF001839FA7
:1035A000F00D1124E556F54F82898093AF0583898C
:1035B0008093B8050F90DF91CF910895F901949110
:1035C0009C9371CF811101C058CF0895882359F081
:1035D000813091F410921E1680931F168093340C44
:1035E0008093350C089510921F1681E080931E166B
:1035F0001092340C1092350C08959091340C99234C
:1036000011F190915A0C49131EC09091320C9730D1
:10361000D0F4213039F0911116C01092350C10926F
:10362000F80A089531E03093350C913021F410926E
:10363000F80A1092F20A80933E0C60933F0C40937C
:10364000400C2093410C0895CF93DF935091320C9E
:10365000C42FCC0FCC0F440F440F440F811104C072
:1036600080E090E0D0E050C080E090E0D0E00296B2
:10367000D517B1F0BC016E5E734FFB0132979C0110
:103680002E5D334FD9011297AC91AC0FA452A40F09
:10369000A0833196D90111972C912083DF5FE7CF6A
:1036A000A0E0A51709F449C021E02A0F822FB0E05D
:1036B000AA0FBB1FAE5EB34FED012196851711F126
:1036C0009C91E82FF0E0EE0FFF1FEE5EF34F30818C
:1036D0003917B0F493279C9391813881932798836D
:1036E0009C91308193279083988131819327918396
:1036F00090813C9193279C93918138819327988363
:103700008F5FDCCFA22FCDCF0296D517B1F0BC01D1
:103710006E5E734FFB0132979C012E5D334FD901D2
:103720001297AC91AC0FA452A40FA0833196D9018B
:1037300011972C912083DF5FE7CFDF91CF91089520
:103740009091F90A292F30E0F901EE0FFF1FE20FE7
:10375000F31FE650F54F8083618342839F5F909310
:10376000F90A08959091320C973008F065C0213025
:1037700081F120F0233009F43DC008952091360CEA
:103780002111DECFE2E2FCE020E0308138131CC0E2
:10379000921790F0E22FF0E0DF01AA0FBB1FAC5DA3
:1037A000B34F8C91EE0FFF1FEE5DF34F80831196A8
:1037B0008C9181832F5FECCF91509093320C9F3F7F
:1037C000D9F51092320C08952F5F32969217E8F6D1
:1037D00008952091220C821303C06093230C089556
:1037E000E92FF0E0EE0FFF1FEE5DF34F8083618362
:1037F0009F5F1BC0E2E2FCE020E03081381318C07C
:10380000921790F0E22FF0E0DF01AA0FBB1FAC5D32
:10381000B34F8C91EE0FFF1FEE5DF34F8083119637
:103820008C9181832F5FECCF91509093320C08954F
:103830002F5F3296921708F708959091320C9923D2
:1038400009F4F8C09130B9F44091F50A4F5F262F82
:1038500030E0842F90E0821793070CF4E9C008C091
:103860008091F50A8F5F8093F50A861708F4E2C00D
:103870001092F50A089590E08A30910540F0809109
:10388000F50A8F5F8093F50A861790F70895FC017B
:10389000E05CFE4F0C940A9F8091F50A8F5F809345
:1038A000F50A861728F708958091F50A811105C059
:1038B0002FEF260F2093F50A089581508093F50A83
:1038C00008959091F2048091F50A992321F08F5F79
:1038D0008093F50A0DC0811106C081E08093F50A3E
:1038E0008093F20405C081508093F50A1092F2048F
:1038F0008091F50A86139EC02EEF72C08091F2046B
:103900004091F50A882361F0842F90E0262F30E063
:10391000215031098217930709F481C04F5F88C095
:10392000442309F466C0415083C0262F30E0215063
:103930003109442737FD4095542F60E070E0CB01FA
:103940000E94139C6093F50A08959091F20480916F
:10395000F50A992311F08E5F01C081508093F50A1A
:1039600081E098279093F204E091F50AF0E0EE0FE1
:10397000FF1FEE5EF44F908191115CC01092F50A2A
:1039800039C08091F50AE82FF0E0EE0FFF1FEC5EE2
:10399000F44F9081911103C01092F50A2AC09091C2
:1039A000F204911102C08E5F01C081508093F50A2C
:1039B00081E089271FC08091F2044091F50A882395
:1039C00061F081E0840F8093F50A262F30E090E0CB
:1039D000821793077CF1415020C0411105C02FEFA1
:1039E000260F2093F50A1BC041504093F50A411160
:1039F00021C081E08093F20408958091F204409107
:103A0000F50A882379F081E0840F8093F50A262F48
:103A100030E090E0821793076CF04093F50A109223
:103A2000F204089541504093F50A442311F3089598
:103A30004093F50A08951092E407EEE5F7E2A7E84F
:103A4000BAE084918D93339647E2EA39F407C9F7D7
:103A5000ABEBB5E02AE938E28BE998E2F901449151
:103A6000FD0131974083FC0144914C931296F5E09F
:103A7000AB3FBF0799F7089585E090E04BD991E0FF
:103A8000811101C090E09093300786E090E042D928
:103A900091E0811101C090E090932F0787E090E0C2
:103AA00039D991E0811101C090E090932E0788E010
:103AB00090E030D991E0811101C090E090932D0702
:103AC0000895DC01ED91FD918081ED91FD91908152
:103AD000ED91FD916C9163708E2309F064609F23DA
:103AE00009F06860EEE7FDE1E60FF11D659565956B
:103AF0006D936D917D918D919D91099423C01AC014
:103B000012C016C010C01EC009C014C013C006C029
:103B100019C009C00DC007C00DC014C0625070406C
:103B2000804090400BC0615070408040904006C083
:103B30006E5F01C06F5F7F4F8F4F9F4F9E938E933D
:103B40007E936E9308958091711790917217B9CFFB
:103B500080916F1790917017B4CF2AEE36E04FEF37
:103B600080E090E0F901E80FF91F4083418302965D
:103B70008C309105B9F7245F3F4F87E02A31380731
:103B800079F70895CF93DF93CDB7DEB728970FB6B7
:103B9000F894DEBF0FBECDBFECE7F9E1DE01119670
:103BA00084918D93319689E1E438F807C9F7AE0125
:103BB0004F5F5F4F60E081E396E10E94C58BE4E7D1
:103BC000F9E1DE01119684918D93319689E1EC370C
:103BD000F807C9F7AE014F5F5F4F61E081E396E1FF
:103BE0000E94C58BECE6F9E1DE01119684918D937C
:103BF000319689E1E437F807C9F7AE014F5F5F4FAF
:103C000062E081E396E10E94C58BE4E6F9E1DE0122
:103C1000119684918D93319689E1EC36F807C9F7B6
:103C2000AE014F5F5F4F63E081E396E10E94C58B79
:103C3000ECE5F9E1DE01119684918D93319689E1ED
:103C4000E436F807C9F7AE014F5F5F4F64E081E3E8
:103C500096E10E94C58BE4E5F9E1DE0111968491BD
:103C60008D93319689E1EC35F807C9F7AE014F5FC6
:103C70005F4F65E081E396E10E94C58BECE4F9E1DA
:103C8000DE01119684918D93319689E1E435F80730
:103C9000C9F7AE014F5F5F4F66E081E396E10E9496
:103CA000C58BE4E4F9E1DE01119684918D933196A0
:103CB00089E1EC34F807C9F7AE014F5F5F4F67E069
:103CC00081E396E10E94C58B28960FB6F894DEBF7B
:103CD0000FBECDBFDF91CF91089520912D1690E2B8
:103CE000299F90011124280F311D85E0829FF0014A
:103CF000839FF00D1124E85EFC4F80810895CF93DF
:103D000020912D1690E2299F90011124280F311D3A
:103D100085E0829FF001839FF00D1124E85EFC4F47
:103D200083818230B9F028F4882389F0813051F002
:103D300004C0833021F0843051F0C0E00CC0C0E4F6
:103D4000C60F03C0C62FC695C05ACF7704C0C62F72
:103D5000C69501C0C62F4AE050E084E897E10E9472
:103D6000D79B8C2FCF9108950F931F93062F10E0B0
:103D70000436110508F06DC3F801E65BFE4F0C94A4
:103D80000A9F96E8899FF0011124E159F74F408777
:103D900088E05DC396E8899FF0011124E159F74F4F
:103DA000418789E054C396E8899FF0011124E159C5
:103DB000F74F42878AE04BC396E8899FF0011124B0
:103DC000E159F74F43878BE042C396E8899FF001A2
:103DD0001124E159F74F44878CE039C396E8899F55
:103DE000F0011124E159F74F45878DE030C396E883
:103DF000899FF0011124E159F74F46878EE027C3D0
:103E000096E8899FF0011124E159F74F47878FE029
:103E10001EC396E8899FF0011124E159F74F408BAA
:103E200080E115C396E8899FF0011124E159F74F0D
:103E3000418B81E10CC396E8899FF0011124E1597F
:103E4000F74F428B82E103C396E8899FF00111246A
:103E5000E159F74F438B83E1FAC296E8899FF0015D
:103E60001124E159F74F448B84E1F1C296E8899F10
:103E7000F0011124E159F74F458B85E1E8C296E83E
:103E8000899FF0011124E159F74F468B86E1DFC28B
:103E900096E8899FF0011124E159F74F478B87E19C
:103EA000D6C296E8899FF0011124E159F74F408F5F
:103EB00088E1CDC296E8899FF0011124E159F74FBE
:103EC000418F89E1C4C296E8899FF0011124E1592C
:103ED000F74F428F8AE1BBC296E8899FF001112417
:103EE000E159F74F438F8BE1B2C296E8899FF00109
:103EF0001124E159F74F448F8CE1A9C296E8899FBC
:103F0000F0011124E159F74F458F8DE1A0C296E8E9
:103F1000899FF0011124E159F74F468F8EE197C236
:103F200096E8899FF0011124E159F74F478F8FE1FF
:103F30008EC296E8899FF0011124E159F74F40A302
:103F400080E285C296E8899FF0011124E159F74F7C
:103F500041A381E27CC296E8899FF0011124E159D6
:103F6000F74F42A382E273C296E8899FF0011124C1
:103F7000E159F74F43A383E26AC296E8899FF001B3
:103F80001124E159F74F44A384E261C296E8899F66
:103F9000F0011124E159F74F45A385E258C296E894
:103FA000899FF0011124E159F74F46A386E24FC2E1
:103FB00096E8899FF0011124E159F74F47A387E262
:103FC00046C296E8899FF0011124E159F74F40A7B6
:103FD00088E23DC296E8899FF0011124E159F74F2C
:103FE00041A789E234C296E8899FF0011124E15982
:103FF000F74F42A78AE22BC296E8899FF00111246D
:10400000E159F74F43A78BE222C296E8899FF0015E
:104010001124E159F74F44A78CE219C296E8899F11
:10402000F0011124E159F74F45A78DE210C296E83F
:10403000899FF0011124E159F74F46A78EE207C28C
:1040400096E8899FF0011124E159F74F47A78FE2C5
:10405000FEC196E8899FF0011124E159F74F40AB6A
:1040600080E3F5C196E8899FF0011124E159F74FEB
:1040700041AB81E3ECC196E8899FF0011124E1593D
:10408000F74F42AB82E3E3C196E8899FF001112428
:10409000E159F74F43AB83E3DAC196E8899FF0011A
:1040A0001124E159F74F44AB84E3D1C196E8899FCD
:1040B000F0011124E159F74F45AB85E3C8C196E8FB
:1040C000899FF0011124E159F74F46AB86E3BFC148
:1040D00096E8899FF0011124E159F74F47AB87E338
:1040E000B6C196E8899FF0011124E159F74F40AF1E
:1040F00088E3ADC196E8899FF0011124E159F74F9B
:1041000041AF89E3A4C196E8899FF0011124E159E8
:10411000F74F42AF8AE39BC196E8899FF0011124D3
:10412000E159F74F43AF8BE392C196E8899FF001C5
:104130001124E159F74F44AF8CE389C196E8899F78
:10414000F0011124E455F74F40838DE380C196E8D8
:10415000899FF0011124E355F74F40838EE377C127
:1041600096E8899FF0011124E255F74F40838FE3D1
:104170006EC196E8899FF0011124E155F74F408305
:1041800080E465C196E8899FF0011124E055F74F5E
:10419000408381E45CC196E8899FF0011124EF54CB
:1041A000F74F408382E453C196E8899FF0011124C0
:1041B000EE54F74F408383E44AC196E8899FF001AB
:1041C0001124ED54F74F408384E441C196E8899F60
:1041D000F0011124EC54F74F408385E438C196E890
:1041E000899FF0011124EB54F74F408386E42FC1DF
:1041F00096E8899FF0011124EA54F74F408387E441
:1042000026C196E8899FF0011124E954F74F4083B5
:1042100088E41DC196E8899FF0011124E854F74F06
:10422000408389E414C196E8899FF0011124E75482
:10423000F74F40838AE40BC196E8899FF00111246F
:10424000E654F74F40838BE402C196E8899FF00162
:104250001124E554F74F40838CE4F9C096E8899F18
:10426000F0011124E454F74F40838DE4F0C096E848
:10427000899FF0011124E354F74F40838EE4E7C097
:1042800096E8899FF0011124E254F74F40838FE4B0
:10429000DEC096E8899FF0011124E154F74F408376
:1042A00080E5D5C096E8899FF0011124E054F74FCE
:1042B000408381E5CCC096E8899FF0011124EF533B
:1042C000F74F408382E5C3C096E8899FF00111242F
:1042D000EE53F74F408383E5BAC096E8899FF0011B
:1042E0001124ED53F74F408384E5B1C096E8899FD0
:1042F000F0011124EC53F74F408385E5A8C096E800
:10430000899FF0011124EB53F74F408386E59FC04E
:1043100096E8899FF0011124EA53F74F408387E51F
:1043200096C096E8899FF0011124E953F74F408326
:1043300088E58DC096E8899FF0011124E853F74F76
:10434000408389E584C096E8899FF0011124E753F2
:10435000F74F40838AE57BC096E8899FF0011124DE
:10436000E653F74F40838BE572C096E8899FF001D2
:104370001124E553F74F40838CE569C096E8899F87
:10438000F0011124E453F74F40838DE560C096E8B7
:10439000899FF0011124E353F74F40838EE557C006
:1043A00096E8899FF0011124E253F74F40838FE58F
:1043B0004EC096E8899FF0011124E153F74F4083E6
:1043C00080E645C096E8899FF0011124E053F74F3D
:1043D000408381E63CC096E8899FF0011124EF52AA
:1043E000F74F408382E633C096E8899FF00111249D
:1043F000EE52F74F408383E62AC096E8899FF0018A
:104400001124ED52F74F408384E621C096E8899F3E
:10441000F0011124EC52F74F408385E618C096E86E
:10442000899FF0011124EB52F74F408386E60FC0BD
:1044300096E8899FF0011124EA52F74F408387E6FE
:1044400006C0E82FF0E0EB51F84F408386E88093F8
:10445000D3061F910F910895CF93DF9370E08530BD
:1044600008F04BC0EB0194E6899FC00DD11D1124CB
:1044700042E556E0BE018FEB9DE00E945F8CA1EF0C
:10448000B7E0E2E5F6E081918D9386E0E03DF80744
:10449000D1F742E556E0BE018CEA9DE00E945F8CB8
:1044A000A9EEB7E0E2E5F6E081918D9396E0EA357A
:1044B000F907D1F780915A068093E407EBE5F6E01F
:1044C000A7E8BAE081918D93C6E0EF36FC07D1F7FB
:1044D0004FE656E0AFE8B6E0EBEBF5E0EA012991F4
:1044E000AE01CF010197EC0128838D918083329634
:1044F000D6E0AF3ABD0791F74EC090E0059724E6AD
:10450000289FE001299FD00D1124C60FD71F42E537
:1045100056E0BE0189E99DE00E945F8CA1EFB7E003
:10452000E2E5F6E081918D9386E0E03DF807D1F772
:1045300042E556E0BE0186E89DE00E945F8CA9EE50
:10454000B7E0E2E5F6E081918D9396E0EA35F90770
:10455000D1F780915A068093E407EBE5F6E0A7E8EF
:10456000BAE081918D93C6E0EF36FC07D1F74FE6B4
:1045700056E0AFE8B6E0EBEBF5E0EA012991AE01D9
:10458000CF010197EC0128838D9180833296D6E08C
:10459000AF3ABD0791F781E0DF91CF910895EF9297
:1045A000FF920F931F93CF93DF93E1EFF7E0A2E524
:1045B000B6E0442309F49CC0853008F049C09191CD
:1045C0009D9328E0EF36F207D1F71092D1061092B2
:1045D000D00694E6899F80011124060F111D42E543
:1045E00056E0B8018FEB9DE00E94178DE9EEF7E0F1
:1045F000A2E5B6E081918D93C7E0E13FFC07D1F7DA
:104600008091E40780935A06E7E8FAE0ABE5B6E06C
:1046100081918D93DAE0EB39FD07D1F7AFE6B6E093
:10462000EBEBF5E02FE836E0CF010197EC01888154
:104630008D938081E90189939E013296D6E0AF384F
:10464000BD0791F742E556E0B8018CEA9DE04CC009
:1046500091919D9328E0EF36F207D1F71092D106A1
:104660001092D00690E0059724E6289F8001299FAC
:10467000100D1124060F111D42E556E0B80189E91D
:104680009DE00E94178DE9EEF7E0A2E5B6E081918A
:104690008D9387E0E13FF807D1F78091E40780939D
:1046A0005A06E7E8FAE0ABE5B6E081918D939AE02F
:1046B000EB39F907D1F7AFE6B6E0EBEBF5E02FE821
:1046C00036E0CF010197EC0188818D938081E9016B
:1046D00089939E013296D6E0AF38BD0791F742E547
:1046E00056E0B80186E89DE00E94178D81E0CEC0BB
:1046F000853008F066C091919D9328E0EF36F2076F
:10470000D1F7C62FD0E094E6899FC00DD11D1124AA
:10471000D695DC2FCC27D795C7957E0102E516E00C
:10472000E6E0023D1E0761F0D8014D918D01B70111
:104730008FEB9DE00E94BF8CBFEFEB1AFB0AF0CF1E
:10474000E9EEF7E0A2E5B6E081918D9327E0E13F45
:10475000F207D1F78091E40780935A06E7E8FAE080
:10476000ABE5B6E081918D938AE0EB39F807D1F79C
:104770004FE656E0EBEBF5E08FE896E09F01215025
:104780003109D9012C91DA012D93AD012081DC0191
:104790002D93CD013296B6E04F385B0779F78E0145
:1047A000C2E5D6E0E6E0C23DDE0749F04991B80136
:1047B0008CEA9DE00E94BF8C0F5F1F4FF3CF82E019
:1047C00065C091919D9328E0EF36F207D1F7C62F8F
:1047D000D0E094E6899FC00DD11D1124D695DC2F21
:1047E000CC27D795C7957E0102E516E0E6E0023DAD
:1047F0001E0761F0D8014D918D01B70189E99DE057
:104800000E94BF8CBFEFEB1AFB0AF0CFE9EEF7E096
:10481000A2E5B6E081918D9327E0E13FF207D1F761
:104820008091E40780935A06E7E8FAE0ABE5B6E04A
:1048300081918D938AE0EB39F807D1F74FE656E086
:10484000EBEBF5E08FE896E09F0121503109D901AB
:104850002C91DA012D93AD012081DC012D93CD0146
:104860003296B6E04F385B0779F78E01C2E5D6E0A5
:10487000E6E0C23DDE0709F4A2CF4991B80186E81F
:104880009DE00E94BF8C0F5F1F4FF2CFDF91CF9151
:104890001F910F91FF90EF900895CF93C82F862F0F
:1048A000642FDADDE9EEF7E086E8C89FA001112465
:1048B0004159574F20E030E06C2F70E08191DA01D0
:1048C000A20FB31F8C932F5F3F4F26383105B1F7EE
:1048D0008091E407803418F08FE38093E407FB01B4
:1048E000EB51F84F8091E4078083E7E8FAE084E138
:1048F000869FA001879F500D11244556554F20E0FB
:1049000030E08191DA01A20FB31F8C932F5F3F4FEC
:1049100024313105B1F7C11111C080E090E0DC0114
:10492000A654BA4FFC01E650FA4F2C912083119601
:104930002C91218302968034910589F7CF910895B7
:10494000EF92FF920F931F93CF93DF93962F642FD5
:1049500009EEE02E07E0F02E26E8829FF0011124F8
:10496000E159F74F20E030E0C82FD0E08F01020F6F
:10497000131FD8014C91D7014D937D012F5F3F4FFD
:104980002638310599F7FE01EB51F84F208120932D
:10499000E407A7E8BAE024E12C9FF0012D9FF00D79
:1049A0001124E556F54F20E030E0EF01C20FD31F90
:1049B00048814D932F5F3F4F24313105B1F7882354
:1049C00049F041E0892FDF91CF911F910F91FF9026
:1049D000EF90E5CD20E030E0D901A650BA4FF901C3
:1049E000E654FA4F8C91808311968C9181832E5FCF
:1049F0003F4F2034310581F7E4CFCF93DF93962FDB
:104A0000642FA9EEB7E026E8829FF0011124E15956
:104A1000F74F20E030E0EF01C20FD31F88818D9364
:104A20002F5F3F4F26383105B1F741E0892FDF91E5
:104A3000CF91B5CDE2E5F6E026E8829FC0011124D2
:104A40008159974F20E030E0DC01A20FB31F189688
:104A50005C9151932F5F3F4F2E373105A9F750E0FE
:104A6000653060F4CA0124E6629F800D911D112417
:104A7000BC0142E556E08FEB9DE00FC0862F90E031
:104A8000059724E6289FB001299F700D1124640F1B
:104A9000751F42E556E089E99DE00C94178D5F9201
:104AA0006F927F928F929F92AF92BF92CF92DF923E
:104AB000EF92FF920F931F93CF93DF93862E542E86
:104AC000862F90E0059724E6289F8001299F100DEE
:104AD000112484E6689FE001112484E6982EA12C1D
:104AE000B12C92E4792E2EE4622EE0E35E0E3AE9D8
:104AF000E32E38E2F32E4BE9C42E48E2D42E0C1BF1
:104B00001D0B70925206609253068BE480935406FC
:104B1000509255068AE38093560680E280935706AA
:104B200080E38B0D8093580680E38A0D80935906AD
:104B300010925A06EEE5F7E2ABE5B6E024912D932C
:104B4000339687E2EA39F807C9F7AFE6B6E0F7012E
:104B500084918D93F6E0AF38BF07C9F7AFE8B6E0B0
:104B6000F60184918D93F6E0AF3ABF07C9F7EFEAFB
:104B7000F6E0119286E0E13DF807D9F7E4E042E57E
:104B800056E0E81520F0BE018CEA9DE005C0B801B2
:104B90006C0F7D1F86E89DE00E94178DA394FAE0BC
:104BA000AF1202C0B394A12C8AE0B81201C0B12C9C
:104BB0009A9421969110A5CFDF91CF911F910F91DB
:104BC000FF90EF90DF90CF90BF90AF909F908F902D
:104BD0007F906F905F900895CF93DF93C82FD42F6D
:104BE0008130A9F060F08230D1F0833009F580E1A6
:104BF00090E00E9452166D2F81E190E017C082E094
:104C000090E00E9452166D2F83E090E00FC08CE080
:104C100090E00E9452166D2F8DE090E007C08EE06C
:104C200090E00E9452166D2F8FE090E00E94521685
:104C30006C2F84E090E0DF91CF910C94521681307C
:104C400049F028F0823099F08330F1F0089580E047
:104C50000C948C168CE090E00E948A168093860556
:104C60008DE090E00E948A168093820508958EE080
:104C700090E00E948A16809387058FE090E00E9462
:104C80008A1680938305089580E190E00E948A1639
:104C90008093880581E190E00E948A1680938405C4
:104CA00008958FEF9FE00E948A168823A1F08EEF6F
:104CB0009FE00E948A16882371F08DEF9FE00E948A
:104CC0008A16882341F061E77DE084E897E10E943D
:104CD0000A9B81E008956FE47DE084E897E10E94FB
:104CE0000A9B80E00895CF93882379F08230D9F42D
:104CF0006DE37DE084E897E10E94CE9A42E556E0BC
:104D00006FEF71E089E99DE00CC066E47DE084E826
:104D100097E10E94CE9A42E556E06FEF71E08FEB8B
:104D20009DE00E945F8CA2E5B6E020E030E0C0E0AC
:104D30008D91F901E852FE4DE4918E13CF5F2F5F04
:104D40003F4F2E373105A1F7CC2319F066E17DE006
:104D500002C063EF7CE084E897E10E940A9B8C2FFD
:104D6000CF9108950F931F93CF93DF9308E317E03C
:104D7000C4EFD1E0F80161918F01CE010E9452167B
:104D80002196C03AF2E0DF07A9F7DF91CF911F919A
:104D90000F910895CF93DF93C8E3D7E084EF91E0BC
:104DA0000E948A16899387E0C43ED807B9F7DF913D
:104DB000CF9108950F931F93CF93DF93C0E0D0E07E
:104DC0008E010B5F1F4FFE01E25CF94F6081CE0147
:104DD00042960E9452162196C017D107A1F7C431FE
:104DE000D10571F760913D0686E290E0DF91CF91A9
:104DF0001F910F910C94521680E090E020E030E07B
:104E0000BC016656754DAC01425C594FFB01E20F87
:104E1000F31FE491DA01A20FB31FEC932F5F3F4F12
:104E20002530310599F705968431910539F71092AF
:104E30003D06C0CF0F931F93CF93DF93E7E0F1E1DF
:104E4000CEECD6E7D183C083ACEFB7E7B383A283C0
:104E500063EF7BE77783668341E45DE751874087B3
:104E600025E832E6338722878DE392E695878487AB
:104E700007E010E6178706870BE111E7118F008F17
:104E800001E416E1138F028F0CE416E1158F048FF5
:104E90000BEE19E2178F068FEBE3F4E1D183C083A9
:104EA000B383A283778366835187408733872287C2
:104EB00095878487DF91CF911F910F9108958091FD
:104EC000A00590E0FC013897E931F10528F5E2559D
:104ED000FE4F0C940A9F81E090E01AC082E090E0BF
:104EE00017C083E090E014C084E090E011C085E03A
:104EF00090E00EC08AE090E00BC08BE090E008C02C
:104F000086E090E005C087E090E002C08CE090E091
:104F10009093A3058093A20508952091990530915F
:104F20009A054091A005453069F028F4443081F499
:104F300080E090E00EC0463041F0473049F488E010
:104F400090E007C081E090E004C087E090E001C0FD
:104F5000C90181309105E9F450919D05511119C0A5
:104F60004C3091F038F4483061F0493091F482E0EF
:104F700090E00FC04D3059F04E3059F486E090E08B
:104F800008C083E090E005C084E090E002C085E0C6
:104F900090E02817390711F010929D050895FC0143
:104FA0002081222319F0261758F004C03091A10562
:104FB000313031F026130BC03091A10537FF07C007
:104FC0003091A105320FFC01308381E0089580E02B
:104FD0000895FC0180819FEF980F9E3358F1811155
:104FE00008C09091A105913041F19F3F51F48FE7A6
:104FF0001DC08F3331F49091A1059F3F11F48EE3D2
:1050000015C09EEB980F9D33A8F08F3741F4809127
:10501000A105813011F410820895815807C08134B0
:1050200039F48091A105813059F482E4808306C06F
:1050300087FF06C09091A105980F908381E00895A5
:1050400080E0089520919405E22FF0E0EE0FFF1F1D
:10505000E450FD4F8081918190933D0C80933C0CF6
:105060002F3F19F48EEF80939405809194058F3F24
:1050700011F4109294050895FC012081222319F067
:10508000261758F004C03091A105313031F02613B5
:1050900024C03091A10537FF20C03091A105320F07
:1050A000FC01308320919405E22FF0E0EE0FFF1F0A
:1050B000E450FD4F8081918190933D0C80933C0C96
:1050C000211103C081E080939405809194058F3F66
:1050D00031F48EEF8093940502C080E0089581E062
:1050E000089520912B07EFEDF2E080E096E8299FEC
:1050F000900111249081D901A90FB11DA159B74F79
:105100009C91992321F08F5F33968A3099F7089507
:10511000CF93DF938091A0058F3021F481E08093BD
:105120009D0535C0893049F48091A8058F5F8A308C
:1051300008F4B5C01092A8052AC08E3041F58091C0
:10514000A80520912B07482F50E0FA01EE0FFF1F12
:10515000E40FF51FE252FD4F928146E8249F900133
:105160001124E901C90FD11DC159D74F9181D9012E
:10517000A90FB11DA159B74F9081F901E90FF11D98
:10518000E159F74F28814C9160810E94B2178091BC
:10519000A105882309F486C02091A2053091A305BA
:1051A0002230310541F144F42130310509F04DC080
:1051B00069E088EA95E035C09091A80580912B07B9
:1051C0002330310581F12530310509F03EC0292F0A
:1051D00030E0F901EE0FFF1FE20FF31FE252FD4F27
:1051E000228136E8839FC0011124820F911D8159CD
:1051F000974FEFDE2AC08091A80590E0FC01EE0FEA
:10520000FF1FE80FF91FE252FD4F208180912B070D
:1052100036E8839FC0011124820F911D64E18159FA
:10522000974FBDDE12C0292F30E0F901EE0FFF1FAE
:10523000E20FF31FE252FD4F218146E8849FC00137
:105240001124820F911D60E2EACF8091A805209180
:105250002B07482F50E0FA01EE0FFF1FE40FF51F58
:10526000E252FD4F928146E8249F90011124E9010A
:10527000C90FD11DC159D74F9181D901A90FB11DB6
:10528000A159B74F9081F901E90FF11DE159F74F8D
:1052900028814C916081DF91CF910C94B21780935B
:1052A000A80575CFDF91CF910895462F682F8FE520
:1052B00097E10C94F191CF93E0912B07C6E8CE9F34
:1052C000F0011124E159F74F6585617082E0EDDF4F
:1052D000E0912B07CE9FF0011124E159F74F62892D
:1052E000617087E0E2DFE0912B07CE9FF00111248F
:1052F000E159F74F65856695617081E0D6DFE091F1
:105300002B07CE9FF0011124E159F74F6289669572
:10531000617086E0CADFE0912B07CE9FF001112477
:10532000E159F74F6689617080E0BFDFE0912B079C
:10533000CE9FF0011124E159F74F608D617085E037
:10534000B4DF80912B0790E0C89FF001C99FF00D5A
:105350001124E159F74F228922FF04C022E0209353
:10536000310702C01092310726E8289FF001299FDB
:10537000F00D1124E159F74F818D882311F061E080
:1053800001C060E084E0CF9190CFCF93DF93209174
:105390002B07422F50E0A9EEB7E086E8289F900146
:1053A00011242159374F80E090E0FC01E053FE4D7D
:1053B000E491ED93E901C80FD91FE883019686387F
:1053C000910599F71092E407FA01EB51F84F10821A
:1053D000DF91CF9170CF81E080935D0C80911616A4
:1053E000813031F488E18093420C60E086E15DCF4A
:1053F000089540E0682F8FE597E10C94F19141E02A
:10540000682F8FE597E10C94F191813051F028F0ED
:10541000823079F0833099F0089588E0F0DF8BE0F6
:1054200003C08BE0ECDF88E0E4DF89E0E2DF8AE0C4
:105430000DC089E0E4DF88E0DCDF8BE0F7CF8AE0B5
:10544000DEDF88E0D6DF8BE0D4DF89E0D2CFEF92D9
:10545000FF920F931F93CF93DF931F92CDB7DEB7C9
:10546000F62E142F482F6EE08FE597E129830E94D6
:10547000F1914F2D6FE08FE597E10E94F191412F5F
:1054800060E18FE597E10E94F1912981422F61E16E
:105490008FE597E10E94F191402F62E18FE597E15E
:1054A0000E94F1914E2D63E18FE597E10F90DF911E
:1054B000CF911F910F91FF90EF900C94F191EF928B
:1054C0000F9384E196DF85E19ADF86E192DFE12C9C
:1054D00000E020E040E060E080E0B9DF87E189DFC4
:1054E00080919D05882311F083E189DF80919905E2
:1054F00090919A058430910591F03CF482309105A9
:1055000061F00397A1F48FE00FC08630910559F048
:1055100044F0089761F487E107C08EE005C080E1A0
:1055200003C081E101C082E10F91EF9068CF0F913C
:10553000EF900895682F8FE597E10C94DC918091AE
:105540002C16882321F080913802811144C04091AB
:10555000F004242F30E0E0912B0786E8E89FF0016B
:105560001124E159F74F53A18EE390E0851B910977
:105570002817390724F44F5F4093F0040AC08AE1EA
:10558000D9DF61E0813009F460E08AE18EDE1092BB
:10559000F0044091EF04242F30E0E0912B0786E8DF
:1055A000E89FF0011124E159F74F52A58EE390E0F6
:1055B000851B91092817390724F44F5F4093EF04A6
:1055C00008958BE1B7DF61E0813009F460E08BE1A1
:1055D0006CDE1092EF04089580912C16882321F040
:1055E000809138028111D6C080915D0C882331F002
:1055F00061E08DE05ADE10925D0C07C08DE09ADF0D
:10560000813019F460E08DE050DE8091151688231A
:1056100051F080911616833031F461E08CE045DE64
:105620001092151609C08CE085DF813029F4809135
:105630001616833009F4AAC080912E16882311F023
:1056400061E005C08EE176DF813019F460E08EE123
:105650002CDE80912D16882311F061E005C08FE1CA
:1056600069DF813019F460E08FE11FDE8091EE0484
:10567000813168F1E0912B0786E8E89FF001112461
:10568000E159F74F8289843080F087E053DF61E091
:10569000813009F460E087E008DE86E04BDF61E0FE
:1056A000813009F460E086E000DE8091B20581116E
:1056B00004C08091340C882341F086E13BDF61E037
:1056C000813009F460E086E1F0DD1092EE04809113
:1056D000EE048F5F8093EE04E0912B0786E8E89F4D
:1056E000F0011124E159F74F418D2091ED0430E094
:1056F0005EEF540F80E190E002C0959587955A9532
:10570000E2F78217930764F4423040F084E012DF3E
:1057100061E0813009F460E084E0C7DD1092ED04BF
:105720008091ED048F5F8093ED049091EC04809163
:105730009405891728F56091EB0481E06827609350
:10574000EB048091340C882331F08091360C811168
:1057500003C061E001C060E083E0A7DD8091B20595
:10576000882349F080919205811102C061E004C054
:105770006091EB0401C060E08DE197DD1092EC04D4
:105780008091EC048F5F8093EC04089560E08CE0DE
:105790008CDD52CF089520DFD2CE682F70E08034A8
:1057A00010F440E003C06054710941E081E396E1E8
:1057B0000C94EE8A81E396E10C94E88ACF93DF9310
:1057C000EC01843691057CF46DE572E081E396E1AD
:1057D0000E94FF9ACA30D10534F46DE572E081E38E
:1057E00096E10E94FF9A4AE050E0BE0181E396E113
:1057F000DF91CF910C94BE9BCF93DF93C82F81E3B1
:1058000096E10E94E88AC23009F462C038F4C130DF
:1058100009F0CCC1E2E5F6E08FEF15C0C33009F422
:1058200082C0C43009F0C2C140E060E081E396E18B
:105830000E94EE8A6CE17EE081E396E10E94CE9ABE
:10584000C0E0D0E013C146E0E23DF40711F08193DF
:10585000FACF40E060E081E396E10E94EE8A66EBD9
:105860007EE081E396E10E94CE9AC0E0D0E041E084
:1058700060E081E396E10E94EE8A65EA7EE081E3E2
:1058800096E10E94CE9ACE0199DF42E556E0BE0134
:105890008FEB9DE00E94A58D42E556E0BE018CEAAB
:1058A0009DE00E94A58D42E556E0BE0189E99DE09C
:1058B0000E94A58D42E556E0BE0186E89DE00E946B
:1058C000A58D2196C11582E0D80789F60E94C916D8
:1058D00040E060E081E396E10E94EE8A6FE87EE0BE
:1058E00081E396E10E94CE9AC0E0D0E06FEFCE0156
:1058F0000E94501641E060E081E396E10E94EE8A4A
:105900006EE77EE081E396E10E94CE9A4AE050E0A5
:10591000BE0181E396E10E94EC9B2196C13090E1AB
:10592000D90721F7D3CFA2E5B6E080E090E0FC01F3
:10593000E852FE4DE491ED9301968E379105B9F74B
:105940001092D1061092D00640E060E081E396E12B
:105950000E94EE8A68E67EE081E396E10E94CE9A9C
:10596000C0E0D0E041E060E081E396E10E94EE8A91
:1059700067E57EE081E396E10E94CE9ACE011EDFCC
:1059800042E556E0BE018FEB9DE00E94A58D42E509
:1059900056E0BE0189E99DE00E94A58D2196C115C2
:1059A000E2E0DE07F9F6A2E5B6E0E0EDF1E284918F
:1059B0008D93319641E2E83DF407C9F710925A06FB
:1059C000EEE5F7E2ABE5B6E084918D93339687E29E
:1059D000EA39F807C9F7A0E7B6E02AE938E28BE927
:1059E00098E2F9014491FD0131974083FC01449113
:1059F0004C931296F6E0A03BBF0799F7EFEAF6E06A
:105A000046E0E23DF40711F01192FACF40E060E089
:105A100081E396E10E94EE8A62E47EE081E396E112
:105A20000E94CE9AC0E0D0E041E060E081E396E1E0
:105A30000E94EE8A61E37EE081E396E10E94CE9AC5
:105A4000CE01BCDE42E556E0BE018CEA9DE00E943C
:105A5000A58D42E556E0BE0186E89DE00E94A58D39
:105A60002196C11582E0D807F9F6A0C0FE01E15DDC
:105A7000F84D6491CE010E94501641E060E081E350
:105A800096E10E94EE8A6BE07EE081E396E10E945F
:105A9000CE9A4AE050E0BE0181E396E10E94EC9B81
:105AA0002196C033D10511F740E060E081E396E133
:105AB0000E94EE8A65EF7DE081E396E10E94CE9A36
:105AC000C0E3D0E060E0CE010E94501641E060E00B
:105AD00081E396E10E94EE8A64EE7DE081E396E147
