:100000000C94001C0C94E0850C940B860C943686A2
:100010000C9461860C948C860C94B7860C94E286C2
:100020000C940D870C94C3820C94C3820C94C382ED
:100030000C94311C0C94311C0C94311C0C94418593
:100040000C94311C0C94311C0C94311C0C94311CFC
:100050000C94A27B0C94311C0C94311C0C943887AA
:100060000C94311C0C94D18A0C94078B0C94311C89
:100070000C94311C0C94311C0C94311C0C94311CCC
:100080000C94311C0C94311C0C94311C0C94311CBC
:100090000C947C8B0C94B28B0C94311C0C94D17D01
:1000A0000C94311C0C94311C0C94311C0C94311C9C
:1000B0000C94311C0C94311C0C94311C0C94311C8C
:1000C0000C94311C0C94311C0C94311C0C94278C16
:1000D0000C945D8C0C94311C0C94D28C0C94088D77
:1000E0000C94311CAA20C620CE20DB20F8200F2142
:1000F0001F21552177213B21EF2223242F23F72293
:100100002724F322FF22FB221F23232303232B2454
:1001100017230B232F24072313230F2327232B23FA
:100120001B2333233324372437233B233F23472305
:100130003B243F2443235B245F24FB23FF2303242E
:1001400007240B240F246C24132417241B241F249E
:100150004B2357244F235323EB226C2493239723C1
:100160009B239F23A323A72343248F23AF23AB23C6
:10017000B723BB23BF23C323C723CB234724B323E6
:10018000D323CF23DB23DF23E323E723EB23EF2357
:100190004B24D723F723F3235723632463236723B5
:1001A0006F234F245B235F236B236C24732367240B
:1001B0007F2383238B23532477237B238723582771
:1001C0005527642767275B275E27612776277627D1
:1001D0006D276A277627762776277627762776274C
:1001E000762776277627762776277627762770272D
:1001F000B32CB62CBD2CC02CC32CC62CC92CCC2C9B
:10020000CF2CD22C9B3015319B30EC301531153171
:1002100015311531153115311531153115311531AE
:10022000153115311531153115311531F92F1F30B3
:1002300015319B3073304A307330C8304631243228
:10024000F532DA33FF333934393439343934393427
:1002500039346C31CF313934393439343934393473
:10026000393439343934A432943D963D993D9B3D1F
:100270009D3DA03DA23DA43DA73DB852A8522153AB
:100280004353E652DF521D53A45237649D642B64DE
:100290001D649A649D649D649D649D649D649D64D9
:1002A0009D649D649D649D649D649D649D649D6446
:1002B0009D647A648A649D64376415646264016431
:1002C000F36342644464466448644A644A644D6427
:1002D0004D64656A746A7B6A916A6F6A676A4C6A80
:1002E000486AE46AE46AE46AE46AE46AE46AE46A3A
:1002F000E46AE46AE46AE46AE46AE46AE46AE46A8E
:10030000E46AC16A436C446C4A6C4C6C466C486C41
:100310004D6C4F6C516C3E748D7468745574AB7435
:10032000AB743674AB743674AB743674367436741E
:10033000AB7436743674BA8584858C859885A585AA
:10034000C685D3859488978886888A889088CE8841
:100350009B889F88A588A988AD88B388B788BB8803
:10036000CE88C188C588C98875627320706174633E
:10037000683A2000534F46545F454449545F454E08
:10038000435F434C4943206C6F6164207061746328
:1003900068005041544348207061676535005341FF
:1003A000564500300030006D00474554200075422E
:1003B000616E6B3A003D3D3E006D42616E6B3A00EE
:1003C00047455420494E4954204F524720454454F4
:1003D0002053415600300044004300420041005089
:1003E00041544348202000204F4E004F4646004CC9
:1003F000464F204D44452053524345204C41472011
:100400005254470053504400414D50204B42440049
:10041000414D5020505253004C464F20524D5032C7
:10042000004C464F20524D5031004F4E20004F4E51
:1004300020004F4E20004F4E2000312020204F46FC
:1004400046204F4646204F464620204F4646004411
:10045000434F20424E442056494220504F52542090
:100460004B424400545241434B47454E2D494E5058
:1004700055543A20007C00524D5020535044205493
:1004800052474D4F44457C5447494E0042532053F8
:10049000524320204445535420202020414D4E54A7
:1004A000004F4E20004F4646004B4559422D4D4FC0
:1004B000444520554E492E4C454741544F00504F1E
:1004C0005254414D4F4445202056454C4F205241F7
:1004D0005445004F4E20004F46460053454E4420A1
:1004E000535953455820200053454E442043434F11
:1004F0004E54524C0046494C5445522046524551A8
:1005000020205355535441494E0020202020007391
:100510006E640056434120414D542056454C3020D6
:10052000454E5632004F4E20004F4E20004F4E2079
:10053000004F4E20004F4646204F4646204F46462D
:1005400020204F46462020202000424E442056497D
:10055000422050525441204B42442020202000454C
:100560004E5620545249474745524D4F444520204E
:100570004C464F00454E5620444C5920414D50208A
:1005800052454C2D4D4F4445004556332041544B68
:100590002044454320205355532052454C00456488
:1005A00069744E616D65003A003000200020202003
:1005B000200020444F200030003A0073746F7265B1
:1005C00020696E003000424E4B205341564520506A
:1005D0004154434820004C464F2056434120454E4D
:1005E00056205052544120524D500044434F204613
:1005F0004C5420454E56204B4244204D54525800F6
:100600004D41545249585F4D4F44454C455F44203D
:100610003D20004D41545249585F4D4F44454C4593
:100620005F43203D20004D41545249585F4D4F4497
:10063000454C455F42203D20004D41545249585F92
:100640004D4F44454C455F41203D20006D69646934
:10065000206368616E6E656C203D20004D49444901
:100660005F526571756573744750200047626C2056
:10067000416C6C0042616E6B0044756D7020437478
:10068000726C72204D656D6F203A20202000202D65
:1006900020544F20444F202D2000434647203A202D
:1006A00047526F7550202870616765203429004ECD
:1006B0006F2000596573004F4E20004F4646004E94
:1006C0004F5200494E56002D2D2D00556B6E005493
:1006D000726700733234004D69640042504D2053FC
:1006E000524320454E43202053544E20584343004C
:1006F000202E2000202A2000506431205064322017
:10070000204C7631204C763220456E61004D314BC5
:10071000004D3620004D314B004D3620004D314B01
:10072000004D3620004D314B004D3620004348200F
:1007300020413A2020423A202020433A2020443AC7
:100740002000536E6400414D50204D4F4420414DD8
:100750004E5420424E442047424C0047657400539B
:100760005044204D4F4420414D4E54205741562077
:1007700047424C00564942204D4944204D4953437D
:100780002047525020444D5000434F4E4649475554
:1007900052453A202020202020202020200075696A
:1007A0005F6153706565644761746547726F6F760A
:1007B000654C696D69747328292068617070656E75
:1007C00065640075695F736571506C6179203D20C7
:1007D0000075695F736571526563203D200075691E
:1007E0005F65787465726E616C5F636C6B203D2031
:1007F0000075695F736571506C6179203D200075EB
:10080000695F736571526563203D200075695F659E
:10081000787465726E616C5F636C6B203D20004183
:100820002F5300532F41005345542053504C542014
:10083000547241205472532053455100202E200001
:10084000202A20004E6F200059657300202E2000C2
:10085000202A20002D2D2D005472670073323400A1
:100860004D69640042504D20414354205448525534
:100870002047525620484C44002020202000546934
:100880006520005265737400456E640020202000CE
:10089000202E2000203E2000202E2000206F20004F
:1008A00031362F3100382F3100342F3100322F31C3
:1008B0002000312F312000332F322000312F322001
:1008C00000312F3300312F3400312F36007472671E
:1008D000005350442052454320504C415920522F40
:1008E0005420537450007800324D657300314D65CB
:1008F0007300332F312000322F312000332F32206C
:1009000000312F312000312F322000312F332000D1
:10091000312F342000312F362000312F3820003184
:100920002F31320074726700313C3C3300446E5505
:100930007000426E634400313E3E330052616E648B
:10094000005570446E00426E636500446F776E0020
:1009500020557020004F7264720054595020444951
:1009600056204D4C54502047415420387661005455
:100970005249472070656E64696E6700545249475A
:10098000204F66660054524947204F6E006D436CFD
:100990006F636B203D200073796E63323420636C8B
:1009A0006F636B2068616E646C65642E20006B6CF5
:1009B0006F636B2100206368616E6E656C3A202462
:1009C000002076656C6F3A202400706C61795F536B
:1009D0006571206465207365712E696E6F204E7499
:1009E000654F666620696E74657266616365203165
:1009F000203A3A2070697463683A20240073657164
:100A0000506C617953746570203D200020636861EB
:100A10006E6E656C203D2024002076656C6F203D55
:100A20002024006B696C6C206C6173742072657398
:100A300074696E67206E6F7465207768656E206CD0
:100A400061746368696E67204B65792C20706974E6
:100A50006368203D202400736571506C6179537484
:100A60006570203D2000206368616E6E656C3A20E1
:100A700024002076656C6F3A202400706C61795FE9
:100A8000536571206465207365712E696E6F204E09
:100A900074654F6E20696E7465726661636520319E
:100AA000203A3A2070697463683A202400736571B3
:100AB000506C617953746570203D2000206368613B
:100AC0006E6E656C3A2024002076656C6F3A2024A7
:100AD00000706C61795F5365712064652073657186
:100AE0002E696E6F204E74654F666620696E746560
:100AF00072666163652031203A3A207069746368D8
:100B00003A202400736571506C61795374657020CC
:100B10003D2000206368616E6E656C203D202400DE
:100B20002076656C6F203D2024006B696C6C206C16
:100B30006173742072657374696E67206E6F74657B
:100B4000207768656E206C61746368696E67204BFE
:100B500065792C207069746368203D2024007365DA
:100B600071506C617953746570203D20002063687A
:100B7000616E6E656C3A2024002076656C6F3A20B9
:100B80002400706C61795F53657120646520736522
:100B9000712E696E6F204E74654F6E20696E74659C
:100BA00072666163652031203A3A20706974636827
:100BB0003A202400736571506C617953746570201C
:100BC0003D20007365714D6F6E6F4D6F6465203D04
:100BD0002000706172616D203D20005365714C658D
:100BE0006E677468203A20007D3B00292C002C00A1
:100BF0002800536571537461636B203D207B004C6A
:100C00006F616453657128290073657175656E6342
:100C10006520696E6974002C004D617374657220E3
:100C2000506172616D65746572735B205D203D205B
:100C3000005D206F6E20696E7465726E616C204578
:100C40004550524F4D2061646472203A2024007751
:100C5000726974696E6720476C6F62616C50617273
:100C6000616D657465725B0020004564697462752E
:100C7000666665722073656E7420746F204D7820EF
:100C80003A2000456469744275666665722073791E
:100C9000736578206D73672074797065202872659C
:100CA0006365697665642066726F6D2044415729DB
:100CB000202100454E445F4D4944495F48616E64C0
:100CC0006C6542616E6B200020006564697462751A
:100CD00066666572203A20002000200073797365F3
:100CE000785B345D3D7061746368206E756D203A89
:100CF00020006C656E677468203D2000454F5820C9
:100D00000048616E646C6553797374656D457863F2
:100D10006C7573697665203A20006D436C6F636B68
:100D2000203D20006D69646920436F6E74696E75A3
:100D3000652068616E646C65642E20006D436C6F85
:100D4000636B203D20006D6964692053746F7020CF
:100D500068616E646C65642E20006D436C6F636B1C
:100D6000203D20006D6964692053746172742068AD
:100D7000616E646C65642E20006D436C6F636B2044
:100D80003D20006D69646920436C6F636B2068616E
:100D90006E646C65642E20002070697463686265FF
:100DA0006E64203D2000506974636862656E642043
:100DB00068616E646C656420616E642073656E7436
:100DC000203A2000206166746572746F7563682034
:100DD000004166746572746F7563682068616E6443
:100DE0006C656420616E642073656E74203A200027
:100DF000755061746368203D2000494E5445524649
:100E00004143455F53455249414C203D20006465B4
:100E100076696365203D200070726F6772616D2096
:100E20003D20006368616E6E656C203D20002000EF
:100E30002000436F6E74726F6C4368616E6765204B
:100E400068616E646C65643A2000200020004E6F7B
:100E50007465204F4E202068616E646C656420616B
:100E60006E642073656E74203A200061727065674D
:100E7000696174654F7074696F6E2046414C5345CB
:100E8000002000200070697463682F76656C6F2FF6
:100E900063686E6C203A20240077652061726520BB
:100EA000696E20506C61795F536571282920696EE5
:100EB0007369646520726F7574657200776520616F
:100EC000726520696E205265635F53657128292021
:100ED000696E7369646520726F7574657200417222
:100EE000706567696174654F7074696F6E205452E4
:100EF0005545006172706567696174654F7074690A
:100F00006F6E2046414C53450020002000706974EC
:100F100063682F76656C6F2F63686E6C203A2024AF
:100F20000077652061726520696E20506C61795F81
:100F3000536571282920696E7369646520726F7525
:100F40007465720077652061726520696E20526554
:100F5000635F536571282920696E73696465207227
:100F60006F75746572004172706567696174654F71
:100F70007074696F6E205452554500200020004E59
:100F80006F7465204F46462068616E646C6564200E
:100F9000616E642073656E74203A20006172706522
:100FA00067696174654F7074696F6E2046414C5378
:100FB00045004172706567696174654F7074696F4F
:100FC0006E2066616C73650061727065676961743B
:100FD000654F7074696F6E2046414C5345004172F5
:100FE000706567696174654F7074696F6E206661C2
:100FF0006C73650050415443485F496E69742829F9
:10100000200020755061746368203D2000526563A4
:10101000616C6C204C61737420706174636820692A
:101020006E74454550524F4D20616464722000201B
:101030007542616E6B203D2000526563616C6C20CF
:101040004C6173742062616E6B20696E744545500B
:10105000524F4D2061646472200020706174636897
:10106000203D200053746F7265204C6173742070B2
:101070006174636820696E74454550524F4D20611C
:10108000646472200053746F7265204C6173742025
:1010900062616E6B20696E74454550524F4D206100
:1010A000646472200057726974652062616E6B20FF
:1010B000657874454550524F4D203A200020656EAA
:1010C0006400200070617463685F73747275637488
:1010D000757265203D206564697462756666657227
:1010E0005B5D203A2000207061746368203D200021
:1010F0002062616E6B203D2000577269746520701C
:101100006174636820746F20657874454550524F50
:101110004D00656E640020006564697462756666E2
:101120006572203D2070617463685F7374727563CB
:10113000747572655B5D203A20002070617463688D
:10114000203D20002062616E6B203D2000526561D1
:10115000642070617463682066726F6D20657874B6
:10116000454550524F4D005061746368204C6F618B
:101170006420657874454550524F4D206D656D5F14
:101180000050617463682053746F726520657874D1
:10119000454550524F4D20706167696E67206F66FC
:1011A00066736574203D20005061746368204C6F45
:1011B000616420657874454550524F4D206D656DD2
:1011C0005F005061746368204C6F616420657874BF
:1011D000454550524F4D20706167696E67206F66BC
:1011E00066736574203D20002061696E5F76616CD6
:1011F000203D200076616C74797065203D20004CA4
:1012000043445F446973706C6179506172616D44ED
:1012100065736372697074696F6E20002074696E03
:10122000795F62617273203D2000736F6C69642086
:1012300062617273203D200020004C43445F496E80
:10124000697428292000656E636F646572436C6958
:1012500063203D200020506F736974696F6E203DDC
:101260002000656E636F64657228292000557064E4
:1012700061746544696E5374617465732829200034
:1012800053686F775F53656C65637465645F44652D
:10129000766963652829203A2000696E7465726654
:1012A0006163652073657269616C203D2000207761
:1012B00072697474656E20696E20524F4D206164AE
:1012C0006472200064657669636520004465766910
:1012D00063655F53656C656374282920004D6174F4
:1012E0007269785F4D6F64656C655F496E69740003
:1012F00020697320646576696365203D2000524F44
:101300004D207265616420616464722000446576DA
:101310006963655F496E6974002C00726561646978
:101320006E67204D6173746572506172616D657492
:101330006572735BC2A05D20696E20454550524FB7
:101340004D2073656E7420617420696E74657266D9
:10135000616365203D2000456E64002000205365D8
:101360006E6453696E676C65556E69736F6E20535A
:10137000797345785B5D3D2000206E6272200053DA
:10138000656E6453696E676C65556E69736F6E2028
:10139000696E74657266616365203D2000456E6408
:1013A0000020002053656E6453696E676C6541725E
:1013B00070446174612053797345785B5D3D200012
:1013C000206E6272200053656E6453696E676C65AF
:1013D0004152504461746120696E74657266616344
:1013E00065203D2000456E640020002053656E643A
:1013F00053696E676C655061746368446174612001
:1014000053797345785B5D3D20002070617463689B
:101410006E756D626572200053656E6453696E6708
:101420006C6550617463684461746120696E7465B1
:101430007266616365203D2000656E6400200020B7
:1014400053656E64456469744275666665724F7271
:1014500069672053797345785B5D3D200053656E65
:1014600064456469744275666665724F7269672087
:101470004152442053455249414C5F504F525420F1
:101480003D2000656E640020002053797345785B31
:101490005D3D200053656E644564697442756666FF
:1014A0006572204152442053455249414C5F504F90
:1014B0005254203D20006B696C6C206C6173742069
:1014C0006E6F746500726573657420615374657026
:1014D000203D20006153746570203D20002063682A
:1014E0003A200020004E6F7465204F6666203A2037
:1014F000002063683A200020004E6F7465204F6E14
:10150000203A20006B696C6C206C617374206E6FE4
:101510007465007265736574206153746570203D55
:1015200020006154696B3D3D614469762E2F206136
:1015300072704E203D20006153746570203D200084
:101540002063683A200020004E6F7465204F666665
:10155000203A20002063683A200020004E6F746516
:10156000204F6E203A2000506C617941727028291A
:101570003A3A4E6F7465204F6E206172704E203D76
:101580002000506C617941727028293A3A4E6F748C
:10159000654F66662C206172704E203D200061729E
:1015A000704E203D20002076616C7565203D200046
:1015B000696E74657266616365203D20004D494423
:1015C000495F53656E645F427265617468436F6E14
:1015D00074726F6C6C6572200076616C7565203D6D
:1015E00020004D4944495F53656E645375737461BF
:1015F000696E4275666665722000696E7465726612
:10160000616365203D20004D4944495F48616E6437
:101610006C6546696C7465725375737461696E5458
:1016200072616E736D697444656C617920007661D6
:101630006C7565203D200064657374203D20007347
:101640007263203D2000627573203D20004D4944A7
:10165000495F53656E644D61747269784D6F645073
:101660006172616D20002C00706172616D2F766176
:101670006C756520284445432C44454329203A2075
:1016800000204D4944495F53656E64566F69636538
:10169000506172616D202D2053797345785B5D3DFB
:1016A00020004152442053455249414C5F504F5213
:1016B00054203D2000696E73696465204D4944499A
:1016C0005F53656E64566F696365506172616D004A
:1016D000696E74657266616365203D20004D494402
:1016E000495F48616E646C654D61747269784D6FD5
:1016F000645472616E736D697444656C6179200025
:10170000696E73696465204D4944495F48616E6440
:101710006C654D61747269784D6F645472616E735B
:101720006D697444656C617928292C20656E636F3E
:101730006465725F73656E645F636F756E74657206
:10174000203D20002076616C7565203D2000706191
:1017500072616D203D20004D4944495F53656E64C0
:1017600044656C61796564566F6963655061726147
:101770006D20002062616E6B5F726571203D2000FC
:10178000696E74657266616365203D20004D494451
:10179000495F42616E6B526571756573745F2000BD
:1017A000696E74657266616365203D20004D494431
:1017B000495F456E74657252656D6F746545646905
:1017C000744D6F64652000206E756D626572203DFA
:1017D0002000696E74657266616365203D20004D6E
:1017E0004944495F52657175657374456469744213
:1017F00075666665722000696E7465726661636500
:10180000203D20004D4944495F52657175657374F0
:1018100047502000206E756D626572203D2000509B
:10182000726F6772616D4E756D626572526571207F
:101830003D20004D4944495F52657175657374538D
:10184000696E676C65506174636820002070726F08
:101850006772616D203D200062616E6B203D20004B
:101860004D4944495F53656E6450617463684E75B9
:101870006D6265725F200070726F6772616D203DEE
:1018800020004D4944495F53656E6450617463683C
:1018900050726F6772616D5F200062616E6B203DF8
:1018A00020004D4944495F53656E6450617463681C
:1018B00042616E6B5F20004D4944495F4348414E91
:1018C0004E454C203D20004D4944495F496E6974A6
:1018D00020004D6174726978204374726C7220002C
:1018E000414C504553204D414348494E45532032C9
:1018F00030313620003A0044696E2D00456E642078
:101900006F6620626F6F742E00426F6F74207600D6
:101910002061696E5F70696E5F76616C756520002D
:1019200061696E5F70696E2000371933192F195085
:101930006431004C7632004F464600491945194142
:1019400019506431004C7632004F4646006D1969DB
:1019500019651961195D1959194E4F490052414EC7
:1019600000535152004453570055535700545249A5
:1019700000781C731C6E1C691C641C5F1C5A1C556F
:101980001C501C4B1C461C411C3D1C391C351C3179
:101990001C2D1C291C251C211C1D1C191C151C116F
:1019A0001C0D1C091C051C011CFD1BF91BF51BF162
:1019B0001BED1BE91BE51BE11BDD1BD91BD51BD157
:1019C0001BCD1BC91BC51BC11BBD1BB91BB51BB147
:1019D0001BAD1BA91BA51BA11B9D1B991B951B9137
:1019E0001B8D1B891B851B811B7D1B791B751B7127
:1019F0001B6D1B691B651B611B5D1B591B551B5117
:101A00001B4D1B491B451B411B3D1B391B351B3106
:101A10001B2D1B291B251B211B1D1B191B151B11F6
:101A20001B0D1B091B051B011BFD1AF91AF51AF1E9
:101A30001AED1AE91AE51AE11ADD1AD91AD51AD1DE
:101A40001ACD1AC91AC51AC11ABD1AB91AB51AB1CE
:101A50001AAD1AA91AA51AA11A9D1A991A951A91BE
:101A60001A8D1A891A851A811A7D1A791A751A71AE
:101A70001A473920004623390046392000453920CD
:101A800000442339004439200043233900433920DE
:101A900000423820004123380041382000472338D5
:101AA00000473820004623380046382000453820BB
:101AB00000442338004438200043233800433820B2
:101AC00000423720004123370041372000472337A9
:101AD000004737200046233700463720004537208F
:101AE0000044233700443720004323370043372086
:101AF000004236200041233600413620004723367D
:101B00000047362000462336004636200045362062
:101B10000044233600443620004323360043362059
:101B20000042352000412335004135200047233550
:101B30000047352000462335004635200045352036
:101B4000004423350044352000432335004335202D
:101B50000042342000412334004134200047233424
:101B6000004734200046233400463420004534200A
:101B70000044233400443420004323340043342001
:101B800000423320004123330041332000472333F8
:101B900000473320004623330046332000453320DE
:101BA00000442333004433200043233300433320D5
:101BB00000423220004123320041322000472332CC
:101BC00000473220004623320046322000453220B2
:101BD00000442332004432200043233200433220A9
:101BE00000423120004123310041312000472331A0
:101BF0000047312000462331004631200045312086
:101C0000004423310044312000432331004331207C
:101C10000042302000412330004130200047233073
:101C20000047302000462330004630200045302059
:101C30000044233000443020004323300043302050
:101C400000422D31200041232D3100412D31200053
:101C500047232D3100472D31200046232D310046EA
:101C60002D312000452D31200044232D3100442DFD
:101C700031200043232D3100432D3120000000008E
:101C80000000000000000000000000000000000054
:101C90000000000000000000000000000000000044
:101CA0000000000000000000000000000000000034
:101CB0000000000000000000000000000030643060
:101CC00080326432803464348035643580376437E0
:101CD00080396439803B643B803C6400003C643C58
:101CE000803B643B803964398037643780356435A4
:101CF0008034643480326432803064000030502993
:101D000050295030502950295031502950305029F5
:101D1000502950305029502950315029502E5027E9
:101D20005027502E50275027502F5027502E5027E5
:101D30005027502E50275027502F50275043353CC6
:101D4000803E323C8041273C80432D3C8041313CE9
:101D5000803E333C803C373C803E323C8043353CC7
:101D6000803E323C8041273C80432D3C8041313CC9
:101D7000803E333C803C373C803E323C803C683C7B
:101D8000803E523E8041564180436843803E680019
:101D9000000000324A0000000000003E4A3C683C5F
:101DA000803E523E8041564180436843803E6800F9
:101DB000000000324A0000000000003E4A30393086
:101DC0003430363037373E373E3A363A37303930AE
:101DD0003430363037373E373E3A363A3735393594
:101DE00034353635373C3E3C3E3F363F3737393762
:101DF00034373637373E3E3E3E413641373741373E
:101E00003B3531352A373337323535353637393783
:101E1000403543372E00000000000000003A2E3A03
:101E200029373B37393A370000000000003C293C95
:101E30002E3A223A273C4300000000000000000038
:101E40000000000000000000000000000000000092
:101E50000000000000000000000000000000000082
:101E60000000000000000000000000000000000072
:101E70000000000000000000000000000000000062
:101E80000000000000000000000000000000000052
:101E90000000000000000000000000000000000042
:101EA0000000000000000000000000000000000032
:101EB0000000000000000000000000000000000022
:101EC0000000000000000000000000000000000012
:101ED0000000000000000000000000000000000002
:101EE00000000000000000000000000000000000F2
:101EF000000000000000000000000000004C464F01
:101F000032205350454544202F4B42442000454E3B
:101F100056332052454C4541534520202020004C4B
:101F2000464F3220414D50202F52414D503220001B
:101F3000454E56332044454341592020202020203F
:101F4000004C464F3120414D50202F52414D5031D1
:101F50002000454E56332041545441434B2020200D
:101F60002020004C464F31205350454544202F50EF
:101F700052532000454E5633205355535441494E39
:101F80002020202000454E563120414D50202F5614
:101F9000454C4F202000454E563220414D504C4973
:101FA00054554445202000454E563320414D504C59
:101FB000495455444520200044434F322050572077
:101FC0002F4C464F322020200044434F32205057A0
:101FD0002020202020202020200044434F32204475
:101FE0004554554E4520202020200044434F3220A8
:101FF000574156452053484150452000454E5631E3
:1020000020414D504C495455444520200044434FF5
:102010003220462F4C464F31202020202000554EA4
:1020200049534F4E20444554554E452020200044EE
:10203000434F3220465245512020202020202000AE
:1020400044434F31205057202020202020202020A2
:102050000044434F2042414C414E43452020202024
:10206000200044434F31205057202F4C464F322000
:10207000202000504F5254412052415445202020EE
:102080002020200044434F312057415645205348DB
:102090004150452000504F525441202F56454C4F3F
:1020A0002020202020005643462046524551204300
:1020B0005554202020200056434620464D2F505294
:1020C000532020202020200044434F3120465245F9
:1020D000512020202020202000564341202F454E13
:1020E0005632202020202020200044434F3120461B
:1020F000202F4C464F312020202000564341202FD6
:1021000056454C4F202020202020200056434620BA
:10211000464D202F454E563320202020004C464F60
:102120003220535045454420202020202000454E99
:1021300056322052454C4541534520202020004C2A
:10214000464F3220414D504C4954554445202000C3
:10215000454E56322044454341592020202020201E
:10216000004C464F3120414D504C49545544452078
:102170002000454E56322041545441434B202020EC
:102180002020004C464F312053504545442020200C
:1021900020202000454E5632205355535441494E7D
:1021A0002020202000454E56312052454C454153B9
:1021B000452020202000454E5631204445434159BA
:1021C00020202020202000454E56312053555354C6
:1021D00041494E202020200044434F3220505720B8
:1021E0002F4C464F322020200044434F322050577E
:1021F0002020202020202020200044434F32204453
:102200004554554E4520202020200044434F322085
:10221000574156452053484150452000454E5631C0
:102220002041545441434B20202020200044434F60
:10223000322046202F4C464F312020202000554E82
:1022400049534F4E20444554554E452020200044CC
:10225000434F32204652455120202020202020008C
:1022600044434F3120505720202020202020202080
:102270000044434F2042414C414E43452020202002
:10228000200044434F31205057202F4C464F3220DE
:1022900020200052414D50203120524154452020F1
:1022A0002020200044434F312057415645205348B9
:1022B000415045200052414D50203220524154455A
:1022C00020202020200056434620465245512043DE
:1022D000555420202020005643462046202F50529F
:1022E000532020202020200044434F3120465245D7
:1022F00051202020202020200056434620464D20FB
:102300002020202020202020200044434F31204640
:10231000202F4C464F31202020200056434620528B
:1023200045534F20202020202020200056434620C7
:1023300046202F454E56312020202020001F1F1FF1
:102340001F1F1F1F1F1E1E1E1F1E1E1E1E1C1C1CAD
:102350001F1C1C1C1C1818181F18181818101010F7
:102360001F101010100000001F00000000B0B0B0DF
:10237000B0B0B0B0B0B0B0B0B0B0B0B0B0FFB0B00E
:10238000B0B0B0B0B0B0B0B0B0B0B0B0B0FFFFB0AF
:10239000B0B0B0B0B0B0B0B0B0B0B0B0B0FFFFFF50
:1023A000B0B0B0B0B0B0B0B0B0B0B0B0B0FFFFFF40
:1023B000FFB0B0B0B0B0B0B0B0B0B0B0B0FFFFFFE1
:1023C000FFFFB0B0B0B0B0B0B0B0B0B0B0FFFFFF82
:1023D000FFFFFFB0B0B0B0B0B0B0B0B0B0FFFFFF23
:1023E000FFFFFFFFB0B0B0B0B0B0B0B0B0FFFFFFC4
:1023F000FFFFFFFFFFB0B0B0B0B0B0B0B0FFFFFF65
:10240000FFFFFFFFFFFFB0B0B0B0B0B0B0FFFFFF05
:10241000FFFFFFFFFFFFFFB0B0B0B0B0B0FFFFFFA6
:10242000FFFFFFFFFFFFFFFFB0B0B0B0B0FFFFFF47
:10243000FFFFFFFFFFFFFFFFFFB0B0B0B0FFFFFFE8
:10244000FFFFFFFFFFFFFFFFFFFFB0B0B0FFFFFF89
:10245000FFFFFFFFFFFFFFFFFFFFFFB0B0FFFFFF2A
:10246000FFFFFFFFFFFFFFFFFFFFFFFFB0B0B0B0B8
:10247000B0B0B0B0B0B0B0B0B0B0B0B0FFB0B0B00D
:10248000B0B0B0B0B0B0B0B0B0B0B0FFB0B0B0B0FD
:10249000B0B0B0B0B0B0B0B0B0B0FFB0B0B0B0B0ED
:1024A000B0B0B0B0B0B0B0B0B0FFB0B0B0B0B0B0DD
:1024B000B0B0B0B0B0B0B0B0FFB0B0B0B0B0B0B0CD
:1024C000B0B0B0B0B0B0B0FFB0B0B0B0B0B0B0B0BD
:1024D000B0B0B0B0B0B0FFB0B0B0B0B0B0B0B0B0AD
:1024E000B0B0B0B0B0FFB0B0B0B0B0B0B0B0B0B09D
:1024F000B0B0B0B0FFB0B0B0B0B0B0B0B0B0B0B08D
:10250000B0B0B0FFB0B0B0B0B0B0B0B0B0B0B0B07C
:10251000B0B0FFB0B0B0B0B0B0B0B0B0B0B0B0B06C
:10252000B0FFB0B0B0B0B0B0B0B0B0B0B0B0B0B05C
:10253000FFB0B0B0B0B0B0B0B0B0B0B0B0B0B0FFFD
:10254000B0B0B0B0B0B0B0B0B0B0B0B0B0B0FFB03C
:10255000B0B0B0B0B0B0B0B0B0B0B0B0B0FFB0B02C
:10256000B0B0B0B0B0B0B0B0B0B0B0B0B0B0B0B06B
:10257000B0B0B0B0B0FFB0B0B0B0B0B0B0B0B0B00C
:10258000B0B0B0B0B0FFFFB0B0B0B0B0B0B0B0B0AD
:10259000B0B0B0B0B0FFFFFFB0B0B0B0B0B0B0B04E
:1025A000B0B0B0B0B0FFFFFFFFB0B0B0B0B0B0B0EF
:1025B000B0B0B0B0B0FFFFFFFFFFB0B0B0B0B0B090
:1025C000B0B0B0B0B0FFFFFFFFFFFFB0B0B0B0B031
:1025D000B0B0B0B0B0FFFFFFFFFFFFFFB0B0B0B0D2
:1025E000B0B0B0B0B0FFFFFFFFFFFFFFFFFFFFFF86
:1025F000FFFFFFFFFFB0B0B0B0B0B0B0B0B0FFFFB2
:10260000FFFFFFFFFFB0B0B0B0B0B0B0B0B0B0FFF0
:10261000FFFFFFFFFFB0B0B0B0B0B0B0B0B0B0B02F
:10262000FFFFFFFFFFB0B0B0B0B0B0B0B0B0B0B01F
:10263000B0FFFFFFFFB0B0B0B0B0B0B0B0B0B0B05E
:10264000B0B0FFFFFFB0B0B0B0B0B0B0B0B0B0B09D
:10265000B0B0B0FFFFB0B0B0B0B0B0B0B0B0B0B0DC
:10266000B0B0B0B0FFB0B0B0B0B0B0B0B0BC28AB9C
:10267000289A288928782867285628452834282326
:102680002812280128F027DF27CE27BD27AC279B5B
:10269000278A27792768275727462735272427138E
:1026A000270227F126E026CF26BE26AD26205F4D45
:1026B00041545249585F4420202020202000205FB0
:1026C0004D41545249585F432020202020200020B3
:1026D0005F4D41545249585F422020202020200065
:1026E000205F4D41545249585F4120202020202036
:1026F000002044434F3120434C49432020202020D8
:1027000020002044434F312057415645464F524DFB
:102710002020002044434F2053594E43204D4F4426
:10272000452020002044434F312057415645464F15
:10273000524D2020002044434F32205741564546F9
:102740004F524D20200020554E55534544204449BA
:102750004E323220202000204C464F322057415626
:102760004553484150452000204C464F31205741A9
:102770005645534841504520002046322020202015
:1027800020202020202020202000204346472020F9
:10279000202020202020202020200020414C5420D8
:1027A00020202020202020202020200020554E55B1
:1027B0005345442044494E313620202000205041CA
:1027C0004745202020202020202020202000204DB0
:1027D0004154524958204D4F44554C4154450020D6
:1027E0004B4559424F4152442020202020202000B8
:1027F00020454E56454C4F50455320202020202048
:1028000000205F444543202020202020202020203D
:102810002000205F494E432020202020202020201F
:10282000202000204F5343494C4C41544F525320D9
:10283000202020002046494C5445522020202020B2
:102840002020202000205F53484946545F2020204C
:102850002020202020002041525020202020202015
:1028600020202020202000204544495420202020E2
:102870002020202020202000205041544348205375
:10288000454C454354202020002044434F322043F0
:102890004C4943202020202020002044434F322058
:1028A00057415645464F524D2020002046312020AA
:1028B0002020202020202020202020002044434FC2
:1028C000322057415645464F524D2020004F424539
:1028D000524845494D030C000003030C000003035C
:1028E000001F01000100007F000000003F00000009
:1028F0000000000000031F0000000000031F000094
:10290000003F000A3F00000000003F3F0A3F000078
:102910000000003F000A3F000004010F1E2E3F1F71
:102920000032000000000001003F3F0000000000F6
:102930000000000000000000000000000000000097
:102940000000000000000000000000000000000087
:10295000000000B52AAC2AA32A9A2A912A882A7F45
:102960002A762A6D2A642A5B2A522A492A402A3763
:102970002A2E2A252A1C2A132A0A2A012AF829EF94
:1029800029E629DD29D429CB29C229B929B029A7CB
:10299000299E299529504F5254414D544F004C4681
:1029A0004F322D414D50004C464F322D5350440074
:1029B0004C464F312D414D50004C464F312D535018
:1029C0004400454E56332D414D5000454E56332D53
:1029D000524C5300454E56332D444B5900454E56EC
:1029E000332D41544B00454E56332D444C59004530
:1029F0004E56322D414D5000454E56322D524C53BD
:102A000000454E56322D444B5900454E56322D410D
:102A1000544B00454E56322D444C5900454E5631CC
:102A20002D414D5000454E56312D524C5300454ED0
:102A300056312D444B5900454E56312D41544B00D3
:102A4000454E56312D444C5900564341322D4C458C
:102A50005600564341312D4C455600464C54522D9C
:102A600052455300464C54522D46525100464D2D6E
:102A7000414D4E5420004F53432D4D495820004F97
:102A800053322D57534850004F53322D504C53570B
:102A9000004F53322D46524551004F53312D57535D
:102AA0004850004F53312D504C5357004F53312D48
:102AB00046524551002D2D2D2D2D2D2D2D00DE2A78
:102AC000D62ACE2AC62A455854474154450045586F
:102AD0005445524E20004D554C5449202000534936
:102AE0004E474C452000092B002BF72AEE2A524571
:102AF00041532F524F4200554E49534F4E20200014
:102B0000524F5441544520200052454153534947A8
:102B10004E00382B2E2B242B1A2B4558504F4E4548
:102B20004E5432004558504F4E454E543100434F9D
:102B30004E532D54494D4500434F4E532D53504550
:102B40004400592B542B4F2B4A2B2D2D2D2D004C4F
:102B5000464F3100474C464F004E4F524D00BB2B65
:102B6000B02BA52B9A2B8F2B842B792B6E2B4558B2
:102B70002B4D4C542B52535400455854524E2B4D10
:102B80004C544900455854524E2B5253455400451D
:102B9000585445524E202020200052455345542B76
:102BA0004D4C5449004D554C5449202020202000C4
:102BB00052455345542020202020002D2D2D2D2D11
:102BC0002D2D2D2D2D00E92BE02BD72BCE2B424F79
:102BD00054482020202000465245452D52554E0095
:102BE0004441445220202020002D2D2D2D2D2D2D0F
:102BF0002D00802C7B2C762C712C6C2C672C622C5D
:102C00005D2C582C532C4E2C492C442C3F2C3A2C08
:102C1000352C302C2B2C262C212C1C2C4C4556339F
:102C2000004C455632004C45563100504544320068
:102C3000504544310050524553005256454C0056C1
:102C4000454C4F0047415445005452414B00504FB2
:102C50005254004B45594200524D503200524D5093
:102C6000310056494252004C464F32004C464F31DB
:102C700000454E563300454E563200454E56310003
:102C80002D2D2D2D00992C952C912C8D2C455854A3
:102C9000004D4C540053474C002D2D2D00D82CC70F
:102CA0002CB62CA52C2048415244455220202020EF
:102CB0002020202020002048415244202020202095
:102CC0002020202020200020534F46542020202068
:102CD0002020202020202000204F46462020202099
:102CE0002020202020202020005D2D4C2D3B2D2A4F
:102CF0002D192D082DF72C53414D504C4544204D96
:102D00004F44554C415445004E4F495345202020D7
:102D100020202020202020200052414E444F4D20D2
:102D200020202020202020202000535155415245B2
:102D30002020202020202020202000444F574E20FB
:102D40005341572020202020202020005550205380
:102D500041572020202020202020202000545249AC
:102D6000414E474C45202020202020202000832D4C
:102D7000722D204F4E202020202020202020202097
:102D8000202000204F4646202020202020202020E8
:102D9000202020001B2E0A2EF92DE82DD72DC62D20
:102DA000B52DA42D204E4F49534520202020202012
:102DB0002020202000204E4F495345202020202055
:102DC000202020202000204E4F4953452020202045
:102DD00020202020202000204E4F49534520202035
:102DE000202020202020200020574156452026204A
:102DF00050554C5345202020002057415645202057
:102E0000202020202020202020002050554C5345F9
:102E10002020202020202020202000204F46462057
:102E200020202020202020202020200001000176CA
:102E300014E60000010000010000010100013B2434
:102E40006003000603000600000A0000050501609B
:102E5000010104030117000003000000000001004D
:102E600000010301300000202C231B230A23F92238
:102E7000E822D722C622B522A422932282227122DE
:102E800060224F223E222D221C220B22FA21E92110
:102E9000D821C721B621A521942183217221612146
:102EA00050213F212E211D210C21FB20EA20D92079
:102EB000C820B720A62095208420732062205120AE
:102EC00040202F201E200D20FC1FEB1FDA1FC91FE2
:102ED000B81FA71F961F851F741F631F521F411F16
:102EE000301F1F1F0E1FFD1EFFFFFFFFFFFFFFFF15
:102EF000FFFFFFFFFFFFFFFFFFFFFFFFFFFFFFFFE2
:102F0000FFFFFFFFFFFFFFFFFFFFFFFFFFFFFFFFD1
:102F1000FFFFFFFFFF182C2C200506003F00FFFFDE
:102F2000FFFFFFFFFFFFFFFFFFFFFFFFFFFFFFFFB1
:102F30000C1414140806003F0001000009090600E3
:102F40003F000205050A0A06003F000303030B0BBE
:102F500006003F000407070C0C02000300050606EC
:102F60000D0D02000300060A0A0E0E06003F0007C0
:102F70000F0F0F0F06003F00080D0D101006003F49
:102F8000000911111111020003000A10101212039E
:102F90000003000B0C0C131306003F0029393931D4
:102FA00014030007002A3232321506003F002B338B
:102FB00033331606003F002C3434341706003F002C
:102FC0002D3535351806003F002E363636190600E9
:102FD0003F002F3737371A06003F00303B3B381B86
:102FE00002000300313A3A391C0200030032434325
:102FF0003A1D03000700333C3C3B1E06003F00FF28
:10300000FFFFFFFFFFFFFFFFFFFFFFFFFFFFFFFFD0
:10301000FF255C5C2D2103000700265D5D2E220547
:10302000001F002762622F2305001F00285E5E300C
:103030002406003F00192E2E2125020003004B29F3
:10304000295326020003004C2A2A542706003F0079
:103050004D2B2B552802000300343D3D3C29060032
:103060003F00353E3E3D2A06003F00363F3F3E2BA7
:1030700006003F003740403F2C06003F00384141EA
:10308000402D06003F00394545412E020003003A1D
:103090004444422F020003003B4D4D4330030007E0
:1030A000003C4646443106003F003D474745320656
:1030B000003F003E4848463306003F003F4949472D
:1030C0003406003F00404A4A483506003F00414B65
:1030D0004B493606003F00424F4F4A37020003007B
:1030E000434E4E4B38020003004421214C39050069
:1030F0001F004522224D3A06003F004623234E3B47
:1031000006003F004724244F3C06003F0048252589
:10311000503D06003F00492626513E06003F004A2A
:103120002828523F06003F00FFFFFFFFFFFFFFFF81
:10313000FF1A2F2F224101000100FFFFFFFFFFFFB9
:10314000FFFFFFFFFFFFFFFFFFFFFFFFFFFFFFFF8F
:10315000FFFFFFFFFFFFFFFFFFFFFFFFFFFF4E012E
:1031600001564603007F404F0404574703007F4049
:10317000500B0B584803007F40510E0E5949030075
:103180007F405216165A4A03007F405317175B4B75
:1031900003007F40541C1C5C4C03007F40551D1DE8
:1031A0005D4D03007F405638385E4E03007F405728
:1031B00042425F4F03007F400E0909165001000193
:1031C000001013131851010001001D57572552011B
:1031D0000001002461612C5301000100584C4C6037
:1031E0005403007F40595555615503007F405A5F95
:1031F0005F625603007F405B2D2D635703007F40C5
:103200005C1F1F645803007F405D20206559030048
:103210007F405E5151665A03007F405F5B5B675B96
:1032200003007F40FFFFFFFFFFFFFFFFFFFFFFFFE8
:10323000FFFFFFFFFFFF606060685E07007F000028
:103240003030085F02000300FFFFFFFFFFFFFFFFBA
:10325000FFFFFFFFFFFFFFFFFFFFFFFFFFFFFFFF7E
:10326000FFFFFFFFFFFFFFFFFFFFFFFFFFFFFFFF6E
:10327000FFFFFFFFFFFFFFFFFFFFFFFFFFFF0D0847
:10328000081566020003000F121217670200030000
:103290001102021968020003001215151A690700CD
:1032A0007F001318181B6A06003F001419191C6BC5
:1032B00002000300151A1A1D6C02000300161E1EE0
:1032C0001E6D06003F00171B1B1F6E06003F001BF4
:1032D0005050236F06003F001C5656247002000316
:1032E000001E52522671030007001F535327720518
:1032F000001F00205858287305001F00215454292E
:103300007406003F00225A5A2A7506003F002360C7
:10331000602B7602000300FFFFFFFFFFFFFFFFFFB0
:10332000FFFFFFFFFFFFFFFFFFFFFFFFFFFFFFFFAD
:10333000FFFFFFFFFFFFFFFFFFFFFFFFFFFFFFFF9D
:10334000FFFFFFFFFFFFFFFFFFFFFFFFFFFFFFFF8D
:10335000FFFFFFFFFFFFFFFFFFFFFFFFFFFFFFFF7D
:10336000FFFFFFFFFFFFFFFF010000090906003F0D
:10337000004E0101564603007F4011020219680207
:103380000003000303030B0B06003F004F04045728
:103390004703007F400205050A0A06003F000506B4
:1033A000060D0D020003000407070C0C02000300C9
:1033B0000D08081566020003000E090916500100E9
:1033C0000100060A0A0E0E06003F00500B0B58487B
:1033D00003007F400B0C0C131306003F00080D0D7B
:1033E000101006003F00510E0E594903007F4007A0
:1033F0000F0F0F0F06003F000A10101212030003F8
:10340000000911111111020003000F1212176702B7
:103410000003001013131851010001000C141414C0
:103420000806003F001215151A6907007F005216A2
:10343000165A4A03007F405317175B4B03007F4027
:103440001318181B6A06003F001419191C6B0200A0
:103450000300151A1A1D6C02000300171B1B1F6EB8
:1034600006003F00541C1C5C4C03007F40551D1D92
:103470005D4D03007F40161E1E1E6D06003F005C62
:103480001F1F645803007F405D2020655903007FA3
:10349000404421214C3905001F004522224D3A06A7
:1034A000003F004623234E3B06003F004724244FA5
:1034B0003C06003F00482525503D06003F004926B8
:1034C00026513E06003F004A2828523F06003F0092
:1034D0004B29295326020003004C2A2A54270600B0
:1034E0003F004D2B2B552802000300182C2C2005E3
:1034F00006003F005B2D2D635703007F40192E2EE1
:103500002125020003001A2F2F2241010001000093
:103510003030085F020003002A3232321506003FC5
:10352000002B3333331606003F002C343434170697
:10353000003F002D3535351806003F002E36363653
:103540001906003F002F3737371A06003F0056385C
:10355000385E4E03007F40293939311403000700DB
:10356000313A3A391C02000300303B3B381B020061
:103570000300333C3C3B1E06003F00343D3D3C29EC
:1035800006003F00353E3E3D2A06003F00363F3FE5
:103590003E2B06003F003740403F2C06003F0038DE
:1035A0004141402D06003F005742425F4F03007FDC
:1035B000403243433A1D030007003A4444422F027D
:1035C000000300394545412E020003003C464644B5
:1035D0003106003F003D4747453206003F003E4868
:1035E00048463306003F003F4949473406003F0044
:1035F000404A4A483506003F00414B4B49360600D9
:103600003F00584C4C605403007F403B4D4D4330CD
:1036100003000700434E4E4B3802000300424F4F59
:103620004A37020003001B5050236F06003F005E24
:103630005151665A03007F401E5252267103000703
:10364000001F5353277205001F002154542974068C
:10365000003F00595555615503007F401C565624C4
:1036600070020003001D5757255201000100205829
:1036700058287305001F00225A5A2A7506003F0079
:103680005F5B5B675B03007F40255C5C2D21030073
:103690000700265D5D2E2205001F00285E5E302497
:1036A00006003F005A5F5F625603007F4023606060
:1036B0002B7602000300606060685E07007F0024D4
:1036C00061612C53010001002762622F2305001F56
:1036D0000000000A0B02090C0D0E0807030401008C
:1036E00000000000000000000000000000000000DA
:1036F0000000000000000000000000000012111097
:1037000000000000000000000000000000000000B9
:103710000000000000000001021020200808102016
:10372000401020408002010201080402010102044D
:10373000081020408080402010080402018004020C
:103740000180402010080402010804020101020463
:103750000810204080010204081020408005050563
:1037600005070508080808020202020A0A080804F8
:103770000404040101010101010101030303030326
:10378000030303040707070C0C0C0C0C0C0C0C02B5
:1037900002020206060606060606060B0B0B0B0BBC
:1037A0000B0B0B000020002300260029002C002F0B
:1037B000003200000100000301060109010000229F
:1037C00000250028002B002E0031003400020100EB
:1037D00000050108010B0100002100240027002A38
:1037E000002D003000330001010000040107010A30
:1037F0000100FA76E87C398BE48B8F8C3A8DE27786
:1038000011241FBECFEFD1E2DEBFCDBF00E00CBF61
:1038100015E0A0E0B2E0E4E3FAE201E00BBF02C091
:1038200007900D92AC31B107D9F728E1ACE1B5E0D2
:1038300001C01D92AF30B207E1F717E3CEEFD7E337
:1038400000E006C022970109FE010BBF0E944C92C6
:10385000C23FD10780E00807A9F70E94EF8F0C94C0
:1038600009950C94000081E080936E0A80912614E3
:10387000813019F48FEF8093530A64E67DE087E985
:1038800095E10E94BB8D6AE57DE087E995E10E94A4
:10389000BB8D4AE050E06091530A87E995E10E94B0
:1038A000EA8E87E995E10C94F48D81E080936E0AAD
:1038B00064E27DE087E995E10E94BB8D6AE17DE0ED
:1038C00087E995E10E94BB8D4AE050E06091530A80
:1038D00087E995E10E94EA8E87E995E10C94F48DE1
:1038E0000C94ED940C94F594DC018D919C91DC0189
:1038F000ED91FC910190F081E02D19946D3F7105DF
:103900003CF46A3F710554F4683F710541F406C008
:103910009B012E5F31092230310508F4E5CF08956F
:10392000DC01ED91FC910190F081E02D1994DC0116
:10393000ED91FC910190F081E02D1994CF93DF93EC
:10394000E0912F05F0E0EF5CFD4F808182B900002F
:10395000E0912F05F0E0E054FD4FC081D0E0809170
:103960003B140E945688FE01EE0FFF1FED5AF44FE4
:1039700091838083E0912F05F0E0E054FD4FC085F6
:10398000D0E080913A140E945688FE01EE0FFF1F8E
:10399000ED5AF44F91838083E0912F05F0E0E054DD
:1039A000FD4FC089D0E0809139140E945688FE01F5
:1039B000EE0FFF1FED5AF44F91838083E0912F05A6
:1039C000F0E0E054FD4FC08DD0E0809138140E94AB
:1039D0005688FE01EE0FFF1FED5AF44F918380834E
:1039E000000080912F058F5F883019F080932F059C
:1039F00002C010922F05DF91CF910895CF93DF93EE
:103A0000809131148823B9F0E3EFFAE0C3E5DBE0FD
:103A1000A3EDBAE08191811108C08881998163E0AA
:103A2000959587956A95E1F78C93229611968BE090
:103A3000E331F80779F7DF91CF910895CF93C091E3
:103A4000720A6C2F8CE594E10E94627BEC2FF0E00F
:103A5000ED56F54F91E0811101C090E09083809187
:103A6000720A8F5F803219F08093720A02C010923E
:103A7000720ACF91089540E060E084E494E10E94EE
:103A8000947F60EE78E184E494E10E94BB8D41E094
:103A900060E084E494E10E94947F62ED78E184E444
:103AA00094E10E94BB8D67E572E084E494E10E949A
:103AB000EC8D60ED77E080E090E00E94B18784E4D7
:103AC00094E10C948E7F10926E0A80E090E008DF03
:103AD000813108F081E080936B0A67EC78E187E937
:103AE00095E10E94BB8D67EB78E187E995E10E9443
:103AF000BB8D4AE050E060916B0A87E995E10E9436
:103B0000EA8E87E995E10C94F48DCF93C62F62EA93
:103B100078E187E995E10E94BB8D6AE978E187E960
:103B200095E10E94BB8D4AE050E06C2F87E995E15A
:103B30000E94EA8E87E995E1CF910C94F48DCF93A2
:103B4000DF93D82FC62F60935D0A80935E0A109290
:103B50006A0A1092690A81E080935C0A67E577E15E
:103B600087E995E10E94BB8D6EE477E187E995E1F5
:103B70000E94BB8D40E150E06D2F87E995E10E94E6
:103B8000E48E64E477E187E995E10E94BB8D40E132
:103B900050E06C2F87E995E10E94EA8E87E995E174
:103BA000DF91CF910C94F48DFF920F931F93CF93DD
:103BB000DF931F92CDB7DEB7182FF62E042F809318
:103BC000620A6093610A2093600A40935F0A109230
:103BD0006A0A1092690A81E08093680A6DE476E1CE
:103BE00087E995E129830E94F78D66E476E187E90C
:103BF00095E10E94BB8D40E150E0612F87E995E19E
:103C00000E94EA8E6FE376E187E995E10E94BB8D21
:103C100040E150E06F2D87E995E10E94EA8E67E36D
:103C200076E187E995E10E94BB8D40E150E0602F8D
:103C300087E995E10E94EA8E6EE276E187E995E1F7
:103C40000E94BB8D40E150E02981622F87E995E118
:103C50000E94EA8E87E995E10F90DF91CF911F9145
:103C60000F91FF900C94F48DCF93C82F8093640A2A
:103C70001092670A1092660A81E08093650A62EEEC
:103C800075E187E995E10E94BB8D69ED75E187E9F2
:103C900095E10E94BB8D40E150E06C2F87E995E1F2
:103CA0000E94EA8E87E995E1CF910C94F48D809182
:103CB00026148093E80880912B148093E908809162
:103CC000440A8093EA0880914A0A8093EB08809125
:103CD000470A8093EC0880913B058093ED08809122
:103CE0003A058093EE08809139058093EF08809122
:103CF00038058093F008809161058093F1088091E8
:103D00004C0A8093F20880913C058093F3088091DF
:103D10004B0A8093F4088091490A8093F5088091BA
:103D2000480A8093F6081092F7088091450A80931C
:103D3000F80880915A058093F9088091570580937F
:103D4000FA08809160058093FB080895E4E3FAE0A7
:103D5000DF0111971C92108232968AE0E434F80752
:103D6000B9F70895A8EEB8E08CE29EE22C91FC0130
:103D70003196E4912E1708F46EC0FC013296E4915E
:103D8000E21708F468C01196039628E0AC3FB2072A
:103D900069F7DCDF8091E808809326148091E908B8
:103DA00080932B1481E09091EA08911101C080E08A
:103DB0008093440A8091EB0880934A0A81E09091B5
:103DC000EC08911101C080E08093470A81E0909156
:103DD000ED08911101C080E080933B058091EE08D1
:103DE00080933A058091EF08809339058091F0081F
:103DF000809338058091F108809361058091F208E5
:103E000080934C0A8091F30880933C058091F408DC
:103E100080934B0A8091F5088093490A8091F608B7
:103E20008093480A81E09091F808911101C080E0E8
:103E30008093450A81E09091F908911101C080E0DA
:103E400080935A058091FA08809357058091FB086A
:103E5000809360050895FC0124912C9394CFFF92E8
:103E60000F931F93CF93DF931F92CDB7DEB7182F19
:103E7000F62E042F8091450A882309F44EC08091C4
:103E80006B0A48134AC09091430A973008F045C026
:103E90002130F1F0911104C01092460A10920909E4
:103EA00062E875E187E995E10E94BB8D4AE050E048
:103EB0006091430A87E995E10E94EA8E87E995E1DE
:103EC0000F90DF91CF911F910F91FF900C94F48D83
:103ED00081E08093460A913021F4109209091092F2
:103EE000030967E675E187E995E129830E94BB8DA7
:103EF0004AE050E06091430A87E995E10E94EA8E2A
:103F000087E995E10E94F48D10934F0AF092500AD0
:103F10000093510A29812093520A0F90DF91CF918B
:103F20001F910F91FF900895CF93DF935091430A13
:103F3000C42FCC0FCC0F440F440F440F811104C089
:103F400080E090E0D0E050C080E090E0D0E00296C9
:103F5000D517B1F0BC016D5D754FFB0132979C0127
:103F60002D5C354FD9011297AC91AC0FA452A40F20
:103F7000A0833196D90111972C912083DF5FE7CF81
:103F8000A0E0A51709F449C021E02A0F822FB0E074
:103F9000AA0FBB1FAD5DB54FED012196851711F13D
:103FA0009C91E82FF0E0EE0FFF1FED5DF54F3081A3
:103FB0003917B0F493279C93918138819327988384
:103FC0009C913081932790839881318193279183AD
:103FD00090813C9193279C9391813881932798837A
:103FE0008F5FDCCFA22FCDCF0296D517B1F0BC01E9
:103FF0006D5D754FFB0132979C012D5C354FD901EA
:104000001297AC91AC0FA452A40FA0833196D901A2
:1040100011972C912083DF5FE7CFDF91CF91089537
:1040200090910A09292F30E0F901EE0FFF1FE20FEE
:10403000F31FE55FF64F8083618342839F5F909318
:104040000A0908959091430A973008F06FC0213013
:1040500061F138F0233009F057C0E3E3FAE020E0E3
:1040600039C02091470A2111DBCFE3E3FAE020E0D9
:104070003081381315C0921708F443C0E22FF0E0E6
:10408000DF01AA0FBB1FAB5CB54F8C91EE0FFF1F7A
:10409000ED5CF54F808311968C9181832F5FEBCF80
:1040A0002F5F3296921720F72FC02091330A821388
:1040B00003C06093340A0895E92FF0E0EE0FFF1F6C
:1040C000ED5CF54F808361839F5F1CC02F5F32964C
:1040D0009217D0F030813813F9CF921790F0E22F79
:1040E000F0E0DF01AA0FBB1FAB5CB54F8C91EE0F68
:1040F000FF1FED5CF54F808311968C9181832F5FBC
:10410000ECCF91509093430A6EE975E187E995E110
:104110000E94BB8D4AE050E06091430A87E995E137
:104120000E94EA8E87E995E10C94F48D08959091B0
:10413000430A992309F4F8C09130B9F44091060973
:104140004F5F262F30E0842F90E0821793070CF406
:10415000E9C008C0809106098F5F80930609861721
:1041600008F4E2C010920609089590E08A309105A3
:1041700040F0809106098F5F80930609861790F7BB
:104180000895FC01EE58FF4F0C943C928091060973
:104190008F5F80930609861728F708958091060996
:1041A000811105C02FEF260F209306090895815035
:1041B00080930609089590912C0580910609992312
:1041C00021F08F5F809306090DC0811106C081E048
:1041D0008093060980932C0505C0815080930609C1
:1041E00010922C058091060986139EC02EEF72C096
:1041F00080912C0540910609882361F0842F90E07E
:10420000262F30E0215031098217930709F481C02D
:104210004F5F88C0442309F466C0415083C0262FF5
:1042200030E021503109442737FD4095542F60E09C
:1042300070E0CB010E94458F60930609089590912C
:104240002C0580910609992311F08E5F01C08150E1
:104250008093060981E0982790932C05E091060948
:10426000F0E0EE0FFF1FED5DF64F908191115CC005
:104270001092060939C080910609E82FF0E0EE0F90
:10428000FF1FEB5DF64F9081911103C0109206095C
:104290002AC090912C05911102C08E5F01C08150FF
:1042A0008093060981E089271FC080912C054091E9
:1042B0000609882361F081E0840F80930609262F88
:1042C00030E090E0821793077CF1415020C041110B
:1042D00005C02FEF260F209306091BC041504093C5
:1042E0000609411121C081E080932C050895809139
:1042F0002C0540910609882379F081E0840F809392
:104300000609262F30E090E0821793076CF0409367
:10431000060910922C050895415040930609442344
:1043200011F30895409306090895CF9385E090E036
:10433000D7DAC091280780FBC0F9C093280786E030
:1043400090E0CEDA80FBC1F9C093280787E090E0C7
:10435000C7DA80FBC2F9C093280788E090E0C0DA92
:1043600080FBC3F9C09328076DED72E187E995E101
:104370000E94F78D87E995E1CF910C94F48DDC01D3
:10438000ED91FD918081ED91FD919081ED91FD91F7
:104390006C9163708E2309F064609F2309F068605C
:1043A000ECEDF1E2E60FF11D659565956D936D916C
:1043B0007D918D919D91099423C01AC012C016C0A1
:1043C00010C01EC009C014C013C006C019C009C067
:1043D0000DC007C00DC014C06250704080409040B6
:1043E0000BC0615070408040904006C06E5F01C0BD
:1043F0006F5F7F4F8F4F9F4F9E938E937E936E93F1
:1044000008958091841590918515B9CF809182157A
:1044100090918315B4CFCF93DF93CDB7DEB72897B4
:104420000FB6F894DEBF0FBECDBFE5E6F3E2DE01C6
:10443000119684918D93319683E2ED36F807C9F792
:10444000AE014F5F5F4F60E084E494E10E945880CA
:10445000EDE5F3E2DE01119684918D93319683E2CE
:10446000E536F807C9F7AE014F5F5F4F61E084E4BE
:1044700094E10E945880E5E5F3E2DE011196849113
:104480008D93319683E2ED35F807C9F7AE014F5FA2
:104490005F4F62E084E494E10E945880EDE4F3E22F
:1044A000DE01119684918D93319683E2E535F8070C
:1044B000C9F7AE014F5F5F4F63E084E494E10E946F
:1044C0005880E5E4F3E2DE01119684918D933196F4
:1044D00083E2ED34F807C9F7AE014F5F5F4F64E048
:1044E00084E494E10E945880EDE3F3E2DE0111964A
:1044F00084918D93319683E2E534F807C9F7AE01D4
:104500004F5F5F4F65E084E494E10E9458806AE366
:1045100072E187E995E10E94F78D87E995E10E94B4
:10452000F48D28960FB6F894DEBF0FBECDBFDF9195
:10453000CF9108952091401490E2299F9001112479
:10454000280F311D85E0829FF001839FF00D11241B
:10455000EE5AFC4F80810895CF932091401490E251
:10456000299F90011124280F311D85E0829FF001C1
:10457000839FF00D1124EE5AFC4F83818230B9F0F5
:1045800028F4882389F0813051F004C0833021F071
:10459000843051F0C0E00CC0C0E4C60F03C0C62F89
:1045A000C695C05ACF7704C0C62FC69501C0C62F86
:1045B0004AE050E087E995E10E94EA8E8C2FCF9186
:1045C000089590E08336910508F086C1FC01E45817
:1045D000FF4F0C943C9260936A0888E07BC1609323
:1045E0006B0889E077C160936C088AE073C16093BF
:1045F0006D088BE06FC160936E088CE06BC16093B7
:104600006F088DE067C1609370088EE063C16093AE
:1046100071088FE05FC16093720880E15BC16093B5
:10462000730881E157C16093740882E153C16093BC
:10463000750883E14FC16093760884E14BC16093B4
:10464000770885E147C16093780886E143C16093AC
:10465000790887E13FC160937A0888E13BC16093A4
:104660007B0889E137C160937C088AE133C160939C
:104670007D088BE12FC160937E088CE12BC1609394
:104680007F088DE127C1609380088EE123C160938C
:1046900081088FE11FC16093820880E21BC1609393
:1046A000830881E217C16093840882E213C160939A
:1046B000850883E20FC16093860884E20BC1609392
:1046C000870885E207C16093880886E203C160938A
:1046D000890887E2FFC060938A0888E2FBC0609384
:1046E0008B0889E2F7C060938C088AE2F3C060937C
:1046F0008D088BE2EFC060938E088CE2EBC0609374
:104700008F088DE2E7C0609390088EE2E3C060936B
:1047100091088FE2DFC06093920880E3DBC0609372
:10472000930881E3D7C06093940882E3D3C0609379
:10473000950883E3CFC06093960884E3CBC0609371
:10474000970885E3C7C06093980886E3C3C0609369
:10475000990887E3BFC060939A0888E3BBC0609361
:104760009B0889E3B7C060939C088AE3B3C0609359
:104770009D088BE3AFC060939E088CE3ABC0609351
:104780009F088DE3A7C06093A0088EE3A3C0609349
:10479000A1088FE39FC06093A20880E49BC0609350
:1047A000A30881E497C06093A40882E493C0609357
:1047B000A50883E48FC06093A60884E48BC060934F
:1047C000A70885E487C06093A80886E483C0609347
:1047D000A90887E47FC06093AA0888E47BC060933F
:1047E000AB0889E477C06093AC088AE473C0609337
:1047F000AD088BE46FC06093AE088CE46BC060932F
:10480000AF088DE467C06093B0088EE463C0609326
:10481000B1088FE45FC06093B20880E55BC060932D
:10482000B30881E557C06093B40882E553C0609334
:10483000B50883E54FC06093B60884E54BC060932C
:10484000B70885E547C06093B80886E543C0609324
:10485000B90887E53FC06093BA0888E53BC060931C
:10486000BB0889E537C06093BC088AE533C0609314
:10487000BD088BE52FC06093BE088CE52BC060930C
:10488000BF088DE527C06093C0088EE523C0609304
:10489000C1088FE51FC06093C20880E61BC060930B
:1048A000C30881E617C06093C40882E613C0609312
:1048B000C50883E60FC06093C60884E60BC060930A
:1048C000C70885E607C06093C80886E603C0609302
:1048D000C90887E6809300070895FF920F931F93FE
:1048E000CF93DF93F82E062F10E084E08F1550F160
:1048F000E80184E6F89EC00DD11D112444EA55E07C
:10490000BE0180ED9BE00E94F280A4E2B6E0E4EA02
:10491000F5E086E0E432F80719F081918D93F9CF44
:1049200044EA55E0BE018DEB9BE00E94F280A4EAD0
:10493000B6E0E4EAF5E081918D9385E0EF3FF8077A
:10494000D1F730C02F2D30E02550310984E6829F09
:10495000E001839FD00D1124C00FD11F44EA55E020
:10496000BE018AEA9BE00E94F280A4E2B6E0E4EA9B
:10497000F5E086E0E432F80719F081918D93F9CFE4
:1049800044EA55E0BE0187E99BE00E94F280A4EA78
:10499000B6E0E4EAF5E081918D9385E0EF3FF8071A
:1049A000D1F702C0CCE001C0C2E262EC71E187E95C
:1049B00095E10E94BB8DB80184E6F89E600D711DE3
:1049C00011244AE050E087E995E10E94B28E68EA3E
:1049D00071E187E995E10E94BB8D4AE050E06C2FC0
:1049E00087E995E10E94EA8E87E995E10E94F48DBE
:1049F00080E0DF91CF911F910F91FF9008950F9369
:104A00001F93CF93DF93082F162FE4E2F6E0A4EA7A
:104A1000B5E0853038F586E0E43AF80719F0819181
:104A20008D93F9CF84E6089FE0011124C10FD11DB9
:104A300044EA55E0BE0180ED9BE00E948081E4EAFB
:104A4000F6E0A4EAB5E081918D9386E0EF3FF807A8
:104A5000D1F744EA55E0BE018DEB9BE00E948081D6
:104A6000CCE02CC086E0E43AF80719F081918D93F0
:104A7000F9CF202F30E02550310984E6829FE001F4
:104A8000839FD00D1124C10FD11D44EA55E0BE0112
:104A90008AEA9BE00E948081E4EAF6E0A4EAB5E0BD
:104AA00081918D9386E0EF3FF807D1F744EA55E016
:104AB000BE0187E99BE00E948081C2E261E871E16A
:104AC00087E995E10E94BB8D84E6089FB00111241F
:104AD000610F711D4AE050E087E995E10E94B28EB6
:104AE00067E671E187E995E10E94BB8D4AE050E0FD
:104AF0006C2F87E995E10E94EA8E87E995E10E9493
:104B0000F48D80E0DF91CF911F910F910895CF93A5
:104B1000C82FE2E6F8E0A4E2B6E081918D9388E048
:104B2000E83EF807D1F78C2F6ADF65EA70E187E984
:104B300095E10E94BB8D4AE050E06C2F87E995E13A
:104B40000E94EA8E87E995E1CF910C94F48DCF9382
:104B5000DF93D82FC62F682F82E090E00E94721C4E
:104B60006C2F83E090E00E94721C65E870E187E999
:104B700095E10E94BB8D4AE050E062E070E087E979
:104B800095E10E94AB8E6DE572E087E995E10E94A8
:104B9000EC8D4AE050E06D2F87E995E10E94EA8EA6
:104BA00064E670E187E995E10E94BB8D4AE050E040
:104BB00063E070E087E995E10E94AB8E6AE570E101
:104BC00087E995E10E94BB8D4AE050E06C2F87E9B0
:104BD00095E10E94EA8E87E995E1DF91CF910C94EF
:104BE000F48DCF93DF93D82FC62FE2E6F8E0A4E24E
:104BF000B6E081918D9388E0E83EF807D1F7809187
:104C00003C14882329F080913D148093AA0602C0A9
:104C10001092AA064CD8E8EEF8E0ABEAB6E0819133
:104C20008D9388E0EC3FF807D1F720E030E0F90100
:104C3000EE59FA4FA9014C5D594FDA01A556BF4F05
:104C400080818C93119681818C932E5F3F4F20340D
:104C5000310569F76C2F8D2FD2DE6C2F8D2F77DF0A
:104C600069EF70E187E995E10E94BB8D60EF70E12B
:104C700087E995E10E94BB8D4AE050E06D2F87E9FE
:104C800095E10E94E48E66EE70E187E995E10E946D
:104C9000BB8D4AE050E06C2F87E995E10E94EA8ED7
:104CA00064EC70E187E995E10E94BB8DC4E2D6E037
:104CB000699140E150E087E995E10E94E48E62EC61
:104CC00070E187E995E10E94BB8D86E0CA3AD8077A
:104CD00079F76DEB70E187E995E10E94F78D87E93F
:104CE00095E1DF91CF910C94F48D82E090E00E94E9
:104CF000701C8093330583E090E00E94701C8093C9
:104D0000320569E370E187E995E10E94BB8D4AE0D5
:104D100050E062E070E087E995E10E94AB8E6FE2BF
:104D200070E187E995E10E94BB8D4AE050E0609117
:104D3000330587E995E10E94EA8E6DE070E187E92D
:104D400095E10E94BB8D4AE050E063E070E087E9A6
:104D500095E10E94AB8E62E070E187E995E10E94E7
:104D6000BB8D4AE050E06091320587E995E10E94F1
:104D7000EA8E87E995E10C94F48DCF93DF93E8E117
:104D8000FFE0C3EBDFE6D183C083ADE6B1E7B383D9
:104D9000A28368EB70E67783668387E695E6918762
:104DA000808742E051E75387428727E53FE6358712
:104DB000248785ED96E5918F808F83E39CE1938F27
:104DC000828F85E59CE1958F848F80EF99E2978FA4
:104DD000868F8CEF97E697878687ECE4F2E1D183A4
:104DE000C083B383A28377836683538742873587E3
:104DF000248797878687DF91CF910895CF93DF939C
:104E000062EF7BE087E995E10E94F78DC3E6D5E08C
:104E100060EF7BE087E995E10E94BB8DFE01319751
:104E200040E150E0608187E995E10E94E48E6EEEFA
:104E30007BE087E995E10E94BB8D40E150E068810D
:104E400087E995E10E94E48E6BEE7BE087E995E1CE
:104E50000E94BB8D229685E0C33AD807C9F668EE5A
:104E60007BE087E995E10E94F78D6BED7BE087E9B8
:104E700095E10E94BB8D4AE050E06091600587E9B2
:104E800095E10E94EA8E87E995E1DF91CF910C943C
:104E9000F48D8091480590E0FC013897E931F105E7
:104EA00028F5E152FF4F0C943C9281E090E01AC04B
:104EB00082E090E017C083E090E014C084E090E0CE
:104EC00011C085E090E00EC08AE090E00BC08BE05E
:104ED00090E008C086E090E005C087E090E002C066
:104EE0008CE090E090934B0580934A0508952091C3
:104EF00041053091420540914805453069F028F45C
:104F0000443081F480E090E00EC0463041F04730FC
:104F100049F488E090E007C081E090E004C087E0B9
:104F200090E001C0C90181309105E9F45091450537
:104F3000511119C04C3091F038F4483061F04930CB
:104F400091F482E090E00FC04D3059F04E3059F4AA
:104F500086E090E008C083E090E005C084E090E047
:104F600002C085E090E02817390711F0109245053E
:104F70000895FC012081222319F0261758F004C05F
:104F800030914905313031F026130BC0309149057D
:104F900037FF07C030914905320FFC01308381E0B3
:104FA000089580E00895FC0180819FEF980F9E3363
:104FB00058F1811108C090914905913041F19F3F0E
:104FC00051F48FE71DC08F3331F4909149059F3F15
:104FD00011F48EE315C09EEB980F9D33A8F08F3728
:104FE00041F480914905813011F41082089581586F
:104FF00007C0813439F480914905813059F482E445
:10500000808306C087FF06C090914905980F908362
:1050100081E0089580E0089520913C05E22FF0E0C2
:10502000EE0FFF1FEA5CFC4F8081918190934E0A46
:1050300080934D0A2F3F19F48EEF80933C058091A9
:105040003C058F3F11F410923C056EE977E087E94B
:1050500095E10C94F78DFC012081222319F026178D
:1050600058F004C030914905313031F0261324C086
:105070003091490537FF20C030914905320FFC01BE
:10508000308320913C05E22FF0E0EE0FFF1FEA5C39
:10509000FC4F8081918190934E0A80934D0A21119B
:1050A00003C081E080933C0580913C058F3F31F443
:1050B0008EEF80933C0502C080E0089581E0089562
:1050C000E9E1F3E080E0A081B0E0AE59B74F9C91F8
:1050D000992321F08F5F33968A30A9F70895CF93F3
:1050E000DF93809148058F3021F481E0809345055E
:1050F00029C0893049F4809150058F5F8A3008F4C7
:1051000086C0109250051EC08E30E1F4809150058B
:10511000282F30E0F901EE0FFF1FE20FF31FE85ECA
:10512000FC4FC281D0E0CE59D74FA181B0E0AE593B
:10513000B74FE081F0E0EE59F74F28814C91608144
:105140000E94D41D80914905882309F463C0809191
:105150004A0590914B0582309105E9F034F40197AE
:10516000C1F569E080E595E025C0209150058330C8
:10517000910511F1059769F5822F90E0FC01EE0F82
:10518000FF1FE80FF91FE85EFC4F828190E08E5907
:10519000974F09DF1EC08091500590E0FC01EE0F93
:1051A000FF1FE80FF91FE85EFC4F808190E064E18B
:1051B0008E59974FDEDE0DC0822F90E0FC01EE0F7E
:1051C000FF1FE80FF91FE85EFC4F818190E060E26D
:1051D000EFCF80915005282F30E0F901EE0FFF1F2F
:1051E000E20FF31FE85EFC4FC281D0E0CE59D74FEB
:1051F000A181B0E0AE59B74FE081F0E0EE59F74F32
:1052000028814C916081DF91CF910C94D41D8093C3
:10521000500598CFDF91CF910895462F682F8CE5E8
:1052200094E10C940F7B60916F08617082E0F5DF70
:1052300060917408617087E0F0DF60916F08669597
:10524000617081E0EADF609174086695617086E0C4
:10525000E4DF60917808617080E0DFDF60917A08B8
:10526000617085E0DADF8091740882FF04C082E01B
:105270008093290702C01092290780917B08882318
:1052800011F061E001C060E084E0C7DF6DE672E12B
:1052900087E995E10E94F78D87E995E10C94F48DFB
:1052A000CF93DF93EDECF8E2C2E6D8E0ACEDB7E0E7
:1052B0008491899384918D93319689E2E335F8073F
:1052C000B9F7DF91CF91AFCF0F931F93CF93DF93B8
:1052D000082F162F02DBC2E6D8E0ACEDB7E0E4E21F
:1052E000F6E0819189938D9386E0EA3AF807C9F751
:1052F00080913C14882361F08091AA06803408F0E4
:105300008FE380933D14EBEAF6E0A8EEB8E003C02B
:1053100010923D14F8CF81918D9386E0EF3BF80712
:10532000D1F70E94B21E20E030E0A9014C5D594F38
:10533000F901EE59FA4FDA01A556BF4F8C918083DF
:1053400011968C9181832E5F3F4F2034310569F790
:105350006ADF6DE471E187E995E10E94BB8D64E449
:1053600071E187E995E10E94BB8D4AE050E0602F32
:1053700087E995E10E94E48E6AE371E187E995E1AE
:105380000E94BB8D4AE050E0612F87E995E10E94C1
:10539000EA8E68E171E187E995E10E94BB8DC4E284
:1053A000D6E0699140E150E087E995E10E94E48E02
:1053B00066E171E187E995E10E94BB8D86E0CA3A1A
:1053C000D80779F762E171E187E995E10E94F78DED
:1053D00087E995E1DF91CF911F910F910C94F48DA6
:1053E00081E080936E0A80912614813031F488E147
:1053F0008093530A60E086E110DF66E47DE087E990
:1054000095E10E94BB8D6CE37DE087E995E10E9408
:10541000BB8D4AE050E06091530A87E995E10E9414
:10542000EA8E87E995E10C94F48D40E0682F8CE5D5
:1054300094E10C940F7B41E0682F8CE594E10C948F
:105440000F7BCF93C82F8B3011F178F48A3009F09D
:105450003AC088E0F0DF8BE0E8DF89E0E6DF8AE051
:10546000E4DF8091280781702CC08C30E9F08D300A
:1054700051F58AE0E0DF88E0D8DF8BE0D6DF89E015
:10548000D4DF8091280783FB882780F91AC08BE03E
:10549000D2DF88E0CADF89E0C8DF8AE0C6DF80911A
:1054A0002807869581700DC089E0C5DF88E0BDDFE3
:1054B0008BE0BBDF8AE0B9DF8091280782FB882779
:1054C00080F98093270760E872E187E995E10E94FF
:1054D000BB8D40E150E06C2F87E995E10E94EA8E98
:1054E00087E995E1CF910C94F48DEF92FF920F93A1
:1054F0001F93CF93DF931F92CDB7DEB7F62E142FF5
:10550000482F6EE08CE594E129830E940F7B4F2D9C
:105510006FE08CE594E10E940F7B412F60E18CE508
:1055200094E10E940F7B2981422F61E18CE594E197
:105530000E940F7B402F62E18CE594E10E940F7B7B
:105540004E2D63E18CE594E10F90DF91CF911F9197
:105550000F91FF90EF900C940F7BEF920F9384E1EB
:1055600064DF85E168DF86E160DFE12C00E020E0B8
:1055700040E060E080E0B9DF87E157DF80914505DA
:10558000882311F083E157DF809141059091420516
:105590008430910591F03CF48230910561F00397DD
:1055A000A1F48FE00FC08630910559F044F00897C0
:1055B00061F487E107C08EE005C080E103C081E1AE
:1055C00001C082E10F91EF9036CF0F91EF900895D7
:1055D000682F8CE594E10C94FA7A40912A05242FE7
:1055E00030E0509185088EE390E0851B91092817E3
:1055F000390724F44F5F40932A050AC08AE1E8DFA7
:1056000061E0813009F460E08AE107DE10922A054A
:1056100040912905242F30E050918C088EE390E0D2
:10562000851B91092817390724F44F5F40932905FA
:1056300008958BE1CDDF61E0813009F460E08BE11A
:10564000ECDD10922905089580916E0A882331F0CF
:1056500061E08DE0E2DD10926E0A07C08DE0B8DFF8
:10566000813019F460E08DE0D8DD80912514882325
:1056700051F080912614833031F461E08CE0CDDD6F
:105680001092251409C08CE0A3DF813029F48091A9
:105690002614833009F472C080914114882311F0DC
:1056A00061E005C08EE194DF813019F460E08EE1A5
:1056B000B4DD80914014882311F061E005C08FE1D2
:1056C00087DF813019F460E08FE1A7DD8091280544
:1056D000803160F18091270591E08927809327052B
:1056E00080917408843080F087E072DF61E081305F
:1056F00009F460E087E091DD86E06ADF61E08130F7
:1057000009F460E086E089DD80915A05811104C0CA
:105710008091450A882341F086E15ADF61E08130BB
:1057200009F460E086E179DD109228058091280572
:105730008F5F8093280540917B082091260530E0FB
:105740005EEF540F8FE090E002C0959587955A95D3
:10575000E2F78217930764F4423040F084E038DFC8
:1057600061E0813009F460E084E057DD10922605A5
:10577000809126058F5F80932605089560E08CE078
:105780004CDD8ACF61DF29CF682F70E0803410F4C0
:1057900040E003C06054710941E084E494E10C945A
:1057A000947F84E494E10C948E7FCF93DF93EC019B
:1057B000843691057CF467EA72E084E494E10E9407
:1057C000EC8DCA30D10534F467EA72E084E494E1E8
:1057D0000E94EC8D4AE050E0BE0184E494E1DF9148
:1057E000CF910C94AB8ECF93DF93EC018A3091056F
:1057F00034F467EA72E084E494E10E94EC8D4AE0BC
:1058000050E0BE0184E494E1DF91CF910C94AB8E23
:10581000CF93C82F811107C066E672E084E494E15B
:10582000CF910C94EC8D803440F46BE284E494E1ED
:105830000E94ED8D8C2F90E00AC06DE284E494E12B
:105840000E94ED8DCF7380E490E08C1B9109CF9185
:10585000CACFCF93C82F811107C066E672E084E4F7
:1058600094E1CF910C94EC8D803240F46BE284E4AF
:1058700094E10E94ED8D8C2F90E00AC06DE284E4EB
:1058800094E10E94ED8DCF7180E290E08C1B910934
:10589000CF91A9CFCF93DF93D82FC62F41E060E0FF
:1058A00084E494E10E94947FC23061F038F4CC2308
:1058B00049F0C13069F48D2FCCDF0AC0C33031F01C
:1058C000C43031F48D2F90E070DF02C08D2FA0DF47
:1058D00041E063E084E494E10E94947F68E372E134
:1058E00084E494E1DF91CF910C94BB8D4AE050E0C9
:1058F000BC0184E494E10C94AB8EEF920F93809101
:105900004505813009F4CBC038F0823009F4DDC19F
:10591000833009F479C2E8C284E187DD85E185DD61
:1059200086E189DD83E187DD3CDF40E060E084E4FF
:1059300094E10E94947F6AE579E084E494E10E9416
:10594000BB8D41E060E084E494E10E94947F80910B
:105950004C0A482F50E04A30510538F5FA01E8501A
:10596000FF4F0C943C9265E579E002C060E579E078
:1059700084E494E10E94BB8D1AC06BE479E0F8CF17
:1059800066E479E0F5CF61E479E0F2CF6CE379E0A9
:10599000EFCF67E379E0ECCF62E379E0E9CF6DE246
:1059A00079E0E6CF68E279E0E3CF90E01CDF41E008
:1059B00064E084E494E10E94947F80913C058B3004
:1059C000B9F198F4823039F138F4882309F1813043
:1059D000F1F56FE179E021C0853021F1873029F1BF
:1059E0008330A9F565E179E018C08F3239F138F4D8
:1059F000873109F1833259F56CEF78E00EC08F35AD
:105A000001F18F3B09F1873411F562EF78E005C0B1
:105A100064E279E002C06AE179E084E494E10E9402
:105A2000BB8D17C060E179E0F8CF6BE079E0F5CF8E
:105A300066E079E0F2CF61E079E0EFCF67EF78E000
:105A4000ECCF6DEE78E0E9CF68EE78E0E6CF90E05D
:105A5000ACDE41E069E084E494E10E94947F66EE6C
:105A600078E084E494E10E94BB8D80914B0A90E041
:105A70003DDF41E06DE084E494E10E94947F8091F9
:105A8000490A90E0B0DE41E062E184E494E10E94E2
:105A9000947F8091480A90E00F91EF9027CF84E1A6
:105AA000C4DC85E1C2DC86E1C6DCE12C00E020E05C
:105AB00040E060E080E019DD84E494E10E948E7FA4
:105AC00061ED78E084E494E10E94BB8D41E060E008
:105AD00084E494E10E94947F80915705883081F19D
