:020000040000FA
:100000000C94FE180C94A4910C9479910C944E913C
:100010000C9423910C94F8900C94CD900C94A29095
:100020000C9477900C9424930C9424930C94249324
:100030000C942F190C942F190C942F190C942F1920
:100040000C942F190C942F190C942F190C942F1910
:100050000C94CF910C942F190C942F190C942D9073
:100060000C942F190C94F1880C94C7880C942F19B8
:100070000C942F190C942F190C942F190C942F19E0
:100080000C942F190C942F190C942F190C948D95F6
:100090000C949D880C9473880C942F190C9469947B
:1000A0000C942F190C942F190C942F190C942F19B0
:1000B0000C942F190C942F190C942F190C942F19A0
:1000C0000C942F190C942F190C942F190C94498807
:1000D0000C941F880C942F190C94F5870C94CB87E3
:1000E0000C942F190C94B4780C9401480C94C363AD
:1000F0000C9449480C94D6210C945F7A0C94F879AE
:100100000C9471470C94D8780C94B5480C94C74D56
:100110000C940B320C94C4190C9490460C946847C0
:100120000C94C31A0C9471810C94EF5C0C94D75A04
:100130000C94A55A0C9428A50C94398B0C948D1A08
:100140000C94AF1A0C94C5580C94BE800C94A07EED
:100150000C94C35A0C94C0780C94FAA50C94975A3A
:100160000C949A5D0C94911A0C94B8780C94C35C1E
:100170000C948C300C94011B0C94EB480C94F448B8
:100180000C94697B0C94E4780C94891A0C94F88A8A
:100190000C949F5A0C946EA50C945C790C94364682
:1001A0000C941D5B0C946F1A0C94EE800C94A35A63
:1001B0000C942BA60C94D8410C948C470C940D5B9A
:1001C0000C941B8B0C94091B0C94086E0C94817A74
:1001D0000C94C75A0C94EF470C94EB1A0C940CA691
:1001E0000C94197A0C94E52C0C94E3A50C940F1B39
:1001F0000C949B780C94055B0C94111B0C94255B60
:100200000C94B4460C940C6E0C94825A0C940E34DC
:100210000C947F480C94CF1A0C94F57F0C941F5BC0
:100220000C941B460C945A460C9439210C94215B77
:100230000C94D8460C9437480C94F42C0C94D64D5E
:100240000C94A4220C948B5A0C94397B0C94FD488A
:100250000C942B5B0C94151B0C9404790C94E9976B
:100260000C94521A0C94395B0C94F31A0C94AF4111
:100270000C94591A0C9411800C946D7D0C94CE79C9
:100280000C94DB5A0C94531A0C94B35A0C94A8781F
:100290000C9409800C9411460C945D1A0C94E31A8A
:1002A0000C94497E0C94AC480C94FF1A0C941C4896
:1002B0000C94D31A0C94F51A0C9424460C94F35A0B
:1002C0000C946C460C94CF5A0C94855A0C940E479F
:1002D0000C9460490C943F5B0C94A95D0C946346AC
:1002E0000C94B55A0C94071B0C94BD5A0C94D67FF1
:1002F0000C94A91A0C94C4780C9499460C94851A01
:100300000C94C8780C945F680C94BB1A0C94174733
:100310000C94CE5E0C94E3410C94CC780C94F4369F
:100320000C9440480C94EC780C9412800C94E248A5
:100330000C94CC200C94A9580C943D810C94C819B1
:100340000C94037C0C946D1A0C94258B0C94FF5A1E
:100350000C94FC7A0C94971A0C94A78A0C94A95AC2
:100360000C944F4D0C94DD5A0C94CB1A0C94131B27
:100370000C94915A0C9483470C94FB5A0C94AB1A2E
:100380000C94895A0C94DC780C94075B0C94E05C18
:100390000C9421490C9418420C94C7410C94D51A22
:1003A0000C94831A0C94415B0C94DC4D0C946938CA
:1003B0000C94EB5A0C940F490C94367C0C945D6EA3
:1003C0000C94035B0C94EB4D0C9427280C94F57A59
:1003D0000C9465380C949B1A0C94BF5D0C94514698
:1003E0000C9422230C94D35A0C94E3560C94751A53
:1003F0000C94F4780C9407460C943D230C940A4812
:100400000C94FC5E0C94B97A0C94D91A0C94EE8A74
:100410000C94BB5A0C94D75C0C94BF5A0C94D55ACC
:100420000C94A51A0C94C11A0C94135B0C948F5A5B
:100430000C94D2210C9484A50C9491480C94711ABC
:100440000C94BD4D0C94EC5C0C94FC460C94557AC9
:100450000C9464480C942CA50C94B91A0C945B4829
:100460000C94BE480C94E06E0C944D470C94CA8AD0
:100470000C94B31A0C94995A0C949F8A0C940B1BED
:100480000C948E6E0C94A9300C946B1A0C94235B14
:100490000C944B7A0C94E95A0C94B71A0C94F17F93
:1004A0000C945F470C9440940C94078B0C94007947
:1004B0000C94355B0C94315B0C940D800C94E95CCE
:1004C0000C94D15A0C949D1A0C940D1B0C94EB2C8B
:1004D0000C94B75A0C940F5B0C94F75A0C94C646C4
:1004E0000C94F0500C94D71A0C9425420C94C180B3
:1004F0000C948D5A0C94B0790C94D0780C94DD7FC8
:100500000C94DA5C0C94C7480C94A31A0C943349ED
:100510000C94D0490C9405470C948F1A0C94DE224D
:100520000C94C91A0C9429470C941B5B0C94C27E42
:100530000C9488480C94031B0C941E510C94875AFD
:100540000C94EA260C94B11A0C94F11A0C9475468A
:100550000C9472590C94BF1A0C94DC5D0C948B7A39
:100560000C94E22C0C949E470C94E1460C94651A72
:100570000C94771A0C94C08A0C94375B0C946D48D9
:100580000C943BA50C9412460C94A15A0C94991A05
:100590000C94E55A0C94F95A0C9420470C943F465D
:1005A0000C94871A0C94B95A0C942F8B0C942A80B3
:1005B0000C9476480C944B7E0C94691A0C94421B54
:1005C0000C94F15A0C9408790C94D9480C947A47FD
:1005D0000C94647C0C9408600C94AB5A0C94D28AF2
:1005E0000C9487460C94F91A0C94D95A0C94335BEA
:1005F0000C942E480C947D1A0C94C15A0C94118BB7
:100600000C943C490C94D27B0C9406490C942D46D6
:100610000C94D11A0C94DD470C94D77A0C94C72211
:100620000C94917E0C94E91A0C94A3480C94F55AFE
:100630000C94E35C0C94CB5A0C94B15A0C949D80AE
:100640000C94D4780C94BB2C0C94F8780C94BD1AB0
:100650000C9472600C9402980C94811A0C94AB4622
:100660000C94CA490C943B470C94A11A0C94FA734D
:100670000C94955A0C94BC630C9492510C94E878A9
:100680000C94E71A0C94A71A0C94835A0C94DD79F5
:100690000C94571A0C94AF5A0C94AC8A0C94E14DFC
:1006A0000C945D360C94F3460C940B5B0C94FD1A81
:1006B0000C94DF5A0C94ED7F0C949F1A0C94AA2290
:1006C0000C94BD5C0C94C87F0C94A7470C94367AAC
:1006D0000C9403800C9456470C94671A0C94015B9D
:1006E0000C948B1A0C9410810C94051B0C944549A6
:1006F0000C94AD1A0C94DF2C0C94ED5A0C94931AB4
:100700000C94FB7F0C94187F0C94C4800C94FD8097
:100710000C9469490C94DD1A0C943D5B0C94E77FB2
:100720000C94C95A0C9496780C9448460C94CF4D6E
:100730000C94FC780C94FF7F0C9413480C94E15AB1
:100740000C94DD5C0C94C55A0C944A7E0C941849A8
:100750000C9425480C9409230C944E490C94CD5AC2
:100760000C941F270C94EE2C0C94951A0C94F71AE9
:100770000C94E11A0C94D0480C94E6470C94115B4D
:100780000C94611A0C947F1A0C94AD5A0C94CF46B9
:100790000C947E270C94E51A0C947E5C0C94B51A8C
:1007A0000C94ED220C947B1A0C94C2470C94155FA8
:1007B0000C9410790C94DA8A0C94E35A0C94E37F2D
:1007C0000C94E9A50C947A790C94551A0C94FD5A62
:1007D0000C942F5B0C940C790C94CE7F0C949C7B26
:1007E0000C94CB470C94275B0C94511B0C94095B25
:1007F0000C9408800C943B5B0C94B68A0C94BD4618
:100800000C942D350C949E5F0C94C51A0C94E65CE8
:100810000C9444470C94935A0C94417A0C9405849C
:100820000C94D27F0C94B8410C9495470C94B47EF0
:100830000C94F0780C94F8470C943F510C94DC2CF9
:100840000C94575F0C94FB1A0C94175B0C94D447D0
:100850000C94195B0C94CD1A0C94435B0C94631AA2
:100860000C94C71A0C94AC780C94A75A0C94E48A94
:100870000C942D5B0C94E0780C94F12C0C942B8050
:100880000C94EF1A0C9432470C9446420C94235764
:100890000C94ED1A0C94DF1A0C94B3510C94EA46A4
:1008A0000C944FA50C94B0470C94F25C0C94DB1A9A
:1008B0000C94CF500C942A490C94B0780C94DA7FA5
:1008C0000C945B1A0C94EF5A0C94657F0C94791A73
:1008D0000C94155B0C9457490C94BC780C94E75A13
:1008E0000C941D6E0C94A2460C94B9470C949B5A20
:1008F0000C9487800C949D5A0C9471510C94E82CA4
:100900000C947E460C94BAA40C94295B0C945F1A48
:100910000C94A4780C949A480C9452480C94731A32
:10092000204F4E202020202020202020202020206A
:1009300000204F464620202020202020202020205C
:100940002000204E4F4953452020202020202020E9
:10095000202000204E4F49534520202020202020D9
:1009600020202000204E4F495345202020202020C9
:100970002020202000204E4F4953452020202020B9
:100980002020202020002057415645202620505569
:100990004C53452020200020574156452020202040
:1009A00020202020202020002050554C534520207E
:1009B000202020202020202000204F4646202020DC
:1009C0002020202020202020200020484152444583
:1009D0005220202020202020202000204841524466
:1009E00020202020202020202020200020534F469F
:1009F00054202020202020202020202000204F468E
:100A0000462020202020202020202020200053418C
:100A10004D504C4544204D4F44554C415445004E9B
:100A20004F49534520202020202020202020200036
:100A300052414E444F4D20202020202020202020B5
:100A400000535155415245202020202020202020B5
:100A50002000444F574E2053415720202020202073
:100A600020200055502053415720202020202020B6
:100A700020202000545249414E474C452020202040
:100A80002020202000205F4445564943455F445FB5
:100A90002020202000205F4445564943455F435FA6
:100AA0002020202000205F4445564943455F425F97
:100AB0002020202000205F4445564943455F415F88
:100AC00020202020002044434F3120434C49432024
:100AD00020202020002044434F31205741564546D6
:100AE0004F524D20002044434F2053594E43204D38
:100AF0004F444520002044434F312057415645463E
:100B00004F524D20002044434F3220574156454616
:100B10004F524D200020554E555345442044494ED8
:100B20003232202000204C464F3220574156455348
:100B3000484150452000204C464F312057415645F2
:100B400053484150452000205F46325F202020203E
:100B500020202020202000205F53484946545F2059
:100B600020202020202000205F414C545F202020A6
:100B70002020202020200020554E5553454420445D
:100B8000494E3136202000205F504147455F2020EC
:100B900020202020202000205F4B4559355F202059
:100BA00020202020202000205F4B4559345F20204A
:100BB00020202020202000205F4B4559335F20203B
:100BC00020202020202000205F4445435F2020205B
:100BD00020202020202000205F494E435F2020203D
:100BE00020202020202000205F4B4559315F20200D
:100BF00020202020202000205F4B4559325F2020FC
:100C000020202020202000205F4346475F20202016
:100C100020202020202000205F4152505F202020F3
:100C200020202020202000205F454449545F2020C0
:100C300020202020202000205F50415443485F2086
:100C4000202020202020002044434F3220434C49C4
:100C5000432020202020002044434F32205741567B
:100C600045464F524D2000205F46315F2020202016
:100C7000202020202020002044434F32205741567E
:100C800045464F524D20004C464F3220535045456B
:100C900044202F4B42442000454E56332052454CB1
:100CA0004541534520202020004C464F3220414DE5
:100CB00050202F52414D50322000454E5633204493
:100CC00045434159202020202020004C464F312010
:100CD000414D50202F52414D50312000454E56334A
:100CE0002041545441434B2020202020004C464FAB
:100CF00031205350454544202F5052532000454E3B
:100D00005633205355535441494E2020202000454E
:100D10004E563120414D50202F56454C4F2020003B
:100D2000454E563220414D504C49545544452020A3
:100D300000454E563320414D504C495455444520B2
:100D4000200044434F32205057202F4C464F322032
:100D500020200044434F32205057202020202020C4
:100D60002020200044434F3220444554554E452016
:100D7000202020200044434F322057415645205325
:100D8000484150452000454E563120414D504C4978
:100D90005455444520200044434F3220462F4C46B2
:100DA0004F31202020202000554E49534F4E2044E3
:100DB0004554554E452020200044434F3220465292
:100DC0004551202020202020200044434F31205036
:100DD000572020202020202020200044434F204264
:100DE000414C414E434520202020200044434F31B8
:100DF000205057202F4C464F3220202000504F5279
:100E000054412052415445202020202020004443BA
:100E10004F312057415645205348415045200050FE
:100E20004F525441202F56454C4F20202020200067
:100E300056434620465245512043555420202020F9
:100E40000056434620464D2F50525320202020204C
:100E5000200044434F31204652455120202020207D
:100E6000202000564341202F454E5632202020207E
:100E70002020200044434F312046202F4C464F3144
:100E80002020202000564341202F56454C4F202043
:100E900020202020200056434620464D202F454E3E
:100EA000563320202020004C464F322053504545D9
:100EB0004420202020202000454E56322052454C10
:100EC0004541534520202020004C464F3220414DC3
:100ED000504C4954554445202000454E563220443C
:100EE00045434159202020202020004C464F3120EE
:100EF000414D504C4954554445202000454E5632F2
:100F00002041545441434B2020202020004C464F88
:100F10003120535045454420202020202000454EBC
:100F20005632205355535441494E2020202000452D
:100F30004E56312052454C4541534520202020003B
:100F4000454E563120444543415920202020202041
:100F500000454E5631205355535441494E202020D0
:100F6000200044434F32205057202F4C464F322010
:100F700020200044434F32205057202020202020A2
:100F80002020200044434F3220444554554E4520F4
:100F9000202020200044434F322057415645205303
:100FA000484150452000454E56312041545441435C
:100FB0004B20202020200044434F322046202F4C3D
:100FC000464F312020202000554E49534F4E20449B
:100FD0004554554E452020200044434F3220465270
:100FE0004551202020202020200044434F31205014
:100FF000572020202020202020200044434F204242
:10100000414C414E434520202020200044434F3195
:10101000205057202F4C464F322020200052414D67
:1010200050203120524154452020202020004443AC
:101030004F312057415645205348415045200052DA
:10104000414D502032205241544520202020200084
:1010500056434620465245512043555420202020D7
:10106000005643462046202F505253202020202057
:10107000200044434F31204652455120202020205B
:1010800020200056434620464D20202020202020AE
:101090002020200044434F312046202F4C464F3122
:1010A0002020202000564346205245534F20202028
:1010B0002020202020005643462046202F454E5613
:1010C00031202020202000455854004D4C5400531E
:1010D000474C002D2D2D002D2D2D2D004C464F3130
:1010E00000474C464F004E4F524D0045582B4D4C3B
:1010F000542B52535400455854524E2B4D4C544986
:1011000000455854524E2B525345540045585445AF
:10111000524E202020200052455345542B4D4C5414
:1011200049004D554C544920202020200052455361
:1011300045542020202020002D2D2D2D2D2D2D2D0E
:101140002D2D00424F544820202020004652454576
:101150002D52554E004441445220202020002D2D78
:101160002D2D2D2D2D2D00524541532F524F420034
:10117000554E49534F4E202000524F544154452064
:101180002000524541535349474E004558504F4E59
:10119000454E5432004558504F4E454E5431004351
:1011A0004F4E532D54494D4500434F4E532D5350F0
:1011B000454400455854474154450045585445520C
:1011C0004E20004D554C544920200053494E474C69
:1011D000452000504F5254414D544F004C464F3221
:1011E0002D414D50004C464F322D535044004C463B
:1011F0004F312D414D50004C464F312D535044003E
:10120000454E56332D414D5000454E56332D524CD0
:101210005300454E56332D444B5900454E56332D01
:1012200041544B00454E56332D444C5900454E56C3
:10123000322D414D5000454E56322D524C530045F3
:101240004E56322D444B5900454E56322D41544B8B
:1012500000454E56322D444C5900454E56312D41D5
:101260004D5000454E56312D524C5300454E56318F
:101270002D444B5900454E56312D41544B00454E9F
:1012800056312D444C5900564341322D4C455600A1
:10129000564341312D4C455600464C54522D524533
:1012A0005300464C54522D46525100464D2D414D4F
:1012B0004E5420004F53432D4D495820004F533278
:1012C0002D57534850004F53322D504C5357004F19
:1012D00053322D46524551004F53312D57534850EC
:1012E000004F53312D504C5357004F53312D465220
:1012F0004551002D2D2D2D2D2D2D2D004C455633D6
:10130000004C455632004C455631005045443200A1
:10131000504544310050524553005256454C0056FA
:10132000454C4F0047415445005452414B00504FEB
:101330005254004B45594200524D503200524D50CC
:10134000310056494252004C464F32004C464F3114
:1013500000454E563300454E563200454E5631003C
:101360002D2D2D2D00506431004C7632004F464615
:10137000004E4F490052414E0053515200445357C2
:10138000005553570054524900506431004C763296
:10139000004F4646004739202000462339200046AA
:1013A00039202000453920200044233920004439C9
:1013B00020200043233920004339202000423820D8
:1013C00020004123382000413820200047233820C6
:1013D00000473820200046233820004638202000CF
:1013E0004538202000442338200044382020004382
:1013F000233820004338202000423720200041239A
:10140000372000413720200047233720004737206E
:101410002000462337200046372020004537202073
:101420000044233720004437202000432337200086
:10143000433720200042362020004123362000413F
:101440003620200047233620004736202000462340
:101450003620004636202000453620200044233622
:10146000200044362020004323362000433620202D
:101470000042352020004123352000413520200046
:1014800047233520004735202000462335200046DD
:1014900035202000453520200044233520004435E8
:1014A00020200043233520004335202000423420F3
:1014B00020004123342000413420200047233420E1
:1014C00000473420200046233420004634202000EA
:1014D000453420200044233420004434202000439D
:1014E00023342000433420200042332020004123B5
:1014F000332000413320200047233320004733208E
:10150000200046233320004633202000453320208E
:1015100000442333200044332020004323332000A1
:10152000433320200042322020004123322000415A
:10153000322020004723322000473220200046235B
:101540003220004632202000453220200044233241
:101550002000443220200043233220004332202048
:101560000042312020004123312000413120200061
:1015700047233120004731202000462331200046F8
:101580003120200045312020004423312000443107
:10159000202000432331200043312020004230200E
:1015A00020004123302000413020200047233020FC
:1015B0000047302020004623302000463020200005
:1015C00045302020004423302000443020200043B8
:1015D000233020004330202000422D3120004123C1
:1015E0002D3100412D31200047232D3100472D3171
:1015F000200046232D3100462D312000452D31207D
:101600000044232D3100442D31200043232D31008F
:10161000432D312000202D2D53595354454D205238
:1016200045424F4F542D2D20007265626F6F7469D3
:101630006E672073797374656D202F20736F6674E5
:10164000776172655F5265626F6F74282920002090
:1016500000202D2D2D2054455354204D4F4445201E
:101660002D2D2D202000546573744D6F646528293D
:101670000031092009B909A8099709860975096483
:101680000953094209FD09EC09DB09CA09740A6317
:101690000A520A410A300A1F0A0E0A202020002E90
:1016A000002A002000770C670C570C470C370C27DA
:1016B0000C170C070CF70BE70BD70BC70BB70BA7D7
:1016C0000B970B870B770B670B570B470B360B25CD
:1016D0000B150B050BF50AE50AD50AC50AB50AA5CF
:1016E0000A950A850A44756D70696E67204D6173AD
:1016F000746572202E2E2E20200044756D702042BD
:10170000616E6B2066696E697368656420200020D5
:10171000442020200020432020200020434F524519
:101720000020204220200020412020200020746F33
:101730000044756D70696E67203A00464F524D4106
:1017400054206578742E454550524F4D20772F30E8
:1017500000205061746368203030302D39393920D1
:1017600072656164792000434F524520204120205A
:101770002042202020432020204420200045636870
:101780006F206D7367206F6E204D696469204F75FF
:10179000743A004563686F206D7367206F6E204355
:1017A0004F5245204F7574200048656C6C6F204285
:1017B000756464792021203A29202020202000000F
:1017C000001000200101110020020212002003037A
:1017D0001300200404140020050515002006061639
:1017E00000200707170020080803000309090C0060
:1017F0003F0A0A00003F0B0B00003F0C0C030003E4
:101800000D0D0300030E0E0C003F0F0F00003F10E4
:101810001000003F11110300031212030003131301
:1018200000003F14141F003F151501000316160099
:101830000001171701000318180000011919000012
:10184000031A1A7F007F1B1B00003F1C1C000003B3
:101850001D1D0000031E1E00003F1F1F3F003F20F4
:101860002000003F21210000032222000001232349
:1018700000003F2424000003252500000126260047
:101880000006272700001F282803001429291F000D
:101890003F2A2A00003F2B2B0000032C2C000001C4
:1018A0002D2D0000062E2E0000202F2F03001430B7
:1018B000301F003F3131000003323200003F33332C
:1018C00000003F34343F003F353500003F36360AD4
:1018D000003F37373F003F383800000139390000FA
:1018E000013A3A0000033B3B00003F3C3C00003F14
:1018F0003D3D3F003F3E3E3F003F3F3F0A003F40EF
:10190000403F003F41410000034242000003434387
:10191000000003444400003F454500003F46463F69
:10192000003F474700003F48480A003F49493F0001
:101930003F4A4A0000034B4B0000034C4C04001488
:101940004D4D01003F4E4E0F003F4F4F1E003F5088
:10195000502E003F51513F003F52521F003F535302
:10196000000003545432003F555500000356560002
:10197000007F575700007F585800007F59590000DA
:101980007F5A5A01007F5B5B00007F5C5C3F007FF9
:101990005D5D3F007F5E5E00007F5F5F00007F60F7
:1019A0006000007F616100007F626200007F63630E
:1019B00000007F646400007F656500007F6666004C
:1019C000007F676700007F68680000146969000095
:1019D0007F6A6A0000206B6B0000146C6C00007F53
:1019E0006D6D0000206E6E0000146F6F00007F7040
:1019F000700000207171000014727200007F737318
:101A00000000207474000014757500007F76760065
:101A100000207777000014787800007F7979000043
:101A2000207A7A0000147B7B00007F7C7C00002001
:101A30007D7D0000147E7E00007F7F7F000020807F
:101A400080000014818100007F8282000020838357
:101A5000000014848400007F858500002063686F87
:101A60007264506F736974696F6E203D20005D2051
:101A70003D200063686F726453697A655B002F765E
:101A8000656C6F63697479203D200020002F7069B8
:101A9000746368203D200020002F63686F726450DB
:101AA0006F736974696F6E203D20002000636D00C4
:101AB000726573657420666F72206E657874207429
:101AC000696D652062792061206E6F74654F66666E
:101AD000206D7367202F63686F7264506F73697431
:101AE000696F6E203D20002F76656C6F6369747995
:101AF000203D200020002F7069746368203D200085
:101B000020002F63686F7264506F736974696F6E21
:101B1000203D20002000636D00736F7274656420A7
:101B200063686F7264734D656D6F41727261795B4A
:101B30005D202D3E20726170706F7274206861723A
:101B40006D6F6E69717565203A20002F76656C6F38
:101B500063697479203D200020002F7069746368E8
:101B6000203D200020002F63686F7264506F7369FE
:101B700074696F6E203D20002000636D00736F72EA
:101B80007465642063686F7264734D656D6F417234
:101B90007261795B5D203A200020002D2D2D2D2DC6
:101BA0002D2D2D2D2D2D2D2D2D2DFF2D2D2D2D2D93
:101BB0002D2D2D2D2D2D2D2D2DFF2D2D2D2D2D2D83
:101BC0002D2D2D2D2D2D2D2DFF2D2D2D2D2D2D2D73
:101BD0002D2D2D2D2D2D2DFF2D2D2D2D2D2D2D2D63
:101BE0002D2D2D2D2D2DFF2D2D2D2D2D2D2D2D2D53
:101BF0002D2D2D2D2DFF2D2D2D2D2D2D2D2D2D2D43
:101C00002D2D2D2DFF2D2D2D2D2D2D2D2D2D2D2D32
:101C10002D2D2DFF2D2D2D2D2D2D2D2D2D2D2D2D22
:101C20002D2DFF2D2D2D2D2D2D2D2D2D2D2D2D2D12
:101C30002DFF2D2D2D2D2D2D2D2D2D2D2D2D2D2D02
:101C4000FF2D2D2D2D2D2D2D2D2D2D2D2D2D2DFF20
:101C50002D2D2D2D2D2D2D2D2D2D2D2D2D2DFF2DE2
:101C60002D2D2D2D2D2D2D2D2D2D2D2D2DFF2D2DD2
:101C70002D2D2D2D2D2D2D2D2D2D2D2DFF2D2D2DC2
:101C80002D2D2D2D2D2D2D2D2D2D2DFF2D2D2D2DB2
:101C90002D2D2D2D2D2D2D2D2D2D2D2D2D2D2D2D74
:101CA0002D2D2DFF2D2D2D2D2D2D2D2D2D2D2D2D92
:101CB0002D2D2DFFFF2D2D2D2D2D2D2D2D2D2D2DB0
:101CC0002D2D2DFFFFFF2D2D2D2D2D2D2D2D2D2DCE
:101CD0002D2D2DFFFFFFFF2D2D2D2D2D2D2D2D2DEC
:101CE0002D2D2DFFFFFFFFFF2D2D2D2D2D2D2D2D0A
:101CF0002D2D2DFFFFFFFFFFFF2D2D2D2D2D2D2D28
:101D00002D2D2DFFFFFFFFFFFFFF2D2D2D2D2D2D45
:101D10002D2D2DFFFFFFFFFFFFFFFFFFFFFFFFFF49
:101D2000FFFFFF2D2D2D2D2D2D2D2D2DFFFFFFFF25
:101D3000FFFFFF2D2D2D2D2D2D2D2D2D2DFFFFFFE7
:101D4000FFFFFF2D2D2D2D2D2D2D2D2D2D2DFFFFA9
:101D5000FFFFFF2D2D2D2D2D2D2D2D2D2D2D2DFF6B
:101D6000FFFFFF2D2D2D2D2D2D2D2D2D2D2D2D2D2D
:101D7000FFFFFF2D2D2D2D2D2D2D2D2D2D2D2D2D1D
:101D80002DFFFF2D2D2D2D2D2D2D2D2D2D2D2D2DDF
:101D90002D2DFF2D2D2D2D2D2D2D2D2D2D2D2D2DA1
:101DA0002D2D2D2D2D2D2D2D2D2D2DFF2D2D2D2D91
:101DB0002D2D2D2D2D2D2D2D2D2D2DFFFF2D2D2DAF
:101DC0002D2D2D2D2D2D2D2D2D2D2DFFFFFF2D2DCD
:101DD0002D2D2D2D2D2D2D2D2D2D2DFFFFFFFF2DEB
:101DE0002D2D2D2D2D2D2D2D2D2D2DFFFFFFFFFF09
:101DF0002D2D2D2D2D2D2D2D2D2D2DFFFFFFFFFFF9
:101E0000FF2D2D2D2D2D2D2D2D2D2DFFFFFFFFFF16
:101E1000FFFF2D2D2D2D2D2D2D2D2DFFFFFFFFFF34
:101E2000FFFFFF2D2D2D2D2D2D2D2DFFFFFFFFFF52
:101E3000FFFFFFFF2D2D2D2D2D2D2DFFFFFFFFFF70
:101E4000FFFFFFFFFF2D2D2D2D2D2DFFFFFFFFFF8E
:101E5000FFFFFFFFFFFF2D2D2D2D2DFFFFFFFFFFAC
:101E6000FFFFFFFFFFFFFF2D2D2D2DFFFFFFFFFFCA
:101E7000FFFFFFFFFFFFFFFF2D2D2DFFFFFFFFFFE8
:101E8000FFFFFFFFFFFFFFFFFF2D2DFFFFFFFFFF06
:101E9000FFFFFFFFFFFFFFFFFFFF2DB610A5109410
:101EA0001083107210611050103F102E101D100C76
:101EB00010FB0FEA0FD90FC80FB70FA60F950F84AD
:101EC0000F730F620F510F400F2F0F1E0F0D0FFCDE
:101ED0000EEB0EDA0EC90EB80EA70E960E850E7416
:101EE0000E630E520E410E300E1F0E0E0EFD0DEC47
:101EF0000DDB0DCA0DB90DA80D970D860D750D647E
:101F00000D530D420D310D200D0F0DFE0CED0CDCAF
:101F10000CCB0CBA0CA90C980C870C696E742E456E
:101F20004550524F4D20616464722000434C45413E
:101F300052494E472057495448204E554C4C20207A
:101F40002000696E742E454550524F4D20616464E7
:101F5000722000003000000000013F00000000017E
:101F60000100000004400102000000000000000029
:101F700000000000000000FFFFFFFFFFFFFFFFFF6A
:101F8000FFFFFFFFFFFFFFFFFFFFFFFFFFFFFFFF61
:101F9000FFFFFFFFFFFFFFFFFFFFFFFFFFFFFFFF51
:101FA000FFFFFFFFFFFFFFFFFFFFFFFFFFFFFFFF41
:101FB000FFFFFFFFFFFFFFFFFFFFFFFFFFFFFFFF31
:101FC000FFFFFFFFFFFFFFFFFFFFFFFFFFFFFFFF21
:101FD000FFFFFFFFFFFFFFFFFFFFFFFFFFFFFFFF11
:101FE000FFFFFFFFFFFFFFFFFFFFFFFFFFFFFFFF01
:101FF000FFFFFFFFFF00000C000100000000004495
:10200000656661756C74204D4153544552535B5D58
:1020100020202000696E742E454550524F4D20619E
:102020006464722000434C454152494E4720574951
:102030005448204E554C4C20202000696E742E458B
:102040004550524F4D206164647220000100000031
:102050000001000101000000000100020003010076
:10206000057F010200057F020300057F03040005D0
:102070007F040001010000000000004465666175F6
:102080006C7420535953434F4E4649475B5D2000C3
:102090006578742E454550524F4D2070616765201C
:1020A00000494E495449414C495345205526415217
:1020B0005026534551006578742E454550524F4D7A
:1020C00020706167652000494E495449414C49538D
:1020D0004520544F4E4520202020202000696E745A
:1020E0002E454550524F4D20616464722000434C90
:1020F000454152494E47205749544820307866663A
:10210000202020006578742E454550524F4D207098
:102110006167652000434C454152494E472057496D
:102120005448203078666620202000436865636B41
:102130005F457874454550524F4D5F466F726D61F3
:10214000742829202F206D6973736D617463682072
:102150002100436865636B5F457874454550524F75
:102160004D5F466F726D61742829202F206D617458
:1021700063682021006D656D5F32202F20006D6542
:102180006D5F30202F20004E6F7465204F66660013
:102190002F6368616E6E656C203D200020002F76F5
:1021A000656C6F203D200020002F706974636820EB
:1021B0003D200020006E6F74654F6666206E62726F
:1021C00000706C61796564206E6F74654F6666207F
:1021D0003A20002F6368616E6E656C203D20002000
:1021E000002F76656C6F203D200020002F706974F1
:1021F0006368203D200020006E6F74654F6E2020C4
:102200006E627200706C61796564206E6F74654FE8
:102210006E203A20004E6F7465204F6E0053797324
:1022200074656D2072656365697665642020202081
:10223000004D6173746572207265636569766564CB
:10224000202020202000456469744275666665720E
:102250002072656365697665642000506174636807
:10226000207265636569766564203A200042616E7C
:102270006B207265636569766564202120202020CB
:1022800000524D50204D4F44204D545258202D2D7A
:102290002D202D2D2D0052414E444F4D495A453A87
:1022A000202020202020202020200044434F2046B2
:1022B0004C5420454E5620204B4244204C464F0063
:1022C00052414E444F4D495A453A2020202020206B
:1022D0002020202000202000444F0030004D617459
:1022E0007269785F736C6F7420004578706F7274D8
:1022F0002063757272656E7470617463683A002051
:10230000003000536574206E616D6520772F206565
:102310006E636F6465723A004C464F20564341200D
:10232000454E56205052544120524D500044434F88
:1023300020464C5420454E56204B4244204D54528A
:102340005800204F4E004F464600D310CF10CB1000
:10235000C7104C464F204D44452053524345204C16
:102360004147205254470053504400414D50204BA8
:10237000424400414D5020505253004C464F205291
:102380004D5032004C464F20524D5031004F4E20A0
:10239000004F4E20004F4E20004F4E200031202095
:1023A000204F4646204F4646204F464620202020BC
:1023B0002000312020204F4646204F4646204F46E1
:1023C0004620204F46460044434F20424E4420566C
:1023D000494220504F5254202020200044434F2097
:1023E000424E442056494220504F5254204B4244C2
:1023F000004F4E20004F46460053454E442053594F
:1024000053455820200053454E442043434F4E54DB
:10241000524C0046494C54455220465245512020CA
:102420005355535441494E002020202000736E64C0
:102430000056434120414D542056454C3020454ED6
:102440005632004F4E20004F4E20004F4E20004F7E
:102450004E20004F4646204F4646204F46462020FD
:102460004F46462020202000424E4420564942201C
:1024700050525441204B42442020202000E610E1DD
:1024800010DC10D71038112D11221117110C110169
:1024900011F610EB10454E5620545249474745520D
:1024A0004D4F444520204C464F005E1155114C11B4
:1024B0004311454E5620444C5920414D5020524521
:1024C0004C2D4D4F4445004556332041544B20443C
:1024D000454320205355532052454C004F4E200079
:1024E0004F46460082117911701167114B455942D0
:1024F0002D4D4F444520554E492E4C454741544F94
:1025000000A9119F1195118B11504F5254414D4FFD
:102510004445202056454C4F2052415445005452CA
:1025200041434B47454E2D494E5055543A20007C6F
:1025300000CB11C311BB11B311524D502053504465
:10254000205452474D4F44457C5447494E00F312A6
:10255000EA12E112D812CF12C612BD12B412AB1297
:10256000A2129912901287127E1275126C126312C7
:102570005A12511248123F1236122D1224121B12F7
:10258000121209120012F711EE11E511DC11D3112C
:1025900060135B13561351134C13471342133D132F
:1025A000381333132E13291324131F131A1315135F
:1025B00010130B1306130113FC1242532053524302
:1025C00020204445535420202020414D4E54004E9D
:1025D0004F5200494E560045787420496E74204988
:1025E0006E6974205379732000464F524D41542038
:1025F000454550524F4D203A2020454E43005379D7
:1026000073204D737420416C6C0042616E6B00440A
:10261000554D50204354524C52204D454D4F525928
:10262000203A20006E6F6E65003244756F00517560
:102630006172005472696F0044756F2000536F6CB3
:102640006F00434647203A2047526F75502028704C
:1026500061676520342900202E2000202A20006F89
:102660006666006F6E2000202E2000202A20005574
:102670004B4E006D54670054726700733234004D46
:10268000696400494E5400434C4B205A4F4E204C35
:102690004F4320204A54522058434300443A526149
:1026A0006E6765202072434820744348205472703E
:1026B00000433A52616E676520207243482074439C
:1026C000482054727000423A52616E676520207251
:1026D0004348207443482054727000413A52616E5E
:1026E000676520207243482074434820547270006C
:1026F000202E2000202A20005064312050643220F7
:10270000204C7631204C763220456E61004D314BA5
:10271000004D3620004D314B004D3620004D314BE1
:10272000004D3620004D314B004D362000434820EF
:1027300020413A2020423A202020433A2020443AA7
:102740002000536E64006D1369136513414D5020D2
:102750004D4F4420414D4E5420424E442047424C60
:102760000047657400851381137D13791375137108
:102770001391138D138913535044204D4F4420411E
:102780004D4E54205741562047424C005649422056
:102790004D4944204D4953432047525020444D5009
:1027A00000434F4E4649475552453A2020202020AD
:1027B0002020202020004F4245524845494D030C1F
:1027C000000003030C00000303001F0100010000D0
:1027D0007F000000003F0000000000000000031F19
:1027E0000000000000031F0000003F000A3F00003F
:1027F0000000003F3F0A3F00000000003F000A3F8A
:10280000000004010F1E2E3F1F00320000000000D8
:1028100001003F3F00000000000000000000000039
:1028200000000000000000000000000000000000A8
:102830000000000000000000000000003C643C803C
:102840003B643B8039643980376437803564358038
:10285000346434803264328030640000306430800C
:102860003264328034643480356435803764378034
:10287000396439803B643B803C64000030643080C4
:102880003264328034643480356435803764378014
:10289000396439803B643B803C6400003C643C808C
:1028A0003B643B80396439803764378035643580D8
:1028B00034643480326432803064000030502950F7
:1028C000295030502950295031502950305029502A
:1028D0002950305029502950315029502E5027501E
:1028E00027502E50275027502F5027502E5027501A
:1028F00027502E50275027502F50275043353C80CB
:102900003E323C8041273C80432D3C8041313C801D
:102910003E333C803C373C803E323C8043353C80FB
:102920003E323C8041273C80432D3C8041313C80FD
:102930003E333C803C373C803E323C803C683C80AF
:102940003E523E8041564180436843803E680000CD
:102950000000324A0000000000003E4A3C683C8013
:102960003E523E8041564180436843803E680000AD
:102970000000324A0000000000003E4A3039303486
:1029800030363037373E373E3A363A3730393034E2
:1029900030363037373E373E3A363A3735393534C8
:1029A000353635373C3E3C3E3F363F373739373496
:1029B000373637373E3E3E3E413641373741373B6B
:1029C0003531352A373337323535353637393740B3
:1029D0003543372E00000000000000003A2E3A294F
:1029E000373B37393A370000000000003C293C2EC5
:1029F0003A223A273C4300000000000024502450B3
:102A000024612450245024503061305024502450EC
:102A100024502450305030613050305024502450D5
:102A200024612450245024503061305024502450CC
:102A3000245024503050306130503050000000009D
:102A40000000000000000000000000000000000086
:102A50000000000000000000000000000000000076
:102A60000000000000000000000000000000000066
:102A70000000000000000000000000000000000056
:102A80000000000000000000000000000000000046
:102A90000000000000000000000000000000000036
:102AA0000000000000000000000000000000000026
:102AB00000000000000000000000000041727020D3
:102AC00026205365712073617665642021202020C3
:102AD00000456469744275666665722C20556E699E
:102AE000736F6E2C200050617463682073746F7272
:102AF000656420696E204D617472780034783234D8
:102B00004C4335313220696E6974696C6961736553
:102B10006400696E7465726E20454550524F4D20B9
:102B2000636C656172656400616C6C2032344C4387
:102B300035313220636C65617265642020006375F5
:102B40007272656E7443686F726473203D20006614
:102B50006175780076726169006C6561726E696E8C
:102B60006743686F7264203D2000202E2000202AD9
:102B70002000206F2000202E2000202A2000206F1F
:102B80002000202E2000202A2000206F20005265E7
:102B9000632020202020200043484F52445320200F
:102BA00020636D3120636D3220636D33002000207F
:102BB0000020002000412F532000532F41200053BC
:102BC00045542053504C5420547241205472532089
:102BD00053455100202E2000202A200020004E6F57
:102BE0002020005965732000202E202000202A205C
:102BF00020002D2D2D20006D546720005472672079
:102C00000073323420004D6964200042504D204151
:102C1000435420544852552047525620484C4400B3
:102C20002020202000200010160B1606160116FC8E
:102C300015F715F215ED15E815E315DE15D915D4C0
:102C400015CF15CA15C515C015BB15B615B115ACF0
:102C500015A715A2159D15981593158E1589158420
:102C6000157F157A15751570156B15661561155C50
:102C700015571552154D15481543153E1539153480
:102C8000152F152A15251520151B15161511150CB0
:102C90001507150215FD14F814F314EE14E914E4E5
:102CA00014DF14DA14D514D014CB14C614C114BC18
:102CB00014B714B214AD14A814A3149E1499149448
:102CC000148F148A14851480147B14761471146C78
:102CD00014671462145D14581453144E14491444A8
:102CE000143F143A14351430142B14261421141CD8
:102CF00014171412140D1408140314FE13F913F40A
:102D000013EF13EA13E513E013DB13D613D113CC3F
:102D100013C713C213BD13B813B313AE13A913A46F
:102D2000139F139A139513546965202000526573FD
:102D3000742000456E640020202000202E202000FA
:102D4000746F676C00202E202000206F2020002050
:102D50000031362F3100382F312000342F31200040
:102D6000322F312000312F312000332F322000311B
:102D70002F322000312F332000312F342000312F0B
:102D8000362000747267200053504420524543207F
:102D9000504C415920522F54205374500078003227
:102DA0004D657300314D657300332F312000322F94
:102DB000312000332F322000312F312000312F32CB
:102DC0002000312F332000312F342000312F3620C6
:102DD00000312F382000312F31320074726720000B
:102DE000313C3C3300446E557000426E6344003108
:102DF0003E3E330052616E64005570446E00426E78
:102E0000636500446F776E0020557020004F726438
:102E1000720054595020444956204D4C545020477C
:102E200041542038766100205379732026204D616B
:102E3000737465727320726561647920002050613B
:102E4000746368203030302D3939392072656164FF
:102E5000792000496E742E454550524F4D20666FC3
:102E6000726D617474656420004578742E45455018
:102E7000524F4D20666F726D61747465642000500E
:102E800041544348207061676535004370797C5038
:102E900073743E2045647420417270205365710044
:102EA000434F50592026205041535445203A20206A
:102EB00020202020005341564500300030006D0096
:102EC000200047657474696E67204D545258204243
:102ED000616E6B200047455420002042616E6B00FC
:102EE0006D42616E6B3A0047455420494E4954206B
:102EF0004F524720454454205341560020002000A3
:102F0000300030004400430042004100504154432F
:102F1000482020000000067814E6000001000001AF
:102F20000000010100013B017E03000603000602D0
:102F3000000A00000505016001010403015F0000B3
:102F40000300000100000100000103012F00002028
:102F500000002100240027002A002D00300033004B
:102F600001010000040107010A0100000A0B020927
:102F70000C0D0E0807030401000000000000000013
:102F80000000000000000000000000000000000041
:102F900000000000000012111000000000000000FE
:102FA0000000000000000000000000000000000021
:102FB000000000040E1F00000000001F0E040000AF
:102FC00002030302020E1E0C1E1E1E1F1E1E1E1ECC
:102FD0001C1C1C1F1C1C1C1C1818181F1818181847
:102FE0001010101F1010101010181C1E1E1C18108E
:102FF0004D6174726978204374726C722000414C88
:10300000504553204D414348494E455320323031BD
:10301000372000436865636B5F496E7445455052C5
:103020004F4D5F466F726D617428292F206D697353
:10303000736D61746368202100436865636B5F4949
:103040006E74454550524F4D5F466F726D617428E6
:10305000292F206D617463682021000100057F0124
:103060000200057F020300057F030400057F04457D
:103070006E64206F6620426F6F742E002D2D2061CC
:103080006C6C206E6F746573206F6666202D2D004A
:10309000726563616C6C2073696C656E74206E6F11
:1030A00074657300726563616C6C20706174636831
:1030B00020636F6E6669672000726563616C6C20C7
:1030C000706174636820636F6E6669670072656320
:1030D000616C6C2073797374656D20636F6E6669C3
:1030E0006700726563616C6C2073797374656D2021
:1030F000636F6E666967002D2D2D20426F6F7420FF
:103100002053797374656D202D2D2D00426F6F74DF
:10311000282920004D6174726978204374726C72A2
:1031200020760044756D70696E67205379737465FD
:103130006D436F6E6669670000002200250028005D
:103140002B002E00310034000201000005010801AF
:103150000B010102102020080810204010204080A0
:10316000020102010804020101020408102040804B
:1031700080402010080402018004020180402010D9
:103180000804020108040201010204081020408022
:1031900001020408102040800000200023002600C7
:1031A00029002C002F00320000010000030106015D
:1031B00009010505050507050808080802020202BD
:1031C0000A0A0808040404040101010101010101C3
:1031D0000303030303030303040707070C0C0C0C8E
:1031E0000C0C0C0C02020202060606060606060677
:1031F0000B0B0B0B0B0B0B0B0298E99711241FBE4B
:10320000CFEFD1E2DEBFCDBF00E00CBF14E0A0E005
:10321000B2E0E8E0F9E501E00BBF02C007900D92D3
:10322000AC3CB107D9F728E1ACECB4E001C01D9289
:10323000A931B207E1F718E1CDEFD8E100E006C00F
:1032400021970109802FFE010E9456AACC3FD10789
:1032500080E00807A9F70E94D99D0C9472AC0C94E9
:103260000000FC0190819923E1F0961730F096134D
:103270001CC08091AF0B87FF18C02091AF0B920F3D
:10328000908380914F0A811103C081E080934F0A9F
:1032900080914F0A8F3F19F48EEF80934F0A81E09F
:1032A00008958091AF0B813041F380E00895FC01D7
:1032B00080819FEF980F9E3320F49091AF0B890F80
:1032C0000CC081110CC09091AF0B913019F4908318
:1032D00081E008959F3F59F48FE78083F9CF8F33C2
:1032E00031F49091AF0B9F3F11F48EE3F6CF9EEB3C
:1032F000980F9D3310F38F3741F48091AF0B8130DD
:1033000011F4108208958158E8CF813431F480910E
:10331000AF0B813021F482E4E0CF87FDCECF80E097
:103320000895FC019081992371F0961730F096135F
:103330000EC08091AF0B87FF0AC02091AF0B920F98
:10334000908381E008958091AF0B8130B1F380E0EC
:1033500008959091F80B9923B1F03091FA0B341342
:1033600012C01092FB0B9091AC0641E09427909311
:10337000AC06109267078093AE066093AF06309359
:10338000B0062093B106089581E08093AB0A0895BA
:1033900081E08093AB0A80918C0B813019F48FEF20
:1033A0008093F30A0895982FEBEFE80FE23708F0C7
:1033B0007AC0F0E08827E052F64E8F4F0C9456AA60
:1033C000811A531A531A691A521A551A571A591A46
:1033D0005B1A5D1A5F1A611A631A651A671AA31AD3
:1033E000A51AA71AA91AAB1AAD1AAF1AB11AB31AAD
:1033F000B51AB71A531A531A9B1A9D1A9F1AA11A73
:10340000831AE71AE91AEB1AB91ABB1ABD1ABF1ABE
:10341000C11AC31AC51AC71AC91ACB1ACD1ACF1A9C
:10342000D11AD31AD51AD71AD91ADB1ADD1ADF1A0C
:10343000E11AE31AE51A531A851A531A531A531A42
:10344000531AED1AEF1AF11AF31AF51AF71AF91AB4
:10345000FB1AFD1AFF1A6D1A711A8B1A991A011BA1
:10346000031B051B071B091B0B1B0D1B0F1B531AF3
:10347000531A111B131B531A531A531A531A531A64
:10348000531A6B1A6F1A731A751A771A791A7B1AEC
:103490007D1A7F1A871A891A8D1A8F1A911A931A10
:1034A000951A971A90E0892F089595E0FCCF93E044
:1034B000FACF97E0F8CF96E0F6CF9AE0F4CF9FE00E
:1034C000F2CF9DE0F0CF91E1EECF90E1ECCF9CE028
:1034D000EACF94E1E8CF98E0E6CF99E0E4CF92E13B
:1034E000E2CF93E1E0CF92E0DECF95E1DCCF98E14F
:1034F000DACF99E1D8CF9AE1D6CF9EE1D4CF9BE144
:10350000D2CF9CE2D0CF9EE2CECF9FE2CCCF90E54F
:10351000CACF96E5C8CF97E5C6CF92E5C4CF93E56D
:10352000C2CF98E5C0CF94E5BECF9AE5BCCF90E678
:10353000BACF91E6B8CF9CE5B6CF9DE5B4CF92E681
:10354000B2CF9EE5B0CF99E3AECF92E3ACCF93E399
:10355000AACF94E3A8CF95E3A6CF96E3A4CF97E3B1
:10356000A2CF9BE3A0CF9AE39ECF93E49CCF9CE3B2
:103570009ACF9DE398CF9EE396CF9FE394CF90E4BC
:1035800092CF91E490CF95E48ECF94E48CCF9DE4DC
:103590008ACF96E488CF97E486CF98E484CF99E4E5
:1035A00082CF9AE480CF9BE47ECF9FE47CCF9EE4E1
:1035B0007ACF91E278CF92E276CF93E274CF94E221
:1035C00072CF95E270CF96E26ECF98E26CCF99E21F
:1035D0006ACF9AE268CF9BE266CF91E064CF94E035
:1035E00062CF9BE060CF9EE05ECF96E15CCF97E13B
:1035F0005ACF9CE158CF9DE156CF98E354CF92E447
:1036000052CF9CE450CF95E54ECF9FE54CCF9DE245
:103610004ACF9FE148CF90E246CF91E544CF9BE56A
:1036200042CF93E640CF90E33ECF0895813091F0B2
:1036300028F08230A1F08330D1F0089588E00E9414
:10364000C9978BE00E94CC9789E00E94CC978AE0D2
:103650000C94CC978BE00E94C99788E0F3CF89E067
:103660000E94C99788E00E94CC978BE0EECF8AE059
:103670000E94C99788E00E94CC978BE00E94CC976B
:1036800089E0E6CF81E08093AB0A80918C0B81309A
:1036900039F488E18093F30A60E086E10C94CF97D7
:1036A00008958091AB06882321F080912702811133
:1036B000C2C08091AB0A882309F4F0C061E08DE0BC
:1036C0000E94CF971092AB0A80916A0761E0811146
:1036D00005C08091DA0C86FF04C060E08EE10E9494
:1036E000CF978091780B61E081110AC08091DA0C4C
:1036F00090E0880F892F881F990B813021F460E0BA
:103700008FE10E94CF978091CF048131A8F1E091A1
:103710008B0B86E8E89FF0011124E05EF74F828969
:103720008430A8F06091D70C661F6627661F81E081
:10373000682787E00E94CF976091D70C62956695C5
:10374000669563706095617086E00E94CF97809166
:10375000F80B811104C08091A60B882359F0609169
:10376000D90C62956695669563706095617086E187
:103770000E94CF971092CF048091CF048F5F8093E7
:10378000CF04E0918B0B96E8E99FF0011124E05EF5
:10379000F74F218D3091CE04822F8250990BAC01CE
:1037A00080E190E002C0959587954A95E2F7381739
:1037B000190671F06CF0223048F06091D70C6295D8
:1037C0006F706095617084E00E94CF971092CE0474
:1037D0008091CE048F5F8093CE049091CD04809130
:1037E0004F0A891718F56091CC0481E0682760932F
:1037F000CC048091A60B882309F459C08091560A05
:10380000811101C061E083E00E94CF978091F80BA5
:1038100060E0882331F080914B0A61E08111609172
:10382000CC048DE10E94CF971092CD048091CD04FD
:103830008F5F8093CD048091AB06882321F0809127
:10384000270281114EC08091D104E0918B0B96E844
:10385000E99FF0011124E05EF74F93A12EE330E0E1
:10386000291B31098217130624F58F5F8093D10439
:103870008091D004E0918B0B96E8E99FF001112430
:10388000E05EF74F92A52EE330E0291B3109821745
:103890001306DCF48F5F8093D00408958091D80CD8
:1038A00085FF12CF60E08DE00E94CF970DCF60E0E2
:1038B000AACF6091DA0C66956695609561708AE191
:1038C0000E94CF971092D104D3CF6091DA0C669505
:1038D00066956695609561708BE10E94CF97109216
:1038E000D0040895CF92DF92EF92FF920F931F932F
:1038F000CF93DF938DEAE82E8AE0F82E10E000E007
:10390000D0E0C0E0680182E1C80ED11CF701EC0FE5
:10391000FD1F6081C6018C0F9D1F0E943B96219662
:10392000C530D10599F785E0E80EF11C0B5F1F4FFC
:103930000431110529F76091AC0A86E290E0DF912D
:10394000CF911F910F91FF90EF90DF90CF900C944B
:103950003B960F931F93CF93DF9300E717E0C4EFDD
:10396000D1E0F80161918F01CE010E943B96219632
:10397000C03AF2E0DF07A9F7DF91CF911F910F91D5
:103980000895823089F018F4813031F00895843040
:1039900091F08530C1F0089540E052E065E070E0BC
:1039A00088E691E10C94EC8540E052E065E070E03F
:1039B00088EF90E1F7CF40E052E065E070E088E802
:1039C00090E10C94D18540E052E065E070E089ED33
:1039D0009EE0F7CF80918B0B811113C08091560A26
:1039E00081110E9408861092560A1092A60B10921E
:1039F000680710924B0A109267071092FB0B109207
:103A0000F80B08956F927F928F929F92AF92BF9220
:103A1000CF92DF92EF92FF920F931F93CF93DF939A
:103A2000782E162FD42FC22F8091A606863010F044
:103A30001092A6068091FA0B8D1332C1CC2309F4A3
:103A40002FC101112DC1EC2EF12CC7018E53954FC2
:103A50005C01FC016081FCE0CF9FD0011124A754E0
:103A6000B54F86E0C89F9001112490E02650304861
:103A7000691791F19F5FF901E90FF11DEE0FFF1F2B
:103A8000EB53F54F492F641302C01296F1CF8C917E
:103A900050815817F0F485278C9311965C911197FB
:103AA0007181572711965C931197508185278083E8
:103AB000518111967C911197572751835C918527ED
:103AC0008C9311968C9111975181852711968C9327
:103AD00011974F5F3296D7CF8DE79BE10E94B88751
:103AE000612C91E0E91AF10886E08E9D40018F9DDE
:103AF000900C1124F5018081681608F049C06AE72E
:103B00007BE188E89DE00E9494876C2F88E89DE027
:103B10000E94208768E77BE188E89DE00E94948707
:103B200066E67BE188E89DE00E949487662D88E840
:103B30009DE00E94208764E67BE188E89DE00E948A
:103B400094876AE57BE188E89DE00E9494876401A0
:103B5000C60CD11CCC0CDD1CC6018B53954F6C01DF
:103B6000FC01608188E89DE00E94208768E57BE198
:103B700088E89DE00E9494876BE47BE188E89DE003
:103B80000E949487F60181810E9444876394B2CF9A
:103B90009CE09E9DD0019F9DB00D1124AB53B54F6D
:103BA0002C919CE3921B99249394980E86E08E9D11
:103BB000F0018F9DF00D1124E90DF11DEE0FFF1F97
:103BC000EB53F54F3297992039F080812C91821B6D
:103BD000891B80839A94F6CF89E19BE10E94B88784
:103BE00086E08E9D60018F9DD00C1124F5018081AF
:103BF000981608F049C066E17BE188E89DE00E94E4
:103C000094876C2F88E89DE00E94208764E17BE127
:103C100088E89DE00E94948762E07BE188E89DE06F
:103C20000E949487692D88E89DE00E94208760E0CB
:103C30007BE188E89DE00E94948766EF7AE188E85E
:103C40009DE00E9494877601E90CF11CEE0CFF1CAC
:103C5000C7018B53954F7C01FC01608188E89DE092
:103C60000E94208764EF7AE188E89DE00E949487B3
:103C700067EE7AE188E89DE00E949487F7018181F0
:103C80000E9444879394B2CF1092A60660EB7AE12B
:103C900088E89DE00E9494878091A6060E94448750
:103CA0008091FA0B8D13A1C0CC2309F49EC0002390
:103CB00009F49BC0CC2ED12CC6010197E091A60639
:103CC00026E0289F7001299FF00C1124EE0DFF2D96
:103CD000F11DEE0FFF1FEB53F54F708211836DEA5C
:103CE0007AE188E89DE00E9494876C2F88E89DE047
:103CF0000E9420876BEA7AE188E89DE00E94948721
:103D000069E97AE188E89DE00E9494876091A606BF
:103D100088E89DE00E94208767E97AE188E89DE0D5
:103D20000E9494876DE87AE188E89DE00E9494877C
:103D3000E091A606EE0DFF2DF11DEE0FFF1FEB53D8
:103D4000F54F608188E89DE00E9420876BE87AE16A
:103D500088E89DE00E9494876EE77AE188E89DE01C
:103D60000E949487E091A606EE0DFF2DF11DEE0F47
:103D7000FF1FEB53F54F81810E9444878091A60677
:103D80008F5F8093A60686010E53154FF80180833E
:103D900063E77AE188E89DE00E9494876C2F88E8C9
:103DA0009DE00E9420876EE67AE188E89DE00E940F
:103DB0009487F80180810E9444876DE57AE188E864
:103DC0009DE00E9494878091A606DF91CF911F917C
:103DD0000F91FF90EF90DF90CF90BF90AF909F90AA
:103DE0008F907F906F900C944487DF91CF911F91BB
:103DF0000F91FF90EF90DF90CF90BF90AF909F908A
:103E00008F907F906F900895CF93DF93C62FD0E06F
:103E1000282F30E0853008F045C094E6899FC00D1A
:103E2000D11D1124BE018CE99EE00E946A8CA9E597
:103E3000BCE0E8E0FDE081918D938DE0E638F80785
:103E4000D1F7BE0189E89EE00E946A8CA1E5BCE042
:103E5000E8E0FDE081918D939DE0E031F907D1F735
:103E60008091100D8093500CA1E1BDE0ECE3FCE0EB
:103E700080E59CE02D9121938E179F07D9F7E5E20D
:103E8000FDE0ACEFBBE081918C93878D11968C9314
:103E9000119712968DE0E534F807A9F781E0DF91DC
:103EA000CF910895C901059724E6289FB001299F65
:103EB000700D1124C60FD71FBE0186E79EE00E9439
:103EC0006A8CA9E5BCE0E8E0FDE081918D939DE07E
:103ED000E638F907D1F7BE0183E69EE00E946A8CBE
:103EE000A1E5BCE0E8E0FDE081918D938DE0E0315B
:103EF000F807D1F78091100D8093500CA1E1BDE03F
:103F0000ECE3FCE08D9181939CE0E035F907D1F77B
:103F1000E5E2FDE0ACEFBBE081918C93878D1196DB
:103F20008C93119712968DE0E534F807A9F7B6CF78
:103F3000CF93C82F862F642F0E94041F21E53CE0F9
:103F400086E8C89FB001112490E080E0EC2FF0E0FB
:103F5000D9014D919D01DC01A60FB71FA05EB74F9F
:103F60004C9301968638910599F78091500C8034D6
:103F700018F08FE38093500CEA5BF84F8091500C5F
:103F80008083ACE3BCE084E1C89FA001112490E0F1
:103F900080E02D91FC01E40FF51FE75AF54F2083D7
:103FA000019684319105A9F7C11110C0ECEFFBE037
:103FB000A7EBBBE080818C93818111968C93119744
:103FC000329612968CE0EC33F807A1F7CF91089562
:103FD000CF93C82F2091FA0B40E06BE780EB0E9453
:103FE000DF84A7EBBBE020E4C29FC001112430E0D6
:103FF00020E0AC01445C574D835C974DFA01E20F21
:10400000F31FE491EC93FC01E20FF31FE49111968E
:10401000EC93119712962E5F3F4F2034310571F7C4
:1040200080914E0C80934A0A80E28093F90B1092A3
:10403000F70BCF910895CF93DF93962FC1E5DCE086
:1040400026E8829FB001112430E020E0E82FF0E064
:10405000D901A60FB71FA05EB74F5C9159932F5F90
:104060003F4F26383105A1F7EA5BF84F20812093B6
:10407000500CACE3BCE024E1829FB001112430E09D
:1040800020E0F901E60FF71FE75AF54F50815D93E5
:104090002F5F3F4F24313105A1F7811110C0E7EBAD
:1040A000FBE0ACEFBBE080818C93818111968C9317
:1040B0001197329612968BE0E73FF807A1F7642F2D
:1040C000892FDF91CF910C94958EEF92FF921F93E1
:1040D000CF93DF93182FEB0181E08093AB0A80919F
:1040E000FA0B81130DC0705EAB01440F452F441FC6
:1040F000550B51954F776F77212F80EE0E94DF840B
:10410000E12EF12C8091FA0B90E00196E816F90669
:1041100071F4BE01705EAB01440F452F441F550B77
:1041200051954F776F77212F80EE0E947A8580918D
:10413000FA0B90E00296E816F90671F4BE01705E83
:10414000AB01440F452F441F550B51954F776F77A7
:10415000212F80EE0E944F858091FA0B90E003960C
:10416000E816F90699F4D05EAE01440F452F441FBE
:10417000550B51954F776C2F6F77212F80EEDF9184
:10418000CF911F91FF90EF900C942485DF91CF91F8
:104190001F91FF90EF900895EF92FF921F93CF939E
:1041A000DF9391E09093AB0A9091AC0A9923B1F020
:1041B0007B01182FCDEADAE08881181304C0B7011B
:1041C0008C810E94652025968AE0C13CD807A1F722
:1041D000DF91CF911F91FF90EF900895DF91CF91E4
:1041E0001F91FF90EF900C9465200F931F93CF9336
:1041F000DF93C82FD62F81E08093AB0A8091FA0B12
:104200008C1305C02C2F40E080ED0E94DF840C2F22
:1042100010E08091FA0B90E001960817190731F42D
:104220002C2F40E06D2F80ED0E947A858091FA0B53
:1042300090E002960817190731F42C2F40E06D2FFB
:1042400080ED0E944F858091FA0B90E0039608174D
:10425000190751F42C2F40E06D2F80EDDF91CF91A5
:104260001F910F910C942485DF91CF911F910F9195
:1042700008950F931F93CF93DF9391E09093AB0A30
:104280009091AC0A9923A9F0062F182FCDEADAE015
:104290008881181304C0602F8C810E94F520259618
:1042A0008AE0C13CD807A1F7DF91CF911F910F9110
:1042B0000895DF91CF911F910F910C94F5208330D9
:1042C000C1F028F4813041F0823061F008958430EB
:1042D000C9F08530F1F008952091FA0B40E080ECB0
:1042E0000C94DF842091FA0B2F5F40E080EC0C945B
:1042F0007A852091FA0B80918B0B280F40E080EC9F
:104300000C94B18F2091FA0B2E5F40E080EC0C945E
:104310004F852091FA0B2D5F40E080EC0C942485B2
:104320008330D1F028F4813041F0823069F0089573
:104330008430C1F08530F1F008952091FA0B462FBA
:104340006EE580EB0C94DF842091FA0B2F5F462FF3
:104350006EE580EB0C947A854091FA0B485F8EE510
:104360000C94E68F2091FA0B2E5F462F6EE580EBC2
:104370000C944F852091FA0B2D5F462F6EE580EB54
:104380000C942485CF93DF93C0E7D7E084EF91E0CE
:104390000E945196899388E0CC31D807B9F7DF9114
:1043A000CF91089589EA94E00C9427878AEF0E94C0
:1043B0009F8F83EB94E00E9427871092A80681E0EC
:1043C0008093EE0A0895CF93811105C08EEB94E09F
:1043D000CF910C943A87C82F803250F46BE28CE96D
:1043E00094E10E9457878C2F90E0CF910C946997AD
:1043F0006DE28CE994E10E945787CF7180E290E0F2
:104400008C1B9109F2CFCF93811105C08EEB94E004
:10441000CF910C943A87C82F803450F46BE28CE92A
:1044200094E10E9457878C2F90E0CF910C9469976C
:104430006DE28CE994E10E945787CF7380E490E0AD
:104440008C1B9109F2CFCF93DF93D82FC62F41E079
:1044500060E08CE994E10E94D893C230B9F090F406
:10446000CC23A1F0C130B9F041E063E08CE994E1E4
:104470000E94D89369E97BE18CE994E1DF91CF91C7
:104480000C949487C33059F0C43071F78D2F90E0AD
:104490000E947B97E9CF8D2F0E94E321E5CF8D2FDE
:1044A0000E940322E1CFCF93DF93D82FC62F80E065
:1044B0000E949897C23071F048F4CC2359F0C13073
:1044C00071F085EADF91CF910C945F97C33059F07A
:1044D000C430B9F78D2F90E00E947B97F2CF8D2FDB
:1044E0000E94E321EECF8D2F0E940322EACF90910C
:1044F000070D992309F4D2C0913059F48091A50693
:104500008F5F8093A506861708F4C8C01092A50691
:1045100008958250883080F4E82FF0E08827EC5628
:10452000FD4D8F4F0C9456AAA422AA22C722DE2248
:10453000ED2222233D2309238091A5068F5F8093DE
:10454000A506861718F708958091A506811134C035
:10455000615040C08091A5069091A406992321F056
:104560008F5F8093A50607C081110FC081E0809303
:10457000A5068093A4068091A50668138FC062509B
:104580006093A5061092A40608958150EACF809109
:10459000A5069091A406992349F06150770B8617E0
:1045A000170681F38F5F8093A5060895811104C0DB
:1045B00081E08093A40608958150F5CF262F2150E5
:1045C000330B032E000C440B550B60E070E0CB0165
:1045D0000E9493866093A50608959091A406809109
:1045E000A5069923A1F08E5F8093A50681E0982708
:1045F0009093A406E091A506F0E0EE0FFF1FEC55A6
:10460000FA4F808181114AC01092A506D1CF815006
:10461000EBCF8091A506E82FF0E0EE0FFF1FEA55E3
:10462000FA4F9081992381F32091A40691E092277B
:10463000211106C08E5F8093A5069093A40608956D
:104640008150F9CF8091A5069091A406992359F045
:1046500091E0980F961718F49093A506089581504D
:104660008093A5068FCF882309F472CF8150809361
:10467000A506882309F49CCF08958091A506909102
:10468000A406992329F08F5F861708F07BCF8BCF84
:1046900081508093A506882309F48ACF08950F934B
:1046A0001F93CF93DF93CDB7DEB7CF58D1090FB6A5
:1046B000F894DEBF0FBECDBF90EF998390E19A834F
:1046C00096E09B8399E09C836D83ACE3BCE0FE01A4
:1046D000319690E02D91322F3F703583322F3295F5
:1046E0003F703683920F32962CE0A035B20791F7D7
:1046F0000CEF1BE061E070E06C0F7D1F605C7F4F92
:10470000FE0131969801D9014C91542F5F7055A745
:10471000542F52955F7056A7940F2E5F3F4F3296DD
:10472000E617F70781F7FE01E25BFF4F41E050E03B
:104730004C0F5D1F43575F4FD80111962C91322FBC
:104740003F703083322F32953F703183920F0E5F6E
:104750001F4F32964E175F0779F79F77C257DF4F8B
:104760009883CE58D04097EFC157DF4F9883CF58EA
:10477000D040833079F180F48130D1F0823011F172
:10478000C157DF4F0FB6F894DEBF0FBECDBFDF912C
:10479000CF911F910F910895843059F1853081F7A1
:1047A000AE014F5F5F4F6FE870E089ED9EE028C07B
:1047B000AE014F5F5F4F6FE870E088E691E10E94C5
:1047C000EC85DECFAE014F5F5F4F6FE870E088EFA2
:1047D00090E1F5CF10918C0B81E080938C0BBE01A2
:1047E0006F5F7F4F8FE890E00E94149010938C0BC6
:1047F000C7CFAE014F5F5F4F6FE870E088E890E190
:104800000E94D185BDCF1F93CF93DF93CDB7DEB785
:10481000C351D1400FB6F894DEBF0FBECDBF90EFAD
:10482000998390E19A8396E09B8391E09C836D83CA
:10483000A1E5BCE0FE01319690E0AF012D91322F51
:104840003F703583322F32953F703683920F329608
:104850002CE0A73DB20791F79F77CE5EDE4F98839D
:10486000C251D14097EFCD5EDE4F9883C351D14006
:10487000833029F178F48130B1F08230D9F0CD5E07
:10488000DE4F0FB6F894DEBF0FBECDBFDF91CF91E4
:104890001F910895843001F1853089F763E171E05B
:1048A00089ED9EE01DC063E171E088E691E10E9420
:1048B000EC85E5CF63E171E088EF90E1F8CF1091EE
:1048C0008C0B81E080938C0BBA0183E191E00E9414
:1048D000149010938C0BD3CF63E171E088E890E1E2
:1048E0000E94D185CCCF6F927F928F929F92AF9290
:1048F000BF92CF92DF92EF92FF920F931F93CF93CD
:10490000DF9300D000D000D0CDB7DEB7182FD62E61
:10491000C0908C0B81E080938C0B84E6689F7001C3
:10492000112400E080EFB82E90E1A92E26E0922E0F
:1049300038E0832E47EF742E61E08FE00E94CF971E
:10494000402F6D2D80E00E94981F60E08FE00E9454
:10495000CF9741E060E08CE994E10E94D89361E355
:1049600077E18CE994E10E949487C7010E947B97CC
:104970006DE277E18CE994E10E949487133009F4A9
:104980006CC008F05BC0113009F464C061E277E1EB
:10499000123009F45AC0602F812F0E944F23B98230
:1049A000AA829B828C820D838091500C982F9F70DD
:1049B0009E83982F92959F709F838F7788877986A3
:1049C000133009F46FC008F04EC0113009F458C01C
:1049D000123009F45FC0602F812F0E9403240F5F03
:1049E0008FEFE81AF80A043609F0A6CF41E060E03C
:1049F0008CE994E10E94D8936AEF76E18CE994E126
:104A00000E94948760E070E0CB010E946D8FC0929D
:104A10008C0B29960FB6F894DEBF0FBECDBFDF9189
:104A2000CF911F910F91FF90EF90DF90CF90BF90AB
:104A3000AF909F908F907F906F900895143081F089
:104A40006FE077E1153009F0A6CF8CE994E10E9480
:104A50009487A1CF67E277E1F8CF6BE177E1F5CFFB
:104A600065E177E1F2CF143061F1153009F0B3CF91
:104A7000AE014F5F5F4F69E070E089ED9EE028C0B6
:104A8000AE014F5F5F4F69E070E088E691E10E9400
:104A9000EC85A1CFAE014F5F5F4F69E070E088EF1A
:104AA00090E1F5CF60908C0B81E080938C0BBE0180
:104AB0006F5F7F4F89E090E00E94149060928C0BB2
:104AC0008ACFAE014F5F5F4F69E070E088E890E108
:104AD0000E94D18580CF1F93CF93DF93CDB7DEB7F0
:104AE000C351D1400FB6F894DEBF0FBECDBF909139
:104AF0007B0B9923D9F190EF998390E19A8396E00B
:104B00009B8391E09C831D82A1E5BCE0FE01319670
:104B100090E0AF012D91322F3F703583322F3295C7
:104B20003F703683920F32962CE0A73DB20791F783
:104B30009F77CE5EDE4F9883C251D14097EFCD5E16
:104B4000DE4F9883C351D140833069F1B8F481308E
:104B5000F1F0823019F1CD5EDE4F0FB6F894DEBF72
:104B60000FBECDBFDF91CF911F91089590EF998334
:104B700090E19A8396E09B839DE0C4CF843001F15D
:104B8000853049F763E171E089ED9EE01DC063E186
:104B900071E088E691E10E94EC85DDCF63E171E090
:104BA00088EF90E1F8CF10918C0B81E080938C0B13
:104BB000BA0183E191E00E94149010938C0BCBCF4B
:104BC00063E171E088E890E10E94D185C4CF1F9332
:104BD000CF93DF9300D000D0CDB7DEB790EF9983AD
:104BE00090E19A8396E09B839AE09C8397EF9E8363
:104BF0006D83833069F170F48130C1F0823001F14E
:104C000026960FB6F894DEBF0FBECDBFDF91CF91D1
:104C10001F910895843059F1853091F7AE014F5FAF
:104C20005F4F66E070E089ED9EE028C0AE014F5F07
:104C30005F4F66E070E088E691E10E94EC85E0CF8E
:104C4000AE014F5F5F4F66E070E088EF90E1F5CF17
:104C500010918C0B81E080938C0BBE016F5F7F4FB6
:104C600086E090E00E94149010938C0BC9CFAE01A7
:104C70004F5F5F4F66E070E088E890E10E94D18569
:104C8000BFCF1F93CF93DF9300D000D01F92CDB73B
:104C9000DEB790EF998390E19A8396E09B8394E04E
:104CA0009C8391E09D8327EF2F836E83833069F18E
:104CB00070F48130C1F0823001F127960FB6F8947C
:104CC000DEBF0FBECDBFDF91CF911F91089584301D
:104CD00051F1853091F7AE014F5F5F4F67E070E0B3
:104CE00089ED9EE027C0AE014F5F5F4F67E070E047
:104CF00088E691E10E94EC85E0CFAE014F5F5F4F07
:104D000067E070E088EF90E1F5CF10918C0B909305
:104D10008C0BBE016F5F7F4F87E090E00E94149084
:104D200010938C0BCACFAE014F5F5F4F67E070E00E
:104D300088E890E10E94D185C0CF89E296E10E9487
:104D4000B88762EC74E088E89DE00E94BD8668EC5C
:104D500070E080E090E00E94E08D0E94939740E038
:104D600060E08CE994E10E94D89365E176E18CE9FA
:104D700094E10E94948788E19EE00FB6F894A8958C
:104D8000809360000FBE90936000FFCF0F931F933E
:104D9000CF938C01C62FFC0183A161E0C0FF60E0CE
:104DA0000E944489F80184A161E0C1FF60E00E9493
:104DB0004489F80185A161E0C2FF60E00E94448956
:104DC000F80186A161E0C3FF60E0CF911F910F91D0
:104DD0000C944489FC0187A18F3F71F190A59E3FFF
:104DE00051F4662331F060E00E942B8A90E080E06D
:104DF000089561E0F9CF2EEF280F2C3020F024ED3C
:104E0000280F233068F470E0913019F40E94678A0B
:104E1000EDCF2FEF30E0A901461B570BBA01F6CFBB
:104E2000662331F0913031F461E00E944489DECF95
:104E30009923D1F360E0F9CF8DEF9FEF08954F9262
:104E40005F926F927F928F929F92AF92BF92EF92FA
:104E5000FF921F93CF93DF93EC017B01142F88A166
:104E600061E091E0E916F10409F060E00E944489F4
:104E7000612F70E084E0759567958A95E1F7CE0122
:104E80000E94C6268C8C9D8CAE8CBF8C488C598C15
:104E90006A8C7B8C0E94558B641975098609970969
:104EA000681579058A059B05A8F361E08AA10E942F
:104EB000448960E08AA10E94448982E0E816F104F6
:104EC00069F0612F6F70CE010E94C62661E08AA151
:104ED0000E94448960E08AA10E94448990E080E0B9
:104EE000DF91CF911F91FF90EF90BF90AF909F9077
:104EF0008F907F906F905F904F9008958F929F92C8
:104F0000AF92BF92CF92DF92EF92FF920F931F93D7
:104F1000CF93DF93FC0121A12F3F09F495C08B01B2
:104F2000EC01C48CD58CE68CF78C808C918CA28C97
:104F3000B38C0E94558B681979098A099B096C15F5
:104F40007D058E059F05A8F360E08BA10E942B8A4A
:104F500060E08CA10E942B8A60E08DA10E942B8AC8
:104F600060E08EA10E942B8A61E00130110509F0FA
:104F700060E088A10E94448961E089A10E9444897F
:104F800061E08AA10E9444898BA10E941B8910E1E3
:104F9000019709F010E08CA10E941B89019709F488
:104FA00010628DA10E941B89019709F410648EA1E3
:104FB0000E941B89019709F4106860E08AA10E9491
:104FC000448961E08AA10E9444898BA10E941B89C7
:104FD000019709F411608CA10E941B89019709F4C3
:104FE00012608DA10E941B89019709F414608EA1A3
:104FF0000E941B89019709F4186060E08AA10E9451
:10500000448961E08BA10E942B8A61E08CA10E94FF
:105010002B8A61E08DA10E942B8A61E08EA10E9403
:105020002B8A60E089A10E944489812F90E0DF9162
:10503000CF911F910F91FF90EF90DF90CF90BF9095
:10504000AF909F908F9008958DEF9FEFF0CFEF92EC
:10505000FF921F93CF93DF93EC0161E088A10E9440
:105060002B8A89A18F3F39F061E00E942B8A60E092
:1050700089A10E94448961E08AA10E942B8A60E094
:105080008AA10E94448961E08BA10E942B8A61E081
:105090008CA10E942B8A61E08DA10E942B8A61E085
:1050A0008EA10E942B8A1FA11F3F61F188A581302C
:1050B00029F560E0812F0E94448960E0812F0E94E1
:1050C0002B8A61E0812F0E942B8A61E0812F0E9450
:1050D00044898FE090E00197F1F7812F0E941B89AE
:1050E0007C0160E0812F0E94448960E0812F0E9452
:1050F0002B8AEA94EF2811F08EEF88A761E08FA148
:105100000E942B8A90E080E0DF91CF911F91FF9069
:10511000EF900895EF92FF920F931F93CF93DF9339
:1051200000D000D0CDB7DEB78091AB0B823009F450
:1051300024C290F4882391F1813009F45FC126964E
:105140000FB6F894DEBF0FBECDBFDF91CF911F9198
:105150000F91FF90EF900895833009F4EDC28430F1
:1051600071F784E10E94C99785E10E94CC9787E19D
:105170000E94CC97EE24E39400E020E040E060E061
:1051800080E00E94A4970E94939740E060E08CE941
:1051900094E10E94D8936FE77EE2A8C084E10E9468
:1051A000C99785E10E94CC978EE00E94CC978FE052
:1051B0000E94CC9780E10E94CC9781E10E94CC971D
:1051C00082E10E94CC9783E10E94C99787E10E9407
:1051D000CC9740E060E08CE994E10E94D8936CE0C9
:1051E0007FE28CE994E10E94948780918B0B81305F
:1051F00009F488C008F47FC0823009F486C0833087
:1052000009F486C00E94618F00915F0E1091600EBC
:105210002091610E3091620E601B710B820B930B1B
:10522000643671058105910508F075C08091490AC1
:1052300090E00E9464978091480A90E00E946997EC
:105240008091480A8A30A0F440E069E08CE994E15A
:105250000E94D89362E07FE2CE0101960E944E86C2
:10526000CE0101960E945697CE0101960E94468675
:1052700040E06BE08CE994E10E94D8930E94618F3A
:1052800000915F0E1091600E2091610E3091620EC0
:10529000601B710B820B930B6436710581059105C0
:1052A00008F077C06EEF7EE2CE0101960E944E8636
:1052B000CE0101960E945697CE0101960E94468625
:1052C00008E31AE090E4E92E9AE0F92EF8018191C2
:1052D0008F010E945F97E016F106C1F741E060E0A0
:1052E0008CE994E10E94D89367EE7EE28CE994E128
:1052F0000E94948724CF6AE07FE28CE994E10E94C7
:10530000948780CF68E07FE2F8CF66E07FE2F5CF58
:1053100064E07FE2F2CFE0918B0BF0E0EC5BF54FC5
:10532000808190E00E946497E0918B0BF0E0E05C5C
:10533000F54F808190E00E946997E0918B0BF0E03F
:10534000E05CF54F80818A30A0F440E069E08CE9B0
:1053500094E10E94D89360E07FE2CE0101960E9422
:105360004E86CE0101960E945697CE0101960E946C
:10537000468680918B0B90E0FC01EC5BF54F208121
:105380002093490A805C954FFC0180818093480AF4
:105390006FCF6CEF7EE2CE0101960E944E86CE0169
:1053A00001960E945697CE0101960E94468610E013
:1053B00000E086E8F82E80918B0B90E0F89EF001DB
:1053C000F99EF00D1124E05EF74FE00FF11F2081F0
:1053D000203210F4205C2083F89EF001F99EF00D3D
:1053E0001124E05EF74FE00FF11F80810E945F976C
:1053F0000F5F1F4F08301105F1F670CF84E10E9456
:10540000C99785E10E94CC978EE00E94CC978FE0EF
:105410000E94CC9780E10E94C99781E10E94CC97BD
:1054200082E10E94CC9783E10E94C99787E10E94A4
:10543000CC970E94939740E060E08CE994E10E9451
:10544000D89360EE7EE2CE0101960E944E86CE0198
:1054500001960E945697CE0101960E944686809141
:105460001F0890E00E94649740E068E08CE994E1B6
:105470000E94D8938FEF90E00E9464948FEF90E0A9
:105480000E94649460E08CE994E10E94409440E0C2
:105490006CE08CE994E10E94D8936AED7EE2CE0143
:1054A00001960E944E86CE0101960E945697CE012B
:1054B00001960E944686E0918B0BF0E0EC5BF54F85
:1054C000808190E00E94699741E060E08CE994E17E
:1054D0000E94D89366E08CE994E10E94409441E0F8
:1054E00064E08CE994E10E94D89367E08CE994E150
:1054F0000E94409441E06AE08CE994E10E94D893D4
:1055000065ED7EE2CE0101960E944E86CE010196A7
:105510000E945697CE0101960E94468641E060E1C6
:105520008CE994E10E94D89366E08CE994E10E94B2
:10553000409441E063E18CE994E10E94D89367E0F4
:105540008CE994E10E94409480911E08882309F41C
:10555000F6CD41E060E08CE994E10E94D89362ECE2
:105560007EE28CE994E10E94948780911F0890E08C
:105570000E94649760EC7EE2B9CE84E10E94C997F4
:1055800085E10E94CC978EE00E94CC978FE00E942C
:10559000CC9780E10E94C99781E10E94CC9782E17B
:1055A0000E94CC9783E10E94C99787E10E94CC9723
:1055B0000E94939740E061E08CE994E10E94D893C7
:1055C0006EEB7EE2CE0101960E944E86CE010196E0
:1055D0000E945697CE0101960E9446868091EB0A62
:1055E00090E00E9464978091EC0A90E00E94699795
:1055F0008091EC0A8A30A0F440E063E08CE994E109
:105600000E94D8936CEB7EE2CE0101960E944E86FA
:10561000CE0101960E945697CE0101960E944686C1
:1056200040E066E08CE994E10E94D89301E51CE03B
:10563000F8018081803210F4805C8083F8018191D0
:105640008F010E945F97FCE009351F0789F740E052
:105650006FE08CE994E10E94D893E0918B0BF0E02D
:10566000EC5BF54F808190E00E946497E0918B0B9A
:10567000F0E0E05CF54F808190E00E946997E09156
:105680008B0BF0E0E05CF54F80818A30A0F440E0C5
:1056900060E18CE994E10E94D8936AEB7EE2CE014E
:1056A00001960E944E86CE0101960E945697CE0129
:1056B00001960E94468641E061E08CE994E10E94F7
:1056C000D89366E08CE994E10E94409441E065E063
:1056D0008CE994E10E94D89367E08CE994E10E9400
:1056E000409441E068E08CE994E10E94D89365EB36
:1056F0007EE2CE0101960E944E86CE0101960E9466
:105700005697CE0101960E94468641E06EE08CE9F4
:1057100094E10E94D89366E08CE994E10E94409461
:1057200041E062E18CE994E10E94D89367E08CE962
:1057300094E10E94409403CD84E10E94C99783E1E3
:105740000E94C99785E10E94CC970E94939740E000
:1057500060E08CE994E10E94D89360EA7EE28CE9F3
:1057600094E10E94948741E060E08CE994E10E941A
:10577000D8936BE87EE28CE994E10E949487609173
:105780001D088EE00E94CF9760911C088FE00E9458
:10579000CF97D5CCEF920F938091A70B9091A80B48
:1057A000079761F48091AB0B823009F4F7C248F49B
:1057B000882309F4A4C0813009F499C10F91EF90B6
:1057C0000895833009F4A1C38430C1F784E10E94B5
:1057D000CC9785E10E94CC9786E10E94C997E12C85
:1057E00000E020E040E060E080E00E94A49780912B
:1057F000AD0B882371F00E94939740E060E08CE944
:1058000094E10E94D89368E97BE28CE994E10E94DC
:10581000948741E060E08CE994E10E94D8936EE8BF
:105820007BE28CE994E10E94948741E069E08CE995
:1058300094E10E94D8938091630762E87BE2813013
:1058400041F48091C10A6AE87BE2811102C066E8F6
:105850007BE28CE994E10E94948741E06DE08CE961
:1058600094E10E94D8938091630766E77BE28230DF
:1058700041F48091C10A6EE77BE2811102C06AE7C0
:105880007BE28CE994E10E94948741E061E18CE93C
:1058900094E10E94D893809163076AE67BE28330AB
:1058A00041F48091C10A62E77BE2811102C06EE699
:1058B0007BE28CE994E10E94948769E57BE288E8C9
:1058C0009DE00E9494878091C10A882321F084E59D
:1058D0009BE20E94B8878091C10A811104C08FE4C5
:1058E0009BE20E94B8876EE37BE288E89DE00E941D
:1058F0009487809163070F91EF900C94448784E123
:105900000E94CC9785E10E94CC9786E10E94C997BE
:1059100083E10E94C9978091AD0B882371F00E94AA
:10592000939740E060E08CE994E10E94D89362E1B3
:105930007EE28CE994E10E94948741E060E08CE98A
:1059400094E10E94D8932091500A822F90E02A304F
:1059500008F04DC0FC018827EF54F34D8F4F0C9495
:1059600056AABB2CDC2CDF2CE22CE52CE82CEB2CF3
:10597000EE2CF12CF42C6DE07EE28CE994E10E9497
:10598000948741E064E08CE994E10E94D89380918F
:105990004F0A8B3009F498C0C0F5823009F48BC0EF
:1059A00048F5882309F484C066ED7DE28130C9F1B1
:1059B00090E00E947B9739C068E07EE2DECF63E032
:1059C0007EE2DBCF6EEF7DE2D8CF69EF7DE2D5CF0F
:1059D00064EF7DE2D2CF6FEE7DE2CFCF6AEE7DE263
:1059E000CCCF65EE7DE2C9CF60EE7DE2C6CF0E94EE
:1059F0006997C7CF853009F461C0873009F461C069
:105A00008330B1F66CEC7DE20CC08F3209F462C0D9
:105A100008F044C0873109F45AC063EB7DE2833259
:105A200039F68CE994E10E94948741E069E08CE9C1
:105A300094E10E94D8936DE97DE28CE994E10E94A3
:105A4000948780914E0A90E00E94649780914E0A5C
:105A5000823008F448C080E10E94C99741E06DE0BF
:105A60008CE994E10E94D89380914D0A90E00E94C5
:105A7000699741E062E18CE994E10E94D8938091BA
:105A80004C0A90E00E94649780914C0A882309F4A4
:105A900037C282E10F91EF900C94C9978F35E9F0EE
:105AA0008F3BF1F0873409F083CF69EA7DE2B9CF0B
:105AB0006BED7DE2B6CF61ED7DE2B3CF67EC7DE2C9
:105AC000B0CF62EC7DE2ADCF6DEB7DE2AACF68EBAB
:105AD0007DE2A7CF6EEA7DE2A4CF64EA7DE2A1CFAA
